:100000000C94BD060C9401070C9401070C94010795
:100010000C9401070C9401070C9401070C94010740
:100020000C9401070C9401070C941C100C94EE1016
:100030000C944A200C9401070C9401070C940107BE
:100040000C9401070C94042D0C9401070C940107E7
:100050000C9401070C94BD200C9401070C9401072B
:100060000C9401070C9401070C9401070C940107F0
:100070000C9401070C9401070C9401070C940107E0
:100080000C9401070C9401070C9401070C940107D0
:100090000C9401070C9401070C9401070C940107C0
:1000A0000C9401070C9401070C9401074E116E117A
:1000B00026126E112612B011D3112612F511081254
:1000C0006215621590159015EC1528168D188D186F
:1000D00040168D1837173717F31707188D187B1828
:1000E000016202620162026200017D027D00F1A6EE
:1000F00000D100D200D0E4A7E4A403F102F100F0A3
:1001000004F0E8A507F001F101F201F301F4018C1C
:10011000028C048C03F202F2351E1F2021222324BC
:100120002526272D2E2A2B141A0815171C180C12F9
:10013000132F303139041607090A0B0D0E0F333413
:100140000028E1001D1B061905111036373800E59F
:10015000E0E3E200002C00000000C0E765E4C81EF8
:100160001F20212223242526272D2E2A2B141A086E
:1001700015171C180C12132F303139041607090AF1
:100180000B0D0E0F33340028E1001D1B061905115D
:100190001036373800E5E0E3E200002C00000000F4
:1001A000E6C065E4C81E1F20212223242526272D12
:1001B0002EC92B141A0815171C180C12132F3031C6
:1001C000C0041607090A0B0D0E0F33340028E10096
:1001D0001D1B061905111036373800E5E0CAC500A9
:1001E000002C00000000C0E665E4C81E1F2021228C
:1001F00023242526272D2EC92B141A0815171C1861
:100200000C12132F3031C0041607090A0B0D0E0F04
:1002100033340028E1001D1B06190511103637384C
:1002200000E5E0E3C400002C00000000C0E665E447
:10023000010101010101010101010101014C01C69E
:10024000C701010101014B0101010101C0010101CF
:100250000101014A4E4D01010001010001010101AE
:1002600001010101010100010101C50000010000BF
:10027000000001010101220101010101010101014F
:10028000010101010101010101010101010101015E
:100290000101C00101010101010101010101000190
:1002A0000100010101CB010101010101000101CAAD
:1002B000010000010000000001010101353A3B3C52
:1002C0003D3E3F4041424344454C39D0D1D20101EB
:1002D000014BCC4E46014901C001010101014ACE4A
:1002E000CDCF4D0100010100C1C2C3C60101014BC8
:1002F0004E010001010101000001000000000101A8
:100300000101010101010101010101010101014C92
:1003100001D3D401010101014B0101010101C0011F
:1003200001010101014A4E4D0101000101000101DD
:10033000010101010101010100010101C4000001ED
:100340000000000001010101C5C6C7C8010101018B
:1003500001010101010101C5C80101010101010102
:1003600001010101010101C70101010101010101B7
:10037000000101000101C6010101010101010001AB
:1003800001010100000100000000010101010A005B
:100390002530313662003A200025303258000A728A
:1003A0002F632030313233343536373839414243C8
:1003B0004445460A000A002530325800626F756EC7
:1003C0006365213A2000001080FF012300200122F4
:1003D000022201225B735D004B6579626F6172647A
:1003E0002073746172742E0A0055534220636F6E3D
:1003F000666967757265642E0A005B575D005B5322
:100400005D005B525D005B445D005B435D000A0084
:100410002530325820006B6579626F6172645F72BB
:1004200065706F72743A20004C45443A2025303292
:10043000580A0064656C5F6B65795F6269743A2085
:1004400063616E27742064656C3A20253032580A47
:10045000006164645F6B65795F6269743A2063610F
:100460006E2774206164643A20253032580A006493
:100470006F6E652E0A00626F6F746D61676963202D
:100480007363616E3A202E2E2E2000290A002575F6
:10049000002F002575005D280025640020002564DC
:1004A00000200025640020002564007C00253032F7
:1004B00058006D6F7573656B6579205B62746E7C37
:1004C000782079207620685D287265702F61636CD2
:1004D000293A205B006D6B5F776865656C5F7469B6
:1004E0006D655F746F5F6D6178203D2025640A0043
:1004F0006D6B5F776865656C5F6D61785F73706564
:100500006564203D2025640A006D6B5F74696D652C
:100510005F746F5F6D6178203D2025640A006D6B0C
:100520005F6D61785F7370656564203D2025640AA6
:10053000006D6B5F696E74657276616C203D20257D
:10054000640A006D6B5F64656C6179203D202564F1
:100550000A006D6B5F776865656C5F74696D655FD8
:10056000746F5F6D6178203D2025640A006D6B5FBC
:10057000776865656C5F6D61785F73706565642031
:100580003D2025640A006D6B5F74696D655F746F53
:100590005F6D6178203D2025640A006D6B5F6D61A1
:1005A000785F7370656564203D2025640A006D6B7B
:1005B0005F696E74657276616C203D2025640A0067
:1005C0006D6B5F64656C6179203D2025640A000ACB
:1005D00000257500363A20776865656C5F74696D33
:1005E000655F746F5F6D61783A20000A00257500C1
:1005F000353A20776865656C5F6D61785F7370650B
:1006000065643A20000A00257500343A2074696D4B
:10061000655F746F5F6D61783A20000A0025750090
:10062000333A206D61785F73706565643A20000A23
:1006300000257500323A20696E74657276616C2807
:100640006D73293A20000A00257500313A2064654F
:100650006C6179282A31306D73293A20000A092DFE
:100660002056616C756573202D0A004D3E004D25A6
:10067000643E20003F007365742064656661756C9C
:10068000740A00433E200077686572652064656CDB
:1006900074613A20637572736F723D25642C207704
:1006A0006865656C3D25640A5365652068747470DF
:1006B0003A2F2F656E2E77696B6970656469612EBC
:1006C0006F72672F77696B692F4D6F7573655F6BFD
:1006D0006579730A000A092D204D6F7573656B6586
:1006E00079202D0A4553432F713A09717569740AAF
:1006F000313A0964656C6179282A31306D73290AB1
:10070000323A09696E74657276616C286D73290AD4
:10071000333A096D61785F73706565640A343A092C
:1007200074696D655F746F5F6D61780A353A09773A
:100730006865656C5F6D61785F73706565640A36C6
:100740003A09776865656C5F74696D655F746F5FA2
:100750006D61780A0A703A097072696E7420766168
:100760006C7565730A643A09736574206465666123
:10077000756C74730A75703A092B310A646F776E61
:100780003A092D310A706775703A092B31300A70B9
:1007900067646F776E3A092D31300A0A73706565A8
:1007A00064203D2064656C7461202A206D61785F4F
:1007B0007370656564202A202872657065617420F5
:1007C0002F2074696D655F746F5F6D6178290A0011
:1007D0003F004D3E2000433E20004C25640A000AA5
:1007E000092D20436F6E736F6C65202D0A455343AE
:1007F0002F713A09717569740A6D3A096D6F7573D5
:10080000656B65790A000A092D204D6167696320CF
:100810002D0A643A0964656275670A783A09646565
:10082000627567206D61747269780A6B3A09646554
:10083000627567206B6579626F6172640A6D3A094F
:100840006465627567206D6F7573650A763A09761F
:10085000657273696F6E0A733A09737461747573A4
:100860000A633A09636F6E736F6C65206D6F646520
:100870000A302D343A096C61796572302D3428467E
:1008800031302D4634290A506175733A09626F6F11
:10089000746C6F616465720A653A09656570726FA0
:1008A0006D0A6E3A094E4B524F0A000A0025750038
:1008B0002E6C6576656C3A20000A002575002E6561
:1008C0006E61626C653A20000A0025303258006281
:1008D00061636B6C696768745F636F6E6669672ECE
:1008E0007261773A20000A002575002E6E6B726FD8
:1008F0003A20000A002575002E737761705F6261EF
:10090000636B736C6173685F6261636B7370616367
:10091000653A20000A002575002E737761705F67C5
:10092000726176655F6573633A20000A0025750081
:100930002E6E6F5F6775693A20000A002575002EDC
:10094000737761705F72616C745F726775693A206A
:10095000000A002575002E737761705F6C616C74FE
:100960005F6C6775693A20000A002575002E636187
:1009700070736C6F636B5F746F5F636F6E74726FB5
:100980006C3A20000A002575002E737761705F6352
:100990006F6E74726F6C5F636170736C6F636B3AD0
:1009A00020000A0025303258006B65796D61705F58
:1009B000636F6E6669672E7261773A20000A0025C0
:1009C00075002E6D6F7573653A20000A002575005D
:1009D0002E6B6579626F6172643A20000A0025759A
:1009E000002E6D61747269783A20000A0025750046
:1009F0002E656E61626C653A20000A00253032581F
:100A00000064656275675F636F6E6669672E726109
:100A1000773A20000A0025750064656661756C747C
:100A20005F6C617965723A20003F004E4B524F3A3D
:100A3000206F66660A004E4B524F3A206F6E0A00D6
:100A400074696D65725F72656164333228293A207A
:100A50002530346C580A006B6579626F6172645F8F
:100A60006E6B726F3A2025580A006B6579626F6170
:100A700072645F69646C653A2025580A006B657979
:100A8000626F6172645F70726F746F636F6C3A2033
:100A900025580A00686F73745F6B6579626F6172C5
:100AA000645F6C65647328293A2025580A000A0996
:100AB0002D20537461747573202D0A004743433A07
:100AC00020342E382E31204156522D4C4942433A83
:100AD00020312E382E3073766E204156525F4152AF
:100AE00043483A20617672350A004F5054494F4EC0
:100AF000533A204C55464120424F4F544D414749AF
:100B000043204D4F5553454B45592045585452416C
:100B10004B455920434F4E534F4C4520434F4D4D6D
:100B2000414E44204E4B524F204C45444D415020A5
:100B30004C45444D41505F494E5F454550524F4DE5
:100B4000204241434B4C4947485420534F46545050
:100B5000574D5F4C454420425245415448494E4709
:100B60005F4C454420343039360A004255494C44E4
:100B70003A20323336623333322D6469727479200D
:100B80002831363A32323A3235204A616E203131DC
:100B90002032303137290A005649443A203078460D
:100BA000454544286765656B6861636B292050493A
:100BB000443A2030783630363028474836302920BD
:100BC0005645523A203078303030310A004445538F
:100BD000433A20742E6D2E6B2E206B6579626F6107
:100BE0007264206669726D7761726520666F72202B
:100BF000474836300A000A092D2056657273696F1E
:100C00006E202D0A000A6D6F7573653A206F666657
:100C10000A000A6D6F7573653A206F6E0A000A6BE1
:100C20006579626F6172643A206F66660A000A6BCA
:100C30006579626F6172643A206F6E0A000A6D61B5
:100C4000747269783A206F66660A000A6D61747280
:100C500069783A206F6E0A000A64656275673A2007
:100C60006F6E0A000A64656275673A206F66660AED
:100C7000000A0A626F6F746C6F616465722E2E2EAB
:100C80002000433E20006565636F6E6669673A0A1F
:100C9000000000000000000000000001010102024D
:100CA000020303040405050606070808090A0B0BDE
:100CB0000C0D0E0F10111213151617191A1B1D1EED
:100CC0002022232527292B2D2F313335383A3D3F3C
:100CD0004244474A4D505356595C5F6266696C7096
:100CE00074777B7E82868A8E9195999DA1A5A9AD08
:100CF000B0B4B8BCC0C3C7CBCED2D5D8DBDFE2E43A
:100D0000E7EAECEFF1F3F5F7F8FAFBFCFDFEFFFF85
:100D1000FF6261636B6C6967687420737465703A15
:100D20002025750A006261636B6C696768742074C2
:100D30006F67676C653A2025750A006261636B6CAA
:100D40006967687420637573746F6D20646563727E
:100D5000656173653A2025750A006261636B6C6991
:100D600067687420637573746F6D20696E63726554
:100D70006173653A2025750A000011241FBECFEF6C
:100D8000DAE0DEBFCDBF04B603FE24C080910804C4
:100D900090910904A0910A04B0910B048730904B04
:100DA000A740B04BB9F410920804109209041092B5
:100DB0000A0410920B0414BE84B7877F84BF88E1B5
:100DC0000FB6F89480936000109260000FBEE0E0D0
:100DD000F8E3099513E0A0E0B1E0E2E8F5E602C02F
:100DE00005900D92A232B107D9F724E0A2E2B3E058
:100DF00001C01D92A830B207E1F70E94DD0D0C94EE
:100E0000BF320C940000FF93EF93E0912203F09126
:100E10002303309709F00995EF91FF910895FC01A4
:100E20008591803011F0EFDFFBCF0895FF27E0E2DE
:100E300030E247FF0CC0419597FF09C0EDE2609595
:100E4000709580959095611D711D811D911D27FFE5
:100E500002C0219530E350E2AA27660F771F881F52
:100E6000991FAA1FA41710F0A41B63955A95A9F700
:100E7000AA3008F0A95FA05DAF93F39561157105E5
:100E80008105910541F7ED3211F4EF93F395F217D7
:100E900018F43F93F395FBCF8F91B5DFFA95E1F707
:100EA0000895E991F9918591803021F0853219F00A
:100EB000AADFF9CF089520E0E89455915532C1F3A7
:100EC000503311F4689455915A3348F4505390F3C9
:100ED000220F022E220F220F200D250FF4CF0EF429
:100EE000219589919991533619F3533729F1533547
:100EF00059F1BC0188279927E8945C3621F489913F
:100F0000999168945591543639F446EF7EF077FF05
:100F10000DC08FEF9FEF0AC055374AE039F05835C2
:100F200040E121F0523642E009F00895FF93EF933B
:100F30007DDFEF91FF91B7CFFF93EF93FC0181919C
:100F40008030B9F360DFFBCFFF93EF9368DFF1CF21
:100F5000DF93CF93CDB7DEB72596A3DFCF91DF9197
:100F60000895653049F0663071F4FC018281882370
:100F700051F089EE90E00895FC018281882319F0F8
:100F800080EE90E0089580E090E00895CF92DF92A7
:100F9000FF920F931F93CF93DF9300D0CDB7DEB7AF
:100FA0006C014A8369830E947A1F082F4A816981F4
:100FB000413029F0423039F0F12C10E007C0FF2415
:100FC000F39413E003C088E0F82E1AE0F601828162
:100FD000882359F1623079F06330C1F5802F0E9487
:100FE000831F812F0E947D1F8BE20E94F71D0E94AC
:100FF000AE1F812F0CC0802F0E94831F8F2D0E9457
:101000007D1F8BE20E94F71D0E94AE1F8F2D0E9454
:10101000831F802F0F900F90DF91CF911F910F9121
:10102000FF90DF90CF900C947D1F8BE20E94CC1E2E
:10103000812F0E94831F0F900F90DF91CF911F91FE
:101040000F91FF90DF90CF900C94AE1F0F900F90F8
:10105000DF91CF911F910F91FF90DF90CF90089576
:101060000F931F93CF93DF931F92CDB7DEB78C0101
:10107000643040F4623008F09BC0662349F0613070
:10108000B1F19DC0643009F1673009F46FC097C0B9
:10109000FC018281882371F00E947A1F827211F014
:1010A00085E301C089E280932603809126030E9494
:1010B000EB1304C0809126030E94BE140F90DF91B1
:1010C000CF911F910F910C94AE1F0E947A1F8093B5
:1010D0002503F8019281992309F445C0982F917155
:1010E00011F09CE401C09AE29093240332C049833A
:1010F0000E947A1F80932503F801928149819923E8
:1011000091F1982F9171423079F018F4413031F01B
:101110001EC0433079F0443099F019C0992311F082
:101120002BE413C022E511C0992311F02EE40DC069
:1011300021E50BC0992311F02AE407C020E505C082
:10114000992311F02DE401C02FE420932403992367
:1011500029F00E94831F8091240316C080912403EC
:101160000E94F71DABCF809124031FC00E947A1FFD
:1011700080932503F8019281992399F00E94831F9F
:1011800082E00E947D1F89E40E94F71D0E94AE1F2D
:10119000809125030F90DF91CF911F910F910C94B7
:1011A0007D1F82E00E94831F89E40E94CC1E86CFAF
:1011B0000F90DF91CF911F910F910C94C6070F9064
:1011C000DF91CF911F910F9108959EE0799FF001DB
:1011D000112496E4899FE00DF11D1124E60FF11D05
:1011E000E85EFE4F84910895E82FF0E0EE0FFF1FB8
:1011F000E259F0408591949108958AB1807D8AB931
:101200008BB1807D8BB9089580E885BF85BF0E9432
:10121000FD0880B38C7F80BB81B3836081BB6E98F7
:10122000769A8AB18F728AB98BB1806D8BB987B18A
:101230008F7387B988B1806C88B984B1847084B9A0
:1012400085B18B6F85B9E1E3F3E0A7E2B3E01192DA
:1012500011921D921D9283E0EB33F807C1F70895B8
:10126000CF92DF92EF920F931F93CF93DF93C7E25A
:10127000D3E010E001E0A5E0EA2EB7EBCB2EB3E01F
:10128000DB2E123071F018F4113041F004C013302D
:1012900059F0143061F0509A58980BC0519A5998EF
:1012A00008C0529A5A9805C0539A5B9802C0559A42
:1012B0005D9880EA8A95F1F78FB18170802790E080
:1012C000799B03C020E030E002C022E030E0822BB6
:1012D000932B669B03C020E030E002C024E030E0A6
:1012E000822B932B26B1332727FD309520953095FF
:1012F0002227330F221F3327F3E0220F331FFA95E3
:10130000E1F7822B932B369B03C060E070E002C0B4
:1013100060E170E0862B972B1E9B03C060E070E0BD
:1013200002C060E270E0682B792B4C9B03C020E088
:1013300030E002C020E430E0262B372B199B03C09D
:1013400040E050E002C040E850E0422B532B189B95
:101350000DC083B1992787FD90958095909588273A
:10136000990F881F9927982F882702C080E091E065
:10137000842B952B1D9B03C020E030E002C020E0B1
:1013800032E0822B932B1C9B03C020E030E002C094
:1013900020E034E0822B932B29B1332727FD3095B1
:1013A000209530952227330F221F3327322F2227F3
:1013B000330F330F330F822B932B4E9B03C020E050
:1013C00030E002C020E030E1822B932B1B9B03C056
:1013D00020E030E002C020E030E2822B932B288115
:1013E00039812817390741F1998388838091000159
:1013F000882301F18091B80380FF04C08CEB93E057
:101400000E940F078091B80380FF0CC080910001FB
:101410001F928F93DF92CF920E94A8070F900F9098
:101420000F900F908091B80380FF04C085EB93E08C
:101430000E940F07E09200010E94FD081F5F2296A4
:10144000153009F01ECF809100018823C1F0815032
:1014500080930001882339F08FE99FE00197F1F72D
:1014600000C000000CC0A1E3B3E0E7E2F3E081912B
:1014700091918D939D9393E0E133F907C1F781E05A
:10148000DF91CF911F910F91EF90DF90CF90089552
:10149000E82FF0E0EE0FFF1FEF5CFC4F80819181A1
:1014A0000895CF92DF92EF92FF920F931F93CF9305
:1014B000DF938EE993E00E940F0721E3E22E23E001
:1014C000F22EC0E0D0E039E9C32E33E0D32E00E99C
:1014D00013E0DF93CF93DF92CF920E94A80786E9B3
:1014E00093E00E940F07F701819191917F010E9483
:1014F000EB1F9F938F931F930F930E94A8078EE873
:1015000093E00E940F0721968DB79EB708960FB6FD
:10151000F8949EBF0FBE8DBFC530D105D1F6DF91C7
:10152000CF911F910F91FF90EF90DF90CF90089592
:10153000CF93DF93C82F80933B030E944A2CC73080
:1015400088F4C43018F5C130D8F10E94682C0E948C
:10155000C52C0E94FC2CEC2FF0E0EA53FC4FD491F8
:10156000C0E00CC0C730F1F0C83051F50E94682CC3
:101570000E94BF2C0E94FC2C81E01BC06D2F8C2F81
:101580000E947D2CCF5FC530C9F722C00E94682C15
:101590000E94F62C0E94C52C86E08C1BDF91CF9117
:1015A0000C94012D0E94682C0E94BF2C0E94FC2CE0
:1015B00080E00E94DA2C83E0DF91CF910C94E82C3C
:1015C0000E94C52C0E94FC2CDF91CF910C946E2CB4
:1015D000DF91CF9108951F93CF93DF9300D000D078
:1015E0001F92CDB7DEB7162F80913B03873041F4B1
:1015F000662331F080E20E94EB2C80E10E94B12C46
:1016000080913B03883081F4112371F080E20E94C5
:10161000EB2C80E10F900F900F900F900F90DF91C7
:10162000CF911F910C94972C0F900F900F900F90CB
:101630000F90DF91CF911F910895E82FF0E0EE0F0A
:10164000FF1FE653FC4F859194910895229A2A9AA0
:1016500080B3806F80BB81B3806F81BB089582307F
:1016600079F028F4882341F0813041F008958330E7
:1016700049F0843049F008952A9808958E98089585
:101680008F9808958C9808958D980895823079F0F8
:1016900028F4882341F0813041F00895833049F0E7
:1016A000843049F008952A9A08958E9A08958F9A61
:1016B00008958C9A08958D9A089580914F03089506
:1016C0009FB7F89410923E039FBF9091FD03943012
:1016D00009F058C09091E9009F702091EC0020FF24
:1016E00002C020E801C020E0292B94E09093E9009B
:1016F0009091EB0090FF43C09091EE0097FF3FC0A8
:1017000090913C03992321F09091E80095FF37C018
:1017100010923C0396E03091E80035FD15C0309101
:10172000FD03343061F53091EB0035FD28C0915058
:1017300021F481E080933C0322C0EFE9FFE0319780
:10174000F1F700C00000E7CF8093F1008091E8003E
:1017500085FD0AC08091E80080FFFCCF8091E80001
:101760008E778093E80006C08FB7F89491E090934D
:101770003E038FBF2F702093E90080E008952F7003
:101780002093E9008FEF0895CF93DF9300D01F924D
:10179000CDB7DEB72091FD03243019F523E029836E
:1017A0009B838A832093E9008FEF9091E80081501A
:1017B00095FD06C095ED9A95F1F700008111F5CFE2
:1017C0008091E80085FF0DC040E050E063E070E0EC
:1017D000CE0101960E94940E8091E8008E7780934E
:1017E000E8000F900F900F90DF91CF910895CF9365
:1017F000DF9300D01F92CDB7DEB72091FD032430D8
:1018000021F522E029839B838A8383E08093E9008A
:101810008FEF9091E800815095FD06C095ED9A9567
:10182000F1F700008111F5CF8091E80085FF0DC030
:1018300040E050E063E070E0CE0101960E94940E1B
:101840008091E8008E778093E8000F900F900F90C2
:10185000DF91CF9108952091FD032430F1F422E02F
:101860002093E9002FEF3091E800215035FD06C0AC
:1018700035ED3A95F1F700002111F5CF2091E80000
:1018800025FF0BC040E050E065E070E00E94940E40
:101890008091E8008E778093E8000895CF93DF93DE
:1018A000EC018091FD03843009F047C080910B0169
:1018B0008823E1F080910C018823C1F085E08093BA
:1018C000E9008FEF9091E800815095FD06C095E109
:1018D0009A95F1F700008111F5CF8091E80085FF1E
:1018E0002CC040E050E060E170E017C081E08093E0
:1018F000E9008FEF9091E800815095FD06C095EDCD
:101900009A95F1F700008111F5CF8091E80085FFED
:1019100014C040E050E068E070E0CE010E94940EF8
:101920008091E8008E778093E80080E1FE01AFE3CC
:10193000B3E001900D928A95E1F7DF91CF91089580
:101940008AE094E00E940F078091FC03811109C096
:101950000E94A30F0E94FE0F8091E200846080939A
:10196000E200089586E094E00E940F071092FC03C5
:10197000089582E094E00C940F0780913D038F5FFF
:1019800080933D0362E30E945432911135C010925E
:101990003D0380913E03882379F18091FD038430DB
:1019A00049F58091E9008F709091EC0090FF02C0A2
:1019B00090E801C090E0982B84E08093E90080914A
:1019C000EB0080FF14C08091EE0087FF10C0809173
:1019D000E80085FF03C01092F100F9CF8091E80084
:1019E00080FF05C08091E8008E778093E8009F70AB
:1019F0009093E90010923E03089542E061EC81E08B
:101A00000E943E0F42E061EC82E00E943E0F42E005
:101A100061EC83E00E943E0F42E261EC84E00E94B0
:101A20003E0F42E161EC85E00C943E0F8091FF0394
:101A3000833009F455C030F4813071F0823009F4FC
:101A40008EC008958A3009F47AC08B3009F460C0E2
:101A5000893009F09CC020C08091FE03813A09F0D2
:101A600096C08091E800877F8093E800809102040F
:101A700090910304892B21F060E080E090E003C0A6
:101A800060E18FE393E070E00E94DD0E8091E8005A
:101A90008B778093E80008958091FE03813209F0EE
:101AA00076C08091020490910304009719F0049786
:101AB00009F06DC08091E800877F8093E8008091F5
:101AC000E80082FD05C08091FD038111F8CF5FC061
:101AD0008091F10080934F038091E8008B7753C091
:101AE0008091FE03813A09F052C0809102049091E6
:101AF0000304892B09F04BC08091E800877F809315
:101B0000E8008091E80080FFFCCF80910B0136C097
:101B10008091FE038132D9F58091020490910304F3
:101B2000892BA9F58091E800877F8093E8000E94C7
:101B3000520F8091000480930B010C94AE18809199
:101B4000FE03813221F58091E800877F8093E800D1
:101B50000E94520F80910104809350030895809158
:101B6000FE03813AA1F48091E800877F8093E8002A
:101B70008091E80080FFFCCF809150038093F100BA
:101B80008091E8008E778093E8000C94520F0895BE
:101B90000895089508958EEF93E00E940F070C9426
:101BA000CA0D0E9407208091FB03882329F00E9420
:101BB000312081110C947E0E089584B7877F84BFF5
:101BC00088E10FB6F89480936000109260000FBE19
:101BD00090E080E80FB6F8948093610090936100E4
:101BE0000FBE0E94C80D0E94C8120E94A30F0E943F
:101BF000FE0F8091E20084608093E20080E69BE02B
:101C00000E94D41F78948091FD038430E1F789EE1F
:101C100093E00E940F070E94CA1281E091E00E94A7
:101C20003A1288ED93E00E940F070E94C90D80913F
:101C3000FD03853039F484ED93E00E940F070E9484
:101C4000D10DF5CF0E94D812F2CF0C9446208AEF26
:101C500093E00E940F070C94250E292F3327233081
:101C6000310599F05CF421303105D9F1223031058C
:101C7000E9F58DE890E02BE531E03CC021323105FB
:101C800099F022323105E9F031C09927833091056E
:101C900068F5FC01EE0FFF1FEF5CFE4F20813181E4
:101CA000FC01E25DFE4F1AC0653000F5E62FF0E062
:101CB000EE0FFF1FEC5DFE4F2081318189E090E047
:101CC00019C0653098F4E62FF0E0DF01AA0FBB1FC2
:101CD000A65EBE4F2D913C91EB5EFE4F808190E061
:101CE00009C082E190E028EE31E004C080E090E09D
:101CF00020E030E0FA0131832083089580E189BD3E
:101D000082E189BD09B400FEFDCF8091D8008F7DAE
:101D10008093D8008091E00082608093E000809101
:101D2000E00081FDFCCF0895CF92DF92EF92FF9209
:101D30000F931F93CF93DF937C018B01EA010E94E5
:101D4000730F811131C0209731F088819981081B70
:101D5000190BE80EF91EC12CD12C0115110519F132
:101D60008091E80085FD14C08091E8008E77809313
:101D7000E800209741F0888199818C0D9D1D998301
:101D8000888385E011C00E94730F882331F30CC053
:101D9000F70181917F018093F10001501109FFEF5C
:101DA000CF1ADF0ADACF80E0DF91CF911F910F9138
:101DB000FF90EF90DF90CF90089520910404309130
:101DC00005042617370748F06115710539F420918D
:101DD000E8002E772093E80001C0B901FC0120E063
:101DE00061157105B9F18091FD03882309F440C0A4
:101DF000853009F43FC08091E80083FD3DC08091AB
:101E0000E80082FF06C08091E80082FF26C080E0E3
:101E100008958091E80080FFE3CF2091F300809146
:101E2000F20090E0922B6115710551F08830910518
:101E300038F421912093F100615071090196F3CF9C
:101E400021E0089709F020E08091E8008E778093E8
:101E5000E800C6CF2111C7CFD6CF8091FD038823DC
:101E600039F0853039F08091E80083FFCCCF04C091
:101E700082E0089583E0089581E008958F70809353
:101E8000E900EBEEF0E0808181608083EDEEF0E030
:101E900010826093EC0040838091EE00881F8827B9
:101EA000881F08958091FE0387FD05C08091E8009A
:101EB00080FF0EC012C08091E80082FD05C08091B5
:101EC000FD038111F8CF08958091E8008B7708C059
:101ED0008091FD038111EACF08958091E8008E770B
:101EE0008093E80008958091E4009091E50045E634
:101EF0002091EC0020FF21C02091E80020FD21C0AE
:101F00002091FD03222389F0253089F02091EB00F8
:101F100025FD0FC02091E4003091E5002817390716
:101F200039F3415041F0C901E3CF82E0089583E0E5
:101F3000089581E0089584E008952091E80022FF4B
:101F4000DFCF80E008950E940F100E941710E0EE8E
:101F5000F0E0808181608083E8EDF0E080818F7720
:101F6000808319BCA7EDB0E08C918E7F8C9380812B
:101F70008F7E80831092FC0308950F931F93CF935D
:101F8000DF930E940F100E941710C8EDD0E08881E7
:101F90008F77888388818068888388818F7D888314
:101FA00019BC1092FD031092FA031092FB0300EE8D
:101FB00010E0F80180818B7F808388818160888335
:101FC00042E060E080E00E943E0FE1EEF0E08081C0
:101FD0008E7F8083E2EEF0E080818160808380816B
:101FE00088608083F80180818E7F80838881806112
:101FF0008883DF91CF911F910F910895E8EDF0E074
:1020000080818F7E8083E7EDF0E080818160808336
:1020100084E082BF81E08093FC030C94BD0FE8ED67
:10202000F0E080818E7F80831092E200089510920C
:10203000DA001092E10008951F920F920FB60F92EE
:1020400011242F933F934F935F936F937F938F93BD
:102050009F93AF93BF93EF93FF938091E10082FF33
:102060000BC08091E20082FF07C08091E1008B7F6E
:102070008093E1000E94BD0C8091DA0080FF1FC0B8
:102080008091D80080FF1BC08091DA008E7F809302
:10209000DA008091D90080FF0DC080E189BD82E126
:1020A00089BD09B400FEFDCF81E08093FD030E944D
:1020B000A00C05C019BC1092FD030E94B20C8091C7
:1020C000E10080FF19C08091E20080FF15C080917F
:1020D000E2008E7F8093E2008091E2008061809335
:1020E000E2008091D80080628093D80019BC85E01E
:1020F0008093FD030E94CB0D8091E10084FF30C0EE
:102100008091E20084FF2CC080E189BD82E189BD1D
:1021100009B400FEFDCF8091D8008F7D8093D80058
:102120008091E1008F7E8093E1008091E2008F7EBC
:102130008093E2008091E20081608093E2008091D0
:10214000FA03882311F084E007C08091E30087FF41
:1021500002C083E001C081E08093FD030E94270E4E
:102160008091E10083FF29C08091E20083FF25C0B8
:102170008091E100877F8093E10082E08093FD03FE
:102180001092FA038091E1008E7F8093E1008091AC
:10219000E2008E7F8093E2008091E2008061809374
:1021A000E20042E060E080E00E943E0F8091F0009B
:1021B00088608093F0000E94B90CFF91EF91BF916D
:1021C000AF919F918F917F916F915F914F913F91CF
:1021D0002F910F900FBE0F901F9018951F920F9286
:1021E0000FB60F9211242F933F934F935F936F93EA
:1021F0007F938F939F93AF93BF93CF93EF93FF936F
:10220000C091E900CF708091EC001092E9008091BC
:10221000F000877F8093F00078940E942A1110923A
:10222000E9008091F00088608093F000C093E9009D
:10223000FF91EF91CF91BF91AF919F918F917F913E
:102240006F915F914F913F912F910F900FBE0F9023
:102250001F9018951F93CF93DF9300D0CDB7DEB7B3
:10226000EEEFF3E08091F100819384E0E630F8072F
:10227000C9F70E94160D8091E80083FFE7C0209106
:10228000FE033091FF03832F90E08A30910508F020
:10229000DDC0FC01EA5AFF4F0C947432203881F003
:1022A000223809F0D3C0809102048F708093E90036
:1022B0008091EB0085FB882780F91092E90004C02B
:1022C0008091FB03811182E09091E800977F9093C9
:1022D000E8008093F1001092F10092C0822F8D7F70
:1022E00009F0B4C0222319F0223061F0AFC0809110
:1022F0000004813009F0AAC0333009F080E08093F7
:10230000FB0328C080910004811124C020910204A5
:102310002F7009F49BC02093E9008091EB0080FFAF
:1023200019C08091EB00333011F4806211C08061DC
:102330008093EB0081E090E0022E01C0880F0A94A8
:10234000EAF78093EA001092EA008091EB0088603F
:102350008093EB001092E9008091E800877F53C0E2
:10236000211174C0109100041F778091E3008078E0
:10237000812B8093E3008091E800877F8093E800C1
:102380000E94520F8091E80080FFFCCF8091E30013
:1023900080688093E300112311F083E001C082E0A4
:1023A0008093FD0353C02058223008F04FC0AE0187
:1023B0004F5F5F4F6091020480910004909101048F
:1023C0000E942D0E009709F441C02091E800277F5C
:1023D0002093E800BC0189819A810E94DD0E8091E2
:1023E000E8008B778093E80031C0203879F5809140
:1023F000E800877F8093E8008091FA038093F100E2
:102400008091E8008E778093E8000E94520F1EC0F2
:1024100021111CC0909100049230C0F48091E8001A
:10242000877F8093E8009093FA030E94520F809177
:10243000FA03811104C08091E30087FF02C084E0A9
:1024400001C081E08093FD030E94FD0C8091E800B3
:1024500083FF0AC08091E800877F8093E800809125
:10246000EB0080628093EB000F900F90DF91CF9193
:102470001F91089590935603809355030895E0911A
:102480005503F0915603309721F00190F081E02D33
:10249000099480E00895FF920F931F93CF93DF93E9
:1024A0008C01E0915503F0915603309799F1028029
:1024B000F381E02D09958091B80382FF2BC080FF46
:1024C00004C086E194E00E940F07E80180E1F82E45
:1024D00000E114E08091B80380FF0BC088811F9257
:1024E0008F931F930F930E94A8070F900F900F9048
:1024F0000F90FA942196F110EDCF8091B80380FFF0
:1025000009C08EE094E0DF91CF911F910F91FF9071
:102510000C940F07DF91CF911F910F91FF900895B9
:10252000E0915503F0915603309721F00480F58136
:10253000E02D09940895209153033091540382179C
:10254000930771F09093540380935303E0915503E4
:10255000F0915603309721F00680F781E02D099421
:10256000089520915103309152038217930771F01F
:102570009093520380935103E0915503F0915603D9
:10258000309721F00084F185E02D09940895089595
:102590000C94C7120E9473200E9404090E9490228A
:1025A0000E94D8300E94582F0E94372C0C941C2E69
:1025B0005F926F927F928F929F92AF92BF92CF92D3
:1025C000DF92EF92FF920F931F93CF93DF9300D090
:1025D00000D01F92CDB7DEB70E94300998E5C92E12
:1025E00093E0D92E00E010E0AA24A394B12C502E41
:1025F000802F0E94480A3C01F601E190F1906F01A2
:10260000E826F926E114F104B1F40F5F1F4F0530FD
:10261000110569F78FEF89838A831B820E947C20D2
:102620008160782F9D838C8349815A816B818D8154
:102630000E94A91341C08091B80381FD0E94510AF4
:1026400020E030E04501022E02C0880C991C0A945B
:10265000E2F7C4018E219F21892B41F129835A82FF
:102660006820792081E0672809F480E08B830E944C
:102670007C208160782F9D838C8349815A816B8176
:102680008D810E94A91349815A816B817C818D8142
:102690000E94EB0AF801EE0FFF1FE85AFC4F808101
:1026A0009181882599259183808306C02F5F3F4FB4
:1026B0002E30310539F6A9CF0E9405200E94302620
:1026C000109157030E943F12181771F10E943F1298
:1026D000809357039091B80392FF0EC090FF0CC0F7
:1026E0001F928F9388E294E09F938F930E94A80794
:1026F0000F900F900F900F90809157030F900F90B5
:102700000F900F900F90DF91CF911F910F91FF903D
:10271000EF90DF90CF90BF90AF909F908F907F9081
:102720006F905F900C94BA2F0F900F900F900F90B6
:102730000F90DF91CF911F910F91FF90EF90DF905D
:10274000CF90BF90AF909F908F907F906F905F9051
:102750000895CF93DF93CDB7DEB72B970FB6F894DC
:10276000DEBF0FBECDBF4F83588769877A878B87BF
:102770008A859B85892B31F05F3F11F080E003C093
:102780004F3FE1F781E0811107C04F81588569858E
:102790007A858B850E94EB0ADE01119686E0FD01A9
:1027A00011928A95E9F785E0FE01379601900D9226
:1027B0008A95E1F749815A816B817C818D819E8167
:1027C0000E947A1B2B960FB6F894DEBF0FBECDBFCA
:1027D000DF91CF910895CF93C82F882309F4CCC0FF
:1027E000823859F40E943F1281FDC6C089E30E94DD
:1027F000F71D0E94AE1F89E30CC0833879F40E9454
:102800003F1280FDB9C083E50E94F71D0E94AE1FF4
:1028100083E50E94CC1ECF910C94AE1F843859F4EE
:102820000E943F1282FDA8C087E40E94F71D0E940B
:10283000AE1F87E4EECF8CEF8C0F813A48F48C2FDB
:102840000E94E52A811198C08C2F0E94F71DE3CFCA
:1028500080E28C0F883048F4C77081E001C0880F97
:10286000CA95EAF70E947D1FD6CF8BE58C0F833087
:1028700078F4C53A29F0C63A31F482E890E005C010
:1028800081E890E002C083E890E0CF910C949B1225
:1028900088E58C0F853108F06FC0C83A61F1C93AFC
:1028A00069F1CA3A71F1CB3A79F1CC3A81F1CD3A7A
:1028B00089F1CE3A91F1CF3A99F1C13BA1F1C03BF8
:1028C000A9F1C23BB1F1C33BB9F1C43BC1F1C53B76
:1028D000C9F1C63BD1F1C73BD9F1C83BE1F1C93BD6
:1028E000E9F1CA3BF1F1CB3BF9F1CC3B09F03FC038
:1028F0008AE292E03EC082EE90E03BC089EE90E03A
:1029000038C08AEE90E035C085EB90E032C086EBAF
:1029100090E02FC083EB90E02CC084EB90E029C0C6
:1029200087EB90E026C08CEC90E023C08DEC90E02B
:1029300020C083E891E01DC08AE891E01AC082E9D6
:1029400091E017C084E991E014C081E292E011C0E7
:1029500083E292E00EC084E292E00BC085E292E056
:1029600008C086E292E005C087E292E002C080E003
:1029700090E0CF910C94B112CF910895882309F47F
:102980004BC0823859F40E943F1281FF45C089E351
:102990000E94F71D0E94AE1F89E30CC0833871F4BA
:1029A0000E943F1280FF38C083E50E94F71D0E94FD
:1029B000AE1F83E50E94CC1E0C94AE1F843859F4E0
:1029C0000E943F1282FF28C087E40E94F71D0E94E8
:1029D000AE1F87E4EFCF9CEF980F913A58F390E247
:1029E000980F983050F4877091E001C0990F8A9544
:1029F000EAF7892F0E94831FDFCF9BE5980F933062
:102A000020F480E090E00C949B12885A853120F4E9
:102A100080E090E00C94B1120895882321F00E9488
:102A20007D1F0C94AE1F0895882321F00E94831F00
:102A30000C94AE1F0895CF92DF92EF92FF920F9306
:102A40001F93CF93DF93CDB7DEB728970FB6F894D7
:102A5000DEBF0FBECDBF8C0185E0F801DE0111960F
:102A600001900D928A95E1F7F80140813181F28061
:102A7000258122952F7083819481892B31F03F3FEE
:102A800031F481E04F3F19F403C081E001C080E0E0
:102A900080FD43C349833A8389819A812F830E94B1
:102AA000B51D9E8388870E94B41D0E94DC1C4E8148
:102AB000E42FE295EF70F0E0E05AFF4F2F81688538
:102AC0000C947432842F807F142F1F70882311F090
:102AD0001295107FFF2059F0112309F45FC2812F56
:102AE00068870E94901F0E94AE1F688557C2862F7C
:102AF0000E94BE14112309F410C3812F0E94961F57
:102B000028960FB6F894DEBF0FBECDBFDF91CF91F0
:102B10001F910F91FF90EF90DF90CF900C94AE1F1C
:102B2000842F807F942F9F70E92E803219F0E294D9
:102B300080EFE822662319F0613001F129C0FF20FF
:102B4000A9F08E2D222349F1213039F528960FB6B0
:102B5000F894DEBF0FBECDBFDF91CF911F910F91D3
:102B6000FF90EF90DF90CF900C94A01F222319F0DC
:102B7000213009F4D2C20E94A31F2CC0FF20E9F02B
:102B8000263008F0CAC20E947A1F8E2129F022C086
:102B9000FF20F1F0211115C08E2D28960FB6F89464
:102BA000DEBF0FBECDBFDF91CF911F910F91FF9080
:102BB000EF90DF90CF900C940D15253008F0ADC24A
:102BC00009C0F801858180FFE9C18F708583E4CF5A
:102BD0002111F8C18E2D66C1242F269526952370CC
:102BE00030E02115310521F021303105C9F095C2C1
:102BF000FF2021F0862F942F937002C080E090E098
:102C000028960FB6F894DEBF0FBECDBFDF91CF91EF
:102C10001F910F91FF90EF90DF90CF900C949B123B
:102C2000FF2021F0862F942F937002C080E090E067
:102C300028960FB6F894DEBF0FBECDBFDF91CF91BF
:102C40001F910F91FF90EF90DF90CF900C94B112F5
:102C5000862FFF2019F00E94B62402C00E941E2574
:102C600028960FB6F894DEBF0FBECDBFDF91CF918F
:102C70001F910F91FF90EF90DF90CF900C94A325C0
:102C8000842F837009F076C0F11047C2262F229559
:102C900026952770220F220F862F8F70C82ED12CD9
:102CA000E12CF12C022E04C0CC0CDD1CEE1CFF1C10
:102CB0000A94D2F764FF10C06FE070E080E090E00B
:102CC00004C0660F771F881F991F2A95D2F7609559
:102CD00070958095909503C060E070E0CB01242F43
:102CE000269526952370422F50E042305105D1F0B1
:102CF0004330510559F16C297D298E299F29413096
:102D0000510541F128960FB6F894DEBF0FBECDBF36
:102D1000DF91CF911F910F91FF90EF90DF90CF90B7
:102D20000C94F11C6C297D298E299F2928960FB6B9
:102D3000F894DEBF0FBECDBFDF91CF911F910F91F1
:102D4000FF90EF90DF90CF900C94031D0E94F11C38
:102D5000C701B60128960FB6F894DEBF0FBECDBFEF
:102D6000DF91CF911F910F91FF90EF90DF90CF9067
:102D70000C94DF1CFF2019F0842F817001C0869510
:102D8000882309F4CAC1262F229526952770220F81
:102D9000220F862F8F70C82ED12CE12CF12C022E01
:102DA00004C0CC0CDD1CEE1CFF1C0A94D2F764FF9F
:102DB00010C06FE070E080E090E004C0660F771F05
:102DC000881F991F2A95D2F76095709580959095E8
:102DD00003C060E070E0CB01242F26952695237078
:102DE000422F50E042305105D1F04330510559F1A6
:102DF0006C297D298E299F294130510541F1289662
:102E00000FB6F894DEBF0FBECDBFDF91CF911F91FB
:102E10000F91FF90EF90DF90CF900C94901D6C2954
:102E20007D298E299F2928960FB6F894DEBF0FBE04
:102E3000CDBFDF91CF911F910F91FF90EF90DF9069
:102E4000CF900C94A21D0E94901DC701B601289638
:102E50000FB6F894DEBF0FBECDBFDF91CF911F91AB
:102E60000F91FF90EF90DF90CF900C947E1D603F0C
:102E700049F118F4603E48F48CC0623F09F451C037
:102E8000E0F1633F09F461C084C0162F1F70842FE6
:102E90008F71FF2021F00E94291D812F7ECE0E947C
:102EA000441D812F28960FB6F894DEBF0FBECDBF0C
:102EB000DF91CF911F910F91FF90EF90DF90CF9016
:102EC0000C941415FF20A9F0253008F026C1842F9A
:102ED0008F7128960FB6F894DEBF0FBECDBFDF917D
:102EE000CF911F910F91FF90EF90DF90CF900C94B6
:102EF000631D263008F011C1EACFFF20A1F0842F16
:102F00008F7128960FB6F894DEBF0FBECDBFDF914C
:102F1000CF911F910F91FF90EF90DF90CF900C9485
:102F2000291DFF2061F3842F8F7128960FB6F89426
:102F3000DEBF0FBECDBFDF91CF911F910F91FF90EC
:102F4000EF90DF90CF900C94441DFF2091F0842FE0
:102F50008F7128960FB6F894DEBF0FBECDBFDF91FC
:102F6000CF911F910F91FF90EF90DF90CF900C9435
:102F70001A1D28960FB6F894DEBF0FBECDBFDF91A5
:102F8000CF911F910F91FF90EF90DF90CF900C9415
:102F9000151DFF20A1F0222309F4B1CF862F28961A
:102FA0000FB6F894DEBF0FBECDBFDF91CF911F915A
:102FB0000F91FF90EF90DF90CF900C94EB132223B2
:102FC00009F4B1CF862F28960FB6F894DEBF0FBE56
:102FD000CDBFDF91CF911F910F91FF90EF90DF90C8
:102FE000CF900C94BE144F70C8010E94B107289670
:102FF0000FB6F894DEBF0FBECDBFDF91CF911F910A
:103000000F91FF90EF90DF90CF900C94271CF11060
:1030100084C0662341F0842F8F70843021F0407F7C
:10302000862F8F70482B942F9F70492F50E042308D
:10303000510509F440C0BCF44115510561F141301E
:10304000510509F06AC028960FB6F894DEBF0FBE8E
:10305000CDBFDF91CF911F910F91FF90EF90DF9047
:10306000CF900C94592E43305105A9F144305105AD
:1030700009F053C0862F28960FB6F894DEBF0FBE16
:10308000CDBFDF91CF911F910F91FF90EF90DF9017
:10309000CF900C94EF2E28960FB6F894DEBF0FBE9B
:1030A000CDBFDF91CF911F910F91FF90EF90DF90F7
:1030B000CF900C942D2E28960FB6F894DEBF0FBE3D
:1030C000CDBFDF91CF911F910F91FF90EF90DF90D7
:1030D000CF900C94852E28960FB6F894DEBF0FBEC5
:1030E000CDBFDF91CF911F910F91FF90EF90DF90B7
:1030F000CF900C94B72E4F70C80128960FB6F89455
:10310000DEBF0FBECDBFDF91CF911F910F91FF901A
:10311000EF90DF90CF900C94300828960FB6F8947B
:10312000DEBF0FBECDBFDF91CF911F910F91FF90FA
:10313000EF90DF90CF9008950E949D1F0E946C1F1A
:103140000E94AE1F0E94D1260E94A32580E090E03D
:103150000E949B1280E090E00C94B1120E948D1F9F
:103160000C949C180E94B51D292F22952F7030E0D9
:103170002C3031054CF42A3031056CF422503109E1
:103180002230310590F407C02C30310551F02F303A
:10319000310539F00AC0803E10F0803F31F481E003
:1031A000089593FB882780F9089580E00895CF93D0
:1031B000DF9300D000D01F92CDB7DEB70F900F90F5
:1031C0000F900F900F90DF91CF910895CF93DF93E1
:1031D00000D000D000D0CDB7DEB726960FB6F89459
:1031E000DEBF0FBECDBFDF91CF9108951F93CF9368
:1031F000DF93C091620316E080916303C81799F0D2
:10320000D0E01C9FF0011D9FF00D1124EC59FC4FE4
:103210004081518162817381848195810E94E61889
:103220002196C770E9CFDF91CF911F91089540910A
:103230009403509195036091960370919703809148
:103240009803909199030C94E618CF938091990379
:1032500082958F7009F05FC080919603882309F4EE
:103260005AC020916203A09163036091940370910E
:103270009503809197039091980331E06F3F09F097
:1032800030E0B32FC6E02A1709F445C0009721F0BB
:103290007F3F21F44B2F03C041E001C040E030E00C
:1032A00040FD35C0C29FF001C39FF00D1124EC59C1
:1032B000FC4F418174132BC04081641328C04281AC
:1032C000411125C0438154814817590710F44150DA
:1032D0005109481B590B483C5105C8F4809199038A
:1032E0008F7080618093990386E0829FF001839FB5
:1032F000F00D1124E759FC4F80818F70806180832D
:1033000084E993E00E941B15CF910C94F6182F5F6F
:103310003F4F2770B8CFCF910895CF92DF92EF92B1
:10332000FF920F931F93CF93DF93CDB7DEB76297D2
:103330000FB6F894DEBF0FBECDBF8C0185E0F8015B
:10334000DE011D9601900D928A95E1F7D8014C910E
:1033500011965C91119712966C9112971396ED90BD
:10336000FC90149770919403E0919503209197033A
:10337000309198032115310531F0EF3F31F481E0B0
:103380007F3F19F403C081E001C080E0B82FB17025
:10339000CB2E80FD6CC1D0909603DD2009F4F5C0E2
:1033A000F0919903E216F30638F0C701821B930BE4
:1033B000883C910548F09BC0209530952E0D3F1D0F
:1033C000283C310508F093C08F2F807F09F052C050
:1033D000E51314C0741312C0D62E61110FC0FF7014
:1033E000F061F09399030E94171984E993E00E9419
:1033F0001B1580919903F80185836CC1EF2831F08A
:103400005F3F31F481E04F3F19F403C081E001C018
:1034100080E080FD03C081E0862701C080E0F82FB6
:10342000F170FF2E80FF1CC0809162032091630326
:1034300036E0821709F428C190E0389FF001399FE7
:10344000F00D1124EC59FC4F7181571306C07081A7
:10345000471303C07281671303C001968770E9CFD9
:10346000D62E662309F436C180919903816080933A
:10347000990353C0E51308C0741306C0611104C05A
:10348000D8011596FC93AEC04D875E878D859E85CD
:103490006A8B0E94B2186A89882329F1D62E662386
:1034A00011F120919903822F82958F7090E00297FD
:1034B0000CF460C0809194039091950398878F835A
:1034C0001986FB86EA862C87CE01079651C0E51740
:1034D00031F14D875E878D859E856A8B0E94B2187B
:1034E0006A8981112EC0C8010E941B15A4C08F2FAC
:1034F000807F69F77E2DF98AE88A89890E94D7182A
:1035000084E993E00E941B15E4E9F3E086E0DF0123
:103510001D928A95E9F70E941719D12CDBC074130C
:10352000D8CF6111D6CFD8011596FC93C8010E945F
:103530001B15E4E9F3E086E0DF011D928A95E9F7C7
:10354000C9C0D62E662379F220919903822F8295E5
:103550008F7090E0029774F080919403909195039E
:103560009A8389831B82FD82EC822E83CE01019691
:103570000E941B1586E0F801A4E9B3E001900D92CA
:103580008A95E1F70E9425196FC0E216F30628F02C
:10359000C701821B930B9C0104C0209530952E0D12
:1035A0003F1D283C310508F052C0D62E662309F491
:1035B0009ACFE5132CC074132AC08091990380FD23
:1035C0001DC0982F92959F70C9F0D80115968C93C5
:1035D00015979F3039F09F5F9295907F8F70892B60
:1035E00015968C93C8010E941B1586E0F801A4E98A
:1035F000B3E001900D928A95E1F736C086E0F801BC
:10360000A4E9B3E001900D928A95E1F763C04D877C
:103610005E878D859E850E94B218882379F086E0AA
:10362000F801A4E9B3E001900D928A95E1F70E94B8
:1036300025190E941719DD24D3944CC08091990359
:10364000816080939903C8010E941B1543C07E2DA1
:10365000F98AE88A89890E94D718E4E9F3E086E0CC
:10366000DF011D928A95E9F70E94171933C066237E
:1036700009F439CF4D875E878D859E850E94B218EB
:10368000882309F430CFCBCF4D875E878D859E850B
:103690000E94B51D292F22952F7030E02230310570
:1036A0002CF49F7041F0811106C00CC0243031050C
:1036B0002CF49F7049F4805E883020F0C8010E948D
:1036C0001B15CF2CDC2C06C0D80115969C91907F41
:1036D00091F7F8CF8D2D62960FB6F894DEBF0FBE2E
:1036E000CDBFDF91CF911F910F91FF90EF90DF90B1
:1036F000CF9008951F93CF93DF93CDB7DEB72C976C
:103700000FB6F894DEBF0FBECDBF4F8358876987D1
:103710007A878B879C87CE0107960E948D19882314
:10372000C1F02F8138858A859B85892B31F03F3FF9
:1037300011F080E003C02F3FE1F781E0811147C025
:103740004F81588569857A858B859C850E94E6180E
:103750003EC086E0FE013796DE01119601900D9283
:103760008A95E1F7FF81E8854A855B85411551051A
:1037700031F0EF3F31F481E0FF3F19F403C081E005
:1037800001C080E080FD23C02091630330E0C901C7
:103790000196877099276091620370E086179707FA
:1037A000F1F1F983EA835D834C8396E0929FD00127
:1037B000939FB00D1124AC59BC4FFE01319601907E
:1037C0000D929A95E1F7809363030E94F61816E034
:1037D0008091620390916303891779F1189FC0016A
:1037E00011248C599C4F0E948D19882331F1E0914E
:1037F00062031E9FF0011124EC59FC4F408151815E
:1038000062817381848195810E94E61880916203B0
:1038100090E001968770992780936203D9CF0E9428
:10382000AE181092630310926203E4E9F3E086E0BD
:10383000DF011D928A95E9F7CACF2C960FB6F8944E
:10384000DEBF0FBECDBFDF91CF911F910895DF92F4
:10385000EF92FF920F931F93CF93DF93FC0100979A
:1038600009F48AC0E12CF12CDD24D394EF012196D8
:103870008491853709F461C058F4843708F04EC04C
:10388000843008F06AC08130D1F0823071F174C0A8
:10389000883709F45DC050F4863709F455C087377E
:1038A00009F06AC08E2D0E948A1F54C09CE7980FB1
:1038B000903708F061C08F770E94BE1450C08F010E
:1038C0000E5F1F4FFE01849190E2980F983050F4E4
:1038D0008770FD2D01C0FF0F8A95EAF78F2F0E9498
:1038E000901F15C00E94EB1314C08F010E5F1F4F75
:1038F000FE01849190E2980F983068F48770FD2D56
:1039000001C0FF0F8A95EAF78F2F0E94961F0E9431
:10391000AE1FE80124C00E94BE14FBCF9F012E5FA2
:103920003F4FFE01C491CC2369F08FE99FE00197DE
:10393000F1F700C00000C150F6CF9F012E5F3F4F4E
:10394000FE01F490E9010BC00E947A1FE82E07C027
:103950000E948D1F0E94AE1F02C00E94EB139F2D7C
:10396000992341F0EFE9FFE03197F1F700C0000043
:103970009150F6CFFE017ACFDF91CF911F910F9139
:10398000FF90EF90DF90089560939E0370939F03E4
:103990008093A0039093A1030E9408300C949C187C
:1039A00060939A0370939B0380939C0390939D0371
:1039B0000E9460300C949C1808950C94C41C0F93C2
:1039C0001F9300919E0310919F032091A0033091BB
:1039D000A103602B712B822B932B1F910F910C94C1
:1039E000C41C0F931F9300919E0310919F0320917D
:1039F000A0033091A10360237123822393231F919D
:103A00000F910C94C41C0F931F9300919E0310916F
:103A10009F032091A0033091A10360277127822783
:103A200093271F910F910C94C41C60E070E0CB01B0
:103A30000C94D01C41E050E060E070E004C0440F02
:103A4000551F661F771F8A95D2F7CB01BA010C94D8
:103A5000D01C41E050E060E070E004C0440F551F0E
:103A6000661F771F8A95D2F780919A0390919B03E6
:103A7000A0919C03B0919D03482B592B6A2B7B2B63
:103A8000CB01BA010C94D01C41E050E060E070E042
:103A900004C0440F551F661F771F8A95D2F74095C3
:103AA00050956095709580919A0390919B03A09199
:103AB0009C03B0919D03482359236A237B23CB01A8
:103AC000BA010C94D01C41E050E060E070E004C00A
:103AD000440F551F661F771F8A95D2F780919A036E
:103AE00090919B03A0919C03B0919D034827592777
:103AF0006A277B27CB01BA010C94D01C0F931F932C
:103B000000919A0310919B0320919C0330919D0397
:103B1000602B712B822B932B1F910F910C94D01C37
:103B20000F931F9300919A0310919B0320919C0384
:103B300030919D0360237123822393231F910F9162
:103B40000C94D01C0F931F9300919A0310919B0328
:103B500020919C0330919D03602771278227932732
:103B60001F910F910C94D01C0895CF92DF92EF9289
:103B7000FF920F931F93CF93DF93EC01C0909E03AE
:103B8000D0909F03E090A003F090A10380919A034E
:103B900090919B03A0919C03B0919D03C82AD92AC0
:103BA000EA2AFB2A0FE110E0B701A601002E04C0AB
:103BB00076956795579547950A94D2F740FF07C0C9
:103BC000BE01802F0E94C3218130910539F401503C
:103BD000110950F7BE0180E00E94C321DF91CF910F
:103BE0001F910F91FF90EF90DF90CF900895CF92AB
:103BF000DF92EF92FF920F931F93CF93DF93F82EF4
:103C000080910B01882369F180910C01882349F18F
:103C10008F2D8695869586958F3090F4E0910D01D5
:103C2000F0910E01E80FF11D8F2D877021E030E03B
:103C300001C0220F8A95EAF78181822B8183A3C07C
:103C40008091B80380FF9FC01F92FF9281E594E0AE
:103C50009F938F930E94A8070F900F900F900F9043
:103C600092C0E090B5034091B303E0910D01F09153
:103C70000E01442309F472C02091B4038E2D3FEF4E
:103C800006E010E0A82FBB27A7FDB095EF01CA0FF3
:103C9000DB1F9A819F1509F476C03F3F19F49111FB
:103CA00001C0382FCD010196C6E0D0E0B8010E94D6
:103CB00060328213E7CF2E1151C03F3F71F4822F43
:103CC000992787FD90950196BE010E9460328093EE
:103CD000B50341504093B30341C0832F992787FD1B
:103CE00090950196BE010E946032EE24E394C6E0F6
:103CF000D0E0082F112707FD10956F01C00ED11ECF
:103D0000D60112966C916623A1F0432F552747FDEB
:103D10005095CF01840F951FDC0112966C93D6014C
:103D200012961C92CA010196BE010E946032382F81
:103D300001C0E394C8010196BE010E946032821363
:103D4000D8CF822F992787FD90958E1991090696D5
:103D500066E070E00E9460328093B4032091B40367
:103D6000332727FD3095E20FF31FF282C901019638
:103D700066E070E00E9460328093B4038091B303E8
:103D80008F5F8093B303DF91CF911F910F91FF90CD
:103D9000EF90DF90CF900895DF92EF92FF920F9314
:103DA0001F93CF93DF93482F80910B01882371F1EC
:103DB00080910C01882351F1842F869586958695F4
:103DC0008F3098F4E0910D01F0910E01E80FF11D94
:103DD000477021E030E0042E01C0220F0A94EAF778
:103DE00020958181282321836FC08091B80380FFB3
:103DF0006BC01F924F9383E394E09F938F930E9435
:103E0000A8070F900F900F900F905EC0E091B50340
:103E1000D090B303DD2009F457C0C0910D01D091BB
:103E20000E010091B403112707FD109586E0E82EDE
:103E3000F12CF0E0DE01AE0FBF1F9D012E5F3F4F62
:103E400012968C91841336C0D9011C92DA94D092C8
:103E5000B303D11004C01092B5031092B4032091A3
:103E6000B403822F992787FD9095059666E070E050
:103E70000E946032E817F90739F54091B503E6E092
:103E8000F0E0822F992787FD90950596BF010E944B
:103E900060329C010596BF010E9460328C0F9D1F0D
:103EA000DC0112968C91811102C02413EACF209379
:103EB000B4030AC0CF010196B7010E946032E82F17
:103EC0008017910709F0B5CFDF91CF911F910F9126
:103ED000FF90EF90DF90089581E090E0E0910D0178
:103EE000F0910E01E80FF91F1082019680319105C3
:103EF000A9F708958091B70308959091B703982B7F
:103F00009093B703089580959091B7039823909369
:103F1000B70308958093B70308951092B7030895E7
:103F20009091B603982B9093B60308958095909145
:103F3000B60398239093B60308951092B60308959C
:103F40008093A20308951092A203089580910C011A
:103F5000811103C08091B30308950895E0910D018C
:103F6000F0910E018091B7038083E0910D01F091F3
:103F70000E0180819091B603892B80839091A203DA
:103F8000992361F0E0910D01F0910E018081892B60
:103F900080830E94A61F81111092A20380910D01BF
:103FA00090910E010C944B12909323038093220363
:103FB00008958295982F9C7C96959695837344E0FE
:103FC000849F90011124922B892F8A7A869595756A
:103FD000990F892B08951F93CF93DF931F92CDB72D
:103FE000DEB799830E94D91F182F9981892F0E94CB
:103FF000D91F212F30E0322F2227A901482BCA01D7
:104000000F90DF91CF911F910895089508958091A9
:10401000FD03843019F11092B90320E488E190E0A7
:104020000FB6F894A895809360000FBE20936000AF
:104030000E94542C83B7817F846083BF83B78160E3
:1040400083BF7894889583B78E7F83BF88E10FB64E
:10405000F89480936000109260000FBE0895089558
:104060000895CF930E942F200E9430090E94302093
:10407000C0E08C2F0E94480A892B29F4CF5FC530FD
:10408000C1F780E001C081E0CF9108950E94AE1891
:104090000C941C2E1F920F920FB60F9211248F9327
:1040A0009F93AF93BF938091B903811113C0809107
:1040B000BA039091BB03A091BC03B091BD0341969C
:1040C000A11DB11D8093BA039093BB03A093BC03C1
:1040D000B093BD03BF91AF919F918F910F900FBE91
:1040E0000F901F90189582E084BD93E095BD9AEFE4
:1040F00097BD80936E0008952FB7F8948091BA030E
:104100009091BB03A091BC03B091BD032FBF089554
:104110002FB7F8946091BA037091BB038091BC03F0
:104120009091BD032FBF0895CF92DF92EF92FF923F
:104130000F931F932FB7F8944091BA035091BB038C
:104140006091BC037091BD032FBF6A017B01EE2417
:10415000FF248C0120E030E0C016D106E206F30611
:1041600010F441505109481B590BCA011F910F917E
:10417000FF90EF90DF90CF9008951F920F920FB6AF
:104180000F9211248F939F93AF93BF938091BA03A3
:104190009091BB03A091BC03B091BD030196A11DFA
:1041A000B11D8093BA039093BB03A093BC03B0935B
:1041B000BD03BF91AF919F918F910F900FBE0F9054
:1041C0001F9018950E94A30FF8942FEF87EA91E6AD
:1041D000215080409040E1F700C0000087E090EB64
:1041E000DC018093080490930904A0930A04B0931F
:1041F0000B042CE088E190E00FB6F894A89580932A
:1042000060000FBE20936000FFCF8D3B60F4883AC2
:1042100080F5853A28F5843008F5813009F06BC0C7
:1042200081E090E00895883E98F4803EB8F48F3B9A
:1042300009F061C00E94AE182FEF80E792E0215094
:1042400080409040E1F700C000000E94E22053C08F
:10425000803F08F450C090E09065089590E0089584
:10426000853A09F44BC0863A09F04BC082E890E4E5
:104270000895883A09F448C0893A09F448C08A3A4E
:1042800009F448C08B3A09F448C08C3A09F448C094
:104290008D3A09F448C08E3A09F448C08F3A09F4BF
:1042A00048C0813B09F448C0803B09F448C0823BC8
:1042B00009F448C0833B09F448C0843B09F448C072
:1042C000853B09F448C0863B09F448C0873B09F4A4
:1042D00048C0883B09F448C0893B09F448C08A3B80
:1042E00009F448C08B3B09F448C08C3B09F048C036
:1042F0008AE296E4089580E090E0089581E890E4F1
:10430000089583E890E4089582EE94E4089589EE98
:1043100094E408958AEE94E4089585EB94E4089576
:1043200086EB94E4089583EB94E4089584EB94E49D
:10433000089587EB94E408958CEC94E408958DEC53
:1043400094E4089583E895E408958AE895E408954F
:1043500082E995E4089584E995E4089581E296E47C
:10436000089583E296E4089584E296E4089585E250
:1043700096E4089586E296E4089587E296E4089527
:1043800080E094E408950E94E508803EA8F4803C13
:1043900000F5813309F45CC038F4893209F452C065
:1043A0008A3209F45BC05FC08933B1F08238A1F072
:1043B000853309F441C057C0833E41F128F4803E63
:1043C00099F0823EB9F04FC0863E31F1873E71F1DF
:1043D0004AC00E94F40808959091060490FD02C01E
:1043E00091FF41C080EE3FC08091060480FFFACF6C
:1043F00089E339C08091060482FF0CC080910604D5
:1044000084FF02C080E02FC083EE2DC0809106049F
:1044100082FFF4CF82EE27C08091060483FF0AC09A
:104420008091060484FDEECF87EE1DC080910604C6
:1044300083FFF6CF86EE17C08091060485FF06C085
:1044400089E211C08091060485FFFACF85E30BC095
:104450008091060486FF06C08AE205C080910604AA
:1044600086FFFACF81E30E9405210895BF92CF9283
:10447000DF92EF92FF920F931F93CF93DF938C0104
:10448000B12CEE24E394F12C8B2D0E94480A6C0190
:10449000C0E0D0E097010C2E02C0220F331F0A9417
:1044A000E2F72C213D21232BB1F06C2F7B2D80E0F6
:1044B0000E94C3219C018017910759F0832F807EB1
:1044C000932F907C11F0803A31F430E020173107BF
:1044D00011F481E009C02196CE30D105D9F6B3940C
:1044E00085E0B812D1CF80E0DF91CF911F910F917D
:1044F000FF90EF90DF90CF90BF900895CF93DF9320
:10450000EC018CE290E00E943622882329F0CE0153
:10451000DF91CF910C94362280E0DF91CF91089506
:10452000CF930E940624811102C00E94E12386E7F6
:1045300094E00E940F07C5E6C15049F00E9430097F
:104540008FE39CE90197F1F700C00000F5CF8FE6FB
:1045500094E00E940F0789E290E00E947E22811180
:104560002EC18AE290E00E947E22882331F00E94D0
:1045700000240E94E1230E94143185E090E00E9413
:104580007E2281110E94E2200E9406200E941124B6
:104590008093B80387E090E00E947E228823B1F1E7
:1045A0008BE190E00E947E22882351F09091B80325
:1045B00091FB882780F921E0822780FB91F924C0B4
:1045C0008EE090E00E947E22882351F09091B80303
:1045D00092FB882780F921E0822780FB92F914C0A2
:1045E00080E190E00E947E229091B803882341F000
:1045F00093FB882780F921E0822780FB93F904C090
:10460000892F809580FB90F99093B8038091B8032F
:104610000E9415240E9423248093060480EE90E0DB
:104620000E947E22882341F080910604982F909565
:1046300090FB80F98093060489E390E00E947E223B
:10464000882359F09091060491FB882780F921E096
:10465000822780FB91F99093060482EE90E00E94FD
:104660007E22882359F09091060492FB882780F9D6
:1046700021E0822780FB92F99093060486EE90E079
:104680000E947E22882359F09091060493FB88278C
:1046900080F921E0822780FB93F99093060483EE52
:1046A00090E00E947E22882359F09091060494FBAA
:1046B000882780F921E0822780FB94F990930604F3
:1046C00085E390E00E947E22882359F090910604B1
:1046D00095FB882780F921E0822780FB95F990934C
:1046E000060481E390E00E947E22882359F0909195
:1046F000060496FB882780F921E0822780FB96F943
:104700009093060481E190E00E947E22882359F074
:104710009091060497FB882780F921E0822780FB8F
:1047200097F990930604809106040E9427248091B3
:10473000060487FB882780F980930C0187E290E0CC
:104740000E947E22C82F8EE190E00E947E2281117D
:10475000C2608FE190E00E947E228111C46080E2FD
:1047600090E00E947E228111C86081E290E00E9468
:104770007E228111C06182E290E00E947E2281113E
:10478000C06283E290E00E947E228111C06484E2D4
:1047900090E00E947E22882311F0C06802C0CC23E2
:1047A00029F08C2F0E941E246C2F03C00E941A2413
:1047B000682F70E080E090E0CF910C94DD1CCF91E9
:1047C00008956DEE7EEF80E090E00E94AA3260E0F6
:1047D00082E090E00E949C3260E083E090E00E94E2
:1047E0009C3260E084E090E00E949C3260E085E0D2
:1047F00090E00E949C3260E086E090E00C949C3255
:104800006FEF7FEF80E090E00C94AA3280E090E0C0
:104810000E94963221E08D3E9E4F09F020E0822FCB
:10482000089582E090E00C948E32682F82E090E050
:104830000C949C3283E090E00C948E32682F83E0DD
:1048400090E00C949C3284E090E00C948E32682FBF
:1048500084E090E00C949C3286E090E00C948E32E0
:10486000682F86E090E00C949C328091C00380FF1A
:104870000BC06091120185E0689FB001112475950D
:104880006795759567952AC081FF09C060911201EF
:1048900085E0689FB0011124759567951FC082FF60
:1048A00007C06091120185E0689FB001112416C015
:1048B0004091C1034423C9F060911101461788F764
:1048C0002091120185E0289F90011124429FC00190
:1048D000439F900D112470E00E9460326038710592
:1048E00040F46115710539F002C065E070E0862F73
:1048F00008958FE7089581E008958091C00380FFB7
:1049000008C06091100170E0759567957595679581
:1049100021C081FF06C06091100170E07595679518
:1049200019C082FF04C06091100170E010C0809136
:10493000C1038823C1F060910F018617A0F7909101
:104940001001989FC001112470E00E94603260380D
:10495000710528F46115710521F0862F08958FE700
:10496000089581E0089561E070E0F4CF803F21F484
:104970000E943524819504C0813F29F40E9435248A
:104980008093C4030895823F21F40E9435248195C9
:1049900004C0833F29F40E9435248093C303089503
:1049A000893F19F40E947D2405C08A3F31F40E949A
:1049B0007D2481958093C50308958B3F21F40E9447
:1049C0007D24819504C08C3F29F40E947D2480932E
:1049D000C6030895843F21F48091C203816017C00B
:1049E000853F21F48091C203826011C0863F21F48B
:1049F0008091C20384600BC0873F21F48091C20381
:104A0000886005C0883F31F48091C2038061809343
:104A1000C20308958D3F21F48091C00381600BC0D3
:104A20008E3F21F48091C003826005C08F3F29F43E
:104A30008091C00384608093C0030895803F39F45F
:104A40008091C40387FF6CC01092C40369C0813F8A
:104A500029F48091C4031816BCF362C09091C3037B
:104A6000823F29F497FF5CC01092C30359C0833F73
:104A700019F41916CCF354C0893F41F48091C50351
:104A800018160CF04DC01092C5034AC08A3F29F495
:104A90008091C50387FF44C0F6CF8B3F39F48091E6
:104AA000C60387FF3DC01092C6033AC08C3F29F46D
:104AB0008091C6031816BCF333C0843F21F4809163
:104AC000C2038E7F17C0853F21F48091C2038D7F82
:104AD00011C0863F21F48091C2038B7F0BC0873FBA
:104AE00021F48091C203877F05C0883F31F4809113
:104AF000C2038F7E8093C20313C08D3F21F4809147
:104B0000C0038E7F0BC08E3F21F48091C0038D7F48
:104B100005C08F3F29F48091C0038B7F8093C00331
:104B20008091C30381110EC08091C40381110AC01A
:104B30008091C503811106C08091C603811102C016
:104B40001092C10308958091B80383FF7EC082EB69
:104B500094E00E940F078091C2031F928F938DEA09
:104B600094E09F938F930E94A8078BEA94E00E94A1
:104B70000F072091C303822F992787FD90959F935C
:104B80002F9388EA94E09F938F930E94A80786EA68
:104B900094E00E940F072091C403822F992787FD7C
:104BA00090959F932F9383EA94E09F938F930E9415
:104BB000A80781EA94E00E940F072091C503822F85
:104BC000992787FD90959F932F938EE994E09F936B
:104BD0008F930E94A8078CE994E00E940F07209110
:104BE000C603822F992787FD90959F932F9389E97C
:104BF00094E09F938F930E94A80786E994E00E9417
:104C00000F078091C1031F928F9383E994E09F93D4
:104C10008F930E94A80781E994E00E940F0780917A
:104C2000C0031F928F938EE894E09F938F930E940E
:104C3000A8078BE894E00E940F078DB79EB74C96AB
:104C40000FB6F8949EBF0FBE8DBF82EC93E00E941A
:104C500090120E947C209093BF038093BE0308951E
:104C60001F93CF93DF938091BE039091BF030E9467
:104C700094204091C103442321F02091130130E09E
:104C800006C0209114015AE0259F9001112482173B
:104C9000930708F482C08091C3031091C403D0919C
:104CA000C503C091C603811107C0111105C0D11100
:104CB00003C0CC2309F471C04F3F19F04F5F4093FC
:104CC000C103181624F40E9435248093C3038091F5
:104CD000C30387FF05C00E94352481958093C303D9
:104CE000111624F40E9435248093C4038091C403D8
:104CF00087FF05C00E94352481958093C40360918D
:104D0000C303662339F11091C403112319F17727E6
:104D100067FD7095872F972F0E94653123E333E35A
:104D200043E35FE30E94C9310E9432316093C303C1
:104D3000612F772767FD7095872F972F0E94653128
:104D400023E333E343E35FE30E94C9310E9432313E
:104D50006093C4031D1624F40E947D248093C50330
:104D60008091C50387FF05C00E947D2481958093B3
:104D7000C5031C1624F40E947D248093C6038091F1
:104D8000C60387FF05C00E947D2481958093C603DA
:104D9000DF91CF911F910C94A325DF91CF911F91AB
:104DA0000895E2ECF3E085E0DF011D928A95E9F7D2
:104DB0001092C1031092C003089585ED96E00E9401
:104DC0000F071F9281E08F931F9285E08F9387E8F2
:104DD00096E09F938F930E94A8070F900F900F90DB
:104DE0000F900F900F9008958330E9F128F48130EF
:104DF00061F0823009F10895853009F462C008F449
:104E000049C0863009F474C0089520911401862F9A
:104E100090E0820F911D8F3F910520F4620F609307
:104E2000140103C08FEF80931401809114011F922D
:104E30008F9380EC95E072C020911301862F90E053
:104E4000820F911D8F3F910520F4620F6093130133
:104E500003C08FEF80931301809113011F928F93F2
:104E60008EEA95E05BC020911201862F90E0820FC0
:104E7000911D8F3F910520F4620F6093120103C0D2
:104E80008FEF80931201809112011F928F938BE913
:104E900095E044C020911101862F90E0820F911D72
:104EA0008F3F910520F4620F6093110103C08FEFD3
:104EB00080931101809111011F928F9386E895E0F4
:104EC0002DC020911001862F90E0820F911D8F3F01
:104ED000910520F4620F6093100103C08FEF80935F
:104EE0001001809110011F928F938DE695E016C0FE
:104EF00020910F01862F90E0820F911D8F3F910529
:104F000020F4620F60930F0103C08FEF80930F01B5
:104F100080910F011F928F9382E595E09F938F936D
:104F20000E94A8070F900F900F900F900895833064
:104F300081F128F4813059F08230D1F00895853024
:104F400009F449C0B8F1863009F456C0089580913B
:104F50001401681720F4861B8093140102C010927C
:104F60001401809114011F928F9383E495E054C043
:104F700080911301681720F4861B8093130102C0EF
:104F800010921301809113011F928F9381E395E09A
:104F900043C080911201681720F4861B8093120190
:104FA00002C010921201809112011F928F938EE124
:104FB00095E032C080911101681720F4861B809320
:104FC000110102C010921101809111011F928F9363
:104FD00089E095E021C080911001681720F4861BBC
:104FE0008093100102C010921001809110011F9255
:104FF0008F9380EF94E010C080910F01681720F428
:10500000861B80930F0102C010920F0180910F0147
:105010001F928F9385ED94E09F938F930E94A80732
:105020000F900F900F900F900895CF93C82F1F925D
:105030008F932AED37E03F932F930E94A80761E0FA
:1050400070E080E090E004C0660F771F881F991F12
:10505000CA95D2F70E94DD1C0F900F900F900F9011
:10506000CF910C94AE18CF938B3109F409C208F09C
:1050700049C08E3009F417C200F5873009F4E7C142
:10508000A8F4863009F095C28091B803817F8E7FA5
:105090008093B8038FED97E00E940F0782E89CE0B1
:1050A0000E940F0781E08093C803CFC1883009F4C4
:1050B0005BC08B3009F4C5C17CC2813109F461C287
:1050C00020F4803109F402C274C2863109F418C296
:1050D000893109F06EC286EF9BE00E940F078DECCC
:1050E0009BE00E940F0788E99BE00E940F078BE678
:1050F0009BE00E940F078AEE9AE00E940F078CEB5C
:105100009AE0A1C1853309F44EC268F4873209F4EC
:105110004AC228F48E3108F44CC28D5147C28932FC
:1051200009F441C246C2833438F48A3308F03DC2E0
:10513000883309F486C13DC2833409F434C288340B
:1051400009F037C20E94AE1881E79CE00E940F0769
:105150009FEF23ED80E3915020408040E1F700C0B5
:1051600000000E94E22071C186E89CE00E940F07C7
:1051700089E19AE00E940F070E941A241F928F93E0
:1051800086E19AE09F938F930E94A80784E19AE0BA
:105190000E940F070E941124C82F81E09AE00E940C
:1051A0000F071F92CF932CEF39E03F932F930E946C
:1051B000A8078AEF99E00E940F0780EF99E00E940C
:1051C0000F078C2F81701F928F932DEE39E03F9344
:1051D0002F930E94A8078BEE99E00E940F0781EEA3
:1051E00099E00E940F07C1FB882780F91F928F93D7
:1051F0002EED39E03F932F930E94A8078CED99E0A4
:105200000E940F0780ED99E00E940F07C2FB8827DC
:1052100080F91F928F932DEC39E03F932F930E94DA
:10522000A8078BEC99E00E940F0782EC99E00E949E
:105230000F07C3FBCC27C0F91F92CF938FEB99E0E8
:105240009F938F930E94A8078DEB99E00E940F0710
:105250000E942324C82F89EA99E00E940F071F9219
:10526000CF9324EA39E03F932F930E94A80782EA64
:1052700099E00E940F0789E899E00E940F078C2FA0
:1052800081701F928F9326E839E03F932F930E94FD
:10529000A8078DB79EB780960FB6F8949EBF0FBE35
:1052A0008DBF84E899E00E940F078DE699E00E9487
:1052B0000F07C1FB882780F91F928F932AE639E0F8
:1052C0003F932F930E94A80788E699E00E940F075A
:1052D00086E599E00E940F07C2FB882780F91F929C
:1052E0008F9323E539E03F932F930E94A80781E530
:1052F00099E00E940F078FE399E00E940F07C3FB1C
:10530000882780F91F928F932CE339E03F932F93E6
:105310000E94A8078AE399E00E940F0780E399E0C2
:105320000E940F07C4FB882780F91F928F932DE2FC
:1053300039E03F932F930E94A8078BE299E00E94E7
:105340000F0789E199E00E940F07C5FB882780F9C4
:105350001F928F9326E139E03F932F930E94A80775
:1053600084E199E00E940F0788EF98E00E940F0700
:10537000C6FB882780F91F928F9325EF38E03F9373
:105380002F930E94A80783EF98E00E940F078BEEEF
:1053900098E00E940F07C7FBCC27C0F91F92CF935C
:1053A00088EE98E09F938F930E94A80786EE98E07E
:1053B0000E940F070E942C24C82F8FEC98E00E94B7
:1053C0000F071F92CF932AEC38E03F932F930E9450
:1053D000A8078DB79EB780960FB6F8949EBF0FBEF4
:1053E0008DBF88EC98E00E940F078EEB98E00E943A
:1053F0000F078C2F81701F928F932BEB38E03F9318
:105400002F930E94A80789EB98E00E940F0780EB7A
:1054100098E00E940F07C6951F92CF938DEA98E0FF
:105420009F938F930E94A8078BEA98E00E940F0732
:105430008DB79EB708960FB6F8949EBF0FBE8DBF6E
:1054400004C086E098E00E940F07C1E0B7C08091D9
:10545000B803C82FC17080FF09C084E69CE00E9499
:105460000F078091B803817F8E7F44C088E59CE060
:105470000E940F078091B80381608093B803E5CF45
:105480008091B80381FBCC27C0F991E0C927C0FB0C
:1054900081F98093B803CC2319F08BE49CE025C0FC
:1054A0008DE39CE0D0CF8091B80382FBCC27C0F97C
:1054B00091E0C927C0FB82F98093B803CC2319F08F
:1054C0008EE29CE012C08EE19CE0BDCF8091B803DB
:1054D00083FBCC27C0F991E0C927C0FB83F98093F7
:1054E000B803CC2351F082E19CE00E940F07809129
:1054F000B80381608093B80361C085E09CE0A3CFCE
:105500008EEA9AE00E940F070E943F121F928F932B
:1055100084E99AE09F938F930E94A80780910B01E2
:105520001F928F938DE79AE09F938F930E94A80715
:10553000809150031F928F938AE69AE09F938F93F6
:105540000E94A80780910C011F928F9387E59AE033
:105550009F938F930E94A8070E9488209F938F9308
:105560007F936F9380E49AE09F938F930E94A807A4
:105570008DB79EB746960FB6F8949EBF0FBE8DBFEF
:1055800064CF0E94AE18C0910C0181E0C827C0937F
:105590000C01CC2329F086E39AE00E940F070EC08D
:1055A0008BE29AE050CF80E001C089530E94152819
:1055B0004CCF89E29AE00E940F07C0E08C2FCF9178
:1055C000089580E0089580E00895CF93C82F8091DA
:1055D000C803813071F020F0823009F448C03FC127
:1055E000A0910D01B0910E018C91823209F039C168
:1055F00007C0A0910D01B0910E018C91823249F447
:105600008C2F0E94E12A81112FC08C2F0E943328F9
:105610002CC08C2F0E94E32A811126C0C431E1F0F6
:1056200070F4CB3081F0C031D1F40E94DD2682EDE0
:1056300097E00E940F0782E08093C80315C0C9322B
:1056400059F0C83361F48FED97E00E940F0786EDA3
:1056500097E00E940F0708C01092C80304C180EDB4
:1056600097E00E940F07FFC081E08170FEC0C43246
:1056700028F5CE3108F0C1C0CB30A1F1D0F4C7304D
:1056800009F0D3C08EE18093140182E3809313016B
:105690008AE08093120184E18093110188E0809375
:1056A000100188E280930F0186E796E00E940F07C1
:1056B000BFC0C33149F1C431C1F0B7C0CB3409F424
:1056C000A9C028F4C93289F0C83361F0AEC0C13531
:1056D00009F49EC0C23509F499C0CE3409F0A5C0C2
:1056E0006AE09EC00E94DD26A3C08091C703882384
:1056F00019F01092C7039CC083E896E00E940F0740
:1057000081E08093C803B1C08DE596E00E940F0749
:105710008BE496E00E940F07809114011F928F93F3
:1057200088E496E09F938F930E94A80786E496E012
:105730000E940F0784E396E00E940F0780911301F7
:105740001F928F9381E396E09F938F930E94A80707
:105750008FE296E00E940F0780E296E00E940F071A
:10576000809112011F928F938DE196E09F938F930A
:105770000E94A8078BE196E00E940F078AE096E05E
:105780000E940F07809111011F928F9387E096E08E
:105790009F938F930E94A80785E096E00E940F07D1
:1057A00080EF95E00E940F07809110011F928F9368
:1057B0008DEE95E09F938F930E94A8078BEE95E066
:1057C0000E940F0784ED95E00E940F0780910F0162
:1057D0001F928F9381ED95E09F938F930E94A8076E
:1057E0008FEC95E00E940F078DB79EB748960FB6D5
:1057F000F8949EBF0FBE8DBF1BC0CE51EC2FF0E0C2
:10580000E85EFC4F80818093C70312C061E003C053
:1058100061E006C06AE08091C7030E94F42608C0D8
:105820008091C7030E94972703C084E796E013C0C6
:105830008091C703882369F01F928F938EE696E0CC
:105840009F938F930E94A8070F900F900F900F9037
:1058500004C08BE696E00E940F0781E006C010921C
:10586000C80380E002C080E000CFCF910895E1E856
:10587000F0E08081886080838081816080838FB741
:10588000F89493E09093890090ED909388008FBFF7
:105890000C94B830EFE6F0E080818260808381E094
:1058A0008093E9030C94D330CF9380916F008D7F68
:1058B00080936F001092E903C0E08C2F0E94C630E5
:1058C000CF5FC530D1F78091E903CF910C94D330ED
:1058D0008091E8038F618093E8030895CF9310923D
:1058E000E803C0E08C2F0E94C630CF5FC530D1F7EF
:1058F0008091E903CF910C94D330E82FF0E0E2528D
:10590000FC4F60830895E82FF0E0E252FC4F4081A5
:10591000242F30E08FEF90E0861B910982179307C8
:105920001CF48FEF80830895640F60830895CF93F4
:10593000DF93D82FC0E06D2F8C2F0E94832CCF5F78
:10594000C530C9F7DF91CF910895E82FF0E0E2521A
:10595000FC4F8081861710F410820895861B808387
:105960000895CF93DF93D82FC0E06D2F8C2F0E9426
:10597000A52CCF5FC530C9F7DF91CF9108958091F5
:10598000DD038F618093DD0308951092DD03089598
:105990009091DC0321E030E0082E01C0220F0A9430
:1059A000EAF7662311F0292B02C0209529232093C2
:1059B000DC030895CF93DF93D82FC0E06D2F8C2F99
:1059C0000E94C82CCF5FC530C9F7DF91CF910895F1
:1059D0008093DB0308958093D6038093D70380934D
:1059E000D8038093D9038093DA0308958091D50377
:1059F0008F618093D50308951092D5031092D4033C
:105A000008958093D30308951F920F920FB60F92BB
:105A10001124EF92FF920F931F932F933F934F9375
:105A20005F936F937F938F939F93AF93BF93CF9326
:105A3000DF93EF93FF938091CC038F5F8093CC0330
:105A400003EE13E0C0E0D0E0FC2E2091E80330E04C
:105A50000C2E02C0369527950A94E2F720FF1AC053
:105A60008091CC0381110DC0F8018081882319F049
:105A70008C2F0E94B930FE01E252FC4F8081F80168
:105A800080839091CC03F8018081981303C08F2DFF
:105A90000E94C63021960F5F1F4FC530D105A1F679
:105AA0008091CB038F5F8093CB03803408F4ADC02B
:105AB0001092CB03E090DD03E11005C0F090D50318
:105AC000F1103BC0A2C08091CA038F5F8093CA03CC
:105AD0009091DB03981790F71092CA0306ED13E03C
