:100000000C9401070C9448070C9448070C9448077B
:100010000C9448070C9448070C9448070C94480724
:100020000C9448070C9448070C94A70F0C94791073
:100030000C945E1F0C9448070C9448070C944807D6
:100040000C9448070C9448070C9448070C944807F4
:100050000C9448070C94D21F0C9448070C94480742
:100060000C9448070C9448070C9448070C944807D4
:100070000C9448070C9448070C9448070C944807C4
:100080000C9448070C9448070C9448070C944807B4
:100090000C9448070C9448070C9448070C944807A4
:1000A0000C9448070C9448070C944807E610081174
:1000B000F6110811F6114D117011F611C511D81174
:1000C000C515C515F215F2154D168916811881183A
:1000D000A11681189C179C175718811881186D1844
:1000E0006D6F64203D20202564200A006767312061
:1000F0006F7074203D20202564200A007A7A7A20CF
:1001000025642025642025640A0001E10149024993
:1001100000017D027D00F1A6F1A7028A018C028C0C
:10012000F1A5E2A4E2A4000001F003F0048C02F1C6
:1001300002F202F302F4291E1F2021222324252685
:10014000272D2E2A2B141A0815171C180C12132FE2
:100150003031C0041607090A0B0D0E0F3334002886
:10016000C6001D1B061905111036373800C7E0E31D
:10017000E200002C00000000C0C165E4291E1F2021
:10018000212223242526272D2E2A2B141A08151761
:100190001C180C12132F3031C0041607090A0B0D5E
:1001A0000E0F33340028C6001D1B0619051110362A
:1001B000373800C7E0E3E200002C00000000E6C092
:1001C00065E41F1E1F20212223242526272D2E2AE9
:1001D0002B141A0815171C180C12132F3031390460
:1001E0001607090A0B0D0E0F33340028E1001D1B02
:1001F000061905111036373800E5E0E3E200002C5F
:1002000000000000C0C065E4201E1F20212223241E
:100210002526272D2E2A2B1407151A050D0918132C
:10022000332F3031C004160B170A1C1108120C347E
:100230000028E1001D1B1006190E0F36373800E5A7
:10024000E0E3E200002C00000000C0E765E43501B7
:10025000010101010101010101010101010101018E
:10026000010101010101010101010101010101017E
:100270000101010101010001010001010101010170
:100280000101010100010101010000010000000065
:1002900001010101221E1F200101010101010101D3
:1002A000010101010101010101014B0101010101F4
:1002B000C00101010101014A4E4D0101000101008F
:1002C0000101010101010101010100010101010020
:1002D00000010000000001010101353A3B3C3D3EB8
:1002E0003F4041424344454C39CB01010101014BA0
:1002F000CC4E46014901C001010101014ACECDCFDA
:100300004D0100010100010101C60101014B4E0137
:1003100000010101010000010000000001010101D4
:1003200001C3C4CB0101010101010101010101016E
:1003300001010101010101010101010101010101AD
:10034000010101010101010100010100010101019F
:100350000101010101010001010101000001000092
:100360000000010101010A002530325800626F755A
:100370006E6365213A20007573625F6C65622020B0
:100380005553425F4C45445F434150535F4C4F438C
:100390004B203D202564207573625F6C6564203DB1
:1003A000202564200A004B6579626F6172642073B6
:1003B000746172742E0A0055534220636F6E666931
:1003C00067757265642E0A000D0A696E69740A0009
:1003D0005B445D005B435D000A0347004800360054
:1003E0003000000012036700650065006B006800C4
:1003F000610063006B0000000403090409028D0022
:10040000050100A0320904000001030101000921D7
:10041000110100012240000705810308000A0904B8
:1004200001000103010200092111010001224D0018
:100430000705820308000A09040200010300000006
:100440000921110100012236000705830308000A73
:100450000904030002030000000921110100012228
:100460002200070584032000010705040320000182
:100470000904040001030000000921110100012208
:10048000390007058503200001120110010000005A
:1004900008EDFE606001000102000105010906A1EE
:1004A00001050719E029E715002501950875018167
:1004B0000205081901290595057501910295017537
:1004C0000391010507190029F71500250195F87515
:1004D000018102C00631FF0974A1010975150026CA
:1004E000FF009520750881020976150026FF00950A
:1004F0002075089102C005010980A10185021681BD
:100500000026B7001A81002AB700751095018100F6
:10051000C0050C0901A1018503160100269C021AE1
:1005200001002A9C02751095018100C00501090295
:10053000A1010901A10005091901290515002501DD
:100540009505750181029501750381010501093049
:1005500009311581257F95027508810609381581B5
:10056000257F950175088106050C0A38021581253D
:100570007F950175088106C0C005010906A1010526
:100580000719E029E71500250195087501810295F5
:100590000175088101050819012905950575019165
:1005A000029501750391010507190029FF15002621
:1005B000FF00950675088100C0636F6E73756D65E9
:1005C000723A20253034580A0073797374656D3A95
:1005D00020253034580A000A002530325820006B9C
:1005E0006579626F6172643A20004C45443A202577
:1005F0003032580A00253032583A202530313662E0
:1006000025730A00722F6320303132333435363788
:1006100038394142434445460A0064656C5F6B6566
:10062000795F6269743A2063616E27742064656C37
:100630003A20253032580A006164645F6B65795F47
:100640006269743A2063616E2774206164643A20A1
:10065000253032580A00646F6E652E0A00626F6F93
:10066000746D61676963207363616E3A202E2E2E6C
:100670002000290A002575002F002575005D28003F
:10068000256400200025640020002564002000254A
:1006900064007C0025303258006D6F7573656B65A2
:1006A00079205B62746E7C782079207620685D28E2
:1006B0007265702F61636C293A205B006D6B5F7708
:1006C0006865656C5F74696D655F746F5F6D617897
:1006D000203D2025640A006D6B5F776865656C5F5F
:1006E0006D61785F7370656564203D2025640A0044
:1006F0006D6B5F74696D655F746F5F6D6178203DD0
:100700002025640A006D6B5F6D61785F73706565AD
:1007100064203D2025640A006D6B5F696E7465720C
:1007200076616C203D2025640A006D6B5F64656C0A
:100730006179203D2025640A006D6B5F77686565EF
:100740006C5F74696D655F746F5F6D6178203D20CB
:1007500025640A006D6B5F776865656C5F6D617815
:100760005F7370656564203D2025640A006D6B5FD2
:1007700074696D655F746F5F6D6178203D202564DD
:100780000A006D6B5F6D61785F7370656564203D15
:100790002025640A006D6B5F696E74657276616C0A
:1007A000203D2025640A006D6B5F64656C617920D3
:1007B0003D2025640A000A00257500363A20776836
:1007C00065656C5F74696D655F746F5F6D61783AC4
:1007D00020000A00257500353A20776865656C5F52
:1007E0006D61785F73706565643A20000A00257555
:1007F00000343A2074696D655F746F5F6D61783A9B
:1008000020000A00257500333A206D61785F73700F
:100810006565643A20000A00257500323A20696E49
:1008200074657276616C286D73293A20000A002580
:100830007500313A2064656C6179282A31306D7316
:10084000293A20000A092D2056616C756573202D08
:100850000A004D3E004D25643E20003F0073657444
:100860002064656661756C740A00433E20007768F9
:100870006572652064656C74613A20637572736F8C
:10088000723D25642C20776865656C3D25640A53AC
:10089000656520687474703A2F2F656E2E77696BCA
:1008A0006970656469612E6F72672F77696B692F54
:1008B0004D6F7573655F6B6579730A000A092D20AA
:1008C0004D6F7573656B6579202D0A4553432F7104
:1008D0003A09717569740A313A0964656C6179285D
:1008E0002A31306D73290A323A09696E746572765D
:1008F000616C286D73290A333A096D61785F7370F2
:100900006565640A343A0974696D655F746F5F6D7B
:1009100061780A353A09776865656C5F6D61785F63
:1009200073706565640A363A09776865656C5F744B
:10093000696D655F746F5F6D61780A0A703A09705E
:1009400072696E742076616C7565730A643A097316
:1009500065742064656661756C74730A75703A0914
:100960002B310A646F776E3A092D310A7067757002
:100970003A092B31300A7067646F776E3A092D316E
:10098000300A0A7370656564203D2064656C74618B
:10099000202A206D61785F7370656564202A2028A5
:1009A000726570656174202F2074696D655F746F66
:1009B0005F6D6178290A003F004D3E2000433E20D4
:1009C000004C25640A000A092D20436F6E736F6C7A
:1009D00065202D0A4553432F713A09717569740AD0
:1009E0006D3A096D6F7573656B65790A000A092D9B
:1009F000204D61676963202D0A643A096465627558
:100A0000670A783A096465627567206D6174726976
:100A1000780A6B3A096465627567206B6579626F65
:100A20006172640A6D3A096465627567206D6F755D
:100A300073650A763A0976657273696F6E0A733A5E
:100A4000097374617475730A633A09636F6E736F27
:100A50006C65206D6F64650A302D343A096C6179DC
:100A60006572302D34284631302D4634290A5061C4
:100A700075733A09626F6F746C6F616465720A65B1
:100A80003A09656570726F6D0A6E3A094E4B524FA6
:100A90000A000A002575002E6E6B726F3A20000A5C
:100AA000002575002E737761705F6261636B736CF4
:100AB0006173685F6261636B73706163653A2000A4
:100AC0000A002575002E737761705F677261766525
:100AD0005F6573633A20000A002575002E6E6F5F14
:100AE0006775693A20000A002575002E73776170DA
:100AF0005F72616C745F726775693A20000A002545
:100B000075002E737761705F6C616C745F6C6775D4
:100B1000693A20000A002575002E636170736C6FBE
:100B2000636B5F746F5F636F6E74726F6C3A2000FB
:100B30000A002575002E737761705F636F6E7472A3
:100B40006F6C5F636170736C6F636B3A20000A00B7
:100B500025303258006B65796D61705F636F6E662A
:100B600069672E7261773A20000A002575002E6DA4
:100B70006F7573653A20000A002575002E6B657944
:100B8000626F6172643A20000A002575002E6D6163
:100B9000747269783A20000A002575002E656E612E
:100BA000626C653A20000A002530325800646562A4
:100BB00075675F636F6E6669672E7261773A2000B2
:100BC0000A0025750064656661756C745F6C6179F7
:100BD00065723A20003F004E4B524F3A206F6666D6
:100BE0000A004E4B524F3A206F6E0A0074696D65D1
:100BF000725F72656164333228293A202530346C83
:100C0000580A006B6579626F6172645F6E6B726F18
:100C10003A2025580A006B6579626F6172645F69DA
:100C2000646C653A2025580A006B6579626F6172C1
:100C3000645F70726F746F636F6C3A2025580A009E
:100C4000686F73745F6B6579626F6172645F6C6506
:100C5000647328293A2025580A000A092D20537464
:100C600061747573202D0A004743433A20342E39AE
:100C70002E32204156522D4C4942433A20312E38D3
:100C80002E3073766E204156525F415243483A20CF
:100C9000617672350A004F5054494F4E533A204CFA
:100CA00055464120424F4F544D41474943204D4FF7
:100CB0005553454B45592045585452414B455920B1
:100CC000434F4E534F4C4520434F4D4D414E4420D2
:100CD0004E4B524F20343039360A004255494C446D
:100CE0003A20616663643431632D646972747920DB
:100CF0002830343A34393A35352046656220323668
:100D00002032303138290A005649443A203078469A
:100D1000454544286765656B6861636B29205049C8
:100D2000443A20307836303630284748363029204B
:100D30005645523A203078303030310A004445531D
:100D4000433A20742E6D2E6B2E206B6579626F6195
:100D50007264206669726D7761726520666F7220B9
:100D6000474836300A000A092D2056657273696FAC
:100D70006E202D0A000A6D6F7573653A206F6666E6
:100D80000A000A6D6F7573653A206F6E0A000A6B70
:100D90006579626F6172643A206F66660A000A6B59
:100DA0006579626F6172643A206F6E0A000A6D6144
:100DB000747269783A206F66660A000A6D6174720F
:100DC00069783A206F6E0A000A64656275673A2096
:100DD0006F6E0A000A64656275673A206F66660A7C
:100DE000000A0A626F6F746C6F616465722E2E2E3A
:100DF0002000433E20006565636F6E6669673A0AAE
:100E0000000011241FBECFEFDAE0DEBFCDBF04B675
:100E100003FE27C080910B0290910C02A0910D025D
:100E2000B0910E028730904BA740B04BD1F4109296
:100E30000B0210920C0210920D0210920E0214BEC0
:100E400084B7877F84BF0FB6F894A895809160001F
:100E5000886180936000109260000FBEE0E0F8E3CC
:100E6000099511E0A0E0B1E0EEE1F9E502C00590DE
:100E70000D92AA33B107D9F722E0AAE3B1E001C08D
:100E80001D92AB30B207E1F70E94D50C0C948D2C6B
:100E90000C940000FF93EF93E0913A01F0913B0135
:100EA000309709F00995EF91FF910895FC01859124
:100EB000803011F0EFDFFBCF0895FF27E0E230E252
:100EC00047FF0CC0419597FF09C0EDE26095709512
:100ED00080959095611D711D811D911D27FF02C098
:100EE000219530E350E2AA27660F771F881F991FCC
:100EF000AA1FA41710F0A41B63955A95A9F7AA304E
:100F000008F0A95FA05DAF93F395611571058105A8
:100F1000910541F7ED3211F4EF93F395F21718F4C0
:100F20003F93F395FBCF8F91B5DFFA95E1F70895E5
:100F3000E991F9918591803021F0853219F0AADF8D
:100F4000F9CF089520E0E89455915532C1F350331C
:100F500011F4689455915A3348F4505390F3220F8A
:100F6000022E220F220F200D250FF4CF0EF4219513
:100F700089919991533619F3533729F1533559F122
:100F8000BC0188279927E8945C3621F489919991CE
:100F900068945591543639F446EF7EF077FF0DC0D2
:100FA0008FEF9FEF0AC055374AE039F0583540E1DE
:100FB00021F0523642E009F00895FF93EF937DDF70
:100FC000EF91FF91B7CFFF93EF93FC0181918030B8
:100FD000B9F360DFFBCFFF93EF9368DFF1CFDF93CF
:100FE000CF93CDB7DEB72596A3DFCF91DF910895DC
:100FF000662319F0613041F00EC0FC018281882324
:1010000051F081E191E00895FC018281882319F07B
:101010008AE091E0089580E090E008950F931F9397
:10102000CF93DF938C01D62FC42F8091EC0180FFEA
:101030001BC0F801858181701F928F9382811F925E
:101040008F93858182958F701F928F938CEF90E0A4
:101050009F938F930E94EF078DB79EB708960FB6A8
:10106000F8949EBF0FBE8DBF8091EC0180FF0CC035
:101070001F92CF938CEE90E09F938F930E94EF0787
:101080000F900F900F900F90D23009F07CC00E940B
:101090006F1E9C0180933D018091EC0180FF0DC08B
:1010A00033273F932F9380EE90E09F938F930E947E
:1010B000EF070F900F900F900F90F8018281882317
:1010C00009F456C080913D01C23081F018F4C1305E
:1010D00031F022C0C33089F0C430B1F01DC0982F68
:1010E000917111F492E516C09BE414C0982F917190
:1010F00011F491E50FC09EE40DC0982F917111F489
:1011000090E508C09AE406C0982F917111F49FE40D
:1011100001C09DE490933C01982F917171F090E093
:101120000E94781E80913C0190E00E94C71D0E94A1
:10113000AC1E80913D0190E00FC0827E99F086EE5A
:1011400090E00E94781E80913C0190E00E94C71DB3
:101150000E94AC1E86EE90E0DF91CF911F910F911F
:101160000C94721E80913C0190E00E94C71D05C046
:1011700080913C0190E00E941A1EDF91CF911F9157
:101180000F910C94AC1EDF91CF911F910F91089598
:101190008AB1807D8AB98BB1807D8BB908950E9418
:1011A000C80880B38C7F80BB81B3836081BB6E989D
:1011B000769A8AB18F728AB98BB1806D8BB987B1FB
:1011C0008F7387B988B1806C88B984B1847084B911
:1011D00085B18B6F85B9E8E4F1E0AEE3B1E011923F
:1011E00011921D921D9281E0E235F807C1F7089532
:1011F000BF92CF92DF92EF92FF920F931F93CF9304
:10120000DF930EE311E0E801B12CDD24D394A5E0D7
:10121000CA2EB8E6EB2EB3E0FB2E82E0B81691F0B2
:101220008B1520F091E0B91651F006C0A3E0BA1674
:1012300061F0B4E0BB1661F0509A58980BC0519A17
:10124000599808C0529A5A9805C0539A5B9802C0A0
:10125000559A5D9880EA8A95F1F78FB181708D2556
:1012600090E0799903C022E030E002C020E030E055
:10127000822B932B669903C024E030E002C020E06B
:1012800030E0AC01422B532B26B1022E000C330B65
:1012900020953095C9018827990F881F9927F3E079
:1012A000880F991FFA95E1F7842B952B369903C087
:1012B000E0E1F0E002C0E0E0F0E08E2B9F2B1E9911
:1012C00003C0E0E2F0E002C0E0E0F0E08E2B9F2BF4
:1012D0004C9903C060E470E002C060E070E0862BCF
:1012E000972B199903C020E830E002C020E030E0DD
:1012F000AC01422B532B189B0EC023B1022E000CC5
:10130000330B20953095C9018827990F881F99279D
:10131000982F882702C080E091E0842B952B1D999F
:1013200003C040E052E002C040E050E0842B952B27
:101330001C9903C040E054E002C040E050E0842B20
:10134000952B49B1042E000C550B409550959A01F0
:101350002227330F221F3327322F2227330F330F39
:10136000330F282B392B4E9903C080E090E102C047
:1013700080E090E0282B392B1B9903C040E050E21D
:1013800002C040E050E0242B352B888199818217E0
:10139000930741F13983288380910001882301F16B
:1013A0008091EC0180FF04C08DE693E00E94560717
:1013B0008091EC0180FF0CC0809100011F928F93FF
:1013C000FF92EF920E94EF070F900F900F900F90F7
:1013D0008091EC0180FF04C086E693E00E945607EE
:1013E000C09200010E94C808B394229695E0B912F9
:1013F00014CF809100018823C1F0815080930001B7
:10140000882339F0AFE9BFE01197F1F700C0000081
:101410000CC0E8E4F1E0D8018D919D918D0181939C
:101420009193B1E008341B07B1F781E0DF91CF91D0
:101430001F910F91FF90EF90DF90CF90BF90089594
:10144000E82FF0E0EE0FFF1FE85BFE4F80819181F7
:101450000895CF93DF931F92CDB7DEB79091EC0143
:1014600090FF13C01F928F931F9291E09F9327E7E5
:1014700033E03F932F9389830E94EF070F900F90E3
:101480000F900F900F900F90898181FF02C0229AD8
:1014900001C022982A980F90DF91CF9108958091F2
:1014A000760108959FB7F894109255019FBF9091CF
:1014B0000102943009F057C09091E9009F7030917B
:1014C000EC00232F217030FD20E8922B24E02093A4
:1014D000E9002091EB0020FF43C02091EE0027FFA0
:1014E0003FC020915201222321F02091E80025FFE6
:1014F00037C01092520126E03091E80035FD15C04A
:1015000030910102343061F53091EB0035FD28C097
:10151000215021F481E08093520122C0EFE9FFE0E5
:101520003197F1F700C00000E7CF8093F100809180
:10153000E80085FD0AC08091E80080FFFCCF809123
:10154000E8008E778093E80006C08FB7F89421E01A
:10155000209355018FBF9F709093E90080E008951C
:101560009F709093E9008FEF0895CF93DF9300D0A1
:101570001F92CDB7DEB79C0180910102843019F52E
:1015800093E099833B832A839093E9008FEF9091B6
:10159000E800815095FD06C095ED9A95F1F70000A1
:1015A0008111F5CF8091E80085FF0DC040E050E04B
:1015B00063E070E0CE0101960E94970D8091E800F3
:1015C0008E778093E8000F900F900F90DF91CF916E
:1015D0000895CF93DF9300D01F92CDB7DEB720914F
:1015E0000102243021F522E029839B838A8383E052
:1015F0008093E9008FEF9091E800815095FD06C03F
:1016000095ED9A95F1F700008111F5CF8091E800F2
:1016100085FF0DC040E050E063E070E0CE01019630
:101620000E94970D8091E8008E778093E8000F90DC
:101630000F900F90DF91CF910895209101022430F7
:10164000F1F422E02093E9002FEF3091E8002150DF
:1016500035FD06C035ED3A95F1F700002111F5CFC3
:101660002091E80025FF0BC040E050E065E070E00D
:101670000E94970D8091E8008E778093E80008958E
:10168000CF93DF9320910102243009F048C0EC0190
:1016900080910B018823E1F080910C018823C1F037
:1016A00085E08093E9008FEF9091E800815095FDEF
:1016B00006C095E19A95F1F700008111F5CF809170
:1016C000E80085FF2CC040E050E060E270E017C009
:1016D00081E08093E9008FEF9091E800815095FDC3
:1016E00006C095ED9A95F1F700008111F5CF809134
:1016F000E80085FF14C040E050E068E070E0CE01F3
:101700000E94970D8091E8008E778093E80080E238
:10171000FE01A6E5B1E001900D928A95E1F7DF9117
:10172000CF91089584ED93E00E94560780910002C6
:10173000811109C00E942C0F0E94890F8091E20044
:1017400084608093E200089580ED93E00E94560744
:101750001092000208950895209153012F5F822F67
:1017600062E30E94222C992319F0209353010895DB
:101770001092530180915501882371F180910102EB
:10178000843041F58091E9008F702091EC00922F18
:10179000917020FD90E8892B94E09093E90090915E
:1017A000EB0090FF14C09091EE0097FF10C0909155
:1017B000E80095FF03C01092F100F9CF9091E80086
:1017C00090FF05C09091E8009E779093E8008F709D
:1017D0008093E90010925501089542E061EC81E0A8
:1017E0000E94A60E42E061EC82E00E94A60E42E05A
:1017F00061EC83E00E94A60E42E261EC84E00E946C
:10180000A60E42E261EC85E00C94A60E80910302E4
:10181000833009F455C030F4813071F0823009F41E
:101820008EC008958A3009F47AC08B3009F460C004
:10183000893009F09CC020C080910202813A09F0F1
:1018400096C08091E800877F8093E800809106022F
:1018500090910702892B21F460E286E591E003C0B4
:1018600060E080E090E070E00E94E20D8091E8008E
:101870008B778093E800089580910202813209F00D
:1018800076C08091060290910702009719F00497A4
:1018900009F06DC08091E800877F8093E800809117
:1018A000E80082FD05C0809101028111F8CF5FC080
:1018B0008091F100809376018091E8008B7753C08E
:1018C00080910202813A09F052C080910602909103
:1018D0000702892B09F04BC08091E800877F809335
:1018E000E8008091E80080FFFCCF80910B0136C0BA
:1018F000809102028132D9F580910602909107020F
:10190000892BA9F58091E800877F8093E8000E94E9
:10191000DB0E8091040280930B010C94A21880913D
:101920000202813221F58091E800877F8093E800F0
:101930000E94DB0E809105028093770108958091CB
:101940000202813AA1F48091E800877F8093E80049
:101950008091E80080FFFCCF809177018093F100B7
:101960008091E8008E778093E8000C94DB0E089558
:101970000895089580917601809354011092760124
:1019800080E00E94290A0E94AA130C94A2180C94C9
:10199000BA0C0E941C1F8091FF01882329F00E942D
:1019A000451F81110C94810D089584B7877F84BFF2
:1019B0000FB6F894A89580916000886180936000CC
:1019C000109260000FBE90E080E80FB6F89480930C
:1019D0006100909361000FBE82E59AE00E94D21EE2
:1019E00088EC93E00E9456070E94B80C0E94CF1228
:1019F0000E942C0F0E94890F8091E20084608093E6
:101A0000E2007894809101028430E1F787EB93E063
:101A10000E9456070E94D11281E091E00E940E12AE
:101A200086EA93E00E9456070E94B90C8091010259
:101A3000853019F40E94C90CF9CF0E94D712F6CF55
:101A40000E945A1F809154018093760108950C944E
:101A5000200D292F332723303105C9F064F42130BC
:101A6000310581F02230310509F043C08DE890E066
:101A70002CEF33E042C021323105F1F02232310542
:101A800041F137C082E190E029E834E036C099277F
:101A90008130910541F08230910541F0892B49F563
:101AA000E8EFF3E005C0E4EEF3E002C0E8EDF3E0B8
:101AB000849190E09F0121C06530D8F4E62FF0E0DA
:101AC000EE0FFF1FEC5DFE4F2081318189E090E039
:101AD00014C0653070F470E0FB01EE0FFF1FE65E8E
:101AE000FE4F20813181FB01EB5EFE4F808190E053
:101AF00004C080E090E020E030E0FA0131832083F0
:101B0000089580E189BD82E189BD09B400FEFDCF61
:101B10008091D8008F7D8093D8008091E000826012
:101B20008093E0008091E00081FDFCCF0895CF928A
:101B3000DF92EF92FF920F931F93CF93DF93EC010D
:101B40008B016A010E94FA0E811133C0C114D104C5
:101B500039F0F60180819181081B190BC80FD91F3C
:101B6000E12CF12C0115110519F18091E80085FD9A
:101B700016C08091E8008E778093E800C114D104EC
:101B800049F0F60180819181E80EF91EF182E08230
:101B900085E00FC00E94FA0E882321F30AC08991C4
:101BA0008093F10001501109FFEFEF1AFF0ADACF1D
:101BB00080E0DF91CF911F910F91FF90EF90DF9028
:101BC000CF90089520910802309109022617370717
:101BD00048F06115710539F42091E8002E772093C3
:101BE000E80001C0B90140E061157105A9F120913B
:101BF0000102222309F443C0253009F442C0209198
:101C0000E80023FD40C02091E80022FD32C0209171
:101C1000E80020FFE9CF4091F3002091F20030E08E
:101C2000342BFC01CF016115710559F028303105C5
:101C300040F481918093F100615071092F5F3F4F13
:101C4000F1CF41E02830310509F040E02091E80073
:101C50002E772093E800C8CF4111C9CF0AC08091E8
:101C60000102882361F0853061F08091E80083FDF6
:101C70000AC08091E80082FFF2CF80E0089582E000
:101C8000089583E0089581E008952091080230913D
:101C900009022617370748F06115710539F42091BC
:101CA000E8002E772093E80001C0B901FC0120E094
:101CB0006115710591F180910102882309F440C0FA
:101CC000853009F43FC08091E80083FD3DC08091DC
:101CD000E80082FD2FC08091E80080FFE9CF2091CD
:101CE000F3008091F20090E0922B6115710559F09C
:101CF0008830910540F424912093F1003196615091
:101D000071090196F2CF21E0089709F020E0809157
:101D1000E8008E778093E800CBCF2111CCCF0AC0AA
:101D200080910102882361F0853061F08091E800A4
:101D300083FD0AC08091E80082FFF2CF80E0089521
:101D400082E0089583E0089581E00895982F973008
:101D500058F59093E900981739F07091EC002091B4
:101D6000ED005091F00003C0242F762F50E021FFAA
:101D700019C03091EB003E7F3093EB003091ED00C5
:101D80003D7F3093ED003091EB0031603093EB00FC
:101D90007093EC002093ED005093F0002091EE0042
:101DA00027FF07C09F5FD3CF8F708093E90081E04A
:101DB000089580E008958091020287FF11C080910C
:101DC000E80082FD05C0809101028111F8CF11C0A9
:101DD0008091E8008B770BC080910102882349F045
:101DE0008091E80080FFF8CF8091E8008E778093A3
:101DF000E80008952091E4003091E50095E64091D7
:101E0000EC00842F817040FF22C08091E80080FDAB
:101E10001CC080910102882391F0853091F080915F
:101E2000EB0085FD10C04091E4005091E5004217A1
:101E3000530729F39A01915011F784E0089582E045
:101E4000089583E0089581E0089580E00895409129
:101E5000E80042FFDECF08950E949A0F0E94A20F71
:101E6000E0EEF0E0808181608083E8EDF0E0808149
:101E70008F77808319BCA7EDB0E08C918E7F8C9317
:101E800080818F7E80831092000208950F931F93AC
:101E9000CF93DF930E949A0F0E94A20FC8EDD0E06B
:101EA00088818F77888388818068888388818F7D07
:101EB000888319BC109201021092FD011092FF015B
:101EC0001092FE0100EE10E0F80180818B7F80838C
:101ED00088818160888342E060E080E00E94A60EF5
:101EE000E1EEF0E080818E7F8083E2EEF0E08081A1
:101EF00081608083808188608083F80180818E7F0B
:101F00008083888180618883DF91CF911F910F91B9
:101F10000895E8EDF0E080818F7E8083E7EDF0E0CA
:101F200080818160808384E082BF81E080930002B1
:101F30000C94460FE8EDF0E080818E7F8083109254
:101F4000E20008951092DA001092E10008951F92C5
:101F50000F920FB60F9211242F933F934F935F93DD
:101F60006F937F938F939F93AF93BF93EF93FF9361
:101F70008091E10082FF0BC08091E20082FF07C0E8
:101F80008091E1008B7F8093E1000E94AC0B8091F7
:101F9000DA0080FF1FC08091D80080FF1BC08091B5
:101FA000DA008E7F8093DA008091D90080FF0DC027
:101FB00080E189BD82E189BD09B400FEFDCF81E0E9
:101FC000809301020E94920B05C019BC109201027D
:101FD0000E94A40B8091E10080FF19C08091E20073
:101FE00080FF15C08091E2008E7F8093E200809197
:101FF000E20080618093E2008091D800806280934B
:10200000D80019BC85E0809301020E94C70C809122
:10201000E10084FF30C08091E20084FF2CC080E1A9
:1020200089BD82E189BD09B400FEFDCF8091D80051
:102030008F7D8093D8008091E1008F7E8093E100B6
:102040008091E2008F7E8093E2008091E2008160C7
:102050008093E2008091FD01882311F084E007C0A5
:102060008091E30087FD02C081E001C083E080939E
:1020700001020E94270D8091E10083FF29C0809119
:10208000E20083FF25C08091E100877F8093E1001B
:1020900082E0809301021092FD018091E1008E7F29
:1020A0008093E1008091E2008E7F8093E200809136
:1020B000E20080618093E20042E060E080E00E9404
:1020C000A60E8091F00088608093F0000E94AB0B18
:1020D000FF91EF91BF91AF919F918F917F916F9100
:1020E0005F914F913F912F910F900FBE0F901F90D6
:1020F00018951F920F920FB60F9211242F933F93B2
:102100004F935F936F937F938F939F93AF93BF93FF
:10211000CF93DF93EF93FF93C091E900CF7080914D
:10212000EC00D82FD17080FDD0E81092E9008091AA
:10213000F000877F8093F00078940E94BD10109289
:10214000E9008091F00088608093F000CD2BCF7083
:10215000C093E900FF91EF91DF91CF91BF91AF91D3
:102160009F918F917F916F915F914F913F912F91AF
:102170000F900FBE0F901F9018951F93CF93DF9372
:10218000CDB7DEB7AA970FB6F894DEBF0FBECDBFAE
:10219000E2E0F2E088E08E0F9091F10091938E13CF
:1021A000FBCF0E94060C8091E80083FF1FC1809145
:1021B000020290910302492F50E04A30510508F085
:1021C00015C1FA01EA5AFF4F0C94422C803881F075
:1021D000823809F00BC1809106028F708093E9006C
:1021E0008091EB0085FB882780F91092E90006C0FA
:1021F0008091FE019091FF01911182609091E80021
:10220000977F9093E8008093F1001092F100C8C08E
:10221000282F2D7F09F0EAC0882319F0823061F061
:10222000E5C080910402813009F0E0C0933009F0EC
:1022300080E08093FF012BC080910402811127C0B0
:10224000809106028F7009F4D1C08093E90020913B
:10225000EB0020FF1CC0933021F48091EB008062E2
:1022600014C09091EB0090619093EB0021E030E07E
:10227000A90102C0440F551F8A95E2F74093EA0076
:102280001092EA008091EB0088608093EB0010923E
:10229000E9008091E800877F86C08111A7C0109176
:1022A00004021F778091E3008078812B8093E30004
:1022B0008091E800877F8093E8000E94DB0E809188
:1022C000E80080FFFCCF8091E30080688093E3000A
:1022D000111102C082E001C083E08093010286C038
:1022E0008058823008F082C08091040290910502EB
:1022F0008C3D53E0950779F583E08A838AE28983F0
:102300004FB7F894DE01139620E03EE051E2E32F50
:10231000F0E050935700E49120FF03C0E295EF7086
:102320003F5FEF708E2F90E0EA3010F0C79601C04B
:10233000C0968D939D932F5F243149F74FBF8091B5
:10234000E800877F8093E8006AE270E0CE010196A2
:102350000E94E20D14C0AE014F5F5F4F6091060214
:102360000E94290DBC01892B09F440C09091E8001E
:10237000977F9093E80089819A810E94450E809111
:10238000E8008B778093E80031C0803879F5809140
:10239000E800877F8093E8008091FD018093F10041
:1023A0008091E8008E778093E8000E94DB0E1EC0CB
:1023B00081111CC0909104029230C0F48091E80019
:1023C000877F8093E8009093FD010E94DB0E80914F
:1023D000FD01811106C08091E30087FD02C081E00C
:1023E00001C084E0809301020E94ED0B8091E8001F
:1023F00083FF0AC08091E800877F8093E800809186
:10240000EB0080628093EB00AA960FB6F894DEBFD3
:102410000FBECDBFDF91CF911F91089590937D01A5
:1024200080937C010895E0917C01F0917D013097CB
:1024300021F00190F081E02D099480E00895EF9261
:10244000FF920F931F93CF93DF93E0917C01F09164
:102450007D013097B1F18C010280F381E02D099567
:102460008091EC0182FF2DC080FF04C08FED95E0CC
:102470000E945607E80110E289EDE82E85E0F82E6B
:102480008091EC0180FF0BC088811F928F93FF9297
:10249000EF920E94EF070F900F900F900F90115046
:1024A00021961111EDCF8091EC0180FF0AC087EDDC
:1024B00095E0DF91CF911F910F91FF90EF900C94D9
:1024C0005607DF91CF911F910F91FF90EF900895E4
:1024D000E0917C01F0917D01309721F00480F5813D
:1024E000E02D09940895CF93DF93EC0180917A0158
:1024F00090917B01C817D90709F1D0937B01C09354
:102500007A01E0917C01F0917D013097B9F006806D
:10251000F781E02DCE0109958091EC0182FF0EC07C
:1025200080FF0CC0DF93CF9389EC95E09F938F934E
:102530000E94EF070F900F900F900F90DF91CF91B7
:102540000895CF93DF93EC01809178019091790108
:10255000C817D90709F1D0937901C0937801E091A8
:102560007C01F0917D013097B9F00084F185E02D78
:10257000CE0109958091EC0182FF0EC080FF0CC056
:10258000DF93CF9389EB95E09F938F930E94EF07A2
:102590000F900F900F900F90DF91CF9108950C94B2
:1025A000AB130E94871F0E94CF080C9492214F9278
:1025B0005F927F928F929F92AF92BF92CF92DF9263
:1025C000EF92FF920F931F93CF93DF9300D000D031
:1025D0001F92CDB7DEB70E94F8089FE7C92E91E0A1
:1025E000D92E00E010E0AA24A394B12C702E802FE5
:1025F0000E94200A4C01F601419051906F0148263B
:10260000592641145104B1F40F5F1F4F05301105D5
:1026100069F78FEF89838A831B820E94901F8160F4
:10262000782F9D838C8349815A816B818D810E9493
:10263000E21341C08091EC0181FD0E94AC1320E0C7
:1026400030E07501022E02C0EE0CFF1C0A94E2F786
:10265000C70184219521892B41F129837A828E201B
:102660009F2091E0892809F490E09B830E94901FAD
:102670008160782F9D838C8349815A816B818D8104
:102680000E94E21349815A816B817C818D810E9475
:10269000081F000F111FF801E158FE4F8081918142
:1026A000E826F926F182E08206C02F5F3F4F2E30E8
:1026B000310539F6A9CF0E94071F0E941C251091F1
:1026C0007E010E941312181771F10E941312809359
:1026D0007E019091EC0192FF0EC090FF0CC01F9202
:1026E0008F938AEE95E09F938F930E94EF070F9050
:1026F0000F900F900F9080917E010F900F900F9090
:102700000F900F90DF91CF911F910F91FF90EF905D
:10271000DF90CF90BF90AF909F908F907F905F9011
:102720004F900C94191F0F900F900F900F900F90D7
:10273000DF91CF911F910F91FF90EF90DF90CF909D
:10274000BF90AF909F908F907F905F904F90089533
:102750000C94290A08950895EF92FF920F931F9306
:10276000CF93DF9384E096E00E945607C0E0D0E06C
:102770008EE2E82E81E0F82E05EF15E08C2F0E9406
:10278000200A0E94ED1EFF92EF929F938F93DF939A
:10279000CF931F930F930E94EF0721968DB79EB79B
:1027A00008960FB6F8949EBF0FBE8DBFC530D105F9
:1027B00029F7DF91CF911F910F91FF90EF9008952E
:1027C00008950895CF93DF93CDB7DEB72B970FB65B
:1027D000F894DEBF0FBECDBF942F4F83252F5887AF
:1027E00069877A878B874A855B85452B21F02F3F48
:1027F00009F59F3FF9F4DE01119686E0FD01119283
:102800008A95E9F785E0FE01379601900D928A9549
:10281000E1F749815A816B817C818D819E810E9483
:102820003C1B2B960FB6F894DEBF0FBECDBFDF91D9
:10283000CF9108954F81588569857A858B850E944F
:10284000081FD9CFCF93882309F4E8C0C82F823856
:10285000A1F40E94131281FDE1C089E30E94C71D0B
:102860000E94AC1E2FEF81EE94E0215080409040FA
:10287000E1F700C0000089E315C08338C1F40E946D
:10288000131280FDCBC083E50E94C71D0E94AC1EC1
:102890002FEF81EE94E0215080409040E1F700C09E
:1028A000000083E50E941A1ECF910C94AC1E843860
:1028B000A1F40E94131282FDB1C087E40E94C71DDB
:1028C0000E94AC1E2FEF81EE94E02150804090409A
:1028D000E1F700C0000087E4E5CF8CEF8C0F813A70
:1028E00048F48C2F0E949C29811198C08C2F0E9443
:1028F000C71DDACF80E28C0F883048F4C77081E0C2
:1029000001C0880FCA95EAF70E94721ECDCF8BE5F1
:102910008C0F833078F4C53A29F0C63A31F083E859
:1029200090E005C081E890E002C082E890E0CF919D
:102930000C94731288E58C0F853108F06FC0C83A8B
:1029400061F1C93A69F1CA3A71F1CB3A79F1CC3AFD
:1029500081F1CD3A89F1CE3A91F1CF3A99F1C13B6B
:10296000A1F1C03BA9F1C23BB1F1C33BB9F1C43BFA
:10297000C1F1C53BC9F1C63BD1F1C73BD9F1C83B59
:10298000E1F1C93BE9F1CA3BF1F1CB3BF9F1CC3BB9
:1029900009F43FC080E090E03EC082EE90E03BC092
:1029A00089EE90E038C08AEE90E035C085EB90E08B
:1029B00032C086EB90E02FC083EB90E02CC084EB1C
:1029C00090E029C087EB90E026C08CEC90E023C01B
:1029D0008DEC90E020C083E891E01DC08AE891E092
:1029E0001AC082E991E017C084E991E014C081E245
:1029F00092E011C083E292E00EC084E292E00BC04C
:102A000085E292E008C086E292E005C087E292E0AB
:102A100002C08AE292E0CF910C94A112CF91089566
:102A2000882309F466C08238A1F40E94131281FF42
:102A300060C089E30E94C71D0E94AC1E2FEF81EE8B
:102A400094E0215080409040E1F700C0000089E30D
:102A500015C08338B9F40E94131280FF4AC083E581
:102A60000E94C71D0E94AC1E2FEF81EE94E0215002
:102A700080409040E1F700C0000083E50E941A1EEC
:102A80000C94AC1E8438A1F40E94131282FF31C052
:102A900087E40E94C71D0E94AC1E2FEF81EE94E0D8
:102AA000215080409040E1F700C0000087E4E6CF6D
:102AB0009CEF980F913A10F390E2980F983050F4F1
:102AC000877091E001C0990F8A95EAF7892F0E94DB
:102AD000781ED6CF9BE5980F933020F480E090E0ED
:102AE0000C947312885A853120F480E090E00C94A5
:102AF000A1120895882321F00E94721E0C94AC1E2E
:102B00000895882321F00E94781E0C94AC1E08952D
:102B1000CF92DF92EF92FF920F931F93CF93DF93A9
:102B200000D000D000D0CDB7DEB725E0FC01DE013B
:102B3000119601900D922A95E1F7FC0140813181B7
:102B4000F280258122952F7063817481672B09F4AF
:102B5000D8C23F3F19F44F3F09F4D3C26C014983F7
:102B60003A8389819A812E830E94861D182F092F0E
:102B70000E94851D0E94951CE02FE295EF70F0E009
:102B8000E05AFF4F2E810C94422C802F807F902F93
:102B90009F70092F882311F00295007FFF2049F0D4
:102BA000002309F45FC2802F0E94851E0E94AC1E84
:102BB00059C2812F0E941015002309F4A2C2802F50
:102BC0000E948B1E26960FB6F894DEBF0FBECDBFB7
:102BD000DF91CF911F910F91FF90EF90DF90CF90F9
:102BE0000C94AC1E802F807F902F9F70092F803215
:102BF00011F00295007F112319F0113001F129C065
:102C0000FF20A9F0802F222349F1213039F52696A3
:102C10000FB6F894DEBF0FBECDBFDF91CF911F91ED
:102C20000F91FF90EF90DF90CF900C94951E222390
:102C300019F0213009F465C20E94981E2CC0FF20B3
:102C4000E9F0263008F05DC20E946F1E802329F053
:102C500022C0FF20F1F0211115C0802F26960FB65B
:102C6000F894DEBF0FBECDBFDF91CF911F910F91C2
:102C7000FF90EF90DF90CF900C947A15253008F0FC
:102C800040C209C0F601858180FFECC18F70858349
:102C9000E4CF2111FBC1802F69C1202F26952695F5
:102CA000237030E02115310521F021303105C9F0C4
:102CB00028C2FF2021F0812F902F937002C080E066
:102CC00090E026960FB6F894DEBF0FBECDBFDF9121
:102CD000CF911F910F91FF90EF90DF90CF900C94C8
:102CE0007312FF2021F0812F902F937002C080E09B
:102CF00090E026960FB6F894DEBF0FBECDBFDF91F1
:102D0000CF911F910F91FF90EF90DF90CF900C9497
:102D1000A112812FFF2019F00E94A22302C00E945D
:102D20000A2426960FB6F894DEBF0FBECDBFDF9102
:102D3000CF911F910F91FF90EF90DF90CF900C9467
:102D40008F24802F837009F078C0F110DAC1812FB1
:102D5000829586958770880F880F912F9F70C92E56
:102D6000D12CE12CF12C082E04C0CC0CDD1CEE1C67
:102D7000FF1C0A94D2F714FF12C04FE050E060E04D
:102D800070E004C0440F551F661F771F8A95D2F765
:102D9000CB01BA01609570958095909503C060E075
:102DA00070E0CB01202F269526952370422F50E00E
:102DB00042305105D1F04330510559F16C297D293C
:102DC0008E299F294130510541F126960FB6F8947E
:102DD000DEBF0FBECDBFDF91CF911F910F91FF904E
:102DE000EF90DF90CF900C94AA1C6C297D298E293E
:102DF0009F2926960FB6F894DEBF0FBECDBFDF9198
:102E0000CF911F910F91FF90EF90DF90CF900C9496
:102E1000BC1C0E94AA1CC701B60126960FB6F894E6
:102E2000DEBF0FBECDBFDF91CF911F910F91FF90FD
:102E3000EF90DF90CF900C94981CFF2019F0802F1A
:102E4000817001C08695882309F45BC1812F82952A
:102E500086958770880F880F912F9F70C92ED12C6F
:102E6000E12CF12C082E04C0CC0CDD1CEE1CFF1C48
:102E70000A94D2F714FF12C04FE050E060E070E017
:102E800004C0440F551F661F771F8A95D2F7CB01E8
:102E9000BA01609570958095909503C060E070E0F0
:102EA000CB01202F269526952370422F50E04230EB
:102EB0005105D1F04330510559F16C297D298E29F6
:102EC0009F294130510541F126960FB6F894DEBF97
:102ED0000FBECDBFDF91CF911F910F91FF90EF906B
:102EE000DF90CF900C94611D6C297D298E299F293C
:102EF00026960FB6F894DEBF0FBECDBFDF91CF91FF
:102F00001F910F91FF90EF90DF90CF900C94731D65
:102F10000E94611DC701B60126960FB6F894DEBF68
:102F20000FBECDBFDF91CF911F910F91FF90EF901A
:102F3000DF90CF900C944F1D103F41F118F4103EDC
:102F400048F48BC0123F09F450C0D8F1133F09F484
:102F500060C083C01F70802F8F71FF2021F00E94FE
:102F6000E81C812F7BCE0E94091D812F26960FB66B
:102F7000F894DEBF0FBECDBFDF91CF911F910F91AF
:102F8000FF90EF90DF90CF900C948115FF20A9F077
:102F9000253008F0B6C0802F8F7126960FB6F894B2
:102FA000DEBF0FBECDBFDF91CF911F910F91FF907C
:102FB000EF90DF90CF900C942E1D263008F0A1C02A
:102FC000EACFFF20A1F0802F8F7126960FB6F894DC
:102FD000DEBF0FBECDBFDF91CF911F910F91FF904C
:102FE000EF90DF90CF900C94E81CFF2061F3802FCE
:102FF0008F7126960FB6F894DEBF0FBECDBFDF915E
:10300000CF911F910F91FF90EF90DF90CF900C9494
:10301000091DFF2091F0802F8F7126960FB6F8942E
:10302000DEBF0FBECDBFDF91CF911F910F91FF90FB
:10303000EF90DF90CF900C94D31C26960FB6F894A7
:10304000DEBF0FBECDBFDF91CF911F910F91FF90DB
:10305000EF90DF90CF900C94CE1CFF20A1F02223A4
:1030600009F4B1CF812F26960FB6F894DEBF0FBEBC
:10307000CDBFDF91CF911F910F91FF90EF90DF9027
:10308000CF900C942214222309F4B1CF812F2696DD
:103090000FB6F894DEBF0FBECDBFDF91CF911F9169
:1030A0000F91FF90EF90DF90CF900C941015402F70
:1030B0004F70612FC6010E94F80726960FB6F8944C
:1030C000DEBF0FBECDBFDF91CF911F910F91FF905B
:1030D000EF90DF90CF900C94E01B402F4F70612F4A
:1030E000C60126960FB6F894DEBF0FBECDBFDF91A6
:1030F000CF911F910F91FF90EF90DF90CF900C94A4
:103100000E0826960FB6F894DEBF0FBECDBFDF9136
:10311000CF911F910F91FF90EF90DF90CF90089586
:103120000E94921E0E94611E0E94AC1E0E94C12538
:103130000E948F2480E090E00E94731280E090E073
:103140000C94A1120E94821E0C9490180E94861D5D
:10315000292F22952F7030E02C3031054CF42A3085
:1031600031056CF4225031092230310588F407C052
:103170002C30310549F02F30310531F009C0803E47
:1031800048F0803F29F406C093FB882780F9089512
:1031900080E0089581E00895CF93DF9300D000D0C0
:1031A0001F92CDB7DEB70F900F900F900F900F903A
:1031B000DF91CF910895CF93DF9300D000D000D05E
:1031C000CDB7DEB726960FB6F894DEBF0FBECDBFE3
:1031D000DF91CF9108951F93CF93DF93C091890121
:1031E00016E080918A01C81799F0D0E01C9FF00189
:1031F0001D9FF00D1124E557FE4F408151816281E2
:103200007381848195810E94DB182196C770E9CF74
:10321000DF91CF911F9108954091BB015091BC0166
:103220006091BD017091BE018091BF019091C0017C
:103230000C94DB188091C00182958F7009F054C006
:103240008091BD01882309F44FC080918901A0912C
:103250008A016091BB017091BC014091BE01509107
:10326000BF01B6E08A1709F43FC090E0411551054F
:10327000C1F17F3F11F46F3FA1F1B89FF001B99FF9
:10328000F00D1124E557FE4F218172132AC02081D1
:10329000621327C02281211124C023813481241785
:1032A000350710F421503109241B350B283C31051A
:1032B000C0F42091C0012F7020612093C00126E04E
:1032C000289FF001299FF00D1124E057FE4F8081C7
:1032D0008F70806180838BEB91E00E9488150C9445
:1032E000EB1801968770BECF0895CF92DF92EF92D0
:1032F000FF920F931F93CF93DF93CDB7DEB7629703
:103300000FB6F894DEBF0FBECDBF8C0185E0F8018B
:10331000DE011D9601900D928A95E1F7D8014C913E
:1033200011965C91119712966C9112971396CD900D
:10333000DC9014973091BB017091BC018091BE016B
:103340009091BF01009709F46BC17F3F19F43F3F93
:1033500009F466C1E090BD01EE2009F4C0C02091DF
:10336000C001C816D90628F0F601E81BF90BCF01F9
:1033700004C0809590958C0D9D1DFF24F394883C8E
:10338000910578F0F12C207F09F0C6C07C2DD98AF8
:10339000C88A89890E94CC188BEB91E00E9488151D
:1033A000B1C0822F807F09F046C0751314C034135A
:1033B00012C0611110C02F7020612093C0010E94C3
:1033C0000C198BEB91E00E9488158091C001D80107
:1033D00015968C932EC0CD2819F15F3F11F44F3F05
:1033E000F9F0F62E61111CC08091890120918A01AB
:1033F00036E0821709F45AC090E0389FF001399FF7
:10340000F00D1124E557FE4F7181571306C07081EE
:10341000471303C07281711103C001968770E9CF11
:10342000F62E662309F418C18091C0018160809353
:10343000C001F12C11C1751308C0341306C061110D
:1034400004C08091C001D801C3C04D875E878D85BF
:103450009E856A8B0E94A6186A898823E1F16623FB
:10346000D1F12091C001822F82958F7090E0029758
:1034700074F08091BB019091BC0198878F8319866D
:10348000DB86CA862C87CE0107960E94881586E0C7
:10349000F801ABEBB1E001900D928A95E1F70E9443
:1034A0001A190E940C19FF24F394D6C04D875E8729
:1034B0008D859E850E94861D292F22952F7030E0D4
:1034C000223031050CF0BCC09F7009F0B6C0805EA0
:1034D000883008F4C1C0C8010E948815E4CFC8161E
:1034E000D90608F453C0F601E81BF90BCF01883C5C
:1034F000910508F450C0F12C7C2DD98AC88A89899D
:103500000E94CC18EBEBF1E086E0DF011D928A957A
:10351000E9F70E940C19A0C0751314C0341312C02F
:10352000611110C08091C001F8018583C8010E941B
:10353000881586E0EBEBF1E0DF011D928A95E9F753
:10354000FE2C8AC04D875E878D859E856A8B0E9482
:10355000A6186A89882309F4BECF662309F4BBCF75
:103560002091C001822F82958F7090E002970CF419
:103570008ECF8091BB019091BC019A8389831B827D
:10358000DD82CC822E83CE0101967FCF80959095EF
:103590008C0D9D1DACCFF62E662309F49CCF7513C0
:1035A0002EC034132CC02091C00120FD1FC0822FDB
:1035B00082958F70D9F0D80115962C9315978F307E
:1035C00049F08F5F982F9295907F822F8F70892B73
:1035D00015968C93C8010E94881586E0F801ABEB24
:1035E000B1E001900D928A95E1F793CF86E0F80162
:1035F000ABEBB1E001900D928A95E1F72DC04D87BC
:103600005E878D859E850E94A618811140CF80918E
:10361000C00181608093C001C8010E9488151CC050
:10362000662309F458CF4D875E878D859E850E945D
:10363000A618882309F44FCF2ACF811148CF0CC098
:10364000243031050CF047CF9F7009F440CFF801CA
:103650009581907F09F03BCF8F2D62960FB6F8943D
:10366000DEBF0FBECDBFDF91CF911F910F91FF90B5
:10367000EF90DF90CF9008951F93CF93DF93CDB756
:10368000DEB72C970FB6F894DEBF0FBECDBF4F83C9
:10369000588769877A878B879C87CE0107960E9417
:1036A0007519882369F08F8198852A853B85232B9E
:1036B000F1F19F3F09F063C08F3F09F060C037C050
:1036C00086E0FE013796DE01119601900D928A95F3
:1036D000E1F76F817885EA85FB85309741F17F3F7F
:1036E00011F46F3F21F120918A0130E0C901019668
:1036F000877099274091890150E08417950709F454
:1037000047C069837A83FD83EC8396E0929FD00162
:10371000939FB00D1124A557BE4FFE013196019025
:103720000D929A95E1F780938A010E94EB1816E0BA
:103730008091890190918A018917C1F1189FC00178
:10374000112485579E4F0E947519882379F1E091C5
:1037500089011E9FF0011124E557FE4F40815181E0
:1037600062817381848195810E94DB188091890137
:1037700090E001968770992780938901D9CF4F8176
:10378000588569857A858B859C850E94DB18CFCF0B
:103790000E94A21810928A0110928901EBEBF1E0CD
:1037A00086E0DF011D928A95E9F7C1CF2C960FB60E
:1037B000F894DEBF0FBECDBFDF91CF911F9108956A
:1037C000DF92EF92FF920F931F93CF93DF93FC0151
:1037D000892B09F48AC0E12CF12CDD24D394EF016C
:1037E00021968491853709F461C058F4843708F034
:1037F0004EC0843008F06AC08130D1F0823071F15F
:1038000074C0883709F45DC050F4863709F455C098
:10381000873709F06AC08E2D0E947F1E54C09CE736
:10382000980F903708F061C08F770E94101550C034
:103830008F010E5F1F4FFE01849190E2980F983028
:1038400050F48770FD2D01C0FF0F8A95EAF78F2F86
:103850000E94851E14C00E94221413C08F010E5FA7
:103860001F4FFE01C49180E28C0F883060F4C77056
:103870008D2D01C0880FCA95EAF70E948B1E0E9409
:10388000AC1EE80125C08C2F0E941015FACF9F01B5
:103890002E5F3F4FFE01C491CC2369F08FE99FE07A
:1038A0000197F1F700C00000C150F6CF9F012E5FD5
:1038B0003F4FFE01F490E9010BC00E946F1EE82EFD
:1038C00007C00E94821E0E94AC1E02C00E942214E9
:1038D0008F2D882341F0EFE9FFE03197F1F700C029
:1038E00000008150F6CFFE017ACFDF91CF911F917A
:1038F0000F91FF90EF90DF9008956093C501709352
:10390000C6018093C7019093C8010E94171F0C94B1
:1039100090186093C1017093C2018093C30190938A
:10392000C4010E94181F0C94901808950C947D1CDB
:103930000F931F930091C5011091C6012091C701FB
:103940003091C801602B712B822B932B1F910F910B
:103950000C947D1C0F931F930091C5011091C6011B
:103960002091C7013091C8016023712382239323E2
:103970001F910F910C947D1C0F931F930091C50113
:103980001091C6012091C7013091C80160277127AD
:10399000822793271F910F910C947D1C60E070E0AB
:1039A000CB010C94891C0F931F9341E050E060E021
:1039B00070E08A019B0104C0000F111F221F331FFA
:1039C0008A95D2F7C901B8011F910F910C94891CF7
:1039D0000F931F9341E050E060E070E004C0440F9B
:1039E000551F661F771F8A95D2F78091C10190916C
:1039F000C201A091C301B091C4018A019B01082BAF
:103A0000192B2A2B3B2BC901B8011F910F910C9444
:103A1000891C0F931F9341E050E060E070E004C008
:103A2000440F551F661F771F8A95D2F74095509512
:103A3000609570958091C1019091C201A091C301E0
:103A4000B091C4018A019B01082319232A233B2337
:103A5000C901B8011F910F910C94891C0F931F93FA
:103A600041E050E060E070E004C0440F551F661F65
:103A7000771F8A95D2F78091C1019091C201A091E0
:103A8000C301B091C4018A019B01082719272A2785
:103A90003B27C901B8011F910F910C94891C0F930A
:103AA0001F930091C1011091C2012091C301309177
:103AB000C401602B712B822B932B1F910F910C94BF
:103AC000891C0F931F930091C1011091C201209195
:103AD000C3013091C40160237123822393231F917A
:103AE0000F910C94891C0F931F930091C1011091A9
:103AF000C2012091C3013091C40160277127822740
:103B000093271F910F910C94891C0895CF92DF92F7
:103B1000EF92FF920F931F93CF93DF938C01C0908E
:103B2000C501D090C601E090C701F090C801409156
:103B3000C1015091C2016091C3017091C401C42AB6
:103B4000D52AE62AF72ACFE1D0E0D701C6010C2E0C
:103B500004C0B695A795979587950A94D2F780FFEC
:103B600007C0B8018C2F0E94C5208130910531F427
:103B7000219758F7B80180E00E94C520DF91CF91CE
:103B80001F910F91FF90EF90DF90CF90089590914B
:103B90000B01992321F090910C01911109C0209102
:103BA0000D0130910E01F90132969FEF40E030C0D7
:103BB000982F9695969596959F31A0F4E0910D01DA
:103BC000F0910E01E90FF11D877021E030E0A901AD
:103BD00002C0440F551F8A95E2F7CA019181892BD3
:103BE000818308959091EC0190FF23C01F928F93E1
:103BF00088E396E09F938F930E94EF070F900F90BA
:103C00000F900F9008959F3F39F04F5F4E3141F074
:103C100051915813F8CF0DC05111F7CF942FF5CF14
:103C20009F3F39F0F901E90FF11D97FDFA95828365
:103C30000895089590910B01992321F090910C0122
:103C4000911109C020910D0130910E01F9013296B8
:103C5000205E3F4F30C0982F9695969596959F3150
:103C6000A8F4E0910D01F0910E01E90FF11D8770AC
:103C700021E030E0A90102C0440F551F8A95E2F708
:103C8000CA01809591818923818308959091EC01E7
:103C900090FF16C01F928F938AE196E09F938F93B7
:103CA0000E94EF070F900F900F900F90089531969C
:103CB000E217F30729F090819813F9CF1082F7CF1C
:103CC000089581E090E0E0910D01F0910E01E80F80
:103CD000F91F1082019680329105A9F7089580910D
:103CE000EB0108959091EB01892B8093EB010895EE
:103CF00080959091EB0189238093EB010895809347
:103D0000EB0108951092EB0108959091EA01892B3F
:103D10008093EA01089580959091EA018923809328
:103D2000EA0108951092EA0108958093C901089567
:103D30001092C901089580910D0190910E01FC012E
:103D400031969C01205E3F4F80E0919191118F5FF1
:103D5000E217F307D1F70895E0910D01F0910E01FC
:103D60008091EB018083E0910D01F0910E01908133
:103D70008091EA01892B80838091C901882361F0B9
:103D8000E0910D01F0910E019081892B80830E94BA
:103D90009B1E81111092C90180910D0190910E011D
:103DA0000C941F1290933B0180933A0108958295E1
:103DB000982F9C7C392F36953695282F237344E015
:103DC000249FC0011124932F982B292F2A7A2695FE
:103DD000892F8575880F822B08951F93CF93DF93CA
:103DE0001F92CDB7DEB799830E94D71E182F9981F5
:103DF000892F0E94D71E212F30E0322F2227A901C0
:103E0000482BCA010F90DF91CF911F91089508951B
:103E1000CF93DF9300D000D01F92CDB7DEB70F90C5
:103E20000F900F900F900F90DF91CF91089508950C
:103E300008950C94A813089580910102843021F113
:103E40001092ED0120E488E190E00FB6F894A89577
:103E5000809360000FBE2093600083B7817F8460F1
:103E600083BF83B7816083BF7894889583B78E7F43
:103E700083BF0FB6F894A895809160008861809305
:103E80006000109260000FBE0895CF930E94E0136F
:103E90000E94F8080E94E113C0E08C2F0E94200AC3
:103EA000892B29F4CF5FC530C1F780E001C081E0E4
:103EB000CF9108950E94AA130C94A2181F920F92FA
:103EC0000FB60F9211248F939F93AF93BF9380915E
:103ED000ED01811113C08091EE019091EF01A0914D
:103EE000F001B091F1014196A11DB11D8093EE0149
:103EF0009093EF01A093F001B093F101BF91AF91C6
:103F00009F918F910F900FBE0F901F90189582E098
:103F100084BD93E095BD9AEF97BD80936E000895A0
:103F20002FB7F8948091EE019091EF01A091F001EC
:103F3000B091F1012FBF08952FB7F8946091EE0171
:103F40007091EF018091F0019091F1012FBF0895E0
:103F5000CF92DF92EF92FF920F931F932FB7F894B7
:103F60004091EE015091EF016091F0017091F101EB
:103F70002FBF6A017B01EE24FF248C0120E030E09A
:103F8000C016D106E206F30610F4415051099A0119
:103F9000281B390BC9011F910F91FF90EF90DF9003
:103FA000CF9008951F920F920FB60F9211248F9306
:103FB0009F93AF93BF938091EE019091EF01A091F9
:103FC000F001B091F1010196A11DB11D8093EE01A8
:103FD0009093EF01A093F001B093F101BF91AF91E5
:103FE0009F918F910F900FBE0F901F9018950E9478
:103FF0002C0FF8942FEF87EA91E6215080409040F3
:10400000E1F700C0000087E090EBDC0180930B0239
:1040100090930C02A0930D02B0930E029CE088E1F5
:104020000FB6F894A895809360000FBE909360003F
:10403000FFCF8D3B60F4883A90F5853A28F58430BF
:1040400008F5813009F086C081E090E00895883E4F
:1040500098F4803EB8F48F3B09F07CC00E94A2180F
:104060002FEF80E792E0215080409040E1F700C0C0
:1040700000000E94F71F6EC0803F08F46BC090E004
:104080009065089590E00895853A21F0863A21F0F0
:1040900033E803C031E801C032E820E458C0883A70
:1040A00051F1893A59F18A3A59F18B3A59F18C3ADE
:1040B00059F18D3A59F18E3A59F18F3A59F1813BC4
:1040C00059F1803B59F1823B59F1833B59F1843BD3
:1040D00059F1853B59F1863B61F1873B61F1883BA2
:1040E00061F1893B61F18A3B61F18B3B61F18C3B72
:1040F00061F130E001C032EE24E429C039EEFCCF9A
:104100003AEEFACF35EBF8CF36EBF6CF33EBF4CF10
:1041100034EBF2CF37EBF0CF3CECEECF3DECECCF15
:1041200033E805C03AE803C032E901C034E925E4C8
:104130000EC031E20BC033E209C034E207C035E201
:1041400005C036E203C037E201C03AE226E4832F1D
:10415000922F089580E090E008959EE0799FF0010D
:10416000112496E4899FE00DF11D1124E60FF11D45
:10417000EA5CFE4F84910895E82FF0E0EE0FFF1FF8
:10418000EA56F0408591949108950E94AD20803EBA
:10419000A8F4803C00F5813309F45CC038F489321E
:1041A00009F452C08A3209F45BC05FC08933B1F0B0
:1041B0008238A1F0853309F441C057C0833E41F1F4
:1041C00028F4803E99F0823EB9F04FC0863E31F12E
:1041D000873E71F14AC00E94BC20089590910A0266
:1041E00090FD02C091FF41C080EE3FC080910A0265
:1041F00080FFFACF89E339C080910A0282FF0CC0A8
:1042000080910A0284FF02C080E02FC083EE2DC09F
:1042100080910A0282FFF4CF82EE27C080910A02C9
:1042200083FF0AC080910A0284FDEECF87EE1DC095
:1042300080910A0283FFF6CF86EE17C080910A02B2
:1042400085FF06C089E211C080910A0285FFFACF7E
:1042500085E30BC080910A0286FF06C08AE205C092
:1042600080910A0286FFFACF81E30E941920089507
:10427000AF92BF92CF92DF92EF92FF920F931F9374
:10428000CF937C01C0E0CC24C394D12C8C2F0E940E
:10429000200A5C0100E010E0C601002E02C0880F79
:1042A000991F0A94E2F78A219B21892BB1F0602F94
:1042B0007C2F80E00E94C5209C018E159F0559F03F
:1042C000832F807E932F907C11F0803A31F430E080
:1042D0002E153F0511F481E009C00F5F1F4F0E300E
:1042E0001105D1F6CF5FC53089F680E0CF911F91DF
:1042F0000F91FF90EF90DF90CF90BF90AF90089517
:10430000CF93DF93EC018CE290E00E943821882368
:1043100029F0CE01DF91CF910C94382180E0DF911C
:10432000CF910895CF930E94FA22811102C00E947A
:10433000E0228DE596E00E945607C5E6C15049F09F
:104340000E94F8088FE39CE90197F1F700C0000094
:10435000F5CF86E596E00E94560789E290E00E943C
:10436000802181112BC18AE290E00E94802181117D
:104370000E94E02285E090E00E94802181110E944D
:10438000F71F0E941B1F0E9405238093EC0187E00A
:1043900090E00E9480218823C1F18BE190E00E948F
:1043A0008021882351F08091EC0181FB222720F9A4
:1043B00091E0922790FB81F90FC08EE090E00E947F
:1043C0008021882361F08091EC0182FB222720F973
:1043D00091E0922790FB82F98093EC0116C080E176
:1043E00090E00E9480219091EC01882341F093FBA2
:1043F000222720F981E0822780FB93F904C0892FCE
:10440000809580FB90F99093EC018091EC010E94E3
:1044100009230E94172380930A0280EE90E00E94F5
:104420008021882341F080910A02982F909590FB7B
:1044300080F980930A0289E390E00E94802188231A
:1044400059F080910A0281FB222720F991E09227FE
:1044500090FB81F980930A0282EE90E00E94802115
:10446000882359F080910A0282FB222720F991E0EB
:10447000922790FB82F980930A0286EE90E00E94D8
:104480008021882359F080910A0283FB222720F99A
:1044900091E0922790FB83F980930A0283EE90E0EB
:1044A0000E948021882359F080910A0284FB2227F0
:1044B00020F991E0922790FB84F980930A0285E32A
:1044C00090E00E948021882359F080910A0285FBA8
:1044D000222720F991E0922790FB85F980930A0228
:1044E00081E390E00E948021882359F080910A02A4
:1044F00086FB222720F991E0922790FB86F9809392
:104500000A0281E190E00E948021882359F0809185
:104510000A0287FB222720F991E0922790FB87F976
:1045200080930A0280910A020E941B2380910A0252
:1045300087FB882780F980930C0187E290E00E9436
:104540008021C82F8EE190E00E9480218111C260FD
:104550008FE190E00E9480218111C46080E290E0B0
:104560000E9480218111C86081E290E00E94802138
:104570008111C06182E290E00E9480218111C062BD
:1045800083E290E00E9480218111C06484E290E087
:104590000E948021882311F0C06802C0CC2329F03A
:1045A0008C2F0E9412236C2F03C00E940E23682FB1
:1045B00070E080E090E0CF910C94961CCF9108952C
:1045C0006DEE7EEF80E090E00E94782C60E082E06B
:1045D00090E00E946A2C60E083E090E00E946A2CE8
:1045E00060E084E090E00E946A2C60E085E090E06A
:1045F0000C946A2C80E090E00E94642C21E08D3EB7
:104600009E4F09F020E0822F089582E090E00C9404
:104610005C2C682F82E090E00C946A2C83E090E0A0
:104620000C945C2C682F83E090E00C946A2C84E05E
:1046300090E00C945C2C682F84E090E00C946A2C41
:104640008091F40180FF0BC06091120185E0689FAA
:10465000B001112475956795759567952BC081FFFD
:1046600009C06091120185E0689FB0011124759521
:10467000679520C082FF07C06091120185E0689FA6
:10468000B001112417C09091F5019923D1F06091E8
:104690001101961788F72091120185E0289F90015B
:1046A0001124929FA001939F500D112470E0CA0124
:1046B0000E942E2C6038710540F46115710539F0A7
:1046C00002C065E070E0862F08958FE7089581E0CD
:1046D00008958091F40180FF08C06091100170E09E
:1046E000759567957595679521C081FF06C06091A6
:1046F000100170E07595679519C082FF04C0609144
:10470000100170E010C09091F5019923C1F0609103
:104710000F019617A0F780911001899FC001112405
:1047200070E00E942E2C6038710528F46115710527
:1047300021F0862F08958FE7089581E0089561E0C4
:1047400070E0F4CF803F21F40E942023819504C0C3
:10475000813F29F40E9420238093F8010895823F2D
:1047600021F40E942023819504C0833F29F40E94F4
:1047700020238093F7010895893F19F40E9469234B
:1047800005C08A3F31F40E94692381958093F90125
:1047900008958B3F21F40E946923819504C08C3FCA
:1047A00029F40E9469238093FA010895843F21F43B
:1047B0008091F601816017C0853F21F48091F60158
:1047C000826011C0863F21F48091F60184600BC0A5
:1047D000873F21F48091F601886005C0883F31F45D
:1047E0008091F60180618093F60108958D3F21F458
:1047F0008091F40181600BC08E3F21F48091F4011F
:10480000826005C08F3F29F48091F4018460809319
:10481000F4010895803F39F48091F80187FF6CC05E
:104820001092F80169C0813F29F48091F8011816AF
:10483000BCF362C09091F701823F29F497FF5CC0FE
:104840001092F70159C0833F19F41916CCF354C0E4
:10485000893F41F48091F90118160CF04DC0109277
:10486000F9014AC08A3F29F48091F90187FF44C0C9
:10487000F6CF8B3F39F48091FA0187FF3DC010924B
:10488000FA013AC08C3F29F48091FA011816BCF362
:1048900033C0843F21F48091F6018E7F17C0853F9D
:1048A00021F48091F6018D7F11C0863F21F4809123
:1048B000F6018B7F0BC0873F21F48091F601877F43
:1048C00005C0883F31F48091F6018F7E8093F60118
:1048D00013C08D3F21F48091F4018E7F0BC08E3F79
:1048E00021F48091F4018D7F05C08F3F29F48091E0
:1048F000F4018B7F8093F4018091F70181110EC048
:104900008091F80181110AC08091F901811106C0DE
:104910008091FA01811102C01092F50108958091F1
:10492000EC0183FF7EC089E996E00E9456078091E2
:10493000F6011F928F9384E996E09F938F930E94D4
:10494000EF0782E996E00E9456078091F701282F31
:10495000082E000C330B3F938F938FE896E09F93C4
:104960008F930E94EF078DE896E00E945607809192
:10497000F801282F082E000C330B3F938F938AE801
:1049800096E09F938F930E94EF0788E896E00E943D
:1049900056078091F901282F082E000C330B3F9306
:1049A0008F9385E896E09F938F930E94EF0783E8AB
:1049B00096E00E9456078091FA01282F082E000CDD
:1049C000330B3F938F9380E896E09F938F930E94E1
:1049D000EF078DE796E00E9456078091F5011F9240
:1049E0008F938AE796E09F938F930E94EF0788E763
:1049F00096E00E9456078091F4011F928F9385E7FD
:104A000096E09F938F930E94EF0782E796E00E94C3
:104A100056078DB79EB74C960FB6F8949EBF0FBE43
:104A20008DBF86EF91E00E9468120E94901F9093C4
:104A3000F3018093F20108951F93CF93DF93809148
:104A4000F2019091F3010E94A81FAC019091F50131
:104A5000992321F02091130130E006C02091140128
:104A60008AE0289F900111244217530708F485C05B
:104A70008091F701C091F801D091F9011091FA01EC
:104A8000811107C0C11175C0D11173C0111171C05E
:104A900074C09F3F19F09F5F9093F501181624F49E
:104AA0000E9420238093F7018091F70187FF05C0C2
:104AB0000E94202381958093F7011C1624F40E9404
:104AC00020238093F8018091F80187FF05C00E94A0
:104AD000202381958093F8016091F701662331F1DD
:104AE000C091F801CC2311F1062E000C770B880B36
:104AF000990B0E94292B23E333E343E35FE30E94F6
:104B00008D2B0E94F12A6093F7016C2FCC0F770B4D
:104B1000880B990B0E94292B23E333E343E35FE3E4
:104B20000E948D2B0E94F12A6093F8011D1624F437
:104B30000E9469238093F9018091F90187FF05C0E4
:104B40000E94692381958093F901111624F40E9433
:104B500069238093FA018091FA0187FF05C00E94C2
:104B6000692381958093FA01DF91CF911F910C9475
:104B70008F249F3F09F08FCF97CFDF91CF911F9167
:104B80000895E6EFF1E085E0DF011D928A95E9F7EF
:104B90001092F5011092F40108958CEB98E00E94B8
:104BA00056071F9281E08F931F9285E08F938EE6C8
:104BB00098E09F938F930E94EF070F900F900F90B4
:104BC0000F900F900F9008958330E9F128F4813011
:104BD00061F0823009F10895853009F462C008F46B
:104BE00049C0863009F474C0089580911401262FBD
:104BF00030E0280F311D2F3F310524F4680F6093FA
:104C0000140103C08FEF80931401809114011F924F
:104C10008F9387EA97E072C080911301262F30E0CE
:104C2000280F311D2F3F310524F4680F60931301C5
:104C300003C08FEF80931301809113011F928F9314
:104C400085E997E05BC080911201262F30E0280FA4
:104C5000311D2F3F310524F4680F6093120103C00A
:104C60008FEF80931201809112011F928F9382E83F
:104C700097E044C080911101262F30E0280F311DAC
:104C80002F3F310524F4680F6093110103C08FEFAB
:104C900080931101809111011F928F938DE697E00F
:104CA0002DC080911001262F30E0280F311D2F3F9D
:104CB000310524F4680F6093100103C08FEF8093D7
:104CC0001001809110011F928F9384E597E016C028
:104CD00080910F01262F30E0280F311D2F3F310525
:104CE00024F4680F60930F0103C08FEF80930F01CE
:104CF00080910F011F928F9389E397E09F938F9389
:104D00000E94EF070F900F900F900F90089583303F
:104D100081F128F4813059F08230D1F00895853046
:104D200009F449C0B8F1863009F456C0089580915D
:104D30001401681720F4861B8093140102C010929E
:104D40001401809114011F928F938AE297E054C05E
:104D500080911301681720F4861B8093130102C011
:104D600010921301809113011F928F9388E197E0B5
:104D700043C080911201681720F4861B80931201B2
:104D800002C010921201809112011F928F9385E050
:104D900097E032C080911101681720F4861B809340
:104DA000110102C010921101809111011F928F9385
:104DB00080EF96E021C080911001681720F4861BD7
:104DC0008093100102C010921001809110011F9277
:104DD0008F9387ED96E010C080910F01681720F443
:104DE000861B80930F0102C010920F0180910F016A
:104DF0001F928F938CEB96E09F938F930E94EF0707
:104E00000F900F900F900F900895CF93C82F1F927F
:104E10008F9381EC99E09F938F930E94EF0781E03D
:104E200090E0A0E0B0E0BC01CD0104C0660F771FA8
:104E3000881F991FCA95D2F70E94961C0F900F9059
:104E40000F900F90CF910C94A218CF938B3109F44F
:104E5000CBC108F049C08E3009F4DAC100F58730C3
:104E600009F4A9C1A8F4863009F05AC28091EC0176
:104E7000817F8E7F8093EC0186EC99E00E9456073B
:104E800082EF9DE00E94560781E08093FC0191C172
:104E9000883009F45BC08B3009F487C141C281318D
:104EA00009F426C220F4803109F4C6C139C2863122
:104EB00009F4DDC1893109F033C286E69DE00E9424
:104EC00056078DE39DE00E94560788E09DE00E9412
:104ED00056078BED9CE00E94560786E99CE00E94F5
:104EE000560788E69CE063C1853309F413C268F471
:104EF000873209F40FC228F48E3108F411C28D51A3
:104F00000CC2893209F406C20BC2833438F48A33E6
:104F100008F002C2883309F448C102C2833409F49C
:104F2000F9C1883409F0FCC10E94A21881EE9DE00D
:104F30000E9456079FEF23ED80E391502040804070
:104F4000E1F700C000000E94F71F33C186EF9DE02B
:104F50000E94560785EC9BE00E9456070E940E2394
:104F60001F928F9382EC9BE09F938F930E94EF0799
:104F700080EC9BE00E9456070E940523C82F8DEA13
:104F80009BE00E9456071F92CF9388EA9BE09F9375
:104F90008F930E94EF0786EA9BE00E9456078CE9F8
:104FA0009BE00E9456078C2F81701F928F9389E996
:104FB0009BE09F938F930E94EF0787E99BE00E94FD
:104FC00056078DE89BE00E945607C1FB882780F9B1
:104FD0001F928F938AE89BE09F938F930E94EF0725
:104FE00088E89BE00E9456078CE79BE00E945607EA
:104FF000C2FB882780F91F928F9389E79BE09F93DC
:105000008F930E94EF0787E79BE00E9456078EE68A
:105010009BE00E945607C3FBCC27C0F91F92CF9399
:105020008BE69BE09F938F930E94EF0789E69BE0BE
:105030000E9456070E941723C82F85E59BE00E9417
:1050400056071F92CF9380E59BE09F938F930E941A
:10505000EF078EE49BE00E94560785E39BE00E94E9
:1050600056078C2F81701F928F9382E39BE09F9352
:105070008F930E94EF078DB79EB780960FB6F89476
:105080009EBF0FBE8DBF80E39BE00E94560789E163
:105090009BE00E945607C1FB882780F91F928F93DF
:1050A00086E19BE09F938F930E94EF0784E19BE052
:1050B0000E94560782E09BE00E945607C2FB8827A9
:1050C00080F91F928F938FEF9AE09F938F930E94A6
:1050D000EF078DEF9AE00E9456078BEE9AE00E9450
:1050E0005607C3FB882780F91F928F9388EE9AE0BA
:1050F0009F938F930E94EF0786EE9AE00E945607D7
:105100008CED9AE00E945607C4FB882780F91F9215
:105110008F9389ED9AE09F938F930E94EF0787ED1D
:105120009AE00E94560785EC9AE00E945607C5FB5C
:10513000882780F91F928F9382EC9AE09F938F9338
:105140000E94EF0780EC9AE00E94560784EA9AE0FA
:105150000E945607C6FB882780F91F928F9381EA29
:105160009AE09F938F930E94EF078FE99AE00E9445
:10517000560787E99AE00E945607C7FBCC27C0F97B
:105180001F92CF9384E99AE09F938F930E94EF0739
:1051900082E99AE00E9456078DB79EB74C960FB6EB
:1051A000F8949EBF0FBE8DBF04C08DEE99E00E94A3
:1051B0005607C1E0BAC08091EC01C82FC17080FFD2
:1051C00009C084ED9DE00E9456078091EC01817F2B
:1051D0008E7F47C088EC9DE00E9456078091EC01CD
:1051E00081608093EC01E5CF9091EC0191FBCC279D
:1051F000C0F981E0C827892FC0FB81F98093EC01B9
:10520000CC2319F08BEB9DE027C08DEA9DE0CFCF3A
:105210009091EC0192FBCC27C0F981E0C827892F3F
:10522000C0FB82F98093EC01CC2319F08EE99DE05C
:1052300013C08EE89DE0BBCF9091EC0193FBCC278F
:10524000C0F981E0C827892FC0FB83F98093EC0166
:10525000CC2351F082E89DE00E9456078091EC013A
:1052600081608093EC0161C085E79DE0A0CF8AE575
:105270009CE00E9456070E9413121F928F9380E4B5
:105280009CE09F938F930E94EF0780910B011F92E8
:105290008F9389E29CE09F938F930E94EF07809108
:1052A00077011F928F9386E19CE09F938F930E94DA
:1052B000EF0780910C011F928F9383E09CE09F93F6
:1052C0008F930E94EF070E949C1F9F938F937F9361
:1052D0006F938CEE9BE09F938F930E94EF078DB7A7
:1052E0009EB746960FB6F8949EBF0FBE8DBF61CF96
:1052F0000E94A218C0910C0181E0C827C0930C0144
:10530000CC2329F082EE9BE00E9456070EC087ED69
:105310009BE04DCF80E001C089530E94052749CF13
:1053200085ED9BE00E945607C0E08C2FCF91089539
:1053300080E0089580E00895CF93C82F8091FC010C
:10534000813071F020F0823009F44BC042C1E0910D
:105350000D01F0910E018081823209F03CC107C03D
:10536000E0910D01F0910E018081823261F48C2F69
:105370000E949829811104C08C2F0E9425272FC0DC
:1053800081E090E02CC08C2F0E949A29811126C0C8
:10539000C431E1F070F4CB3081F0C031D1F40E941F
:1053A000CD2589EB99E00E94560782E08093FC01AD
:1053B00015C0C93259F0C83361F486EC99E00E94F7
:1053C00056078DEB99E00E94560708C01092FC0129
:1053D00004C187EB99E00E945607FFC081E081700D
:1053E000FEC0C43228F5CE3108F0C1C0CB30A1F1E7
:1053F000D0F4C73009F0D3C08EE18093140182E36A
:10540000809313018AE08093120184E1809311015B
:1054100088E08093100188E280930F018DE598E089
:105420000E945607BFC0C33149F1C431C1F0B7C0B3
:10543000CB3409F4A9C028F4C93289F0C83361F02B
:10544000AEC0C13509F49EC0C23509F499C0CE344E
:1054500009F0A5C06AE09EC00E94CD25A3C080913E
:10546000FB01882319F01092FB019CC08AE698E0AA
:105470000E94560781E08093FC01B1C084E498E06B
:105480000E94560782E398E00E945607809114011B
:105490001F928F938FE298E09F938F930E94EF0764
:1054A0008DE298E00E9456078BE198E00E94560733
:1054B000809113011F928F9388E198E09F938F93BF
:1054C0000E94EF0786E198E00E94560787E098E087
:1054D0000E945607809112011F928F9384E098E0FA
:1054E0009F938F930E94EF0782E098E00E945607F7
:1054F00081EF97E00E945607809111011F928F93D0
:105500008EEE97E09F938F930E94EF078CEE97E0CB
:105510000E94560787ED97E00E9456078091100180
:105520001F928F9384ED97E09F938F930E94EF07D4
:1055300082ED97E00E9456078BEB97E00E9456079A
:1055400080910F011F928F9388EB97E09F938F9329
:105550000E94EF0786EB97E00E9456078DB79EB733
:1055600048960FB6F8949EBF0FBE8DBF1BC0CE519C
:10557000EC2FF0E0E15DFE4F80818093FB0112C0D3
:1055800061E003C061E006C06AE08091FB010E9417
:10559000E42508C08091FB010E94872603C08BE5AB
:1055A00098E013C08091FB01882369F01F928F93CC
:1055B00085E598E09F938F930E94EF070F900F90DF
:1055C0000F900F9004C082E598E00E94560781E09A
:1055D00006C01092FC0180E002C080E000CFCF91B5
:1055E00008950E94F82A6894B1110C94872B0895AD
:1055F0000E946C2B88F09F5798F0B92F9927B751CC
:10560000B0F0E1F0660F771F881F991F1AF0BA9566
:10561000C9F714C0B13091F00E94862BB1E0089513
:105620000C94862B672F782F8827B85F39F0B93F05
:10563000CCF3869577956795B395D9F73EF4909519
:105640008095709561957F4F8F4F9F4F0895E89497
:1056500009C097FB3EF490958095709561957F4FBA
:105660008F4F9F4F9923A9F0F92F96E9BB27939568
:10567000F695879577956795B795F111F8CFFAF478
:10568000BB0F11F460FF1BC06F5F7F4F8F4F9F4FA9
:1056900016C0882311F096E911C0772321F09EE807
:1056A000872F762F05C0662371F096E8862F70E06D
:1056B00060E02AF09A95660F771F881FDAF7880F47
:1056C0009695879597F9089557FD9058440F551F63
:1056D00059F05F3F71F04795880F97FB991F61F074
:1056E0009F3F79F087950895121613061406551FEB
:1056F000F2CF4695F1DF08C0161617061806991F57
:10570000F1CF86957105610508940895E894BB274B
:1057100066277727CB0197F908950E94A02B0C9458
:10572000112C0E94032C38F00E940A2C20F09523A3
:1057300011F00C94FA2B0C94002C11240C94872B50
:105740000E94642B70F3959FC1F3950F50E0551F95
:10575000629FF001729FBB27F00DB11D639FAA27C6
:10576000F00DB11DAA1F649F6627B00DA11D661F15
:10577000829F2227B00DA11D621F739FB00DA11D36
:10578000621F839FA00D611D221F749F3327A00DF0
:10579000611D231F849F600D211D822F762F6A2F8C
:1057A00011249F5750409AF0F1F088234AF0EE0FF1
:1057B000FF1FBB1F661F771F881F91505040A9F71E
:1057C0009E3F510580F00C94FA2B0C94872B5F3F81
:1057D000E4F3983ED4F3869577956795B795F7955A
:1057E000E7959F5FC1F7FE2B880F911D96958795D2
:1057F00097F9089597F99F6780E870E060E0089551
:105800009FEF80EC089500240A94161617061806D8
:105810000906089500240A941216130614060506B4
:105820000895092E0394000C11F4882352F0BB0F45
:1058300040F4BF2B11F460FF04C06F5F7F4F8F4FA8
:105840009F4F0895991B79E004C0991F961708F09F
:10585000961B881F7A95C9F78095089597FB072EA8
:1058600016F4009407D077FD09D00E94482C07FC5D
:1058700005D03EF4909581959F4F08957095619560
:105880007F4F0895EE0FFF1F0590F491E02D0994CE
:10589000AA1BBB1B51E107C0AA1FBB1FA617B70756
:1058A00010F0A61BB70B881F991F5A95A9F7809572
:1058B0009095BC01CD010895F999FECF92BD81BDAF
:1058C000F89A992780B50895A8E1B0E042E050E049
:1058D0000C947F2C262FF999FECF1FBA92BD81BD63
:1058E00020BD0FB6F894FA9AF99A0FBE0196089562
:1058F0000E946A2C272F0C946B2CDC01CB01FC013D
:10590000F999FECF06C0F2BDE1BDF89A319600B418
:0E5910000D9241505040B8F70895F894FFCF23
:10591E00054F0A400B1D0BE90AB50A0101CA012801
:10592E0008140A321E404D36223979052C05F6042C
:10593E00D4049B040E042704400459047904000186
:0A594E000203040506070809000023
:00000001FF
