:100000000C9434090C9478090C9478090C947809B0
:100010000C9478090C9478090C9478090C9478095C
:100020000C9478090C9478090C942C120C94FC1202
:100030000C94CB240C9478090C9478090C947809CE
:100040000C9478090C9498310C9478090C947809E4
:100050000C9478090C9432250C9478090C94780946
:100060000C9478090C9478090C9478090C9478090C
:100070000C9478090C9478090C9478090C947809FC
:100080000C9478090C9478090C9478090C947809EC
:100090000C9478090C9478090C9478090C947809DC
:1000A0000C9478090C9478090C94780964148614DB
:1000B000721586147215C814EC1472154115541576
:1000C0007C187C18AA18AA18FF183B19A01BA01BA3
:1000D0005319A01B4A1A4A1A061B1A1BA01B8E1B77
:1000E000542E7C2E7D2C652F652F092E652F652FB4
:1000F000A82E652FBB2E302F652F652F652F652FFE
:10010000052FEC2E652FD52E652F952E652F652F8B
:100110005F2F5F2F5F2F5F2F5F2F5F2F5F2F5F2F6F
:100120005F2F5D2F652F5D2F652F652F652F652F45
:10013000652F652F652F652F652F652F652F5D2F27
:10014000652F652F092EEA2D612F612F612F612FF9
:10015000612F612F612F612F612F612F612F612F1F
:10016000422F652F682EF1A6218A228A2913F1A732
:10017000018C028C048C088C351E1F202122232424
:100180002526272D2E2A2B141A0815171C180C1299
:10019000132F303139041607090A0B0D0E0F3334B3
:1001A0000028E1001D1B061905111036373800E53F
:1001B000E0E3E200002C00000000C0E765E4351E2B
:1001C0001F20212223242526272D2E2A2B141A090D
:1001D000130A0D0F181C332F30312A041516170778
:1001E0000B11080C12340028E1001D1B0619050E26
:1001F0001036373800E5E0E3E200002C0000000094
:10020000C0E765E4351E1F20212223242526272F41
:10021000302A2B343637131C090A06150F382E31B5
:1002200039041208180C070B1711162D0028E100CD
:1002300033140D0E1B05101A191D00E5E0E3E20052
:10024000002C00000000C0E765E4351E1F202122BD
:1002500023242526272D2E2A2B1407151A050D09D0
:100260001813332F30312A04160B170A1C110812E9
:100270000C340028E1001D1B1006190E0F3637380C
:1002800000E5E0E3E200002C00000000C0E765E4C8
:10029000010101010101010101010101010101014E
:1002A000010101010101010101010101010101013E
:1002B0000101010101010101000101000101010130
:1002C00001010101010100520101010000010000D2
:1002D00000000150514F29010101010101010101FB
:1002E00001010101010101010101010101010101FE
:1002F00001010101010101010101010101010001EF
:1003000001000101010101010101010100010101DF
:10031000010000010000000001010101293A3B3CFD
:100320003D3E3F4041424344450101C2520101016B
:10033000010101B2014A49C40150514F0101464730
:100340004801C34D000101004C01B5A8A9AA014B09
:100350004E4C00010101010000C10000000001013C
:100360000101C5C6C7C80101010101010101010167
:1003700001C5C801010101010101010101010101E2
:1003800001C7010101010101010100010100010199
:10039000C60101010101010100010101010000018B
:1003A00000000000010101010A0025303136620021
:1003B0003A200025303258000A722F632030313243
:1003C000333435363738394142434445460A000A0A
:1003D000002530325800626F756E6365213A200047
:1003E000001080FF012300200122022201225B7302
:1003F0005D004B6579626F61726420737461727421
:100400002E0A0055534220636F6E666967757265E8
:10041000642E0A005B575D005B535D005B525D001C
:100420005B445D005B435D000A0347004800360003
:100430003000000012036700650065006B00680073
:10044000610063006B0000000403090409028D00D1
:10045000050100A032090400000103010100092187
:1004600011010001223F000705810308000A090469
:1004700001000103010200092111010001224D00C8
:100480000705820308000A090402000103000000B6
:100490000921110100012236000705830308000A23
:1004A00009040300020300000009211101000122D8
:1004B0002000070584032000010705040320000134
:1004C00009040400010300000009211101000122B8
:1004D000390007058503100001120110010000001A
:1004E00008EDFE606001000102000105010906A19E
:1004F00001050719E029E715002501950875018117
:1005000002050819012905950575019102950175E6
:1005100003910105071900297715002501957875C4
:10052000018102C00631FF0974A10109751500257A
:10053000FF9520750881020976150025FF95207525
:10054000089102C005010980A1018502160100265B
:10055000B7001A01002AB700751095018100C00587
:100560000C0901A1018503160100269C021A010055
:100570002A9C02751095018100C005010902A101A4
:100580000901A10005091901290515002501950595
:100590007501810295017503810105010930093159
:1005A0001581257F95027508810609381581257FFB
:1005B000950175088106050C0A38021581257F957D
:1005C0000175088106C0C005010906A101050719CA
:1005D000E029E7150025019508750181029501754F
:1005E00008810105081901290595057501910295F4
:1005F00001750391010507190029FF150025FF95D5
:100600000675088100C00A002530325820006B654D
:1006100079626F6172645F7265706F72743A200004
:100620000A0025303258006B6579626F6172645F31
:100630007365745F6C65643A200064656C5F6B651C
:10064000795F6269743A2063616E27742064656C17
:100650003A20253032580A006164645F6B65795F27
:100660006269743A2063616E2774206164643A2081
:10067000253032580A00646F6E652E0A00626F6F73
:10068000676D61676963207363616E3A202E2E2E59
:100690002000290A002575002F002575005D28001F
:1006A000256400200025640020002564002000252A
:1006B00064007C0025303258006D6F7573656B6582
:1006C00079205B62746E7C782079207620685D28C2
:1006D0007265702F61636C293A205B000A002575F2
:1006E000006D6B5F776865656C5F74696D655F74DD
:1006F0006F5F6D6178203D20000A002575006D6BED
:100700005F776865656C5F6D61785F737065656460
:10071000203D20000A002575006D6B5F74696D65D2
:100720005F746F5F6D6178203D20000A00257500C1
:100730006D6B5F6D61785F7370656564203D20004F
:100740000A002575006D6B5F696E74657276616C69
:10075000203D20000A002575006D6B5F64656C61AB
:1007600079203D20000A002575006D6B5F77686574
:10077000656C5F74696D655F746F5F6D6178203D56
:1007800020000A002575006D6B5F776865656C5FFA
:100790006D61785F7370656564203D20000A0025F7
:1007A00075006D6B5F74696D655F746F5F6D617807
:1007B000203D20000A002575006D6B5F6D61785F3C
:1007C0007370656564203D20000A002575006D6B1F
:1007D0005F696E74657276616C203D20000A0025A9
:1007E00075006D6B5F64656C6179203D20000A00C7
:1007F000257500363A206D6B5F776865656C5F74B0
:10080000696D655F746F5F6D61783A20000A00253D
:100810007500353A206D6B5F776865656C5F6D615B
:10082000785F73706565643A20000A0025750034AE
:100830003A206D6B5F74696D655F746F5F6D617891
:100840003A20000A00257500333A206D6B5F6D6118
:10085000785F73706565643A20000A002575003280
:100860003A206D6B5F696E74657276616C286D738A
:10087000293A20000A00257500313A206D6B5F642B
:10088000656C6179282A31306D73293A20000A0A93
:100890002D2D2D2D2D204D6F7573656B6579205095
:1008A0006172616D6574657273202D2D2D2D2D0A79
:1008B000003E20002575004D003F007365742064E4
:1008C000656661756C742076616C7565732E0A00BF
:1008D0000A0025750073656C65637465642070613A
:1008E00072616D657465723A2000433E20000A51C2
:1008F000756974204D6F7573656B657920436F6EF4
:10090000736F6C650A0053656520687474703A2FC4
:100910002F656E2E77696B6970656469612E6F72E1
:10092000672F77696B692F4D6F7573655F6B65799D
:10093000730A000A002575002C20776865656C3DF8
:100940000025750077686572652064656C74613A8E
:1009500020637572736F723D000A73706565642061
:100960003D2064656C7461202A206D61785F73702E
:10097000656564202A2028726570656174202F20C7
:1009800074696D655F746F5F6D6178290A007067C7
:10099000646F776E3A096465637265617365207090
:1009A0006172616D6574657273282D3130290A009A
:1009B000706775703A09696E63726561736520705E
:1009C0006172616D6574657273282B3130290A007C
:1009D000646F776E3A096465637265617365207050
:1009E0006172616D6574657273282D31290A007515
:1009F000703A09696E637265617365207061726136
:100A00006D6574657273282B31290A00643A097385
:100A100065742064656661756C742076616C7565BB
:100A2000730A00703A097072696E742070617261A5
:100A30006D65746572730A00363A0973656C656397
:100A400074206D6B5F776865656C5F74696D655F59
:100A5000746F5F6D61780A00353A0973656C656380
:100A600074206D6B5F776865656C5F6D61785F732F
:100A7000706565640A00343A0973656C65637420B7
:100A80006D6B5F74696D655F746F5F6D61780A008F
:100A9000333A0973656C656374206D6B5F6D6178C3
:100AA0005F73706565640A00323A0973656C65634B
:100AB00074206D6B5F696E74657276616C286D73FE
:100AC000290A00313A0973656C656374206D6B5FA8
:100AD00064656C6179282A31306D73290A004553A9
:100AE000432F713A09717569740A000A0A2D2D2D78
:100AF0002D2D204D6F7573656B6579205061726186
:100B00006D65746572732048656C70202D2D2D2DD8
:100B10002D0A003F004D303E000A456E746572207C
:100B20004D6F7573656B657920436F6E736F6C6580
:100B30000A000A5175697420436F6E736F6C6520EB
:100B40004D6F64650A00433E20000A0025750020B1
:100B5000746F20002575007377697463685F64653E
:100B60006661756C745F6C617965723A20006D3AEC
:100B7000096D6F7573656B65790A004553432F7175
:100B80003A09717569740A000A0A2D2D2D2D2D2040
:100B9000436F6E736F6C652048656C70202D2D2D32
:100BA0002D2D0A00506175733A096A756D702074B5
:100BB0006F20626F6F746C6F616465720A004361CD
:100BC00070733A094C6F636B204B6579626F617289
:100BD00064284368696C642050726F6F66290A004C
:100BE000505363723A09706F77657220646F776E45
:100BF0002F72656D6F74652077616B652D75700A56
:100C000000342F46343A0973776974636820746F2F
:100C1000204C6179657234200A00332F46333A093B
:100C200073776974636820746F204C6179657233DF
:100C3000200A00322F46323A0973776974636820BC
:100C4000746F204C6179657232200A00312F463171
:100C50003A0973776974636820746F204C61796511
:100C60007231200A00302F4631303A0973776974A7
:100C7000636820746F204C6179657230200A006EC1
:100C80003A09746F67676C65204E4B524F0A0065D6
:100C90003A097072696E7420656570726F6D2063B9
:100CA0006F6E6669670A00733A097072696E742024
:100CB0007374617475730A00743A097072696E74A2
:100CC0002074696D657220636F756E740A00763AE0
:100CD000097072696E742064657669636520766553
:100CE0007273696F6E202620696E666F0A006D3A16
:100CF00009746F67676C65206D6F75736520646537
:100D00006275670A006B3A09746F67676C65206BE0
:100D10006579626F6172642064656275670A007844
:100D20003A09746F67676C65206D61747269782029
:100D300064656275670A00643A09746F67676C6579
:100D400020646562756720656E61626C650A006388
:100D50003A09656E74657220636F6E736F6C6520FF
:100D60006D6F64650A000A0A2D2D2D2D2D20436F0D
:100D70006D6D616E642048656C70202D2D2D2D2DBC
:100D80000A000A002575002E6C6576656C3A200015
:100D90000A002575002E656E61626C653A20000AB6
:100DA0000025303258006261636B6C696768745F5C
:100DB000636F6E6669672E7261773A20000A0025BC
:100DC00075002E6E6B726F3A20000A002575002E9A
:100DD000737761705F6261636B736C6173685F628C
:100DE00061636B73706163653A20000A00257500CA
:100DF0002E737761705F67726176655F6573633AC2
:100E000020000A002575002E6E6F5F6775693A2015
:100E1000000A002575002E737761705F72616C7433
:100E20005F726775693A20000A002575002E737796
:100E300061705F6C616C745F6C6775693A20000A61
:100E4000002575002E636170736C6F636B5F746F48
:100E50005F636F6E74726F6C3A20000A0025750034
:100E60002E737761705F636F6E74726F6C5F636116
:100E700070736C6F636B3A20000A002530325800A3
:100E80006B65796D61705F636F6E6669672E726105
:100E9000773A20000A002575002E6D6F7573653A4C
:100EA00020000A002575002E6B6579626F617264FF
:100EB0003A20000A002575002E6D61747269783A37
:100EC00020000A002575002E656E61626C653A206F
:100ED000000A00253032580064656275675F636FF1
:100EE0006E6669672E7261773A20000A00257500E8
:100EF00064656661756C745F6C617965723A200037
:100F00003F004E4B524F3A2064697361626C6564D6
:100F10000A004E4B524F3A20656E61626C65640A5E
:100F2000006B6579626F6172645F69646C653A2019
:100F300025580A006B6579626F6172645F70726F29
:100F4000746F636F6C3A2025580A00686F73745F82
:100F50006B6579626F6172645F6C65647328293AAE
:100F60002025580A000A0A2D2D2D2D2D205374619D
:100F7000747573202D2D2D2D2D0A0074696D6572E9
:100F80005F636F756E743A202530346C580A0047E1
:100F900043433A20342E382E32204156522D4C49AC
:100FA00042433A20312E382E30204156525F415272
:100FB00043483A20617672350A004F5054494F4EEB
:100FC000533A204C55464120424F4F544D414749DA
:100FD00043204D4F5553454B455920455854524198
:100FE0004B455920434F4E534F4C4520434F4D4D99
:100FF000414E44204E4B524F20364B524F204B45D2
:10100000594D41505F494E5F454550524F4D204C20
:1010100045444D4150204C45444D41505F494E5F41
:10102000454550524F4D204241434B4C494748544F
:1010300020534F465450574D5F4C45442042524533
:10104000415448494E475F4C454420343039360AB4
:10105000004255494C443A20756E6B6E6F776E2096
:101060002831313A32393A3439204E6F76203239CC
:101070002032303135290A005649443A203078462A
:10108000454544286765656B6861636B2920504955
:10109000443A2030783630363028474836302920D8
:1010A0005645523A203078303030310A00444553AA
:1010B000433A20742E6D2E6B2E206B6579626F6122
:1010C0007264206669726D7761726520666F722046
:1010D000474836300A000A0A2D2D2D2D2D20566541
:1010E0007273696F6E202D2D2D2D2D0A000A444537
:1010F0004255473A206D6F7573652064697361626C
:101100006C65642E0A000A44454255473A206D6FCB
:1011100075736520656E61626C65642E0A000A4411
:10112000454255473A206B6579626F61726420646D
:10113000697361626C65642E0A000A444542554732
:101140003A206B6579626F61726420656E61626CD2
:1011500065642E0A000A44454255473A206D617481
:101160007269782064697361626C65642E0A000A92
:1011700044454255473A206D617472697820656E26
:1011800061626C65642E0A000A44454255473A2064
:10119000656E61626C65642E0A000A4445425547DB
:1011A0003A2064697361626C65642E0A006E6F7424
:1011B00020737570706F727465642E0A000A0A4A93
:1011C000756D7020746F20626F6F746C6F616465F1
:1011D000722E2E2E2000433E20000A456E7465724A
:1011E00020436F6E736F6C65204D6F64650A005508
:1011F0006E6C6F636B65642E0A004C6F636B656485
:101200002E0A006565636F6E6669673A0A0062615F
:10121000636B6C6967687420737465703A20257518
:101220000A006261636B6C6967687420746F67673A
:101230006C653A2025750A006261636B6C696768AA
:10124000742064656372656173653A2025750A00D0
:101250006261636B6C6967687420696E6372656153
:1012600073653A2025750A0011241FBECFEFDAE01E
:10127000DEBFCDBF04B603FE24C080914C02909126
:101280004D02A0914E02B0914F028730904BA74083
:10129000B04BB9F410924C0210924D0210924E02D3
:1012A00010924F0214BE84B7877F84BF88E10FB6C7
:1012B000F89480936000109260000FBEE0E0F8E3C5
:1012C000099511E0A0E0B1E0EAE7FEE602C0059072
:1012D0000D92A833B107D9F712E0A8E3B1E001C03D
:1012E0001D92AC34B107E1F70E9467100C943B37B4
:1012F0000C940000FF93EF93E0910102F091020241
:10130000309709F00995EF91FF910895FC018591BF
:10131000803011F0EFDFFBCF0895FF27E0E230E2ED
:1013200047FF0CC0419597FF09C0EDE260957095AD
:1013300080959095611D711D811D911D27FF02C033
:10134000219530E350E2AA27660F771F881F991F67
:10135000AA1FA41710F0A41B63955A95A9F7AA30E9
:1013600008F0A95FA05DAF93F39561157105810544
:10137000910541F7ED3211F4EF93F395F21718F45C
:101380003F93F395FBCF8F91B5DFFA95E1F7089581
:10139000E991F9918591803021F0853219F0AADF29
:1013A000F9CF089520E0E89455915532C1F35033B8
:1013B00011F4689455915A3348F4505390F3220F26
:1013C000022E220F220F200D250FF4CF0EF42195AF
:1013D00089919991533619F3533729F1533559F1BE
:1013E000BC0188279927E8945C3621F4899199916A
:1013F00068945591543639F446EF7EF077FF0DC06E
:101400008FEF9FEF0AC055374AE039F0583540E179
:1014100021F0523642E009F00895FF93EF937DDF0B
:10142000EF91FF91B7CFFF93EF93FC018191803053
:10143000B9F360DFFBCFFF93EF9368DFF1CFDF936A
:10144000CF93CDB7DEB72596A3DFCF91DF91089577
:101450000895089580E392E0089589E090E008956A
:10146000462F672F0C94F534805C0E94E934089570
:1014700088E791E0089586E691E008958AB1807D3D
:101480008AB98BB1807D8BB9089585E008958EE08F
:10149000089580E885BF85BF0E943E0A80B38C7F97
:1014A00080BB81B3836081BB6E98769A8AB18F725C
:1014B0008AB98BB1806D8BB987B18F7387B988B1C9
:1014C000806C88B984B1847084B985B18B6F85B91B
:1014D000E4E4F1E0AAE3B1E0119211921D921D92B1
:1014E00081E0EE34F807C1F70895CF92DF92EF92D2
:1014F0000F931F93CF93DF93CAE3D1E010E001E095
:10150000A5E0EA2EB1EDCB2EB3E0DB2E123071F068
:1015100018F4113041F004C0133059F0143061F068
:10152000509A58980BC0519A599808C0529A5A9894
:1015300005C0539A5B9802C0559A5D9880EA8A95D7
:10154000F1F72FB12170202730E0799B03C080E0B4
:1015500090E002C082E090E0282B392B669B03C00C
:1015600080E090E002C084E090E0282B392B86B127
:10157000992787FD9095809590958827990F881FCA
:101580009927F3E0880F991FFA95E1F7282B392B5B
:10159000369B03C040E050E002C040E150E0242B05
:1015A000352B1E9B03C040E050E002C040E250E0FB
:1015B000242B352B4C9B03C080E090E002C080E4DC
:1015C00090E0282B392B199B03C080E090E002C0EB
:1015D00080E890E0282B392B83B1992787FD9095DF
:1015E000809590958827990F881F9927982F88278D
:1015F000282B392B1D9B03C080E090E002C080E0C7
:1016000092E0282B392B1C9B03C080E090E002C0A5
:1016100080E094E0282B392B89B1992787FD90959C
:10162000809590958827990F881F9927982F88274C
:10163000990F990F990F282B392B4E9B03C080E0EF
:1016400090E002C080E090E1282B392B1B9B03C067
:1016500080E090E002C080E090E2282B392B888166
:1016600099818217930741F1398328838091000182
:10167000882301F18091FF0180FF04C086ED93E093
:101680000E9486098091FF0180FF0CC080910001BB
:101690001F928F93DF92CF920E941F0A0F900F909C
:1016A0000F900F908091FF0180FF04C08FEC93E0BA
:1016B0000E948609E09200010E943E0A1F5F229666
:1016C000153009F023CF80910001882309F45BC015
:1016D000815080930001882339F08FE99FE00197C2
:1016E000F1F700C000004FC0A4E4B1E0EAE3F1E08C
:1016F000819191918D939D9391E0E434F907C1F725
:10170000809148019091490120913801309139012F
:1017100028173907C1F1909339018093380120913E
:101720004C0130914D0133FF2EC09C01207C317063
:10173000232B49F186FF04C08091500181500AC0DB
:1017400087FF03C01092500107C090FF05C0809131
:1017500050018F5F8093500180914B02882331F0BC
:1017600010924B0280E090E00E944A2741E050E056
:1017700060E571E082EA90E00E949B0D809150014B
:1017800090E00E94532781E0DF91CF911F910F914C
:10179000EF90DF90CF900895E82FF0E0EE0FFF1F5D
:1017A000EC5BFE4F808191810895CF92DF92EF92A2
:1017B000FF920F931F93CF93DF9388EB93E00E94E8
:1017C000860924E4E22E21E0F22EC0E0D0E033EBE3
:1017D000C32E33E0D32E0AEA13E0DF93CF93DF92D8
:1017E000CF920E941F0A80EB93E00E948609F701C6
:1017F000819191917F010E9470249F938F931F93F9
:101800000F930E941F0A88EA93E00E94860921969E
:101810008DB79EB708960FB6F8949EBF0FBE8DBFCA
:10182000C530D105D1F6DF91CF911F910F91FF9077
:10183000EF90DF90CF9008950F931F93CF93DF9396
:101840001F92CDB7DEB78983882359F0809150016C
:10185000882339F0109250018091500190E00E944D
:10186000532741E050E0BE016F5F7F4F81EA90E077
:101870000E949B0D898180934E01873088F48430CB
:1018800018F58130D0F10E94F4300E9466310E9438
:101890009231E981F0E0E052FC4F049110E00CC07D
:1018A0008730F1F0883049F50E94F4300E946031B1
:1018B0000E94923181E01BC0602F812F0E941B315A
:1018C0001F5F1530C9F71FC00E94F4300E948C3191
:1018D0000E946631998186E0891B0E94953113C070
:1018E0000E94F4300E9460310E94923180E00E9498
:1018F0007B3183E00E94893106C00E9466310E94DC
:1019000092310E9400310F90DF91CF911F910F9182
:1019100008951F93CF93DF9300D000D01F92CDB7CF
:10192000DEB7162F80914E01873029F4662319F017
:1019300080E20E944F3180914E01883069F411237A
:1019400059F080E20F900F900F900F900F90DF9161
:10195000CF911F910C9435310F900F900F900F90F5
:101960000F90DF91CF911F910895E82FF0E0EE0FD7
:10197000FF1FEC51FC4F859194910895229A2A9A69
:1019800080B3806F80BB81B3806F81BB089582304C
:1019900079F028F4882341F0813041F008958330B4
:1019A00049F0843049F008952A9808958E98089552
:1019B0008F9808958C9808958D980895823079F0C5
:1019C00028F4882341F0813041F00895833049F0B4
:1019D000843049F008952A9A08958E9A08958F9A2E
:1019E00008958C9A08958D9A0895849A8C98879A70
:1019F0008F9A0E944F27809350010895879A8F9A5B
:101A00008AE18A95F1F700C0849A8C9A85E38A95D9
:101A1000F1F70000879A8F9885E38A95F1F7000027
:101A2000849A8C9885E38A95F1F700000895879A47
:101A30008F9885E38A95F1F70000849A8C9A85E364
:101A40008A95F1F70000879A8F9A85E38A95F1F7D6
:101A50000000089520E030E090E0AC01022E01C0CB
:101A6000440F0A94EAF7879A47FF02C08F9A01C091
:101A70008F9845E34A95F1F70000849A8C9A40E5E7
:101A80004A95F1F7849A8C982F5F3F4F28303105A3
:101A900021F787988F9A80EA8A95F1F7849A8C9A31
:101AA00040E54A95F1F77F9B03C010924F0103C0B8
:101AB00081E080934F01849A8C98879A8F9885E370
:101AC0008A95F1F700000895EF92FF920F931F930C
:101AD000CF93DF9300D01F92CDB7DEB7142F6A8368
:101AE0007B8389830E94FE0C89810E942A0D80914C
:101AF0004F016A817B81882379F0062F7B018E2D2F
:101B0000801B811758F4F70181917F010E942A0DF3
:101B100080914F018111F3CF80E003C00E94170D27
:101B200081E00F900F900F90DF91CF911F910F9157
:101B3000FF90EF900895DF92EF92FF920F931F9323
:101B4000CF93DF93582F9B01D42E81E080935101D6
:101B50008091520165E00E94C736E92EF12C8AE09F
:101B6000989FE0011124FE01ED5AFE4F8EE780831D
:101B700081E0840F81835283042F10E0A801B90112
:101B8000CE018A5A9E4F0E94013733E03D0D80E01E
:101B900090E0E92FF0E00E171F0744F0EC0FFD1F57
:101BA000EB5AFE4F208182279F5FF3CF2AE02E9DC4
:101BB000F0012F9DF00D1124DF01A30FB11DAD5ACF
:101BC000BE4F8C93C5E0CD0D84E08D0DE80FF11D67
:101BD000ED5AFE4F8EE78083909152019F5F909364
:101BE00052018091520190E0019765E070E00E94FF
:101BF000D336289FB001299F700D11246D5A7E4F56
:101C00004C2F80E10E94640D109251018C2FDF91C6
:101C1000CF911F910F91FF90EF90DF9008958091E9
:101C20009701089590914202943009F04DC090912F
:101C3000E9009F702091EC0020FF02C020E801C065
:101C400020E0292B94E09093E9009091EB0090FF25
:101C500038C09091EE0097FF34C09091860199238F
:101C600021F09091E80095FF2CC01092860196E03B
:101C70003091E80035FD15C030914202343009F54D
:101C80003091EB0035FD1DC0915021F481E080932F
:101C9000860117C0EFE9FFE03197F1F700C00000BF
:101CA000E7CF8093F1008091E80085FD05C0809129
:101CB000E8008E778093E8002F702093E90080E0A1
:101CC00008952F702093E9008FEF0895CF93DF934D
:101CD00000D01F92CDB7DEB720914202243019F513
:101CE00023E029839B838A832093E9008FEF9091DF
:101CF000E800815095FD06C095ED9A95F1F700003A
:101D00008111F5CF8091E80085FF0DC040E050E0E3
:101D100063E070E0CE0101960E9438138091E800E4
:101D20008E778093E8000F900F900F90DF91CF9106
:101D30000895CF93DF9300D01F92CDB7DEB72091E7
:101D40004202243021F522E029839B838A8383E0A9
:101D50008093E9008FEF9091E800815095FD06C0D7
:101D600095ED9A95F1F700008111F5CF8091E8008B
:101D700085FF0DC040E050E063E070E0CE010196C9
:101D80000E9438138091E8008E778093E8000F90CE
:101D90000F900F90DF91CF9108952091420224304F
:101DA000F1F422E02093E9002FEF3091E800215078
:101DB00035FD06C035ED3A95F1F700002111F5CF5C
:101DC0002091E80025FF0BC040E050E065E070E0A6
:101DD0000E9438138091E8008E778093E800089580
:101DE000CF93DF93EC0180914202843009F043C02D
:101DF00080910C018823C1F085E08093E9008FEF8A
:101E00009091E800815095FD06C095E19A95F1F713
:101E100000008111F5CF8091E80085FF2CC040E0E3
:101E200050E060E170E017C081E08093E9008FEF3F
:101E30009091E800815095FD06C095ED9A95F1F7D7
:101E400000008111F5CF8091E80085FF14C040E0CB
:101E500050E068E070E0CE010E9438138091E80005
:101E60008E778093E80080E1FE01A7E8B1E0019061
:101E70000D928A95E1F7DF91CF91089584E294E085
:101E80000E94860980914102811109C00E94B61109
:101E90000E9413128091E20084608093E200089512
:101EA00080E294E00E9486091092410208958CE13C
:101EB00094E00C94860988E194E00E9486090C94D1
:101EC000290A84E194E00E9486090C94C724809139
:101ED0004202843049F58091E9008F709091EC00C6
:101EE00090FF02C090E801C090E0982B84E08093BE
:101EF000E9008091EB0080FF14C08091EE0087FF25
:101F000010C08091E80085FF03C01092F100F9CF66
:101F10008091E80080FF05C08091E8008E77809373
:101F2000E8009F709093E900089542E061EC81E041
:101F30000E94301142E061EC82E00E94301142E0E8
:101F400061EC83E00E94301146E261EC84E00E9483
:101F5000301142E161EC85E00C9430118091440233
:101F6000833009F455C030F4813071F0823009F4C7
:101F700095C008958A3009F481C08B3009F460C09F
:101F8000893009F0A3C020C080914302813A09F052
:101F90009DC08091E800877F8093E8008091470290
:101FA00090914802892B21F060E080E090E003C02E
:101FB00060E187E891E070E00E9481138091E80081
:101FC0008B778093E800089580914302813209F075
:101FD0007DC08091470290914802009719F00497C4
:101FE00009F074C08091E800877F8093E8008091B9
:101FF000E80082FD05C0809142028111F8CF66C0E1
:102000008091F100809397018091E8008B775AC00E
:1020100080914302813A09F059C080914702909122
:102020004802892B09F052C08091E800877F809395
:10203000E8008091E80080FFFCCF80910B013DC05B
:1020400080914302813209F041C080914702909112
:102050004802892BD9F58091E800877F8093E800BA
:102060000E9465119091450281E0911101C080E0CC
:1020700080930B0180930C010C94C11B809143024F
:10208000813221F58091E800877F8093E8000E94EB
:1020900065118091460280938501089580914302E5
:1020A000813AA1F48091E800877F8093E8008091D5
:1020B000E80080FFFCCF809185018093F100809142
:1020C000E8008E778093E8000C946511089584B73A
:1020D000877F84BF88E10FB6F894809360001092E8
:1020E00060000FBE90E080E80FB6F8948093610026
:1020F000909361000FBE0E94B6110E94131280914E
:10210000E20084608093E20082E19EE00E94062467
:102110007894809142028430E1F783E094E00E9459
:1021200086090E941D1681E091E00E948B150E9495
:10213000F50C80915001882341F041E050E060E5CA
:1021400071E082EA90E00E949B0D82EF93E00E9492
:10215000860980914202853089F48EEE93E00E94D8
:1021600086090E948A2480914002882391F30E946C
:10217000B224882371F30E941A11EBCF0E945516E6
:10218000E8CF292F332723303105A9F06CF4213013
:10219000310509F442C02230310509F043C08DE811
:1021A00090E02CE434E042C021323105C9F0223203
:1021B000310519F137C099278130910541F08230FE
:1021C000910541F0892B71F5E8E4F4E005C0E4E302
:1021D000F4E002C0E8E2F4E0849190E09F0126C0C0
:1021E000653000F5E62FF0E0EE0FFF1FEC5DFE4FCF
:1021F0002081318189E090E019C0653098F4E62FA4
:10220000F0E0DF01AA0FBB1FA65EBE4F2D913C91EF
:10221000EB5EFE4F808190E009C082E190E029ED05
:1022200034E004C080E090E020E030E0FA01318347
:102230002083089580E189BD82E189BD09B400FE53
:10224000FDCF8091D8008F7D8093D8008091E000F1
:1022500082608093E0008091E00081FDFCCF0895D2
:10226000982F973058F59093E900981739F07091AE
:10227000EC002091ED005091F00003C0242F762F48
:1022800050E021FF19C03091EB003E7F3093EB000E
:102290003091ED003D7F3093ED003091EB003160E7
:1022A0003093EB007093EC002093ED005093F0001E
:1022B0002091EE0027FF07C09F5FD3CF8F708093E0
:1022C000E90081E0089580E008958091430287FD50
:1022D00005C08091E80080FF0EC012C08091E80028
:1022E00082FD05C0809142028111F8CF089580914E
:1022F000E8008B7708C0809142028111EACF0895EF
:102300008091E8008E778093E80008958091E40042
:102310009091E50045E62091EC0020FF21C020913E
:10232000E80020FD21C020914202222389F02530BF
:1023300089F02091EB0025FD0FC02091E400309141
:10234000E5002817390739F3415041F0C901E3CFBF
:1023500082E0089583E0089581E0089584E008957F
:102360002091E80022FFDFCF80E008950E941F1235
:102370000E942712E0EEF0E0808181608083E8ED2A
:10238000F0E080818F77808319BCA7EDB0E08C915D
:102390008E7F8C9380818F7E80831092410208957E
:1023A0000F931F93CF93DF930E941F120E94271257
:1023B000C8EDD0E088818F778883888180688883A2
:1023C00088818F7D888319BC1092420210923E0250
:1023D0001092400210923F0200EE10E0F80180815E
:1023E0008B7F808388818160888342E060E080E029
:1023F0000E943011E1EEF0E080818E7F8083E2EE7A
:10240000F0E0808181608083808188608083F80132
:1024100080818E7F8083888180618883DF91CF91E6
:102420001F910F910895E7EDF0E080818160808336
:1024300084E082BF81E0809341020C94D011E8EDEA
:10244000F0E080818E7F80831092E20008951092E8
:10245000DA001092E10008951F920F920FB60F92CA
:1024600011242F933F934F935F936F937F938F9399
:102470009F93AF93BF93EF93FF938091E10082FF0F
:102480000BC08091E20082FF07C08091E1008B7F4A
:102490008093E1000E94670F8091DA0080FF1FC0E7
:1024A0008091D80080FF1BC08091DA008E7F8093DE
:1024B000DA008091D90080FF0DC080E189BD82E102
:1024C00089BD09B400FEFDCF81E0809342020E94E5
:1024D0003E0F05C019BC109242020E94500F80911D
:1024E000E10080FF19C08091E20080FF15C080915B
:1024F000E2008E7F8093E2008091E2008061809311
:10250000E2008091D80080628093D80019BC85E0F9
:10251000809342020E945B0F8091E10084FF2EC0F5
:102520008091E20084FF2AC080E189BD82E189BDFB
:1025300009B400FEFDCF8091D8008F7D8093D80034
:102540008091E1008F7E8093E1008091E2008F7E98
:102550008093E2008091E20081608093E2008091AC
:102560003E02811104C08091E30087FF02C084E035
:1025700001C081E0809342020E94610F8091E100DE
:1025800083FF29C08091E20083FF25C08091E10094
:10259000877F8093E10082E08093420210923E02A6
:1025A0008091E1008E7F8093E1008091E2008E7F38
:1025B0008093E2008091E20080618093E20042E03B
:1025C00060E080E00E9430118091F000886080938C
:1025D000F0000E94570FFF91EF91BF91AF919F9133
:1025E0008F917F916F915F914F913F912F910F90BC
:1025F0000FBE0F901F9018951F920F920FB60F925B
:1026000011242F933F934F935F936F937F938F93F7
:102610009F93AF93BF93CF93EF93FF93C091E90044
:10262000CF708091EC001092E9008091F000877FDC
:102630008093F00078940E943A141092E9008091FF
:10264000F00088608093F000C093E900FF91EF9163
:10265000CF91BF91AF919F918F917F916F915F913A
:102660004F913F912F910F900FBE0F901F90189593
:10267000CF92DF92EF92FF920F931F93CF93DF934E
:102680007C018B01EA010E948611811131C02097E3
:1026900031F088819981081B190BE80EF91EC12CB5
:1026A000D12C0115110519F18091E80085FD14C0A8
:1026B0008091E8008E778093E800209741F0888130
:1026C00099818C0D9D1D9983888385E011C00E949E
:1026D0008611882331F30CC0F70181917F0180932B
:1026E000F10001501109FFEFCF1ADF0ADACF80E0C5
:1026F000DF91CF911F910F91FF90EF90DF90CF90DE
:1027000008952091490230914A022617370748F070
:102710006115710539F42091E8002E772093E800C7
:1027200001C0B901FC0120E061157105A9F180919A
:1027300042028823E9F18530E9F18091E80083FDC8
:1027400035C08091E80082FF06C08091E80082FFDA
:1027500026C080E008958091E80080FFE5CF2091B9
:10276000F3008091F20090E0922B6115710551F019
:102770008830910538F421912093F100615071095E
:102780000196F3CF21E0089709F020E08091E8005E
:102790008E778093E800C8CF2111C9CFD6CF809122
:1027A0004202882329F0853081F604C081E0089533
:1027B00082E0089583E008952091490230914A0211
:1027C0002617370748F06115710539F42091E800A4
:1027D0002E772093E80001C0B901FC0120E06115CB
:1027E0007105C1F180914202882309F43FC0853010
:1027F00009F43EC08091E80083FD36C08091E80076
:1028000082FF06C08091E80082FF27C080E0089523
:102810008091E80080FFE3CF2091F3008091F200E7
:1028200090E0922B6115710559F08830910540F4C4
:1028300024912093F1003196615071090196F2CFF5
:1028400021E0089709F020E08091E8008E778093DE
:10285000E800C5CF2111C6CFD5CF80914202882391
:1028600029F0853079F604C081E0089582E008956A
:1028700083E008950F931F93CF93DF93CDB7DEB717
:10288000AA970FB6F894DEBF0FBECDBFE3E4F2E027
:102890008091F100819322E0EB34F207C9F70E94A6
:1028A000AE0F8091E80083FF1DC12091430230915B
:1028B0004402832F90E08A30910508F013C1FC0197
:1028C000EA5AFF4F0C94E736203881F0223809F09D
:1028D00009C1809147028F708093E9008091EB00DD
:1028E00085FB882780F91092E90006C080913F029D
:1028F00090914002911182609091E800977F9093AF
:10290000E8008093F1001092F100C6C0822F8D7F05
:1029100009F0E8C0222319F0223061F0E3C0809171
:102920004502813009F0DEC0333009F080E0809349
:10293000400228C080914502811124C020914702A5
:102940002F7009F4CFC02093E9008091EB0080FF45
:1029500019C08091EB00333011F4806211C08061A6
:102960008093EB0081E090E0022E01C0880F0A9472
:10297000EAF78093EA001092EA008091EB00886009
:102980008093EB001092E9008091E800877F87C078
:102990002111A8C0109145021F770FB7F8948091BC
:1029A000E800877F8093E8000E9465118091E8002D
:1029B00080FFFCCF8091E3008078812B8093E3003F
:1029C00080688093E300112311F083E001C082E06E
:1029D000809342020FBF86C02058223008F082C088
:1029E00080914502909146028C3D23E0920779F553
:1029F00083E08A838AE289834FB7F894DE011396D5
:102A000020E03EE051E2E32FF0E050935700E491E4
:102A100020FF03C0E295EF703F5FEF708E2F90E0D4
:102A2000EA3010F0C79601C0C0968D939D932F5F3A
:102A3000243149F74FBF8091E800877F8093E800F9
:102A40006AE270E0CE0101960E94811314C0AE01CB
:102A50004F5F5F4F609147020E94C110009709F4D9
:102A600041C02091E800277F2093E800BC018981C4
:102A70009A810E94DC138091E8008B778093E800B4
:102A800031C0203879F58091E800877F8093E80095
:102A900080913E028093F1008091E8008E778093D0
:102AA000E8000E9465111EC021111CC090914502D2
:102AB0009230C0F48091E800877F8093E800909383
:102AC0003E020E94651180913E02811104C08091F6
:102AD000E30087FF02C084E001C081E080934202EE
:102AE0000E94950F8091E80083FF0AC08091EB005F
:102AF00080628093EB008091E800877F8093E800FC
:102B0000AA960FB6F894DEBF0FBECDBFDF91CF916E
:102B10001F910F91089590939D0180939C010895BA
:102B200080919C0190919D010895E0919C01F0910C
:102B30009D01309721F00190F081E02D099480E013
:102B40000895FF920F931F93CF93DF938C01E09131
:102B50009C01F0919D01309799F10280F381E02D65
:102B600009958091FF0182FF2BC080FF04C08EE099
:102B700096E00E948609E80180E1F82E08E016E060
:102B80008091FF0180FF0BC088811F928F931F935C
:102B90000F930E941F0A0F900F900F900F90FA94BE
:102BA0002196F110EDCF8091FF0180FF09C086E0F2
:102BB00096E0DF91CF911F910F91FF900C948609C1
:102BC000DF91CF911F910F91FF900895E0919C01AB
:102BD000F0919D01309721F00480F581E02D09945A
:102BE000089520919A0130919B018217930771F00B
:102BF00090939B0180939A01E0919C01F0919D013B
:102C0000309721F00680F781E02D099408952091F6
:102C10009801309199018217930771F0909399016F
:102C200080939801E0919C01F0919D01309721F0F3
:102C30000084F185E02D099408950E94F4240E94F7
:102C4000490A0E94C1250E9451340E94DB320E9431
:102C5000E1300E94A2310C949E35CF93C82F809111
:102C6000FF0182FF1EC080FF04C087E296E00E9441
:102C700086098091FF0180FF0CC01F92CF9322E252
:102C800036E03F932F930E941F0A0F900F900F90F2
:102C90000F908091FF0180FF04C080E296E00E94C7
:102CA00086098C2FCF910C943D333F924F925F92C7
:102CB0006F927F928F929F92AF92BF92CF92DF924C
:102CC000EF92FF920F931F93CF93DF93CDB7DEB7B1
:102CD00064970FB6F894DEBF0FBECDBFCE0101964C
:102CE0005C018AE0F50111928A95E9F70E94750A64
:102CF0009FE9492E91E0592E00E010E0882483944A
:102D0000912C302E802F0E94CC0B6C01F201E190AF
:102D1000F1902F01E826F926E114F104B1F40F5FD8
:102D20001F4F0530110569F78FEF8B878C871D8644
:102D30000E94FD248160782F9F878E874B855C855C
:102D40006D858F850E94051C45C0009751F0098351
:102D5000FA82EB8243E050E0B50180EA90E00E9405
:102D60009B0D8091FF0181FD0E94D50B80E090E0DA
:102D70003401082E02C0660C771C0A94E2F7930116
:102D80002E213F21232B09F1888B398AC620D72099
:102D900081E0CD2809F480E08A8B0E94FD248160C7
:102DA000782F9C8B8B8B488959896A898C890E94E2
:102DB000051CF801EE0FFF1FE156FE4F8081918147
:102DC000862597259183808305C001968E309105D5
:102DD00079F6A5CF0E94532910919E010E94951566
:102DE000181731F00E94951580939E010E942D16B0
:102DF00064960FB6F894DEBF0FBECDBFDF91CF91C2
:102E00001F910F91FF90EF90DF90CF90BF90AF9008
:102E10009F908F907F906F905F904F903F9008951C
:102E2000CF93C82F882309F4C1C0823859F40E9477
:102E3000951581FDBBC089E30E941E210E94C72217
:102E400089E30CC0833879F40E94951580FDAEC0EB
:102E500083E50E941E210E94C72283E50E94EF2184
:102E6000CF910C94C722843859F40E94951582FDA5
:102E70009DC087E40E941E210E94C72287E4EECFF6
:102E80008CEF8C0F813A48F48C2F0E94712F8111A6
:102E90008DC08C2F0E941E21E3CF80E28C0F8830E2
:102EA00048F4C77081E001C0880FCA95EAF70E9414
:102EB0009922D6CF8BE58C0F833078F4C53A29F070
:102EC000C63A31F482E890E005C081E890E002C0A3
:102ED00083E890E0CF910C94F11588E58C0F833155
:102EE00008F064C0C83A39F1C93A41F1CA3A49F127
:102EF000CB3A51F1CC3A59F1CD3A61F1C03B69F18D
:102F0000CE3A71F1CF3A79F1C13B81F1C23B89F1FF
:102F1000C33B91F1C43B99F1C53BA1F1C63BA9F17B
:102F2000C73BB1F1C83BB9F1C93BC1F1CA3BC9F5D7
:102F30008AE292E038C082EE90E035C089EE90E0FF
:102F400032C08AEE90E02FC085EB90E02CC086EB7B
:102F500090E029C087EB90E026C08CEC90E023C085
:102F60008DEC90E020C083E891E01DC08AE891E0FC
:102F70001AC082E991E017C084E991E014C081E2AF
:102F800092E011C083E292E00EC084E292E00BC0B6
:102F900085E292E008C086E292E005C087E292E016
:102FA00002C080E090E0CF910C940716CF91089575
:102FB000882309F44BC0823859F40E94951581FF8B
:102FC00045C089E30E941E210E94C72289E30CC0EC
:102FD000833871F40E94951580FF38C083E50E9404
:102FE0001E210E94C72283E50E94EF210C94C72274
:102FF000843859F40E94951582FF28C087E40E9406
:103000001E210E94C72287E4EFCF9CEF980F913AD0
:1030100058F390E2980F983050F4877091E001C017
:10302000990F8A95EAF7892F0E949F22DFCF9BE5AF
:10303000980F933020F480E090E00C94F115885ABA
:10304000833120F480E090E00C94071608958823E3
:1030500021F00E9499220C94C7220895882321F020
:103060000E949F220C94C7220895CF92DF92EF9284
:10307000FF920F931F93CF93DF93CDB7DEB72897BF
:103080000FB6F894DEBF0FBECDBF8C0185E0F8010E
:10309000DE01119601900D928A95E1F7F8014081C9
:1030A0003181F280258122952F7083819481892B33
:1030B00031F03F3F31F481E04F3F19F403C081E02C
:1030C00001C080E080FD3CC349833A8389819A81B5
:1030D0002F830E94DC209E8388870E94DB200E9431
:1030E00003204E81E42FE295EF70F0E0E05AFF4FAD
:1030F0002F8168850C94E736842F807F142F1F70F2
:10310000882311F01295107FFF2059F0112309F444
:1031100058C2812F68870E94A9220E94C722688511
:1031200050C2862F0E94D817112309F409C3812F9A
:103130000E94AF2228960FB6F894DEBF0FBECDBF17
:10314000DF91CF911F910F91FF90EF90DF90CF9083
:103150000C94C722342F307F842F8F70303211F0BF
:103160008295807F662319F0613009F12AC0FF2023
:10317000A1F0222381F1213071F528960FB6F89441
:10318000DEBF0FBECDBFDF91CF911F910F91FF909A
:10319000EF90DF90CF900C94B922222319F02130C8
:1031A00009F4CEC28E830E94BC228E818EC1FF2084
:1031B00021F0263008F0C4C20EC0253008F0C0C28D
:1031C00084C1FF20C1F0222331F0F801958190FFE6
:1031D000F8C19F70958328960FB6F894DEBF0FBE96
:1031E000CDBFDF91CF911F910F91FF90EF90DF90B6
:1031F000CF900C942718222309F467C1F6C1242F1D
:1032000026952695237030E02115310521F02130D7
:103210003105C9F095C2FF2021F0862F942F9370BD
:1032200002C080E090E028960FB6F894DEBF0FBE93
:10323000CDBFDF91CF911F910F91FF90EF90DF9065
:10324000CF900C94F115FF2021F0862F942F9370CE
:1032500002C080E090E028960FB6F894DEBF0FBE63
:10326000CDBFDF91CF911F910F91FF90EF90DF9035
:10327000CF900C940716862FFF2019F00E94D927B3
:1032800002C00E94412828960FB6F894DEBF0FBEF8
:10329000CDBFDF91CF911F910F91FF90EF90DF9005
:1032A000CF900C94C628842F837009F076C0F1105B
:1032B00047C2262F229526952770220F220F862F90
:1032C0008F70C82ED12CE12CF12C022E04C0CC0C16
:1032D000DD1CEE1CFF1C0A94D2F764FF10C06FE0E7
:1032E00070E080E090E004C0660F771F881F991F90
:1032F0002A95D2F7609570958095909503C060E00F
:1033000070E0CB01242F269526952370422F50E0A4
:1033100042305105D1F04330510559F16C297D29D6
:103320008E299F294130510541F128960FB6F89416
:10333000DEBF0FBECDBFDF91CF911F910F91FF90E8
:10334000EF90DF90CF900C9418206C297D298E2966
:103350009F2928960FB6F894DEBF0FBECDBFDF9130
:10336000CF911F910F91FF90EF90DF90CF900C9431
:103370002A200E941820C701B60128960FB6F8949B
:10338000DEBF0FBECDBFDF91CF911F910F91FF9098
:10339000EF90DF90CF900C940620FF2019F0842F3F
:1033A000817001C08695882309F4CAC1262F229511
:1033B00026952770220F220F862F8F70C82ED12CB2
:1033C000E12CF12C022E04C0CC0CDD1CEE1CFF1CE9
:1033D0000A94D2F764FF10C06FE070E080E090E0E4
:1033E00004C0660F771F881F991F2A95D2F7609532
:1033F00070958095909503C060E070E0CB01242F1C
:10340000269526952370422F50E042305105D1F089
:103410004330510559F16C297D298E299F2941306E
:10342000510541F128960FB6F894DEBF0FBECDBF0F
:10343000DF91CF911F910F91FF90EF90DF90CF9090
:103440000C94B7206C297D298E299F2928960FB6C8
:10345000F894DEBF0FBECDBFDF91CF911F910F91CA
:10346000FF90EF90DF90CF900C94C9200E94B7207E
:10347000C701B60128960FB6F894DEBF0FBECDBFC8
:10348000DF91CF911F910F91FF90EF90DF90CF9040
:103490000C94A520603F49F118F4603E48F48CC0BC
:1034A000623F09F451C0E0F1633F09F461C084C098
:1034B000162F1F70842F8F71FF2021F00E94502043
:1034C000812F89CE0E946B20812F28960FB6F89409
:1034D000DEBF0FBECDBFDF91CF911F910F91FF9047
:1034E000EF90DF90CF900C942E18FF20A9F025309C
:1034F00008F026C1842F8F7128960FB6F894DEBF8E
:103500000FBECDBFDF91CF911F910F91FF90EF9034
:10351000DF90CF900C948A20263008F011C1EACFBA
:10352000FF20A1F0842F8F7128960FB6F894DEBF8C
:103530000FBECDBFDF91CF911F910F91FF90EF9004
:10354000DF90CF900C945020FF2061F3842F8F7177
:1035500028960FB6F894DEBF0FBECDBFDF91CF9196
:103560001F910F91FF90EF90DF90CF900C946B2004
:10357000FF2091F0842F8F7128960FB6F894DEBF4C
:103580000FBECDBFDF91CF911F910F91FF90EF90B4
:10359000DF90CF900C94412028960FB6F894DEBFB0
:1035A0000FBECDBFDF91CF911F910F91FF90EF9094
:1035B000DF90CF900C943C20FF20A1F0222309F44F
:1035C000B1CF862F28960FB6F894DEBF0FBECDBFC1
:1035D000DF91CF911F910F91FF90EF90DF90CF90EF
:1035E0000C941017222309F4B1CF862F28960FB61A
:1035F000F894DEBF0FBECDBFDF91CF911F910F9129
:10360000FF90EF90DF90CF900C94D8174F70C801C7
:103610000E94022428960FB6F894DEBF0FBECDBFDD
:10362000DF91CF911F910F91FF90EF90DF90CF909E
:103630000C946B1FF11084C0662341F0842F8F70AF
:10364000843021F0407F862F8F70482B942F9F70FD
:10365000492F50E04230510509F440C0BCF44115F7
:10366000510561F14130510509F06AC028960FB645
:10367000F894DEBF0FBECDBFDF91CF911F910F91A8
:10368000FF90EF90DF90CF900C94DD3143305105E7
:10369000A9F14430510509F053C0862F28960FB682
:1036A000F894DEBF0FBECDBFDF91CF911F910F9178
:1036B000FF90EF90DF90CF900C94763228960FB663
:1036C000F894DEBF0FBECDBFDF91CF911F910F9158
:1036D000FF90EF90DF90CF900C94B33128960FB607
:1036E000F894DEBF0FBECDBFDF91CF911F910F9138
:1036F000FF90EF90DF90CF900C940C3228960FB68D
:10370000F894DEBF0FBECDBFDF91CF911F910F9117
:10371000FF90EF90DF90CF900C943E324F70C80135
:1037200028960FB6F894DEBF0FBECDBFDF91CF91C4
:103730001F910F91FF90EF90DF90CF900C94052494
:1037400028960FB6F894DEBF0FBECDBFDF91CF91A4
:103750001F910F91FF90EF90DF90CF9008950E94FE
:10376000B6220E948B220E94C7220E94F4290E9446
:10377000C62880E090E00E94F11580E090E00C9473
:1037800007160E94A6220C94AF1B0E94DC20292F52
:1037900022952F7030E02C3031054CF42A30310561
:1037A0006CF4225031092230310570F407C02C30FE
:1037B000310531F02F30310519F006C081E0089550
:1037C00093FB882780F9089580E00895CF93DF93D5
:1037D00000D000D01F92CDB7DEB70F900F900F90A2
:1037E0000F900F90DF91CF910895CF93DF9300D08A
:1037F00000D000D0CDB7DEB726960FB6F894DEBF66
:103800000FBECDBFDF91CF910895CF93DF93CDB79A
:10381000DEB72B970FB6F894DEBF0FBECDBF4F8338
:10382000588769877A878B87DE01119686E0FD01CC
:1038300011928A95E9F785E0FE01379601900D9285
:103840008A95E1F74F81588569857A858B850E9435
:10385000890C49815A816B817C818D819E810E9476
:10386000BE1E2B960FB6F894DEBF0FBECDBFDF9104
:10387000CF9108951F93CF93DF93C091A90116E0D4
:103880008091AA01C81799F0D0E01C9FF0011D9FFC
:10389000F00D1124E555FE4F408151816281738105
:1038A000848195810E94F51B2196C770E9CFDF9135
:1038B000CF911F9108954091DB015091DC016091FF
:1038C000DD017091DE018091DF019091E0010C94A7
:1038D000F51BCF938091E00182958F7009F05FC056
:1038E0008091DD01882309F45AC02091A901A0919B
:1038F000AA016091DB017091DC018091DE01909161
:10390000DF0131E06F3F09F030E0B32FC6E02A1746
:1039100009F445C0009721F07F3F21F44B2F03C0ED
:1039200041E001C040E030E040FD35C0C29FF00101
:10393000C39FF00D1124E555FE4F418174132BC038
:103940004081641328C04281411125C043815481C4
:103950004817590710F441505109481B590B483C6E
:103960005105C8F48091E0018F7080618093E0017F
:1039700086E0829FF001839FF00D1124E055FE4FF9
:1039800080818F70806180838BED91E00E9435187B
:10399000CF910C943A1C2F5F3F4F2770B8CFCF9137
:1039A0000895CF92DF92EF92FF920F931F93CF93E0
:1039B000DF93CDB7DEB762970FB6F894DEBF0FBEC8
:1039C000CDBF8C0185E0F801DE011D9601900D92BE
:1039D0008A95E1F7D8014C9111965C911197129656
:1039E0006C9112971396ED90FC9014977091DB01F7
:1039F000E091DC012091DE013091DF0121153105DC
:103A000031F0EF3F31F481E07F3F19F403C081E0F2
:103A100001C080E0B82FB170CB2E80FD6CC1D0907A
:103A2000DD01DD2009F4F5C0F091E001E216F306B6
:103A300038F0C701821B930B883C910548F09BC06E
:103A4000209530952E0D3F1D283C310508F093C080
:103A50008F2F807F09F052C0E51314C0741312C079
:103A6000D62E61110FC0FF70F061F093E0010E944B
:103A70005B1C8BED91E00E9435188091E001F8010C
:103A800085836CC1EF2831F05F3F31F481E04F3F17
:103A900019F403C081E001C080E080FD03C081E033
:103AA000862701C080E0F82FF170FF2E80FF1CC038
:103AB0008091A9012091AA0136E0821709F428C15A
:103AC00090E0389FF001399FF00D1124E555FE4F2D
:103AD0007181571306C07081471303C07281671349
:103AE00003C001968770E9CFD62E662309F436C14C
:103AF0008091E00181608093E00153C0E51308C02C
:103B0000741306C0611104C0D8011596FC93AEC0B1
:103B10004D875E878D859E856A8B0E94C51B6A894D
:103B2000882329F1D62E662311F12091E001822FFE
:103B300082958F7090E002970CF460C08091DB0159
:103B40009091DC0198878F831986FB86EA862C8703
:103B5000CE01079651C0E51731F14D875E878D85FF
:103B60009E856A8B0E94C51B6A8981112EC0C8017F
:103B70000E943518A4C08F2F807F69F77E2DF98AA7
:103B8000E88A89890E94E61B8BED91E00E94351836
:103B9000EBEDF1E086E0DF011D928A95E9F70E94E6
:103BA0005B1CD12CDBC07413D8CF6111D6CFD801E8
:103BB0001596FC93C8010E943518EBEDF1E086E004
:103BC000DF011D928A95E9F7C9C0D62E662379F2E6
:103BD0002091E001822F82958F7090E0029774F01F
:103BE0008091DB019091DC019A8389831B82FD82A5
:103BF000EC822E83CE0101960E94351886E0F801F2
:103C0000ABEDB1E001900D928A95E1F70E94691C3D
:103C10006FC0E216F30628F0C701821B930B9C01CC
:103C200004C0209530952E0D3F1D283C310508F02D
:103C300052C0D62E662309F49ACFE5132CC0741314
:103C40002AC08091E00180FD1DC0982F92959F7041
:103C5000C9F0D80115968C9315979F3039F09F5F66
:103C60009295907F8F70892B15968C93C8010E9436
:103C7000351886E0F801ABEDB1E001900D928A9520
:103C8000E1F736C086E0F801ABEDB1E001900D92AE
:103C90008A95E1F763C04D875E878D859E850E947A
:103CA000C51B882379F086E0F801ABEDB1E0019007
:103CB0000D928A95E1F70E94691C0E945B1CDD242D
:103CC000D3944CC08091E00181608093E001C801F1
:103CD0000E94351843C07E2DF98AE88A89890E949E
:103CE000E61BEBEDF1E086E0DF011D928A95E9F736
:103CF0000E945B1C33C0662309F439CF4D875E8771
:103D00008D859E850E94C51B882309F430CFCBCFBB
:103D10004D875E878D859E850E94DC20292F229508
:103D20002F7030E0223031052CF49F7041F081116A
:103D300006C00CC0243031052CF49F7049F4805E1D
:103D4000883020F0C8010E943518CF2CDC2C06C02A
:103D5000D80115969C91907F91F7F8CF8D2D6296A2
:103D60000FB6F894DEBF0FBECDBFDF91CF911F918C
:103D70000F91FF90EF90DF90CF9008951F93CF9316
:103D8000DF93CDB7DEB72C970FB6F894DEBF0FBE2A
:103D9000CDBF4F83588769877A878B879C87CE01F1
:103DA00007960E94D11C8823C1F02F8138858A850F
:103DB0009B85892B31F03F3F11F080E003C02F3FFE
:103DC000E1F781E0811147C04F81588569857A8587
:103DD0008B859C850E94F51B3EC086E0FE013796D0
:103DE000DE01119601900D928A95E1F7FF81E88539
:103DF0004A855B854115510531F0EF3F31F481E093
:103E0000FF3F19F403C081E001C080E080FD23C0C2
:103E10002091AA0130E0C90101968770992760912D
:103E2000A90170E086179707F1F1F983EA835D83B2
:103E30004C8396E0929FD001939FB00D1124A5551D
:103E4000BE4FFE01319601900D929A95E1F7809355
:103E5000AA010E943A1C16E08091A9019091AA0142
:103E6000891779F1189FC001112485559E4F0E9432
:103E7000D11C882331F1E091A9011E9FF00111248A
:103E8000E555FE4F40815181628173818481958126
:103E90000E94F51B8091A90190E0019687709927F7
:103EA0008093A901D9CF0E94C11B1092AA01109240
:103EB000A901EBEDF1E086E0DF011D928A95E9F7BB
:103EC000CACF2C960FB6F894DEBF0FBECDBFDF91E0
:103ED000CF911F910895EF92FF920F931F93CF936D
:103EE000DF939C01009709F46FC0F12CEE24E3945A
:103EF000E9012196F9018491843740F4843008F077
:103F000054C0813081F0823021F15EC0853709F4E0
:103F100047C0B0F19CE7980F903708F055C08F77F5
:103F20000E94D81744C089010E5F1F4FFE01849183
:103F300090E2980F983050F48770FE2D01C0FF0F6B
:103F40008A95EAF78F2F0E94A92215C00E941017A8
:103F500012C089010E5F1F4FFE01849190E2980FFD
:103F6000983058F48770FE2D01C0FF0F8A95EAF74C
:103F70008F2F0E94AF22E8011AC00E94D817FBCFF2
:103F80002E5F3F4FFE01C491CC2341F08FE99FE0AB
:103F90000197F1F700C00000C150F6CFE90107C05A
:103FA000FE01F490E901229602C00E9410178F2DA5
:103FB000882341F0EFE9FFE03197F1F700C00000FE
:103FC0008150F6CF9E0194CFDF91CF911F910F9139
:103FD000FF90EF9008956093E5017093E601809360
:103FE000E7019093E8010E948B330C94AF1B609320
:103FF000E1017093E2018093E3019093E4010E9458
:10400000E3330C94AF1B08950C94EB1F0F931F9395
:104010000091E5011091E6012091E7013091E8015E
:10402000602B712B822B932B1F910F910C94EB1F04
:104030000F931F930091E5011091E6012091E70194
:104040003091E80160237123822393231F910F9104
:104050000C94EB1F0F931F930091E5011091E60163
:104060002091E7013091E80160277127822793278B
:104070001F910F910C94EB1F60E070E0CB010C944A
:10408000F71F41E050E060E070E004C0440F551FAE
:10409000661F771F8A95D2F7CB01BA010C94F71FE0
:1040A00041E050E060E070E004C0440F551F661F1F
:1040B000771F8A95D2F78091E1019091E201A0915A
:1040C000E301B091E401482B592B6A2B7B2BCB01E8
:1040D000BA010C94F71F41E050E060E070E004C0CA
:1040E000440F551F661F771F8A95D2F7409550954C
:1040F000609570958091E1019091E201A091E301BA
:10410000B091E401482359236A237B23CB01BA01F0
:104110000C94F71F41E050E060E070E004C0440FF1
:10412000551F661F771F8A95D2F78091E101909104
:10413000E201A091E301B091E401482759276A27E1
:104140007B27CB01BA010C94F71F0F931F930091AB
:10415000E1011091E2012091E3013091E401602B33
:10416000712B822B932B1F910F910C94F71F0F93A0
:104170001F930091E1011091E2012091E301309140
:10418000E40160237123822393231F910F910C94E8
:10419000F71F0F931F930091E1011091E20120910D
:1041A000E3013091E40160277127822793271F9153
:1041B0000F910C94F71F0895CF92DF92EF92FF9228
:1041C0000F931F93CF93DF93EC01C090E501D09044
:1041D000E601E090E701F090E8018091E101909123
:1041E000E201A091E301B091E401C82AD92AEA2AA8
:1041F000FB2A0FE110E0B701A601002E04C076955E
:104200006795579547950A94D2F740FF07C0BE01BE
:10421000802F0E948F238130910539F401501109BC
:1042200050F7BE0180E00E948F23DF91CF911F9154
:104230000F91FF90EF90DF90CF900895CF92DF9293
:10424000EF92FF920F931F93CF93DF93F82E8091FD
:104250000C01882349F18F2D8695869586958F30A0
:1042600090F4E0910D01F0910E01E80FF11D8F2DFA
:10427000877021E030E001C0220F8A95EAF7818142
:10428000822B8183A3C08091FF0180FF9FC01F927A
:10429000FF9288E596E09F938F930E941F0A0F90EC
:1042A0000F900F900F9092C0E090FC014091FA01A6
:1042B000E0910D01F0910E01442309F472C02091A8
:1042C000FB018E2D3FEF06E010E0A82FBB27A7FDD6
:1042D000B095EF01CA0FDB1F9A819F1509F476C0D4
:1042E0003F3F19F4911101C0382FCD010196C6E06E
:1042F000D0E0B8010E94D3368213E7CF2E1151C00F
:104300003F3F71F4822F992787FD90950196BE015A
:104310000E94D3368093FC0141504093FA0141C082
:10432000832F992787FD90950196BE010E94D33671
:10433000EE24E394C6E0D0E0082F112707FD109586
:104340006F01C00ED11ED60112966C916623A1F0AA
:10435000432F552747FD5095CF01840F951FDC0152
:1043600012966C93D60112961C92CA010196BE0158
:104370000E94D336382F01C0E394C8010196BE01D4
:104380000E94D3368213D8CF822F992787FD90952C
:104390008E199109069666E070E00E94D3368093EC
:1043A000FB012091FB01332727FD3095E20FF31F1E
:1043B000F282C901019666E070E00E94D3368093D4
:1043C000FB018091FA018F5F8093FA01DF91CF9119
:1043D0001F910F91FF90EF90DF90CF900895DF92A3
:1043E000EF92FF920F931F93CF93DF93482F80910B
:1043F0000C01882351F1842F8695869586958F3000
:1044000098F4E0910D01F0910E01E80FF11D477055
:1044100021E030E0042E01C0220F0A94EAF7209533
:104420008181282321836FC08091FF0180FF6BC0B1
:104430001F924F938AE396E09F938F930E941F0AE7
:104440000F900F900F900F905EC0E091FC01D09004
:10445000FA01DD2009F457C0C0910D01D0910E0181
:104460000091FB01112707FD109586E0E82EF12C45
:10447000F0E0DE01AE0FBF1F9D012E5F3F4F129691
:104480008C91841336C0D9011C92DA94D092FA012F
:10449000D11004C01092FC011092FB012091FB018D
:1044A000822F992787FD9095059666E070E00E941F
:1044B000D336E817F90739F54091FC01E6E0F0E062
:1044C000822F992787FD90950596BF010E94D336CC
:1044D0009C010596BF010E94D3368C0F9D1FDC0105
:1044E00012968C91811102C02413EACF2093FB0114
:1044F0000AC0CF010196B7010E94D336E82F80177A
:10450000910709F0B5CFDF91CF911F910F91FF90E7
:10451000EF90DF90089581E090E0E0910D01F0913F
:104520000E01E80FF91F1082019680319105A9F75D
:1045300008959091FE01982B9093FE010895809527
:104540009091FE0198239093FE0108951092FE0130
:1045500008959091FD01982B9093FD010895809509
:104560009091FD0198239093FD0108951092FD0113
:1045700008958093E90108951092E90108958091CA
:104580000C01811103C08091FA0108950895E09112
:104590000D01F0910E018091FE018083E0910D01EB
:1045A000F0910E0180819091FD01892B8083909183
:1045B000E901992361F0E0910D01F0910E018081F4
:1045C000892B80830E94BF2281111092E901809182
:1045D0000D0190910E010C94A1158B3B60F4883A6B
:1045E00000F5853AA8F4843088F4813009F055C08C
:1045F00081E090E00895803E08F44FC0883E30F09E
:10460000803F08F44AC090E09065089590E00895D6
:10461000853A09F445C0863A09F045C082E890E43D
:104620000895883A09F442C0893A09F442C08A3AA6
:1046300009F442C08B3A09F442C08C3A09F442C0F2
:104640008D3A09F442C0803B09F442C08E3A09F425
:1046500042C08F3A09F442C0813B09F442C0823B18
:1046600009F442C0833B09F442C0843B09F442C0D0
:10467000853B09F442C0863B09F442C0873B09F4FC
:1046800042C0883B09F442C0893B09F442C08A3BDE
:1046900009F042C08AE296E4089580E090E008952F
:1046A00081E890E4089583E890E4089582EE94E42C
:1046B000089589EE94E408958AEE94E4089585EBD4
:1046C00094E4089586EB94E4089587EB94E40895C8
:1046D0008CEC94E408958DEC94E4089583E895E4DB
:1046E00008958AE895E4089582E995E4089584E9B7
:1046F00095E4089581E296E4089583E296E40895AE
:1047000084E296E4089585E296E4089586E296E4CC
:10471000089587E296E4089580E094E408950E9465
:10472000300A803EA8F4803C00F5813309F45CC077
:1047300038F4893209F452C08A3209F45BC05FC090
:104740008933B1F08238A1F0853309F441C057C0F4
:10475000833E41F128F4803E99F0823EB9F04FC08B
:10476000863E31F1873E71F14AC00E94340A0895B5
:1047700090913D0290FD02C091FF41C080EE3FC08C
:1047800080913D0280FFFACF89E339C080913D02DC
:1047900082FF0CC080913D0284FF02C080E02FC0E8
:1047A00083EE2DC080913D0282FFF4CF82EE27C0C0
:1047B00080913D0283FF0AC080913D0284FDEECFCF
:1047C00087EE1DC080913D0283FFF6CF86EE17C0B5
:1047D00080913D0285FF06C089E211C080913D02B3
:1047E00085FFFACF85E30BC080913D0286FF06C0AE
:1047F0008AE205C080913D0286FFFACF81E30E94E4
:10480000ED22089580E090E00895089590930202CB
:10481000809301020895CF92DF92EF92FF920F935F
:104820001F936C01EE24FF24C114D104E104F104B0
:1048300021F46B017C0180E001C080E133272F2D42
:104840001E2D0D2D011511052105310519F0885F6B
:104850006801790197018601A4E03695279517959F
:104860000795AA95D1F7011511052105310519F014
:104870008C5F6801790197018601F2E036952795F2
:1048800017950795FA95D1F7011511052105310501
:1048900019F08E5F68017901B701A60176956795D9
:1048A00057954795452B462B472B09F08F5F1F9156
:1048B0000F91FF90EF90DF90CF9008958295982F01
:1048C0009C7C96959695837344E0849F9001112477
:1048D000922B892F8A7A86959575990F892B089541
:1048E0001F93CF93DF931F92CDB7DEB799830E94BA
:1048F0005E24182F9981892F0E945E24212F30E099
:10490000322F2227A901482BCA010F90DF91CF91A6
:104910001F91089580914202843019F11092000293
:1049200020E488E190E00FB6F894A89580936000A9
:104930000FBE209360000E94003183B7817F8460A6
:1049400083BF83B7816083BF7894889583B78E7F58
:1049500083BF88E10FB6F8948093600010926000E6
:104960000FBE0895CF930E94280A0E94750A0E94E4
:10497000290AC0E08C2F0E94CC0B892B29F4CF5F31
:10498000C530C1F780E001C081E0CF9108950E9459
:10499000C11B0C94A2311F920F920FB60F921124DB
:1049A0008F939F93AF93BF9380910002811113C0A7
:1049B0008091030290910402A0910502B091060239
:1049C0004196A11DB11D8093030290930402A09310
:1049D0000502B0930602BF91AF919F918F910F9006
:1049E0000FBE0F901F90189582E084BD93E095BD97
:1049F0009AEF97BD80936E0008952FB7F894809139
:104A0000030290910402A0910502B09106022FBF0B
:104A10000895CF92DF92EF92FF920F931F932FB7DB
:104A2000F894409103025091040260910502709144
:104A300006022FBF6A017B01EE24FF248C0120E0D7
:104A400030E0C016D106E206F30610F441505109D9
:104A5000481B590BCA011F910F91FF90EF90DF90F7
:104A6000CF9008951F920F920FB60F9211248F933B
:104A70009F93AF93BF938091030290910402A09102
:104A80000502B09106020196A11DB11D809303029B
:104A900090930402A0930502B0930602BF91AF91D8
:104AA0009F918F910F900FBE0F901F9018950E94AD
:104AB000B611F8942FEF87EA91E62150804090409C
:104AC000E1F700C0000087E090EBDC0180934C022E
:104AD00090934D02A0934E02B0934F022CE088E1D8
:104AE00090E00FB6F894A895809360000FBE2093D5
:104AF0006000FFCFCF92DF92EF92FF920F931F9350
:104B0000CF93DF93C82ED12C01E010E08D2D0E94B1
:104B1000CC0B7C01C0E0D0E098010C2E02C0220F2B
:104B2000331F0A94E2F72E213F21232B29F42196EB
:104B3000CE30D10589F709C06C2F7D2D80E00E9411
:104B4000300AC812F4CF81E005C0D39485E0D812B2
:104B5000DDCF80E0DF91CF911F910F91FF90EF901B
:104B6000DF90CF900895CF93C82F8CE20E947A25D2
:104B7000882321F08C2FCF910C947A2580E0CF915F
:104B80000895CF930E942027811102C00E94FB2626
:104B90008DE796E00E948609C5E6C15049F00E9463
:104BA000750A8FE39CE90197F1F700C00000F5CF8B
:104BB00086E796E00E94860989E20E94B32581116A
:104BC00018C18AE20E94B325882341F00E941A2767
:104BD0000E94FB260E9429350E948D3485E00E94A8
:104BE000B32581110E9457250E942B278093FF0136
:104BF00087E00E94B325882399F18BE10E94B325B9
:104C0000882351F09091FF0191FB882780F921E0E2
:104C1000822780FB91F922C08EE00E94B325882371
:104C200051F09091FF0192FB882780F921E08227C3
:104C300080FB92F913C080E10E94B3259091FF019F
:104C4000882341F093FB882780F921E0822780FBAD
:104C500093F904C0892F809580FB90F99093FF0110
:104C60008091FF010E942F270E943D2780933D02E3
:104C700080EE0E94B325882341F080913D02982F59
:104C8000909590FB80F980933D0289E30E94B325C3
:104C9000882359F090913D0291FB882780F921E00B
:104CA000822780FB91F990933D0282EE0E94B3250A
:104CB000882359F090913D0292FB882780F921E0EA
:104CC000822780FB92F990933D0286EE0E94B325E5
:104CD000882359F090913D0293FB882780F921E0C9
:104CE000822780FB93F990933D0283EE0E94B325C7
:104CF000882359F090913D0294FB882780F921E0A8
:104D0000822780FB94F990933D0285E30E94B325AE
:104D1000882359F090913D0295FB882780F921E086
:104D2000822780FB95F990933D0281E30E94B32591
:104D3000882359F090913D0296FB882780F921E065
:104D4000822780FB96F990933D0281E10E94B32572
:104D5000882359F090913D0297FB882780F921E044
:104D6000822780FB97F990933D0280913D020E943B
:104D7000412780913D0287FB882780F980930C01B1
:104D800087E20E94B325C82F8EE10E94B3258111CE
:104D9000C2608FE10E94B3258111C46080E20E944D
:104DA000B3258111C86081E20E94B3258111C061E1
:104DB00082E20E94B3258111C06283E20E94B32582
:104DC0008111C06484E20E94B325882311F0C06879
:104DD00002C0CC2329F08C2F0E9438276C2F03C0EF
:104DE0000E943427682F70E080E090E0CF910C940F
:104DF0000420CF9108956DEE7EEF80E090E00E9458
:104E0000263760E082E090E00E94183760E083E09F
:104E100090E00E94183760E084E090E00E9418372C
:104E200060E086E090E00E94183760E085E090E066
:104E30000C9418376FEF7FEF80E090E00C942637EA
:104E400080E090E00E94123721E08D3E9E4F09F0F5
:104E500020E0822F089582E090E00C940A37682FBA
:104E600082E090E00C94183783E090E00C940A37CD
:104E7000682F83E090E00C94183784E090E00C9465
:104E80000A37682F84E090E00C94183786E090E0B1
:104E90000C940A37682F86E090E00C94183785E070
:104EA00090E00C940A37682F85E090E00C94183756
:104EB0008091090280FF0BC06091120185E0689F1C
:104EC000B001112475956795759567952AC081FF86
:104ED00009C06091120185E0689FB00111247595A9
:104EE00067951FC082FF07C06091120185E0689F2F
:104EF000B001112416C040910A024423C9F0609108
:104F00001101461788F72091120185E0289F900132
:104F10001124429FC001439F900D112470E00E9414
:104F2000D3366038710540F46115710539F002C05F
:104F300065E070E0862F08958FE7089581E0089579
:104F40008091090280FF08C06091100170E07595A2
:104F500067957595679521C081FF06C06091100126
:104F600070E07595679519C082FF04C060911001CB
:104F700070E010C080910A028823C1F060910F0197
:104F80008617A0F790911001989FC001112470E03E
:104F90000E94D3366038710528F46115710521F03F
:104FA000862F08958FE7089581E0089561E070E00D
:104FB000F4CF803F21F40E945827819504C0813F9F
:104FC00029F40E94582780930D020895823F21F40E
:104FD0000E945827819504C0833F29F40E945827D6
:104FE00080930C020895893F19F40E94A02705C000
:104FF0008A3F31F40E94A027819580930E02089584
:105000008B3F21F40E94A027819504C08C3F29F496
:105010000E94A02780930F020895843F21F480917D
:105020000B02816017C0853F21F480910B028260E2
:1050300011C0863F21F480910B0284600BC0873F32
:1050400021F480910B02886005C0883F31F4809183
:105050000B02806180930B0208958D3F21F48091B3
:10506000090281600BC08E3F21F4809109028260A9
:1050700005C08F3F29F48091090284608093090262
:105080000895803F39F480910D0287FF6CC0109223
:105090000D0269C0813F29F480910D021816BCF3FE
:1050A00062C090910C02823F29F497FF5CC010927D
:1050B0000C0259C0833F19F41916CCF354C0893F30
:1050C00041F480910E0218160CF04DC010920E02A1
:1050D0004AC08A3F29F480910E0287FF44C0F6CF70
:1050E0008B3F39F480910F0287FF3DC010920F0271
:1050F0003AC08C3F29F480910F021816BCF333C0DC
:10510000843F21F480910B028E7F17C0853F21F4EC
:1051100080910B028D7F11C0863F21F480910B029C
:105120008B7F0BC0873F21F480910B02877F05C0E6
:10513000883F31F480910B028F7E80930B0213C065
:105140008D3F21F4809109028E7F0BC08E3F21F4A8
:10515000809109028D7F05C08F3F29F4809109025B
:105160008B7F8093090280910C0281110EC0809187
:105170000D0281110AC080910E02811106C080913A
:105180000F02811102C010920A0208958091FF015E
:1051900083FF7EC089EB96E00E94860980910B0216
:1051A0001F928F9384EB96E09F938F930E941F0A28
:1051B00082EB96E00E94860920910C02822F9927AB
:1051C00087FD90959F932F938FEA96E09F938F93FF
:1051D0000E941F0A8DEA96E00E94860920910D0226
:1051E000822F992787FD90959F932F938AEA96E0C7
:1051F0009F938F930E941F0A88EA96E00E94860977
:1052000020910E02822F992787FD90959F932F93CF
:1052100085EA96E09F938F930E941F0A83EA96E0A7
:105220000E94860920910F02822F992787FD909571
:105230009F932F9380EA96E09F938F930E941F0A7B
:105240008DE996E00E94860980910A021F928F9351
:105250008AE996E09F938F930E941F0A88E996E05F
:105260000E948609809109021F928F9385E996E03A
:105270009F938F930E941F0A82E996E00E948609FD
:105280008DB79EB74C960FB6F8949EBF0FBE8DBFDC
:105290008BE092E00E94E6150E94FD2490930802A4
:1052A0008093070208951F93CF93DF9380910702A5
:1052B000909108020E94092540910A02442321F09E
:1052C0002091130130E006C0209114015AE0259F7F
:1052D000900111248217930708F482C080910C0278
:1052E00010910D02D0910E02C0910F02811107C0E2
:1052F000111105C0D11103C0CC2309F471C04F3F77
:1053000019F04F5F40930A02181624F40E945827A0
:1053100080930C0280910C0287FF05C00E945827E1
:10532000819580930C02111624F40E9458278093D3
:105330000D0280910D0287FF05C00E9458278195BC
:1053400080930D0260910C02662339F110910D02D9
:10535000112319F1772767FD7095872F972F0E94EA
:10536000D83523E333E343E35FE30E943C360E94F6
:10537000A53560930C02612F772767FD7095872F05
:10538000972F0E94D83523E333E343E35FE30E9482
:105390003C360E94A53560930D021D1624F40E9430
:1053A000A02780930E0280910E0287FF05C00E9405
:1053B000A027819580930E021C1624F40E94A0273A
:1053C00080930F0280910F0287FF05C00E94A027E3
:1053D000819580930F02DF91CF911F910C94C62885
:1053E000DF91CF911F910895EBE0F2E085E0DF01BE
:1053F0001D928A95E9F710920A0210920902089507
:1054000088E89BE00E9486098BE79BE00E94860962
:105410008EE69BE00C9486098BEE9AE00E9486094A
:105420008EED9AE00E94860983EC9AE00E9486093C
:1054300088EA9AE00E94860980E99AE00E9486093B
:1054400086E79AE00E94860988E59AE00E9486092C
:1054500088E39AE00E94860983E29AE00E94860926
:105460008CE09AE00E9486098FEE99E00E948609FE
:1054700080ED99E00E94860980EB99E00E94860900
:105480008EE899E00E94860989E599E00E948609E4
:1054900084E499E00E9486091F9285E08F9381E45D
:1054A00099E09F938F930E941F0A88E399E00E94DE
:1054B00086091F9281E08F9385E399E09F938F93F4
:1054C0000E941F0A83E399E00E9486098DB79EB768
:1054D00008960FB6F8949EBF0FBE8DBF86E099E088
:1054E0000C948609833009F459C028F4813061F0A6
:1054F000823079F10895853009F49AC008F473C0B8
:10550000863009F4BAC0089520911401862F90E0E6
:10551000820F911D8F3F910520F4620F609314015B
:1055200003C08FEF8093140182EE97E00E948609FA
:10553000809114011F928F938FED97E09F938F932B
:105540000E941F0A0F900F900F900F908DED97E023
:10555000B8C020911301862F90E0820F911D8F3FDC
:10556000910520F4620F6093130103C08FEF8093C5
:1055700013018EEC97E00E948609809113011F921F
:105580008F938BEC97E09F938F930E941F0A0F904D
:105590000F900F900F9089EC97E093C0209112012B
:1055A000862F90E0820F911D8F3F910520F4620FAE
:1055B0006093120103C08FEF8093120189EB97E093
:1055C0000E948609809112011F928F9386EB97E0CB
:1055D0009F938F930E941F0A0F900F900F900F9030
:1055E00084EB97E06EC020911101862F90E0820F2E
:1055F000911D8F3F910520F4620F6093110103C04C
:105600008FEF8093110182EA97E00E9486098091D2
:1056100011011F928F938FE997E09F938F930E94C0
:105620001F0A0F900F900F900F908DE997E049C0DF
:1056300020911001862F90E0820F911D8F3F9105E0
:1056400020F4620F6093100103C08FEF809310016C
:1056500087E897E00E948609809110011F928F933E
:1056600084E897E09F938F930E941F0A0F900F90FA
:105670000F900F9082E897E024C020910F01862FB1
:1056800090E0820F911D8F3F910520F4620F60938F
:105690000F0103C08FEF80930F018AE697E00E940D
:1056A000860980910F011F928F9387E697E09F9361
:1056B0008F930E941F0A0F900F900F900F9085E616
:1056C00097E00C948609833009F44DC028F48130AA
:1056D00061F0823049F10895853009F482C008F400
:1056E00061C0863009F49CC0089580911401681748
:1056F00020F4861B8093140102C01092140189E5E6
:1057000097E00E948609809114011F928F9386E58D
:1057100097E09F938F930E941F0A0F900F900F9016
:105720000F9084E597E09AC080911301681720F4E8
:10573000861B8093130102C01092130185E497E049
:105740000E948609809113011F928F9382E497E053
:105750009F938F930E941F0A0F900F900F900F90AE
:1057600080E497E07BC080911201681720F4861BCB
:105770008093120102C01092120180E397E00E9410
:105780008609809112011F928F938DE297E09F937B
:105790008F930E941F0A0F900F900F900F908BE233
:1057A00097E05CC080911101681720F4861B8093FC
:1057B000110102C01092110189E197E00E9486094F
:1057C000809111011F928F9386E197E09F938F93B1
:1057D0000E941F0A0F900F900F900F9084E197E0A6
:1057E0003DC080911001681720F4861B8093100142
:1057F00002C0109210018EEF96E00E9486098091FF
:1058000010011F928F938BEF96E09F938F930E94CE
:105810001F0A0F900F900F900F9089EF96E01EC017
:1058200080910F01681720F4861B80930F0102C03E
:1058300010920F0181EE96E00E94860980910F017F
:105840001F928F938EED96E09F938F930E941F0A75
:105850000F900F900F900F908CED96E00C948609AE
:10586000CF93C82F87E59BE00E9486096091E501F0
:105870007091E6018091E7019091E8010E940B246C
:105880001F928F9324E53BE03F932F930E941F0AC2
:105890008FE49BE00E9486091F92CF932CE43BE0AB
:1058A0003F932F930E941F0A8AE49BE00E9486097F
:1058B00061E070E080E090E004C0660F771F881F11
:1058C000991FCA95D2F70E9404208DB79EB70896FB
:1058D0000FB6F8949EBF0FBE8DBFCF910C94C11B25
:1058E000CF93482F50E0FA013697E334F10508F0E2
:1058F000ECC2E059FF4F0C94E73683E092E10E943E
:10590000860980EF9EE00E9486090E9434271F923C
:105910008F938DEE9EE09F938F930E941F0A8BEED4
:105920009EE00E9486090E942B27C82F88ED9EE0EA
:105930000E9486091F92CF9323ED3EE03F932F9361
:105940000E941F0A81ED9EE00E94860987EC9EE07E
:105950000E9486098C2F81701F928F9324EC3EE069
:105960003F932F930E941F0A82EC9EE00E948609BB
:1059700088EB9EE00E948609C1FB882780F91F9270
:105980008F9325EB3EE03F932F930E941F0A83EBFA
:105990009EE00E94860987EA9EE00E948609C2FB7B
:1059A000882780F91F928F9324EA3EE03F932F933C
:1059B0000E941F0A82EA9EE00E94860989E99EE011
:1059C0000E948609C3FBCC27C0F91F92CF9386E9BA
:1059D0009EE09F938F930E941F0A84E99EE00E949D
:1059E00086090E943D27C82F80E89EE00E94860914
:1059F0001F92CF932BE73EE03F932F930E941F0A05
:105A000089E79EE00E94860980E69EE00E94860962
:105A10008C2F81701F928F932DE53EE03F932F9343
:105A20000E941F0A8DB79EB780960FB6F8949EBF4E
:105A30000FBE8DBF8BE59EE00E94860984E49EE048
:105A40000E948609C1FB882780F91F928F9321E469
:105A50003EE03F932F930E941F0A8FE39EE00E9437
:105A600086098DE29EE00E948609C2FB882780F9A4
:105A70001F928F932AE23EE03F932F930E941F0ACA
:105A800088E29EE00E94860986E19EE00E948609E7
:105A9000C3FB882780F91F928F9323E13EE03F9359
:105AA0002F930E941F0A81E19EE00E94860987E0F1
:105AB0009EE00E948609C4FB882780F91F928F937D
:105AC00024E03EE03F932F930E941F0A82E09EE075
:105AD0000E94860980EF9DE00E948609C5FB882709
