:100000000C94A1030C94D9030C94D9030C94D90338
:100010000C94D9030C94D9030C94D9030C94D903F0
:100020000C94D9030C94D9030C948F290C94612A55
:100030000C946E240C94D9030C94D9030C94D9031A
:100040000C94D9030C94D9030C94D9030C94D903C0
:100050000C94D9030C94F6240C94D9030C94D90372
:100060000C94D9030C94D9030C94D9030C94D903A0
:100070000C94D9030C94D9030C94D9030C94D90390
:100080000C94D9030C94D9030C94D9030C94D90380
:100090000C94D9030C94D9030C94D9030C94D90370
:1000A0000C94D9030C94D9030C94D9031A071A079A
:1000B00046074607AE07CC07E408E408D7077008F0
:1000C00081088108CE2AF52AED2BF52AED2B412B4C
:1000D000642BED2BBB2BCA2B165C1E001F002000CF
:1000E00021002200230024002500260027002D00E7
:1000F0002E0000002A002B00000014001A00080047
:10010000150017001C0018000C00120013002F002F
:100110003000310001000000040016000700090053
:100120000A000B000D000E000F0033003400280001
:100130000000E10000001D001B0006001900050082
:10014000110010003600370038000000E500E5001F
:10015000E000E3000000E200035100002C0000007A
:1001600002510000E600025104510451E400165C03
:100170001E001F0020002100220023002400250073
:10018000260027002D002E0000002A002B00000072
:1001900014001A000800150017001C0018000C00BD
:1001A000120013002F003000310001000000040095
:1001B0001600070009000A000B000D000E000F00DA
:1001C0003300340028000000E10000001D001B0087
:1001D0000600190005001100100036003700380035
:1001E0000000E5000000E000E3000000E2002C0059
:1001F00000002C00000002510000E6000251000047
:100200000451E4003500C05CBF5CBE5C3D003E00B4
:100210003F0040004100420043004400450001000F
:100220004C00010000003400010028000100010022
:1002300001000100A75D010046000100010001006E
:1002400001000000330038004C00010001000100F3
:10025000A95DA85DAA5D0100010001000000010088
:10026000010001000100010001002A00010001005D
:100270000100010001000000010001000100010077
:10028000000001000100000001000000010000006A
:100290000100010001000100010035000100010022
:1002A0003C003D003E003F00400041004200430052
:1002B0004400450001004C00010000000100010065
:1002C00001000100010001002400250026000100BA
:1002D0000100010001000100000001000100010017
:1002E00001000100010021002200230001000100A3
:1002F00001000000010001000100010001000100F7
:10030000010027001E001F00200001000000010066
:1003100001000100010000000100010000000100D7
:1003200000000100000001000100010001000100C7
:100330003500C05CBF5CBE5C3D003E003F0040003D
:100340004100420043004400450001004C00010010
:100350000000C35CC45CC65CC75CC85CC95CCA5CAA
:10036000CB5C0100010001000100005C0100000005
:100370000100010001000100010001000100010075
:100380000100010001000100000001000100010066
:100390000100BE5CC05CBF5CC15C010001000100EB
:1003A0000100000001000100010001000000010047
:1003B0000100000001000000010000000100010038
:1003C00001000100010000047F3F1F643214643209
:1003D00014783C1E1E140A052223252628292A2CBF
:1003E0002D2F3032333536383A3B3D3E404243457F
:1003F00047494A4C4E5051535557595A5C5E6062BA
:10040000646668696B6D6F71737577797B7D7F81C9
:10041000838587898A8C8E90929496989A9C9E9FC9
:10042000A1A3A5A7A8AAACAEAFB1B3B4B6B8B9BBE7
:10043000BCBEBFC1C2C3C5C6C7C9CACBCCCDCED056
:10044000D1D2D2D3D4D5D6D7D7D8D9D9DADADBDB43
:10045000DBDCDCDCDCDCDDDDDDDDDCDCDCDCDCDBDA
:10046000DBDBDADAD9D9D8D7D7D6D5D4D3D2D2D123
:10047000D0CECDCCCBCAC9C7C6C5C3C2C1BFBEBC16
:10048000BBB9B8B6B4B3B1AFAEACAAA8A7A5A3A187
:100490009F9E9C9A98969492908E8C8A8987858349
:1004A000817F7D7B79777573716F6D6B6968666429
:1004B00062605E5C5A5957555351504E4C4A4947F9
:1004C000454342403E3D3B3A3836353332302F2D9E
:1004D0002C2A292826252322FFAA7F554000010126
:1004E00001010101010101020202020202020202F3
:1004F00003030303030303030404040404040405C3
:100500000505050506060606060707070707080886
:100510000808090909090A0A0A0B0B0B0C0C0C0D37
:100520000D0D0E0E0E0F0F0F1010111111121213D0
:10053000131414151516161717181819191A1A1B4B
:100540001B1C1D1D1E1E1F202021222223242425AA
:100550002626272829292A2B2C2D2D2E2F303132E3
:1005600032333435363738393A3B3C3D3E3F4041F3
:1005700042434445464748494A4C4D4E4F505153DB
:1005800054555658595A5B5D5E5F61626465666892
:10059000696B6C6D6F7072737577787A7B7D7E8016
:1005A00082838587888A8C8E8F91939596989A9C62
:1005B0009EA0A2A3A5A7A9ABADAFB1B3B5B7BABC76
:1005C000BEC0C2C4C6C9CBCDCFD1D4D6D8DBDDDF47
:1005D000E2E4E7E9EBEEF0F3F5F8FAFDFF0A034495
:1005E000005A0036003000000010034B0042004467
:1005F00000460061006E0073000000040309040956
:10060000023B00020100A0FA0904000001030101FD
:1006100000092111010001224000070581030800A3
:10062000010904010001030000000921110100017A
:1006300022B600070582032000011201000200001B
:1006400000085A446022010001020001050109026C
:10065000A10185020901A100050919012908150058
:1006600025019508750181020501093009311581BF
:10067000257F95027508810609381581257F95012A
:1006800075088106050C0A38021581257F950175CC
:10069000088106C0C005010980A101850319012A4E
:1006A000B700150126B700950175108100C0050C33
:1006B0000901A101850419012AA002150126A00241
:1006C000950175108100C005010906A10185060587
:1006D0000719E029E7150025019508750181020534
:1006E00007190029EF1500250195F0750181020514
:1006F0000819012905950575019102950175039168
:1007000001C005010906A101050719E029E7150047
:10071000250195087501810295017508810105077C
:10072000190029FF150026FF0095067508810005B0
:100730000819012905950575019102950175039127
:1007400001C011241FBECFEFDAE0DEBFCDBF04B67B
:1007500003FE18C08091410390914203A09143038E
:10076000B09144038730904BA740B04B59F410929E
:100770004103109242031092430310924403E0E0BD
:10078000F8E3099511E0A0E0B1E0ECE2FAE502C07F
:1007900005900D92A83CB107D9F723E0A8ECB1E091
:1007A00001C01D92A134B207E1F70E94F6140C9427
:1007B000142D0C940000CF93DF93C82FD62FFA018D
:1007C00082818823E1F0862F817189F0862F0E9433
:1007D000D00E6C2F80910201909103010E940B2496
:1007E0000E94090F8D2FDF91CF910C94CA0E6C2FB0
:1007F00080910201909103010E940B2407C06C2F8D
:1008000080910201909103010E941624DF91CF9103
:100810000C94090F0F931F93CF93DF93EC018B017F
:100820000E94C70E682FC83A8DE5D807A1F020F4C2
:10083000C73ADD4549F028C0C93A8DE5D80791F09F
:10084000CA3ADD45B1F020C0862F817111F482E5EE
:1008500016C08BE414C0862F817111F481E50FC09E
:100860008EE40DC0862F817111F480E508C08AE402
:1008700006C0862F817111F48FE401C08DE4A801B8
:100880000E94DB0380E001C081E0DF91CF911F91E6
:100890000F91089581E008950C940A0408950C9432
:1008A0004E041F93CF93DF9300D000D01F92CDB79B
:1008B000DEB749835A836B833091CB0189819A815A
:1008C000311114C0662359F0222349F00E94210BF4
:1008D000182F682F89819A810E94CA0A03C00E943A
:1008E000F50A182F69817A81812F04C00E94210B9B
:1008F00069817A810F900F900F900F900F90DF9188
:10090000CF911F910C946112FC01262F40815181DF
:100910006281738184810C94510481E00895CF93A6
:10092000DF93EC0160E00E948404BE01DF91CF916F
:100930000C944F040C94A7130C94A31308950E94D5
:1009400074090E949E042FEF84E39CE021508040B4
:100950009040E1F700C000000C941C250F931F93FA
:10096000CF93DF938C0161E00E948404EC01B80115
:100970000E944C04882309F44BC0B801CE010E94A8
:10098000A71F882309F444C0B801CE010E94B922F0
:100990008823F1F1B801CE010E94CD208823C1F156
:1009A000B801CE010E941522882391F1B801CE0131
:1009B0000E94EB1D882361F1F8018281882309F1EF
:1009C000CB358DE5D807C1F050F4C115FCE5DF0744
:1009D00081F0CF3DDC45A9F40E94581019C0CC35F8
:1009E000EDE5DE0761F0CD35DD4559F40E949B0F42
:1009F00008C00E949F040CC00E94A40F02C00E9465
:100A0000A70FC801DF91CF911F910F910C944A0459
:100A100080E0DF91CF911F910F9108950E945024A3
:100A200080E00E94DC1F0E943D050C94681C0E941F
:100A3000CB1E0E9440050E94341D0C94562408953C
:100A40000C941F0581E00895CF93C82F0E942205C2
:100A5000882329F0C1FD02C02A9A01C02A98CF91AB
:100A60000895229A2A9A0895CF93C82F0E942005AC
:100A70008C2F0E942405CF91089580E00C943405BA
:100A80000E9415230C9434050E9415239091CA01ED
:100A9000891721F08093CA010C9434050895CF93EF
:100AA000DF93CDB7DEB72B970FB6F894DEBF0FBE3E
:100AB000CDBF4F83588769877A878B8761110E94E2
:100AC000E70E9E012F5F3F4F86E0F90111928A9554
:100AD000E9F785E0FE013796D90101900D928A95DC
:100AE000E1F789819A814C815D81452B31F09F3FEF
:100AF00031F491E08F3F19F403C091E001C090E020
:100B000090FF09C049815A816B817C818D819E81D2
:100B10000E94080E05C0C9010E948D048111F2CF08
:100B20002B960FB6F894DEBF0FBECDBFDF91CF91ED
:100B30000895FC01808191810E94630B0895CF93F9
:100B4000882309F4A4C0C82F8238C1F40E94152359
:100B500081FD9DC069E380910201909103010E9493
:100B60000B240E94090F2FEF81EE94E0215080406A
:100B70009040E1F700C0000069E319C0833801F537
:100B80000E94152380FD83C063E58091020190914E
:100B900003010E940B240E94090F2FEF81EE94E0C5
:100BA000215080409040E1F700C0000063E5809153
:100BB0000201909103010E941624CF910C94090F19
:100BC0008438C1F40E94152382FD61C067E48091DE
:100BD0000201909103010E940B240E94090F2FEF44
:100BE00081EE94E0215080409040E1F700C0000089
:100BF00067E4DDCF8CEF8C0F813AD0F46C2F8091BD
:100C00000201909103010E948B23882349F06C2FED
:100C100080910201909103010E9416240E94090F05
:100C20006C2F80910201909103010E940B24C5CF8B
:100C300080E28C0F883048F4C77081E001C0880FD3
:100C4000CA95EAF70E94CA0EB8CFEBE5EC0FE33085
:100C500040F4F0E0E65AFE4F808190E0CF910C9492
:100C60004923E8E5EC0FE73150F4F0E0EE0FFF1F09
:100C7000E45DFE4F80819181CF910C945F23CD3E46
:100C800030F08C2F0E947B15CF910C944D16CF9194
:100C90000895882309F464C0823879F40E941523EA
:100CA00081FF5EC069E380910201909103010E947F
:100CB0000B240E94090F69E310C08338B1F40E942D
:100CC000152380FF4DC063E58091020190910301DF
:100CD0000E940B240E94090F63E58091020190910C
:100CE00003010E9416240C94090F843879F40E94A1
:100CF000152382FF35C067E48091020190910301C2
:100D00000E940B240E94090F67E4E7CF9CEF980F25
:100D1000913A10F4682FE1CF90E2980F983050F498
:100D2000877091E001C0990F8A95EAF7892F0E9498
:100D3000D00ED9CF9BE5980F933020F480E090E05F
:100D40000C94492398E5980F973120F480E090E0C7
:100D50000C945F238D3E20F00E94D6150C944D1606
:100D600008951F93CF93DF93182FEB010E949F05E7
:100D7000209741F08FE99FE00197F1F700C0000054
:100D80002197F6CF812FDF91CF911F910C944906C7
:100D9000893319F060E070E002C060E570E00C9407
:100DA000B106882321F00E94CA0E0C94090F089501
:100DB000882321F00E94D00E0C94090F0895CF9241
:100DC000DF92EF92FF920F931F93CF93DF937C01FB
:100DD000D62FC72FFC011281058102950F700E944A
:100DE000C00E8823B9F01123A9F08C2F807F8034A6
:100DF00021F080E28D0F883068F08091E50282FD5D
:100E000009C082E00E94690F0E94C00E91E0D82EB6
:100E1000D92601C0D12CCC2EC2948FE0C8228C2DB3
:100E200090E08C30910508F0CFC1FC01EA5AFF4FE9
:100E30000C947B2C8C2F807FCF70882311F0C2956F
:100E4000C07F112399F0CC2309F4AAC180E28D0F51
:100E5000883010F0D11104C08C2F0E94CA0E03C03C
:100E60008C2F0E94DA0E0E94090F9AC18D2F0E94CA
:100E70004906CC2309F4A8C180E28D0F883038F1EF
:100E8000DD2329F18C2F0E94E00E24C08C2F807F5F
:100E9000CF70803211F0C295C07FDD2319F0D130C0
:100EA000A1F13DC08091E50282FF17C0112349F0F6
:100EB000CC2329F08C2F0E94CA0E0E94090F80E0DB
:100EC00070C180E00E944906CC2309F47DC18C2FBB
:100ED0000E94D00E0E94090F77C1112371F00023E8
:100EE00041F0013031F40E94EA0E8C2B0E94F20E88
:100EF0006BC10E94EA0E8C2B1DC0002319F001303B
:100F000009F462C10E94FF0E25C0112321F00630B2
:100F100008F05AC10EC0053008F056C11BC011239D
:100F200061F0002331F0F701858180FF39C18F70B6
:100F300085838C2F0E94D10647C1002359F0D933F5
:100F400009F03FC1FFEF07EE13E0F1500040104001
:100F5000E1F735C18C2F0E94D80636C18C2F8695BB
:100F60008695837019F0813061F02EC1112321F034
:100F70008D2F9C2F937002C080E090E00E94492347
:100F80002BC1112321F08D2F9C2F937002C080E084
:100F900090E00E945F2320C18D2F112319F00E9441
:100FA0007B1502C00E94D6150E944D1615C18C2FCC
:100FB000837009F047C011110BC12D2F2295269582
:100FC0002770220F220F6D2F6F70862F90E0A0E008
:100FD000B0E0022E04C0880F991FAA1FBB1F0A94FD
:100FE000D2F7D4FF10C04FE050E060E070E004C0E2
:100FF000440F551F661F771F2A95D2F740955095CD
:101000006095709503C040E050E0BA01C695C69562
:10101000C3708A019B01082B192B2A2B3B2BC9017A
:10102000B801C23049F058F4C13019F00E94E0090B
:10103000CFC00E94CE09CCC00E94F209C9C00E9454
:10104000CC09C6C0112319F08C2F817001C0869580
:10105000882309F4BDC02D2F229526952770220FD5
:10106000220F6D2F6F70862F90E0A0E0B0E0022E6F
:1010700004C0880F991FAA1FBB1F0A94D2F7D4FF80
:1010800010C04FE050E060E070E004C0440F551F16
:10109000661F771F2A95D2F74095509560957095F9
:1010A00003C040E050E0BA01C695C695C3708A01FE
:1010B0009B01082B192B2A2B3B2BC901B801C230ED
:1010C00049F058F4C13019F00E94A50A81C00E946D
:1010D000930A7EC00E94B70A7BC00E94060A78C0AD
:1010E000CF70112339F08C2F0E942C0A8D2F0E9473
:1010F000D1066EC08D2F0E94D8068C2F0E944D0AFB
:1011000067C0D23F21F128F4D03F41F0D13FC1F078
:1011100043C0D33F19F1D43F79F03EC0112341F0D1
:10112000053008F051C08C2F8F710E94720A4CC09C
:10113000063008F049C0F7CF8091E50282FF18C061
:10114000112339F08C2F8F710E942C0A3DC011237E
:10115000C9F38C2F8F710E944D0A36C0112329F0DC
:101160008C2F8F710E94170A2FC00E94120A2CC068
:10117000112349F0CF718C2F0E942C0A63E08C2F31
:101180000E944E0F21C081E00E94690F0230E0F002
:1011900082E00E94690F18C0112331F0002391F200
:1011A0008D2F0E949F0510C0002399F2D93349F476
:1011B0001FEF27EE33E0115020403040E1F700C030
:1011C00000008D2F0E94490688EF8C0D843020F49A
:1011D0000E9415230E943405DD20C9F00E94BC0E38
:1011E00080FD15C0F70112820E94B60E0E942C0AE3
:1011F000C7010E9428090E94B60EDF91CF911F916E
:101200000F91FF90EF90DF90CF900C944D0ADF91FB
:10121000CF911F910F91FF90EF90DF90CF900895A5
:101220000F931F93CF93DF93EC01688179818A81BB
:101230000E946E0B8C010E94C90A0E94BA09B80173
:10124000CE010E94DF06DF91CF911F910F9108958B
:10125000CF93DF93EC01988189812B813C81232BF3
:1012600031F08F3F31F481E09F3F19F403C081E0FA
:1012700001C080E080FD1DC0CE010E94AE0481113E
:1012800010C00E94C00E8823A1F08A81882389F0B3
:101290008091E50282FD0DC082E0DF91CF910C9438
:1012A000690FCE010E941009CE01DF91CF910C94FD
:1012B0008F04DF91CF91089580E090E00E94492350
:1012C00080E090E00E945F230E94E70E0E94090FD9
:1012D0000E947E170C944D1680910201909103019B
:1012E0000E9421240C945C090E94D70E0C946C0976
:1012F00092959F70963079F010F4925001C09A50F8
:10130000923068F4803F69F018F4883E40F409C0D8
:10131000843F29F406C0883E20F0813F11F080E030
:10132000089581E00895FC01808191810E94630B02
:101330000E9478090895CF93DF9300D000D01F92C8
:10134000CDB7DEB70F900F900F900F900F90DF91F9
:10135000CF910895CF93DF9300D000D000D0CDB7C8
:10136000DEB726960FB6F894DEBF0FBECDBFDF9175
:10137000CF910895089508950C94BB090C94BC096D
:101380000E94BE09609302027093030280930402DC
:10139000909305020C945C090C94C0090F931F9361
:1013A0000091020210910302209104023091050283
:1013B000602B712B822B932B1F910F910C94C009E2
:1013C0000F931F93009102021091030220910402D7
:1013D0003091050260237123822393231F910F9183
:1013E0000C94C0090F931F93009102021091030205
:1013F00020910402309105026027712782279327EC
:101400001F910F910C94C0090C94BB090E94040A0F
:101410006093FE017093FF0180930002909301029C
:101420000C945C0960E070E0CB010C94060A0F9309
:101430001F9341E050E060E070E08A019B0104C02E
:10144000000F111F221F331F8A95D2F7C901B8015F
:101450001F910F910C94060A0F931F9341E050E0E7
:1014600060E070E004C0440F551F661F771F8A9527
:10147000D2F78091FE019091FF01A0910002B091FE
:1014800001028A019B01082B192B2A2B3B2BC90136
:10149000B8011F910F910C94060A0F931F9341E01E
:1014A00050E060E070E004C0440F551F661F771FD6
:1014B0008A95D2F740955095609570958091FE0180
:1014C0009091FF01A0910002B09101028A019B015D
:1014D000082319232A233B23C901B8011F910F9127
:1014E0000C94060A0F931F9341E050E060E070E017
:1014F00004C0440F551F661F771F8A95D2F780914D
:10150000FE019091FF01A0910002B09101028A01B9
:101510009B01082719272A273B27C901B8011F91DA
:101520000F910C94060A0F931F930091FE011091E6
:10153000FF012091000230910102602B712B822B60
:10154000932B1F910F910C94060A0F931F930091F8
:10155000FE011091FF0120910002309101026023F1
:101560007123822393231F910F910C94060A0F93EA
:101570001F930091FE011091FF0120910002309114
:10158000010260277127822793271F910F910C94E6
:10159000060A08952FE0929F800D1124E82FE6950A
:1015A000E695E695877051E001C0550F8A95EAF7F8
:1015B00085E0E89FF0011124E453FE4F20E030E085
:1015C00070E04081CB01022E02C0969587950A9467
:1015D000E2F78170819584278523842781932F5F8B
:1015E0003F4F2530310569F708952FE0929F800D18
:1015F0001124682F669566956695982F977085E0FB
:10160000689FB001112440E050E080E0FB01E40F4E
:10161000F51FE453FE4F208130E0092E02C03695BD
:1016200027950A94E2F721703327042E01C0220F78
:101630000A94EAF7822B4F5F5F4F4530510531F72F
:101640000895BF92CF92DF92EF92FF920F931F9374
:10165000CF93DF938C01C090FE01D090FF01E0900A
:101660000002F09001028091020290910302A09189
:101670000402B0910502C82AD92AEA2AFB2ACFE13E
:10168000D0E0D701C6010C2E04C0B695A79597955A
:1016900087950A94D2F780FD04C0219790F7B12C6A
:1016A00007C0BC2EB8018C2F0E9474120197A9F3B9
:1016B0008B2DDF91CF911F910F91FF90EF90DF90D5
:1016C000CF90BF900895CF93DF93EC010E94210B40
:1016D000BE010E947412DF91CF9108951F93CF93A2
:1016E000DF93EB019091CB01992321F0CB010E9474
:1016F000630B13C0882349F0CB010E94210B182FE4
:10170000682FCE010E94CA0A04C0CB010E94F50ACC
:10171000182FBE01812F0E947412DF91CF911F916B
:1017200008951F93CF93DF93C091060216E0809136
:101730000702C81799F0D0E01C9FF0011D9FF00D23
:101740001124E85FFD4F4081518162817381848162
:1017500095810E94AA092196C770E9CFDF91CF91A8
:101760001F910895409138025091390260913A02D8
:1017700070913B0280913C0290913D020C94AA0929
:10178000EF92FF920F931F93CF93DF9380913D02CF
:1017900082958F7009F065C080913A02882309F420
:1017A00060C080910602F09007021091380200910B
:1017B000390260913B0270913C0291E01F3F09F0B9
:1017C00090E0C0910001D0910101292F96E0E92E0F
:1017D0008F1509F446C06115710521F00F3F21F006
:1017E00030E003C031E001C0322F90E030FD36C060
:1017F000E89EF001E99EF00D1124DF01A85FBD4FC6
:1018000011963C911197301329C03C91311326C099
:1018100012963C911297311121C013964D915C9113
:101820001497461B570B4C175D07C0F480913D027F
:101830008F70806180933D02E35FFD4F80818F70E8
:101840008061808388E392E00E942809DF91CF9134
:101850001F910F91FF90EF900C94910B0196877060
:10186000B7CFDF91CF911F910F91FF90EF90089527
:101870009F92AF92BF92CF92DF92EF92FF920F931F
:101880001F93CF93DF93CDB7DEB761970FB6F89470
:10189000DEBF0FBECDBF8C0185E0F801DE011D96D5
:1018A00001900D928A95E1F7D8011296EC909091F3
:1018B0003802E091390220913B0230913C0221151F
:1018C000310531F0EF3F31F481E09F3F19F403C05F
:1018D00081E001C080E0B82FB1709B2E80FD47C130
:1018E000D8014C9111965C9111971396AD90BC90D4
:1018F000149788E3C82E82E0D82EF0903A02B50102
:10190000621B730B2091000130910101FF2009F44B
:10191000D9C080913D026217730708F095C0282F47
:10192000207F09F052C05E1313C0491311C0FE2C72
:10193000E1100EC08F70806180933D020E94B20B57
:10194000C6010E94280980913D02F80185834DC19E
:10195000AB2831F05F3F31F481E04F3F19F403C011
:1019600081E001C080E080FD03C081E08E2502C0DF
:1019700080E090E0F82FF170FF2E80FF1CC0809176
:1019800006022091070236E0821709F40BC190E0AD
:10199000389FF001399FF00D1124E85FFD4F618100
:1019A000561306C06081461303C06281E61203C06D
:1019B00001968770E9CFFE2CEE2009F416C18091C4
:1019C0003D02816080933D0254C05E1306C04913FE
:1019D00004C0E11002C0F80199C0C8010E94930937
:1019E000882361F1EE2051F120913D02822F8295F2
:1019F0008F7090E0029774F08091380290913902D4
:101A000098878F831986BB86AA862C87CE01079676
:101A10000E94280986E0F801A8E3B2E001900D9247
:101A20008A95E1F70E94C00B0E94B20B0AC05E17B4
:101A300011F1C8010E94930981112CC0C8010E94B4
:101A40002809FF24F394D1C0282F207F81F77A2D15
:101A5000B98AA88A6E2D89890E949B0988E392E041
:101A60000E94280986E0D6011D928A95E9F70E9416
:101A7000B20BF12CBAC04913DCCFE110DACFF80178
:101A80008583C8010E94280986E0D6011D928A95A7
:101A9000E9F7ABC0EE2091F220913D02822F8295B2
:101AA0008F7090E002970CF4B5CF8091380290913E
:101AB00039029A8389831B82BD82AC822E83CE0138
:101AC0000196A6CF6217730708F044C0FE2CEE20E3
:101AD00009F4B4CF5E1330C049132EC020913D02EB
:101AE00020FD21C0822F82958F70482F50E0411534
:101AF0005105C9F0F80125834F30510541F08F5F42
:101B0000982F9295907F822F8F70892B8583C801A3
:101B10000E94280986E0F801A8E3B2E001900D9246
:101B20008A95E1F73CC086E0F801A8E3B2E00190B5
:101B30000D928A95E1F759C0C8010E94930981115D
:101B400069CF80913D02816080933D02C8010E946F
:101B500028094BC07A2DB98AA88A6E2D89890E94DE
:101B60009B0986E0D6011D928A95E9F718C0EE2000
:101B700009F464CFC8010E949309F82E882309F460
:101B80005DCF86E0F801A8E3B2E001900D928A955E
:101B9000E1F788E392E00E9499050E94C00B0E9441
:101BA000B20B23C04D875E878D859E850E94630B97
:101BB000292F22952F70223028F49F7039F081113F
:101BC00005C00BC0243028F49F7049F4805E883033
:101BD00020F0C8010E9428099F2CF92C06C0D801CA
:101BE00015969C91907F91F7F8CF8F2D61960FB647
:101BF000F894DEBF0FBECDBFDF91CF911F910F9143
:101C0000FF90EF90DF90CF90BF90AF909F9008959E
:101C10001F93CF93DF93CDB7DEB72C970FB6F89411
:101C2000DEBF0FBECDBF4F83588769877A878B870A
:101C30009C87CE0107960E94380C8823D1F09F81A3
:101C400088852A853B85232B31F08F3F31F481E055
:101C50009F3F19F403C081E001C080E080FD47C0D0
:101C60004F81588569857A858B859C850E94AA0954
:101C70003EC086E0FE013796DE01119601900D927E
:101C80008A95E1F7FF81E8856A857B856115710595
:101C900031F0EF3F31F481E0FF3F19F403C081E000
:101CA00001C080E080FD23C02091070230E0C9011F
:101CB0000196877099274091060250E08417950796
:101CC000F1F1F983EA837D836C8396E0929FD001E2
:101CD000939FB00D1124A85FBD4FFE013196019076
:101CE0000D929A95E1F7809307020E94910B16E0FE
:101CF0008091060290910702891771F1189FC00127
:101D00001124885F9D4F0E94380C882329F1E091AF
:101D100006021E9FF0011124E85FFD4F40815181B2
:101D200062817381848195810E94AA098091060253
:101D300090E001968770992780930602D9CF0E9480
:101D400074091092070210920602E8E3F2E086E0BE
:101D5000DF011D928A95E9F72C960FB6F894DEBF45
:101D60000FBECDBFDF91CF911F91089580915E028C
:101D7000859585958595089580915E028770089573
:101D800090915E02977081E009F480E0089580915F
:101D90008102089590918102892B80938102089598
:101DA00080959091810289238093810208951092F9
:101DB0008102089590918002892B8093800208957A
:101DC00080959091800289238093800208951092DB
:101DD0008002089580915F02089508950C94ED0E9D
:101DE0000C94EE0E9091E50292FD08C090915F0276
:101DF000981721F080935F020C94F00E0895809163
:101E00005F02882329F010925F0280E00C94F00EAC
:101E10000895CF93DF93E0910201F0910301809147
:101E200081028083E0910201F09103019081809111
:101E30008002892B808380915F02882381F0E0916A
:101E40000201F09103019081892B8083809102012E
:101E5000909103010E94752381110E94FF0EC09191
:101E60000201D091030140E250E06EE372E0CE0146
:101E70000E94BF2C892B69F080E2FE01AEE3B2E044
:101E800001900D928A95E1F7CE01DF91CF910C94EC
:101E90002123DF91CF9108950C94ED0E9091E502EE
:101EA00092FD10C098E0899F90011124262B209369
:101EB0005E020E942C0A80915E028595859585952B
:101EC0000C944C0F0C942C0A10925E0280E00C943F
:101ED0004C0F20915E028095822380935E02982FA2
:101EE000977099F430E0482F082E000C550B2417FA
:101EF000350759F09091E50292FD07C085958595CB
:101F000085950E944D0A0C94640F08959091E50206
:101F100092FB222720F9281769F080FB92F9909311
:101F2000E5028091E4029091E5020E94D40F82E0E4
:101F30000C94690F08958091E50282FB882780F94F
:101F400091E089270C94860F81E00C94860F80E045
:101F50000C94860F6FEF7FEF80E090E00C94FE2CE6
:101F600080E090E00E94DA2C21E0893E9E4F09F04B
:101F700020E0822F089582E090E00C94CC2C83E046
:101F800090E00C94CC2CCF9384E090E00E94CC2C79
:101F9000C82F82E290E00E94CC2C2C2F30E0A901C7
:101FA000582BCA01CF910895CF93C92F682F84E091
:101FB00090E00E94E02C6C2F82E290E0CF910C9494
:101FC000E02CAB01BC018FE090E00C94F22CAB0153
:101FD000BC0183E190E00C94F22C60E070E0CB0156
:101FE0000C94E70F60E070E0CB010E94E10F0C94CD
:101FF000ED0F69EE7EEF80E090E00E94FE2C60E045
:1020000082E090E00E94E02C60E083E090E00E949B
:10201000E02C10920202109203021092040210921D
:10202000050260E084E090E00E94E02C60E082E243
:1020300090E00E94E02C60E085E090E00E94E02CBF
:1020400060E086E090E00E94E02C6FEF87E090E097
:102050000E94E02C40E050E0BA0188E090E00E944D
:10206000F22C60E08DE090E00E94E02C40E050E037
:10207000BA0188E190E00E94F22C60E087E190E0F4
:102080000E94E02C40E050E0BA018CE190E00E9418
:10209000F22C60E070E080E290E00E94FE2C40E0D4
:1020A00050E0BA0188E190E00E94F22C0C94F20F0B
:1020B0000C94F90F682F8EE090E00C94E02C0E94B5
:1020C000DB2460939002709391028093920290932C
:1020D000930260938C0270938D0280938E02909392
:1020E0008F02089585B7806885BF85B7806885BFF2
:1020F000089581E008950C94791008950C947D1052
:102100000C947D100C9480100C947D100C94841011
:102110000C947D100E94721080E593E10E940B23C5
:102120000E9488100C9486100E947E100C947D10E2
:102130000E946A130E9431050C9492200E94C624CA
:102140000E944F140E9498100E94CB1E0E94F91CFE
:102150000C9482105F926F927F928F929F92AF92B7
:10216000BF92CF92DF92EF92FF920F931F93CF9384
:10217000DF93CDB7DEB72A970FB6F894DEBF0FBE58
:10218000CDBF0E946414C82E81110E945F1032E8F6
:10219000832E32E0932E00E010E0502E802F0E941C
:1021A0008E135C01F401619071904F0168267926CD
:1021B00061147104B1F40F5F1F4F0530110569F709
:1021C0008FEF89838A831B820E94CF248160782FBE
:1021D0009D838C8349815A816B818D810E944F053B
:1021E0003AC08091940281FD0E949713D12CEE2475
:1021F000E394F12CC3018E219F21892B29F10E94A8
:102200007B108823A9F0DE825F82AE20BF2081E0B0
:10221000AB2809F480E088870E94CF248160782F62
:102220009A8789874E815F8168858A850E944F05DC
:10223000000F111FF801EE57FD4F80819181E826B4
:10224000F926F182E08207C0D394EE0CFF1CFFE078
:10225000DF12D0CFB0CF81E0C11001C080E02A965C
:102260000FB6F894DEBF0FBECDBFDF91CF911F91A7
:102270000F91FF90EF90DF90CF90BF90AF909F9025
:102280008F907F906F905F9008950E94AA100E9497
:102290003D1D0E9491200E946B160C944405CF9323
:1022A000DF930E947912EC01811521E5920708F075
:1022B00045C0811530E5930708F094C0883E91052C
:1022C00028F5803E910508F0F8C0883A910570F431
:1022D000853A910508F07CC08130910509F475C0FC
:1022E00008F4E8C0049708F0E8C0E4C08F3B91050B
:1022F00008F0E0C0C85AD0E0CC0FDD1FC35ADE4F53
:102300000990D881C02DCE019464D8C0811540E2D7
:10231000940758F4811551E0950708F0CEC08D3E22
:10232000910508F4C7C09065C9C0C11580E4D807FD
:1023300008F4C0C0DF70CE01906AC0C0811525E5E9
:102340009207A8F4811534E5930708F095C081152C
:1023500043E5940708F07BC0811552E5950708F026
:1023600061C0D82FCC27CE01816F906AA7C0C1155C
:1023700089E5D807A0F4C11528E5D20708F082C086
:10238000C11536E5D30708F095C08C2F0E940D13B8
:102390008F7190E0D82FCC27CE0190628FC0C115ED
:1023A0004AE5D40708F474C0CE01905681159042D6
:1023B00008F080C08D2F8F710E940D13DD27D06231
:1023C0008F71AE01582BCA0179C081E090E076C0D0
:1023D000C55AD0E0C557DE4F8881C82FD0E0CE0166
:1023E00090646CC074E0969587957A95E1F7282FF4
:1023F00023703C2F337081E090E002C0880F991F5A
:102400003A95E2F79C68AC01522B9A019C2F9F7081
:102410009695969550E2959FE0011124C9018C2B69
:102420009D2B4CC08370992721E030E002C0220F21
:10243000331F8A95E2F79C2F9695969580E2989F98
:10244000E0011124C22BD32BCE019C6837C08370CE
:10245000992721E030E002C0220F331F8A95E2F76E
:102460009C2F9695969540E2949FE0011124C22BF3
:10247000D32BCE019A6822C0D82FCC27CE01846FEF
:10248000906A1CC0DC2FCC27CE01806F906A16C0EA
:102490008C2F8F700E940D1394E0D695C7959A9556
:1024A000E1F7CF70D0E0DC2FCC27D0699E01282B3C
:1024B000C90104C080E090E001C0CE01DF91CF915E
:1024C00008952BE4829FC0011124FC012FE0729F2C
:1024D000E00DF11D1124E60FF11DEE0FFF1FE85274
:1024E000FF4F8591949108950E9461120E944F11AF
:1024F00008958238910569F1B0F48133910509F4AA
:102500006DC048F48932910509F463C08A3291059F
:1025100009F469C008958533910509F455C08933DC
:102520009105B9F00895833E910569F138F4803E34
:102530009105B1F0823E910509F10895863E91051D
:10254000A9F1873E9105B9F1843E910509F064C077
:1025500023C02091E40220FD4FC021FD4DC008950D
:102560008091E40280FD44C08091E50280FF44C078
:102570008091E40284FD42C083EE4DC08091E4026C
:1025800082FF38C0F5CF8091E40282FD33C0809194
:10259000E50280FD31C0ECCF8091E50281FF32C0C1
:1025A0008091E40284FD2AC087EE35C08091E40268
:1025B00083FF26C0F5CF8091E40283FD21C0809186
:1025C000E50281FD1FC0ECCF8091E40285FD1CC0B7
:1025D0001DC08091E40285FD19C016C08091E402FF
:1025E00086FD16C017C08091E40286FD13C010C09E
:1025F00089E311C082EE0FC080EE0DC080E00BC0F9
:1026000086EE09C084EE07C089E205C085E303C0F9
:102610008AE201C081E390E008959091E40292FF84
:102620000DC0282F2871283019F4877F846006C0D8
:10263000282F2471243011F48B7F886093FF0DC004
:10264000282F2871283119F4877E846106C0282F2D
:102650002471243111F48B7E88612091E50220FFE2
:102660000DC0382F3871383019F4877F816006C06B
:10267000382F3171313011F48E7F886021FF0DC009
:10268000282F2871283119F4877E816106C0282FF0
:102690002171213111F48E7E886194FD877E089529
:1026A00080E008950C94AA0F0E9464148FE39CE9C3
:1026B0000197F1F700C000000E94641480E00E94BE
:1026C0008E1380FF04C00E9452130C941C250895A1
:1026D0000C9454130E94B00F811102C00E94581034
:1026E0000E94BB0F809394020E94C30F9093E50257
:1026F0008093E4020E9468130E94BF0F682F70E06D
:1027000080E090E00E94CC096091FE017091FF0191
:1027100080910002909101020C94040AE82FF0E0ED
:10272000EE0FFF1FE051FD4F8081918108950895C4
:1027300080EA8A95F1F7089500C008950C949813E3
:1027400008950C94A0130C94A1130C94A0130C9452
:10275000A513F894E82FE295EF70F0E031A1282F4F
:102760002F7081E090E001C0880F2A95EAF7982F3A
:102770009095932391A392A1892B82A37894089595
:102780000F931F93CF93DF93CDE9D1E089918F3FD2
:1027900011F00E94A91381E0C23AD807B9F7CEE838
:1027A000D1E00DE911E089918F3F11F00E94A9134A
:1027B0000C171D07C1F7DF91CF911F910F9108955D
:1027C000BF92CF92DF92EF92FF920F931F93CF931E
:1027D000DF938C01C62FD0E0CE0183569E4F6C0153
:1027E000FC0190819F3F09F450C0B62EF894E92F68
:1027F000E295EF70F0E081A19F7021E030E001C030
:10280000220F9A95EAF7822B81A382A12095282393
:1028100022A378940E949C13EEE8F1E04DE951E088
:1028200021E030E0E12CF12C61916F3F89F0A62F7F
:10283000A295AF70B0E090968C9190E06F7002C05E
:10284000959587956A95E2F780FD02C0C90102C09F
:1028500080E090E0E82AF92A220F331F4E175F0725
:1028600019F7F60180818F3F11F00E94A91361E0F2
:10287000E114F10409F460E08B2D0E949E13CC0F4B
:10288000DD1FC00FD11FF982E882DF91CF911F9128
:102890000F91FF90EF90DF90CF90BF9008950E942E
:1028A000C0138AE0E0EFF2E0DF01982F1D929A95C5
:1028B000E9F7E6EEF2E0DF011D928A95E9F785E09F
:1028C0000E94AF140C949A04FF920F931F93CF931E
:1028D000DF93CDB7DEB72A970FB6F894DEBF0FBEF1
:1028E000CDBF8E010F5F1F4F8AE0F80111928A95CC
:1028F000E9F7F12C6F2DC8010E94E013F394F5E085
:10290000FF12F8CF4AE050E0B80186EE92E00E9454
:10291000BF2CFF24F394009709F4F12C892B41F08C
:102920008AE0F801A6EEB2E001900D928A95E1F7F7
:102930002F2D45E060EF72E086EE92E00E94B01429
:102940000E949C048F2D2A960FB6F894DEBF0FBE0E
:10295000CDBFDF91CF911F910F91FF900895089502
:10296000FF920F931F93CF93DF93F82E092F162F0B
:10297000D72FC42F222349F081E0809397020E9431
:10298000CF2490939602809395028091970288239A
:10299000D9F080919502909196020E94E7240597C4
:1029A00098F0EF2DF02FA12FBD2F80E090E04C2F5D
:1029B00050E08417950734F4219131912D933D9384
:1029C0000196F7CF10929702DF91CF911F910F914F
:1029D000FF9008950E94E7260E949E100C94F32613
:1029E0000E94F7260E9445110C9411270E946D2425
:1029F0000E94CE260E948A100E94EA140E94F014BF
:102A00000E949410FBCF80919E0280FF06C06091CF
:102A1000090170E0660F771F26C081FF04C0609136
:102A2000090184E005C082FF07C06091090188E0C8
:102A3000689FB001112417C090919D029923D1F095
:102A400060910801961788F72091090188E0289F76
:102A500090011124929FA001939F500D112470E0CA
:102A6000CA010E94452C6038710540F4611571055A
:102A700019F406C068E070E0862F08958FE7089586
:102A800081E0089580919E0280FF08C06091050159
:102A900070E0759567957595679521C081FF06C0B3
:102AA0006091050170E07595679519C082FF04C0BB
:102AB0006091050170E010C090919C02992399F0FB
:102AC000609104019617A0F780910501899FC001CC
:102AD000112470E00E94452C6038710540F46115A6
:102AE000710519F406C061E070E0862F08958FE744
:102AF000089581E008958D3E21F40E94031581958B
:102B000004C08E3E29F40E9403158093A20208950A
:102B10008F3E21F40E940315819504C0803F29F463
:102B20000E9403158093A1020895893F19F40E9421
:102B3000421505C08A3F31F40E9442158195809369
:102B4000A30208958B3F21F40E944215819504C091
:102B50008C3F29F40E9442158093A40208959FE0BF
:102B6000980F983078F421E030E0A90102C0440FBA
:102B7000551F9A95E2F7CA019091A002892B809384
:102B8000A00208958D3F21F480919E0281600BC0C8
:102B90008E3F21F480919E02826005C08F3F29F410
:102BA00080919E02846080939E0208958D3E39F448
:102BB0009091A20297FF35C01092A20259C08E3E9A
:102BC00029F49091A2021916BCF32BC09091A10296
:102BD0008F3E29F497FF25C01092A10249C0803F83
:102BE00019F41916CCF31DC09091A302893F29F462
:102BF0001916BCF41092A3023BC08A3F19F497FF48
:102C000010C0F8CF8B3F39F49091A40297FF09C010
:102C10001092A4022DC08C3F21F49091A4021916A9
:102C2000BCF39FE0980F983080F421E030E0A901D8
:102C300002C0440F551F9A95E2F7CA018095909102
:102C4000A00289238093A00213C08D3F21F48091BC
:102C50009E028E7F0BC08E3F21F480919E028D7F5D
:102C600005C08F3F29F480919E028B7F80939E0246
:102C70008091A102811106C08091A202811102C03F
:102C800010929D028091A302811106C08091A4023E
:102C9000811102C010929C0208950E94CF242091BD
:102CA000A102211104C02091A202222321F09093BD
:102CB0009B0280939A022091A302211104C02091CB
:102CC000A402222321F090939902809398028FE925
:102CD00092E00C943B23EF92FF920F931F93CF93BC
:102CE000DF9300D000D000D0CDB7DEB786E0EFE9AB
:102CF000F2E0DE01119601900D928A95E1F7E090E5
:102D0000A102F090A2020091A3021091A4021092DD
:102D1000A1021092A2021092A3021092A402E1104A
:102D200003C0FF2009F45DC080919A0290919B023C
:102D30000E94E724AC0190919D02992339F02091E3
:102D40000A0130E02417350758F04BC020910B01E1
:102D50008AE0289F900111242417350718F041C0FC
:102D60009F3F19F09F5F90939D02EE2061F00E94BB
:102D700003151E1414F09FEF01C091E0989F902D51
:102D800011249093A102FF2061F00E9403151F14EB
:102D900014F09FEF01C091E0989F902D1124909323
:102DA000A2023091A1023323E1F02091A20222235A
:102DB000C1F045EB3403C0011124992319F090931D
:102DC000A10203C081E08093A10235EB2303C0017F
:102DD0001124992319F09093A20203C081E08093FB
:102DE000A202011103C0112309F45DC08091980271
:102DF000909199020E94E724AC0190919C02992342
:102E000039F02091060130E02417350758F04BC007
:102E1000209107018AE0289F90011124241735078B
:102E200018F041C09F3F19F09F5F90939C020023D0
:102E300061F00E944215101614F09FEF01C091E05E
:102E4000989F902D11249093A302112361F00E946A
:102E50004215111614F09FEF01C091E0989F902D3C
:102E600011249093A4023091A3023323E1F0209126
:102E7000A4022223C1F045EB3403C001112499239D
:102E800019F09093A30203C081E08093A30235EB75
:102E90002303C0011124992319F09093A40203C0C5
:102EA00081E08093A4028091A10281110BC08091E6
:102EB000A202811107C08091A302811103C08091F9
:102EC000A40281110E944D16EB82FC820D831E83A9
:102ED00086E0FE013196AFE9B2E001900D928A954D
:102EE000E1F726960FB6F894DEBF0FBECDBFDF9197
:102EF000CF911F910F91FF90EF900895EFE9F2E0CD
:102F000086E0DF011D928A95E9F710929D021092EA
:102F10009C0210929E020895EF92FF920F931F93CE
:102F2000CF93DF938B01682F11110AC0442329F03E
:102F3000E82FF0E0E352FB4F6491762F862F75C0A7
:102F4000212F30E0E82FF0E0442321F0E352FB4F43
:102F5000E491F0E046E0049FC0011124CFEFD0E0FF
:102F6000BE010E94312C4BEA4603C001479F900DE1
:102F70001124800F911D800F911D982F990F890F9B
:102F8000AE01421B530B4E9FD0014F9FB00D5E9F71
:102F9000B00D11249B2F189FA0011124452F5527F8
:102FA0008E01041B150B0E9FA0010F9F500D1E9F3D
:102FB000500D11247E01E81AF108E29E8001E39E83
:102FC000100DF29E100D1124212F3327C21BD30B9D
:102FD000CE9F9001CF9F300DDE9F300D11246230C7
:102FE0007105A9F048F46115710569F0613071054A
:102FF000C9F48B2F752F0DC06430710581F058F026
:103000006630710579F47E2F8B2F932F0DC0832F9F
:103010007B2F9E2F09C08E2F7B2F952F05C08E2FC3
:10302000732F02C07E2F852F692FDF91CF911F91C3
:103030000F91FF90EF90089541E00E948C17089542
:1030400008950E941C180895CF93DF93762FE9010D
:10305000682F842F0E942118798368838A83DF91E7
:10306000CF9108958091FA02282F269530E02115FE
:10307000310519F48170826005C02532310524F0D4
:10308000817088648093FA02089588E090E00C943F
:10309000D42CCF92DF92EF92FF926B017C010E94C1
:1030A0003218B701A60188E090E0FF90EF90DF9022
:1030B000CF900C94F22CEAEFF2E083E0808311824F
:1030C0008FEF8283838314826081718182819381F7
:1030D0000C9449188091FA0280FF02C086950895E9
:1030E00080E008959091FE02933018F49F5F9093D2
:1030F000FE02882351F06091FA027091FB028091E8
:10310000FC029091FD020C944918089581E00C9402
:1031100072189091FE02992319F091509093FE023B
:10312000882351F06091FA027091FB028091FC02B9
:103130009091FD020C944918089581E00C9489182F
:1031400070E00C94A220609110018091FA0280FF3F
:103150000AC080910F0123E0829FC0011124815099
:103160009D4F0C94A0188091110190911201891724
:1031700080F7E82FF0E09F01220F331FE20FF31FCB
:10318000E150FD4F1182108212828F5FF0CF90913B
:10319000FA0290FF16C0909111012091120192172E
:1031A00070F4E92FF0E0DF01AA0FBB1FEA0FFB1F4D
:1031B000E150FD4F8183608342839F5FF0CF0C9489
:1031C000A3180895CF93DF9300D01F92CDB7DEB739
:1031D0009091FA0290FF0AC09E012F5F3F4F0E941C
:1031E00024184B8169818A810E94C7180F900F9023
:1031F0000F90DF91CF910895CF93DF93EC01EC8195
:10320000F0E0E852FC4F4491EAEFF2E06281818104
:103210000E94E2188C818F5F8C83DF91CF9108959B
:10322000CF93DF93EC01EAEFF2E0438162818C817E
:103230000E94E2188C818F5F8C83DF91CF9108957B
:103240000F931F93CF93DF9300D01F92CDB7DEB7BC
:103250008C018091A50281110AC09E012F5F3F4F12
:103260004FEF6FEF0E9424188A818093A502F80126
:103270008481813051F028F0823061F44091A502C0
:103280000AC08091A50240E007C06091A50240E01D
:1032900080E003C040E080E060E00E94C718F801D1
:1032A000848190E0019663E070E00E94452C848365
:1032B0000F900F900F90DF91CF911F910F91089574
:1032C000AF92BF92CF92DF92EF92FF920F931F9334
:1032D000CF93DF9300D01F92CDB7DEB7182FF62E15
:1032E000042FE22E9091FA0290FF6DC0E92FE6952F
:1032F000AE2FB0E0AE55BE4F8C918093B1029E7F51
:10330000923061F49E012F5F3F4F812F0E9424185D
:103310004B8169818A810E94C71843C0823019F4A9
:103320000091FD023EC0863019F41091FB0239C0B5
:103330008930D9F38931A9F5E9518E2F8170D82EC2
:10334000E695F0E0E852FB4FA590B490C12CBB2469
:1033500060911301C61618F52C2D30E0A29EC00115
:10336000A39E900DB29E900D112470E00E94312C0E
:10337000812FD11002C0860F01C0861B90911101D0
:10338000290F311DA901440F551F240F351F21504E
:103390003D4F402F6F2D0E942418C394D9CF0E9417
:1033A000A3181093FB02F092FC020093FD02EE20A2
:1033B00051F06091FA027091FB028091FC029091B1
:1033C000FD020E9449180F900F900F90DF91CF914E
:1033D0001F910F91FF90EF90DF90CF90BF90AF9033
:1033E0000895EAEFF2E09181282F4381628188E01D
:1033F000890F0C94601981E00C94F119EAEFF2E066
:103400009181282F4381628188EF890F0C94601984
:1034100081E00C94FE19EAEFF2E0628128E0620F8D
:1034200008F46FEF282F438181810C94601981E0AB
:103430000C940B1AEAEFF2E0628128E0621B08F4B8
:1034400060E0282F438181810C94601981E00C9405
:103450001A1AEAEFF2E0438128E0420F08F44FEF36
:10346000282F628181810C94601981E00C94291AC3
:10347000EAEFF2E0438128E0421B08F440E0282F05
:10348000628181810C94601981E00C94381A20E0EB
:103490000C946019FF920F931F93CF93DF93EC016D
:1034A000F12C0FEF10E060911301F616F0F480910B
:1034B00011012F2D30E0280F311DC901880F991FF0
:1034C000280F391F21503D4F70E0C8010E94452C44
:1034D000962F8C814091FD026091FC02F99E800D37
:1034E00011240E942418F394DECF0E94A3189A811D
:1034F0008C8190FF02C08F5F01C081508C83DF916F
:10350000CF911F910F91FF900895BF92CF92DF92BC
:10351000EF92FF920F931F93CF93DF93FC01828171
:1035200080FF02C00FEF01C001E010E080911301A5
:10353000181708F040C080911101C12ED12CE6016E
:10354000C80FD11DCE01880F991FC80FD91FC150B8
:10355000DD4F198218821A8234E0E32EF12CB12C4F
:103560008091A7028B0D813114F08F7005C087FF09
:1035700003C090911301890F082E000C990BC816F7
:10358000D90691F48091FD028E9DA0018F9D500D72
:10359000112455954795559547959E016091FC02DC
:1035A0008091FB020E942418B00EF1E0EF1AF1089E
:1035B000B9F61F5FBBCF0E94A3188091A70201300C
:1035C00031F4811102C080911301815007C090E055
:1035D00001966091130170E00E94452C8093A70230
:1035E000DF91CF911F910F91FF90EF90DF90CF90DF
:1035F000BF900895CF938091110190911201891786
:1036000070F4E82FF0E09F01220F331FE20FF31F49
:10361000E150FD4F1182108212828F5FF0CFC0E027
:1036200060911301C617C0F5EC2FF0E070E0CF01F8
:103630000E94452C20911101820F2091A602022E9A
:10364000000C330B90E0E217F307CCF020910E0151
:10365000022E000C330B2E173F078CF09C01220F1B
:10366000331F820F931F9C0121503D4F4091FD025B
:103670006091FC028091FB020E9424180BC0FC01A7
:10368000EE0FFF1F8E0F9F1FFC01E150FD4F1182B7
:1036900010821282CF5FC4CF0E94A31820910D0127
:1036A0008091A602820F8093A60290910E01920F44
:1036B00090930E0119165CF4082E000C990B4091A2
:1036C000130150E041505109841795071CF02195D2
:1036D00020930D01CF9108958F929F92AF92BF9248
:1036E000CF92DF92EF92FF920F931F93CF93DF93CE
:1036F0008C01FC014481C42FD0E09E01DE010E94B8
:10370000892C9B01AC010E949F2C6B017C01E0E2A3
:10371000F0E0EC1BFD0BA5E5B0E09B01AC010E94C5
:103720009F2C4B015C019F01DF010E94812C9B01BA
:10373000AC010E94AA2C9B01AC012C0D3D1D4E1D1D
:103740005F1DC501B4010E94592CC22FD22F2A320D
:1037500028F4F3E02F9F900111240DC025E530E0FF
:103760002C1B3109C901880F991F280F391F37FFFA
:1037700002C02F5F3F4F35952795C22FC095F12C82
:1037800085E5E82EED1A80911301F816C8F4F1FCD6
:1037900002C08E2D01C08D2F909111012F2D30E090
:1037A000290F311DA901440F551F240F351F21502A
:1037B0003D4F4C2F6091FC020E942418F394E3CFFC
:1037C0000E94A318F8018481811102C091E003C016
:1037D000803219F49FEF90930C0190910C01890FA6
:1037E000F8018483DF91CF911F910F91FF90EF90AB
:1037F000DF90CF90BF90AF909F908F9008950F93E0
:103800001F93CF93DF93EC0100E010E08091130150
:10381000282F30E00217130724F590911101980129
:10382000290F311DA901440F551F240F351F2150A9
:103830003D4F869590E04C81081719071CF44423EE
:1038400031F002C0411103C04091FD0201C040E0CF
:103850006091FC028091FB020E9424180F5F1F4FB1
:10386000D5CF0E94A3188C8190E001968170992792
:103870008C83DF91CF911F910F910895EAEFF2E0D1
:1038800080818E7F808360817181828193810E949B
:1038900049181092B2022FEF80E792E02150804049
:1038A0009040E1F700C000000C94A318EAEFF2E0AA
:1038B00080818E7F80831092B2022FEF80E792E0AA
:1038C000215080409040E1F700C000000C94A31804
:1038D0001092B2028091AF0281110AC081E0809300
:1038E000AF028091FA0281708093AE020C94561C54
:1038F00008956091FA02669570E04BE050E084E133
:1039000091E00E94B22C892B19F481E08093B202DD
:103910000E94CF249093A9028093A80208959091C9
:10392000FA0290FF35C09170811102C0926006C00A
:10393000853210F0986402C0880F982B9093FA0299
:10394000662351F06091FA027091FB028091FC02B3
:103950009091FD020E9449186091FA02669570E00C
:103960004BE050E084E191E00E94B22C892B19F0E9
:103970001092B20202C00E94791C81E08093AB02D7
:103980004091FD026091FC028091FB020C94471A69
:103990000895682F9091FA02969581E0890F8532FB
:1039A00008F081E00C948F1C81E00C94C91C682FF6
:1039B0009091FA0296958FEF890F09F484E20C94A6
:1039C0008F1C81E00C94D71C61E00C948F1CEAEFF3
:1039D000F2E080818160808386950C94E41C809164
:1039E000FA0280FD0C943E1C0C94E71C60E00C94E1
:1039F0008F1C8091B00281112EC00E94B00F8111E6
:103A000004C00E9458100E945B180E9445186093E1
:103A1000FA027093FB028093FC029093FD026E7F8A
:103A200061F40E945B180E9445186093FA0270933B
:103A3000FB028093FC029093FD020E9432181092C8
:103A4000B2028091FA0280FF03C086950E94F61CA4
:103A500081E08093B0020895EAEFF2E08081816016
:103A6000808386950C94F61C1092AF028091AE0272
:103A700081110E942C1D0C94791C0F931F93CF93DE
:103A8000DF938091B202882309F485C08091B1024E
:103A9000E091FA02E695E81BE093AA02823049F42D
:103AA000F0E0EC52FC4FE491CE2FD0E00CEF18E1A7
:103AB00049C0863049F4F0E0EF52FC4FE491CE2F3C
:103AC000D0E000E119E13EC0893051F4E695F0E024
:103AD000E253FC4FE491CE2FD0E00AE41AE132C069
:103AE0008F3051F4E695F0E0E553FC4FE491CE2F92
:103AF000D0E005E81AE126C0853149F4F0E0E8534A
:103B0000FC4FE491CE2FD0E00AEF1AE11BC08831C0
:103B100081F0833239F4E6ECF3E0C591D49100E210
:103B200019E110C0843251F4C4EFD1E00FEF1BE172
:103B300009C0C8E2D0E00CE61BE104C0C0EDD7E04C
:103B400000E218E18091AB02882361F01092AB0291
:103B50000E94CF249093A9028093A8021092AD02F4
:103B60001092AC020E94CF24E091A802F091A90229
:103B70008E1B9F0B8F3F9F4770F4EC0FFD1FF09340
:103B8000A902E093A80288EA92E0F801DF91CF91C0
:103B90001F910F910994DF91CF911F910F9108957B
:103BA000882311F0FA0101C0FB010994CF93DF9340
:103BB000C82FD62F0E946A188C1740F00E946A18EE
:103BC0008D1720F4DF91CF910C94D41C8C2FDF91B2
:103BD000CF910C94E41C1F93CF93DF93FB011281D0
:103BE0001111C3C0EC010E94C70E8272CD3CFCE5EE
:103BF000DF0709F49AC0A8F5C73CECE5DE0709F435
:103C000076C0A8F4C43C9CE5D90709F45FC028F449
:103C1000C33CDC4509F457C054C0C53C9CE5D907FA
:103C200009F459C0C63CDC4509F45CC04AC0CA3C32
:103C3000FCE5DF0709F46AC050F4C83CECE5DE0798
:103C400009F45AC0C93CDC4509F45BC03AC0CB3C1E
:103C50009CE5D90709F45FC0CC3CDC4509F460C0A1
:103C600030C0C23DFCE5DF0709F46FC088F4CF3CEB
:103C70009CE5D90709F460C008F45CC0C03DFCE5D0
:103C8000DF0709F45CC0C13DDC4509F45BC019C025
:103C9000C53D9CE5D90709F460C050F4C33DFCE57F
:103CA000DF0709F455C0C43DDC4509F454C009C020
:103CB000C63D9CE5D90709F455C0CE35DD4509F46C
:103CC00054C011E052C00E94EF1C4FC041EE5CE1B5
:103CD00064ED7CE104C044ED5CE161EE7CE10E94B6
:103CE000D01D43C048E05AE16BEF79E1F8CF4BEFCC
:103CF00059E168E07AE1F3CF46E25AE167E17AE11F
:103D0000EECF47E15AE166E27AE1E9CF44E45AE1D5
:103D100065E37AE1E4CF45E35AE164E47AE1DFCF99
:103D20004DE958E166E878E1DACF46E858E16DE917
:103D300078E1D5CF81E017C065E082E010C068E08F
:103D400086E00DC06EE089E00AC064E18FE007C044
:103D500067E185E104C088E106C062E289E10E9472
:103D6000D61D03C083E20E94E41C812FDF91CF9116
:103D70001F91089586E090E00C94CC2C682F86E08B
:103D800090E00C94E02C80912F03847089628093E2
:103D90002F030C94BE1E0E94B00F811104C00E941C
:103DA00058100E94C31E0E94BA1E80932F03282F12
:103DB00026952695269530E02630310524F087702B
:103DC000886280932F0380912F0380FF04C0869523
:103DD0008695869501C080E00C94DC1F20912F030E
:103DE000822F869586958695482F50E0453051055F
:103DF00054F48F5F982F990F990F990F822F877026
:103E0000892B80932F0380912F03816080932F0350
:103E10000E94BE1E80912F038695869586950C94F0
:103E2000DC1F80912F03982F969596959695A1F07B
:103E3000915E990F990F990F8770892B80932F03AB
:103E4000887F91E009F490E080912F0390FB80F946
:103E500080932F030E94BE1E80912F038695869526
:103E600086950C94DC1F80912F0380FD13C0816028
:103E700080932F03813019F489E080932F03809180
:103E80002F030E94BE1E80912F03869586958695EE
:103E90000C94DC1F089580912F0380FF08C08E7F53
:103EA00080932F030E94BE1E80E00C94DC1F0895B7
:103EB00080912F0380FD0C944B1F0C94331F909125
:103EC0002F03892F8695869586958F5F8F719770C2
:103ED000863038F4880F880F880F892B80932F0342
:103EE00002C090932F0380912F03887F91E009F403
:103EF00090E080912F0390FB80F980932F030E9424
:103F0000BE1E80912F038695869586950C94DC1FA6
:103F1000863008F085E090912F039770282F220FAC
:103F2000220F220F922B90932F03987F21E009F408
:103F300020E090912F0320FB90F990932F030C9495
:103F4000DC1F0E94881F80912F030C94BE1E9C01D1
:103F5000FB018281882349F12E3BFCE53F07C9F034
:103F600040F42C3BECE53E0769F02D3B3C4561F00D
:103F70000895203C9CE5390791F070F0213C3C45C8
:103F800089F0089585E001C080E00E94A11F80E0D3
:103F900008950E94111FFBCF0E94EE1EF8CF0E94D1
:103FA000581FF5CF0E945F1FF2CF81E00895269A37
:103FB0002E9808952E9808958F929F92AF92BF9257
:103FC000CF92DF92EF92FF920F931F93CF93DF93E5
:103FD000C82F863050F4811109C0809180008F7DF8
:103FE000809380000E94DA1F06C0C5E080918000A7
:103FF000806280938000A0918600B09187002C2F72
:1040000030E00E94892C25E030E040E050E00E9442
:10401000592C0027122F232F342F012F122F232F3B
:10402000332780918600909187006CE070E00E94B9
:10403000312C6017710730F0C80169E070E00E9410
:10404000312C5EC08091860090918700E0908600C0
:10405000F0908700E0918600F0918700C6E0D0E004
:10406000BE010E94312C060F171F211D311D480172
:10407000590185E0880C991CAA1CBB1C8A95D1F7B4
:10408000C701BE010E94312C6F01E12CF12CA70168
:104090009601260F371F411D511DC501B4010E9415
:1040A000592C69017A01E0918600F0918700CA01DC
:1040B000B9010E94212C9B01AC01DF010E949F2CC1
:1040C0009B01AC01C701B6010E94212CDC01CB0190
:1040D0002FE0B695A795979587952A95D1F70091EA
:1040E00086001091870020E030E0081719072A07A2
:1040F0003B0728F46091860070918700CB01BC01DA
:1041000070938B0060938A00DF91CF911F910F9184
:10411000FF90EF90DF90CF90BF90AF909F908F90E7
:10412000089508950E94D71F82E28093800089E15C
:10413000809381008FEF9FEF90938700809386009C
:104140000C94CB1E6A9A2EB12B7F3EB134604FB7D0
:10415000F894FC01CB01880F991F680F791F6E0F2F
:104160007F1FE617F70789F0819198E03EB90000BC
:1041700000C087FF2EB9880F000000C000C000C03B
:104180002EB900C09A9591F7ECCF4FBF8FE594E020
:104190000197F1F700C000000895CF93DF93EC0181
:1041A000FB018281882309F43CC1C430FDE5DF07AF
:1041B00060F4CB3F9CE5D90788F49E0122503C4532
:1041C0002431310508F02EC109C0C236EDE5DE0705
:1041D00029F0C63AFDE5DF0709F024C10E94C30FAC
:1041E0009093E5028093E402C1318CE5D80709F48D
:1041F000C6C008F042C0C930ECE5DE0709F49BC038
:1042000000F5C5308CE5D80709F485C078F4C330D3
:10421000ECE5DE0709F478C008F07AC0C230DC456E
:1042200009F0F5C08091E4028160EFC0C7309CE5E1
:10423000D90709F478C008F07AC08091E40280615F
:10424000E4C0CD30FCE5DF0709F487C058F4CB307B
:104250009CE5D90709F479C008F07BC08091E4029D
:1042600088606FC0CF30FCE5DF0709F480C008F03C
:1042700082C08091E402877FC8C0CE3F9CE5D90709
:1042800009F471C000F5C531FCE5DF0709F485C00C
:1042900068F4C3319CE5D90709F475C008F095C0EE
:1042A0000E9474098091E4028F77AFC0CC3FFCE597
:1042B000DF07A9F108F054C0CB3FDC4509F0A7C0E7
:1042C0008091E50240C0C230EDE5DE0709F489C007
:1042D00058F4C1158DE5D80709F45AC008F069C033
:1042E0008091E50282602FC0C236EDE5DE0709F459
:1042F0007CC0C63AFDE5DF0709F481C0C330DD4567
:1043000009F085C080E06EC08091E40282607DC0CB
:104310008091E40216C08091E402886076C08091AA
:10432000E50282604FC08091E40280626EC080919D
:10433000E40280646AC00E9474098091E40280688B
:1043400064C0846062C081603DC08091E4028E7F61
:104350005CC08091E4028D7F58C08091E40216C059
:104360008091E50218C08091E5028D7F2BC080917D
:10437000E4028F7E4AC08091E4028F7D46C0809126
:10438000E4028F7B42C08091E402877F8B7F3DC037
:104390008091E5028D7F8E7F15C08091E40282FBC3
:1043A000222720F991E0922790FB82F990FB83F974
:1043B0002CC08091E502982F909591708E7F892B6B
:1043C00090FB81F98093E50222C00E9474098091DC
:1043D000E40287FB222720F991E0922790FB87F9DE
:1043E00014C081E00E945A1012C08091E40284FB44
:1043F000222720F991E0922790FB84F906C0809152
:10440000E402982F909590FB80F98093E4028091CC
:10441000E4029091E5020E94D40F0E94740980E0AA
:1044200001C081E0DF91CF910895CF93DF93863172
:104430009C4541F5EB010E94C70E982F8A8120917F
:10444000020130910301882379F09A7A81E009F41E
:1044500080E08093B302911102C069E201C065E37C
:10446000C9010E940B240AC08091B302811102C0CD
:1044700069E201C065E3C9010E9416240E94090F88
:1044800080E001C081E0DF91CF9108950F931F93E9
:10449000CF93DF93C42FD22FFC0182818823C9F0F0
:1044A0004093B6020E94CF249093B5028093B40249
:1044B00080E28C0F883008F057C0C77081E001C0DF
:1044C000880FCA95EAF7DF91CF911F910F910C9455
:1044D000D1068091B602481330C08091B402909109
:1044E000B5020E94E724883C910538F510E21D0FC3
:1044F000CD17B9F080E28C0F883040F4C77081E0AE
:1045000001C0880FCA95EAF70E94D806183028F52E
:1045100081E09D2F977001C0880F9A95EAF70E945D
:10452000D106802F0E94C8061830F0F4D77081E0C1
:1045300001C0880FDA95EAF70AC080E28C0F883054
:1045400098F4C77081E001C0880FCA95EAF7DF913F
:10455000CF911F910F910C94D806802FDF91CF91AE
:104560001F910F910C94C806DF91CF911F910F916D
:1045700008950F939C01CB01243F4CE5340731F1A2
:1045800088F4293DFCE53F07D9F02A3D4CE5340786
:1045900079F1283D3C45A9F506E221EE41EE68EDB2
:1045A0007CE52BC0263FFCE53F07E1F0A8F0273F64
:1045B0003C4539F507E225EE46EE67EF7CE51DC088
:1045C00007E225EE45EE69ED7CE517C006E221EE37
:1045D00040EE64EF7CE511C007E225EE44EE65EFA6
:1045E0007CE50BC006E221EE42EE66EF7CE505C0FD
:1045F00008E221E045EE6AED7CE50E94462280E07B
:1046000008C0FC018281882319F01092B60201C013
:1046100081E00F9108959093C9018093C801089596
:104620009093BC028093BB020895E091BB02F0918D
:10463000BC02309721F00190F081E02D099480E0D8
:104640000895E091BB02F091BC02309799F020915F
:104650002B01222359F02091E40227FF07C0DC013F
:104660002C9111962C93119726E02C930280F381C4
:10467000E02D09940895E091BB02F091BC023097BF
:1046800039F022E0DC012C930480F581E02D0994BF
:1046900008952091B9023091BA022817390771F0B4
:1046A0009093BA028093B902E091BB02F091BC02F0
:1046B000309721F00680F781E02D0994089520912C
:1046C000B7023091B8022817390771F09093B802F9
:1046D0008093B702E091BB02F091BC02309721F0C9
:1046E0000084F185E02D09940895FC0132968091B3
:1046F0002B01882331F08091E40287FF02C09EE104
:1047000001C096E080E0915028F021912223D9F356
:104710008F5FF9CF0895662351F120912B01222359
:10472000E9F02091E40227FF19C0462F46954695EF
:1047300046954E31E0F4677021E030E002C0220F70
:10474000331F6A95E2F7FC01E40FF11D828190E0CE
:104750002823392381E0232B69F409C0FC01329618
:1047600008962191621729F0E817F907D1F780E040
:10477000089581E008959C01FC0132969FEF80E04E
:104780004191461789F09F3F19F4411101C0982FBC
:104790008F5F8630A9F79F3F39F0F901E90FF11DCE
:1047A00097FDFA956283089508959C012A5F3F4F13
:1047B000FC014281461301C01282019682179307C1
:1047C000B9F70895262F2695269526952E3168F45B
:1047D000FC01E20FF11D677021E030E001C0220F03
:1047E0006A95EAF78281282B22830895262F269541
:1047F000269526952E3170F4FC01E20FF11D6770AD
:1048000021E030E001C0220F6A95EAF7209582810D
:1048100028232283089520912B01222329F020911F
:10482000E40227FD0C94E2230C94BB2320912B017E
:10483000222329F02091E40227FD0C94F6230C9406
:10484000D52320912B01FC013296222331F0809157
:10485000E40287FF02C08EE101C086E0DF011D9205
:104860008A95E9F7089508950C94332483E08093A2
:10487000BD020C943424811102C081E001C082E0A9
:104880008093BD020C9434240C943B2481E08093EB
:10489000BD020C9434240C94462408950C944D24A9
:1048A0000C944E240C944D240C944D240C944D24C3
:1048B000CF930E9454240E9464140E945224C0E0AA
:1048C0008C2F0E948E13892B29F4CF5FC530C1F73E
:1048D00080E001C081E0CF91089508951F920F926A
:1048E0000FB60F9211248F939F93AF93BF93809134
:1048F000BE02811113C08091300390913103A091C9
:104900003203B09133034196A11DB11D8093300352
:1049100090933103A0933203B0933303BF91AF91CF
:104920009F918F910F900FBE0F901F9018958091BF
:104930003803843031F10E940E051092BE0220E44B
:1049400088E190E00FB6F894A895809360000FBEC0
:104950002093600083B7817F846083BF83B78160C9
:1049600083BF7894889583B78E7F83BF0FB6F89402
:10497000A89580916000886180936000109260002B
:104980000FBE08950E9474090C94170582E084BD3F
:1049900093E095BD9AEF97BD80936E0008952FB771
:1049A000F8948091300390913103A0913203B0913B
:1049B00033032FBF08952FB7F8946091300370919F
:1049C000310380913203909133032FBF08959C01EE
:1049D0004FB7F8948091300390913103A091320346
:1049E000B09133034FBF821B930B089578941F92AD
:1049F0000F920FB60F9211248F939F93AF93BF9393
:104A00008091300390913103A0913203B091330330
:104A10000196A11DB11D8093300390933103A093A3
:104A20003203B0933303BF91AF919F918F910F9059
:104A30000FBE0F901F90189581E08093E00080E2F8
:104A40008093D8001092C9008FE19EE40197F1F79E
:104A500000C0000087E090EBDC018093410390935D
:104A60004203A0934303B09344039CE088E10FB654
:104A7000F894A895809360000FBE90936000FFCFDC
:104A80008091E2020895089522E02093E9002FEF3B
:104A90003091E800215035FD06C035ED3A95F1F72B
:104AA00000002111F5CF2091E80025FF0BC040E068
:104AB00050E066E070E00E9483278091E8008E77E6
:104AC0008093E8000895CF93DF9320912B01222358
:104AD00039F02091E40227FF03C060E222E002C027
:104AE00068E021E02093E9002FEF3091E8002150A9
:104AF00035FD06C035ED3A95F1F700002111F5CFEF
:104B00002091E80025FF1DC0EC0180912B0181114F
:104B100005C040E050E068E070E003C070E040E0B5
:104B200050E0CE010E9483278091E8008E77809329
:104B3000E80080E2FE01A2ECB2E001900D928A95BD
:104B4000E1F7DF91CF9108958093BF027093C10286
:104B50006093C00280913803843001F582E0809335
:104B6000E9008FEF9091E800815095FD06C095ED2A
:104B70009A95F1F700008111F5CF8091E80085FF4B
:104B80000DC040E050E063E070E08FEB92E00E94E7
:104B900083278091E8008E778093E8000895BC0118
:104BA00084E00C94A425BC0183E00C94A42580919E
:104BB0003703811109C00E9414290E947129809134
:104BC000E20084608093E200089510923703089514
:104BD0000C944B246091340381E0611101C080E0AA
:104BE0000C9436249091380381E0943009F080E0F1
:104BF000609134030C943B2442E061EC81E00E941C
:104C00008D2842E261EC82E00E948D289091380369
:104C100081E0943009F080E0609134030C944424E6
:104C200080913A03833009F461C030F4813071F02F
:104C3000823009F49AC008958A3009F486C08B3016
:104C400009F46CC0893009F0A8C020C080913903F4
:104C5000813A09F0A2C08091E800877F8093E80044
:104C600080913D0390913E03892B21F460E282EC18
:104C700092E003C060E080E090E070E00E94CE2708
:104C80008091E8008B778093E80008958091390344
:104C9000813209F082C080913D0390913E030297DA
:104CA00008F07BC08091E800877F8093E8008091C6
:104CB000E80082FD05C0809138038111F8CF6DC0F6
:104CC0002091F3008091F20090E0922B029731F452
:104CD0008091F100813011F0863021F48091F10053
:104CE0008093E2028091E8008B7753C08091390372
:104CF000813A09F052C080913D0390913E03892B87
:104D000009F04BC08091E800877F8093E800809194
:104D1000E80080FFFCCF80912B0136C080913903E1
:104D20008132D9F580913D0390913E03892BA9F5FD
:104D30008091E800877F8093E8000E94C2288091DC
:104D40003B0380932B010C947409809139038132C9
:104D500021F58091E800877F8093E8000E94C228B7
:104D600080913C038093E302089580913903813A56
:104D7000A1F48091E800877F8093E8008091E800AB
:104D800080FFFCCF8091E3028093F1008091E800E6
:104D90008E778093E8000C94C228089584B7877FAB
:104DA00084BF0FB6F894A8958091600088618093C5
:104DB0006000109260000FBE90E080E80FB6F8949B
:104DC00080936100909361000FBE0C9446240E9472
:104DD00014290E947129E2EEF0E0808184608083D2
:104DE00078940C94062C8FE191E00C941023809120
:104DF00038038530A9F480913803853079F40E9416
:104E00009724809136038823B1F30E945824882385
:104E100091F30E946D270E947409EDCF0C94C22477
:104E2000089508950C941427292F33272330310532
:104E3000C9F060F42130310581F02230310509F0EC
:104E400044C08BE390E02FEF35E043C021323105C1
:104E5000E1F02232310549F138C082E190E02AE3E5
:104E600036E037C099278130910549F028F0029744
:104E700061F5EDEDF5E005C0EBEFF5E002C0E9EE20
:104E8000F5E0849190E09F0124C06115710541F027
:104E900061307105D1F489E090E02AE236E019C072
:104EA00089E090E021E136E014C06115710541F020
:104EB0006130710551F486EB90E02CE436E009C0D6
:104EC00080E490E022E037E004C080E090E020E061
:104ED00030E0FA0131832083089580E189BD82E1C9
:104EE00089BD09B400FEFDCF8091D8008F7D8093ED
:104EF000D8008091E00082608093E0008091E00023
:104F000081FDFCCF0895CF92DF92EF92FF920F9335
:104F10001F93CF93DF93EC018B017A010E94E1286C
:104F2000811133C0E114F10439F0F70180819181DE
:104F3000081B190BC80FD91FC12CD12C0115110545
:104F400019F18091E80085FD16C08091E8008E7708
:104F50008093E800E114F10449F0F7018081918128
:104F6000C80ED91ED182C08285E00FC00E94E12800
:104F7000882321F30AC089918093F100015011091F
:104F8000FFEFCF1ADF0ADACF80E0DF91CF911F91D8
:104F90000F91FF90EF90DF90CF90089520913F0305
:104FA000309140032617370748F06115710539F431
:104FB0002091E8002E772093E80001C0B901FC01A0
:104FC00020E06115710579F1809138038823F1F1B2
:104FD0008530F1F18091E80083FD3CC08091E800CC
:104FE00082FD2EC08091E80080FFEBCF2091F3007E
:104FF0008091F20090E0922B6115710551F088309C
:10500000910538F421912093F100615071090196C6
:10501000F3CF21E0089709F020E08091E8008E7737
:105020008093E800CECF2111CFCF0AC08091380302
:10503000882361F0853061F08091E80083FD0AC02B
:105040008091E80082FFF2CF80E0089582E0089529
:1050500083E0089581E0089520913F03309140035B
:105060002617370748F06115710539F42091E800DB
:105070002E772093E80001C0B901FC0120E0611502
:10508000710591F180913803882309F440C085307F
:1050900009F43FC08091E80083FD3DC08091E800A5
:1050A00082FD2FC08091E80080FFE9CF2091F300BE
:1050B0008091F20090E0922B6115710559F08830D3
:1050C000910540F424912093F100319661507109CB
:1050D0000196F2CF21E0089709F020E08091E800E6
:1050E0008E778093E800CBCF2111CCCF0AC080917E
:1050F0003803882361F0853061F08091E80083FDFA
:105100000AC08091E80082FFF2CF80E0089582E03B
:10511000089583E0089581E00895982F973068F509
:105120009093E900981739F07091EC002091ED0010
:105130005091F00003C0242F762F50E021FD02C0D3
:105140009F5FECCF3091EB003E7F3093EB003091CE
:10515000ED003D7F3093ED003091EB0031603093F6
:10516000EB007093EC002093ED005093F000209141
:10517000EE0027FDE5CF80E008958F708093E90071
:1051800081E008958091390387FF11C08091E80084
:1051900082FD05C0809138038111F8CF11C0809144
:1051A000E8008B770BC080913803882349F0809109
:1051B000E80080FFF8CF8091E8008E778093E800C8
:1051C00008952091E4003091E50095E64091EC00CF
:1051D000842F817040FF23C08091E80080FD1DC0B6
:1051E00080913803882399F0853099F08091EB0005
:1051F00085FD11C04091E4005091E500241735076A
:1052000029F3915011F09A01E1CF84E0089582E0F2
:10521000089583E0089581E0089580E00895409125
:10522000E80042FFDDCF08950E9482290E948A296A
:10523000E0EEF0E0808181608083E8EDF0E0808145
:105240008F77808319BCA7EDB0E08C918E7F8C9313
:1052500080818F7E80831092370308950F931F9370
:10526000CF93DF930E9482290E948A29C8EDD0E063
:1052700088818F77888388818068888388818F7D03
:10528000888319BC109238031092340310923603AD
:105290001092350300EE10E0F80180818B7F80834F
:1052A00088818160888342E060E080E00E948D28F0
:1052B000E1EEF0E080818E7F8083E2EEF0E080819D
:1052C00081608083808188608083F80180818E7F07
:1052D0008083888180618883DF91CF911F910F91B6
:1052E0000895E8EDF0E080818F7E8083E7EDF0E0C7
:1052F00080818160808384E082BF81E08093370376
:105300000C942E29E8EDF0E080818E7F808310924E
:10531000E20008951092DA001092E10008951F92C1
:105320000F920FB60F9211242F933F934F935F93D9
:105330006F937F938F939F93AF93BF93EF93FF935D
:105340008091E10082FF0BC08091E20082FF07C0E4
:105350008091E1008B7F8093E1000E94052C809179
:10536000DA0080FF1FC08091D80080FF1BC08091B1
:10537000DA008E7F8093DA008091D90080FF0DC023
:1053800080E189BD82E189BD09B400FEFDCF81E0E5
:10539000809338030E94D72505C019BC10923803AA
:1053A0000E94E5258091E10080FF19C08091E20014
:1053B00080FF15C08091E2008E7F8093E200809193
:1053C000E20080618093E2008091D8008062809347
:1053D000D80019BC85E0809338030E94EA258091AB
:1053E000E10084FF30C08091E20084FF2CC080E1A6
:1053F00089BD82E189BD09B400FEFDCF8091D8004E
:105400008F7D8093D8008091E1008F7E8093E100B2
:105410008091E2008F7E8093E2008091E2008160C3
:105420008093E20080913403882311F084E007C068
:105430008091E30087FD02C081E001C083E080939A
:1054400038030E94F2258091E10083FF29C08091FA
:10545000E20083FF25C08091E100877F8093E10017
:1054600082E080933803109234038091E1008E7FB4
:105470008093E1008091E2008E7F8093E200809132
:10548000E20080618093E20042E060E080E00E9400
:105490008D288091F00088608093F0000E94E825BC
:1054A000FF91EF91BF91AF919F918F917F916F91FC
:1054B0005F914F913F912F910F900FBE0F901F90D2
:1054C00018951F920F920FB60F9211242F933F93AE
:1054D0004F935F936F937F938F939F93AF93BF93FC
:1054E000CF93DF93EF93FF93C091E900CF7080914A
:1054F000EC00D82FD17080FDD0E81092E9008091A7
:10550000F000877F8093F00078940E94A52A109283
:10551000E9008091F00088608093F000CD2BCF707F
:10552000C093E900FF91EF91DF91CF91BF91AF91CF
:105530009F918F917F916F915F914F913F912F91AB
:105540000F900FBE0F901F9018951F93CF93DF936E
:10555000CDB7DEB7AA970FB6F894DEBF0FBECDBFAA
:10556000E9E3F3E08091F100819323E0E134F20775
:10557000C9F70E9410268091E80083FF2EC1809118
:10558000390390913A03492F50E04A30510508F011
:1055900024C1FA01EE59FF4F0C947B2C803821F086
:1055A000823809F01AC108C0809135039091360302
:1055B000992389F082600FC080913D038F708730FE
:1055C00008F00BC18093E9008091EB0085FB8827F0
:1055D00080F91092E9009091E800977F9093E8009D
:1055E0008093F1001092F100D1C0282F2D7F09F097
:1055F000F4C0882319F0823061F0EFC080913B0342
:10560000813009F0EAC0933009F080E080933603DE
:105610002EC080913B0381112AC080913D038F7081
:105620002FEF280F263008F0D8C08093E900209192
:10563000EB0020FF1CC0933021F48091EB008062CE
:1056400014C09091EB0090619093EB0021E030E06A
:10565000A90102C0440F551F8A95E2F74093EA0062
:105660001092EA008091EB0088608093EB0010922A
:10567000E9008091E800877F8093E8000E94C228BB
:10568000ACC08111AAC010913B031F778091E30049
:105690008078812B8093E3008091E800877F80935E
:1056A000E8000E94C2288091E80080FFFCCF809132
:1056B000E30080688093E300111102C082E001C022
:1056C00083E08093380389C08058823008F085C019
:1056D00080913B0390913C038C3D53E0950779F515
:1056E00083E08A838AE289834FB7F894DE011396B8
:1056F00020E03EE051E2E32FF0E050935700E491C8
:1057000020FF03C0E295EF703F5FEF708E2F90E0B7
:10571000EA3010F0C79601C0C0968D939D932F5F1D
:10572000243149F74FBF8091E800877F8093E800DC
:105730006AE270E0CE0101960E94CE2716C0609109
:105740003D0370913E03AE014F5F5F4F0E941227F1
:10575000BC01892B09F441C09091E800977F909398
:10576000E80089819A810E942C288091E8008B773B
:105770008093E80032C0803881F58091E800877F0F
:105780008093E800809134038093F1008091E800D9
:105790008E7772CF811121C080913B0390913C03A1
:1057A00099270297D4F48091E800877F8093E800DE
:1057B00080913B03809334030E94C228809134037C
:1057C000811106C08091E30087FD02C081E001C025
:1057D00084E0809338030E94FC258091E80083FFD9
:1057E0000AC08091E800877F8093E8008091EB00F9
:1057F00080628093EB00AA960FB6F894DEBF0FBECE
:10580000CDBFDF91CF911F9108950895CF938091DF
:1058100038038823A1F0C091E900CF709091EC008B
:10582000892F817090FD80E8C82B1092E90080914B
:10583000E80083FD0E94A52ACF70C093E900CF91B4
:105840000895DB018F939F930E949F2CBF91AF918E
:10585000A29F800D911DA39F900DB29F900D1124CA
:105860000895AA1BBB1B51E107C0AA1FBB1FA617A7
:10587000B70710F0A61BB70B881F991F5A95A9F7F9
:1058800080959095BC01CD01089597FB072E16F4E5
:10589000009407D077FD09D00E94312C07FC05D079
:1058A0003EF4909581959F4F0895709561957F4F37
:1058B0000895A1E21A2EAA1BBB1BFD010DC0AA1F51
:1058C000BB1FEE1FFF1FA217B307E407F50720F069
:1058D000A21BB30BE40BF50B661F771F881F991FE4
:1058E0001A9469F760957095809590959B01AC012D
:1058F000BD01CF010895EE0FFF1F0590F491E02D3B
:1059000009940E94892C332312F48A1B9B0B0C945C
:105910009A2CA29FB001B39FC001A39F700D811D5F
:105920001124911DB29F700D811D1124911D0895A8
:105930000E94892CB7FF0895821B930B08950E9443
:10594000892CA59F900DB49F900DA49F800D911D53
:1059500011240895B7FF0C949F2C0E949F2C821B4A
:10596000930B0895FC014150504030F00190061611
:10597000D1F73197CF010895882799270895FB0122
:10598000DC0104C08D910190801921F441505040F8
:10599000C8F7881B990B0895F999FECF92BD81BD78
:1059A000F89A992780B50895A6E1B0E044E050E068
:1059B0000C94062DA8E1B0E042E050E00C94062DD6
:1059C000262FF999FECF92BD81BDF89A019700B4B8
:1059D000021639F01FBA20BD0FB6F894FA9AF99A58
:1059E0000FBE08950396272F0E94E12C0E94E02C01
:1059F000252F0E94E12C242F0C94E12C0196272FB7
:105A00000E94E12C0C94E02CDC01CB01FC01F99903
:105A1000FECF06C0F2BDE1BDF89A319600B40D92FA
:0C5A200041505040B8F70895F894FFCFB3
:105A2C00C8006002280850011E0A1401010102007E
:105A3C001000101001191A1B1C1D1E1F20212240C2
:105A4C002563254425D325CF25432501E200E90014
:105A5C00EA00B500B600B700CD008301CC008A0186
:105A6C00920194012102230224022502260227021C
:105A7C002A02B300B4006F007000818283E200E957
:105A8C0000EA00B500B600B700CD008301CC008A57
:105A9C0001920194012102230224022502260227ED
:105AAC00022A02B300B4006F007000818283F0F10F
:105ABC00C66766379431303534979633F4909192AB
:105ACC00939500010202020206060609090909095A
