:100000000C9498030C94DF030C94DF030C94DF032F
:100010000C94DF030C94DF030C94DF030C94DF03D8
:100020000C94DF030C94DF030C9400280C94D2286A
:100030000C94221F0C94DF030C94DF030C94DF0359
:100040000C94DF030C94DF030C94DF030C94DF03A8
:100050000C94DF030C948A1F0C94DF030C94DF03D1
:100060000C94DF030C94DF030C94DF030C94DF0388
:100070000C94DF030C94DF030C94DF030C94DF0378
:100080000C94DF030C94DF030C94DF030C94DF0368
:100090000C94DF030C94DF030C94DF030C94DF0358
:1000A0000C94DF030C94DF030C94DF032C062E0664
:1000B0003906300632063406360638063B063D065B
:1000C0003F064A06410643064506470649064C06D2
:1000D000B414B414E614E61424154215A816A81690
:1000E0008415A816271627169816A816A816A1165E
:1000F00034163416341634163416341634163416B0
:10010000341634163416341634163416341634169F
:10011000451653165A1661166B16391739174B17B1
:100120004B1742174B174B174B17391739174717F0
:100130004B174B1747173F2966295E2A66295E2A07
:10014000B229D5295E2A2C2A3B2A07634236B79B5F
:10015000D8A71A39685618AEBAAB558C1D3CB7CC27
:100160005763BD6DEDFD753EF6177231BF0000009F
:10017000803F05A84CCDB2D44EB93836A9020C50F8
:10018000B9918688083CA6AAAA2ABE000000803F32
:10019000F1A2F1A3F1A4018D028D00000000000086
:1001A000000000000000000001F101F201F301F481
:1001B000165C1E001F0020002100220023002400E6
:1001C0002500260027002D002E0000002A002B000D
:1001D000000014001A000800150017001C00180089
:1001E0000C00120013002F00300031003900000015
:1001F00004001600070009000A000B000D000E00A5
:100200000F003300340028000000E10000001D0052
:100210001B00060019000500110010003600370011
:1002200038000000E500E500E000E3000000E20027
:10023000012000002C00000000200000E60000204B
:10024000E400E4000220165C1E001F0020002100D4
:100250002200230024002500260027002D002E0068
:1002600000002A002B00000014001A0008001500EE
:1002700017001C0018000C00120013002F003000A3
:1002800031003900000004001600070009000A00D0
:100290000B000D000E000F0033003400280000009A
:1002A000E10000001D001B00060019000500110000
:1002B00010003600370038000000E5000000E000C4
:1002C000E3000000E2002C0000002C0000000020F1
:1002D00000000120025100000151E40035003A0005
:1002E0003B003C003D003E003F004000410042001A
:1002F00043004400450001004C00010000003400B0
:100300000100280001000100010001000C20010093
:100310004600010001000100010000003300380028
:100320004C000100010001000E200D200F200100F3
:1003300001000100000001000100010001000100B6
:1003400001002A000100010001000100010000007D
:100350000100010001000100000001000100000097
:100360000100000001000000010001000100010087
:1003700001003500010001003C003D003E003F004F
:1003800040004100420043004400450001004C0091
:100390000100000001000100010001000100010056
:1003A00024002500260001000100010001000100D9
:1003B0000000010001000100010001000100210016
:1003C00022002300010001000100000001000100E3
:1003D0000100010001000100010027001E001F00B4
:1003E00020000100000001000100010001000000E8
:1003F00001000100000001000000010000000100F8
:1004000001000100010001003500032004203C0030
:100410003D003E003F0040004100420043004400D8
:10042000450001004C0001000000C25CC35CC55CDB
:10043000C65CC75CC85CC95CCA5C01000100010005
:100440000100005C0100000001000100010001004A
:100450000100010001000100010001000100010094
:1004600000000100010001000100BD5CBF5CBE5C3A
:10047000C05C01000100010001000000010001005A
:100480000100010000000100010000000100000067
:100490000100000001000100010001000100000452
:1004A0007F3F1F643214643214783C1E1E140A0508
:1004B0006801F000B40078005A000000000000015C
:1004C0000101010101010101020202020202020214
:1004D00002030303030303030304040404040405E5
:1004E00005050505060606060607070707080808A6
:1004F000080909090A0A0A0A0B0B0B0C0C0C0D0D52
:100500000D0E0E0F0F0F10101111111212131314E4
:1005100014151516161717181819191A1A1B1C1C5A
:100520001D1D1E1F1F2020212222232425252627B2
:100530002728292A2B2B2C2D2E2F2F3031323334E4
:100540003536363738393A3B3C3D3E3F40414243F1
:1005500044464748494A4B4C4D4F505152535556CB
:1005600057585A5B5C5E5F606263646667696A6C79
:100570006D6E707173747678797B7C7E80818384F4
:1005800086888A8B8D8F91929496989A9B9D9FA135
:10059000A3A5A7A9ABADAFB1B3B5B7B9BBBDBFC13B
:1005A000C4C6C8CACCCFD1D3D6D8DADCDFE1E4E602
:1005B000E8EBEDF0F2F5F7FAFCFF04033000000081
:1005C0000A0344005A0036003000000010034B00BC
:1005D00042004400460061006E0073000000040306
:1005E000090409023B00020100A0FA09040000010D
:1005F00003010100092111010001224000070581CA
:100600000308000A09040100010300000009211188
:1006100001000122C0000705820320000A12011018
:100620000100000008EDFE60220100010203010547
:10063000010902A10185020901A100050919012989
:100640000515002501950575018102950175038148
:10065000010501093009311581257F950275088151
:100660000609381581257F950175088106050C0A54
:1006700038021581257F950175088106C0C00501E6
:100680000980A10185031601002603001A81002AB2
:100690008300751095018100C0050C0901A1018539
:1006A00004160100269C021A01002A9C027510956E
:1006B000018100C005010906A1018505050719E0B2
:1006C00029E7150025019508750181020508190122
:1006D000290595057501910295017503910105079D
:1006E000190029EF1500250195F075018102C0055B
:1006F000010906A101050719E029E7150025019563
:100700000875018102950175088101050819012903
:10071000059505750191029501750391010507196C
:100720000029FF150026FF00950675088100C0000E
:1007300011241FBECFEFDAE0DEBFCDBF04B603FE4B
:1007400027C08091950290919602A0919702B09156
:1007500098028730904BA740B04BD1F4109295028D
:1007600010929602109297021092980214BE84B7CB
:10077000877F84BF0FB6F894A89580916000886148
:1007800080936000109260000FBEE0E0F8E30995EE
:1007900011E0A0E0B1E0E0ECFCE502C005900D92B4
:1007A000A433B107D9F722E0A4E3B1E001C01D9260
:1007B000A539B207E1F70E9428250C945E2E0C940F
:1007C00000000C947109229A2A9A08950E947209D5
:1007D0000C94E30381FF02C02A9801C02A9A0C946A
:1007E00067040F931F93CF93613009F05CC0C42F4F
:1007F0008C010E940A1D80933501F8019281992392
:1008000009F444C0982F9171C23079F018F4C130C6
:1008100031F01EC0C33079F0C43099F019C0911185
:1008200002C022E513C02BE411C0911102C021E5E2
:100830000DC02EE40BC0911102C020E507C02AE4D0
:1008400005C0911102C02FE401C02DE420933401B2
:10085000992399F00E94131D6091340180910D013C
:1008600090910E010E94A21E0E94581D8091350198
:10087000CF911F910F910C940D1D609134018091C7
:100880000D0190910E010E94A21E08C060913401DA
:1008900080910D0190910E010E94AD1ECF911F918C
:1008A0000F910C94581DCF911F910F91089581E0E5
:1008B000089581E008950C9459040E94BB1D811194
:1008C00002C00E943A1E0C94E6030C94E1030895C2
:1008D0000C94EA0308950E9427170E946A042FEFE0
:1008E00084E39CE0215080409040E1F700C000008C
:1008F0000C94B01FFF920F931F93CF93DF938C0143
:10090000FC01C081D18180918401811113C0828159
:10091000882349F0CE010E94891CF82E682FCE0151
:100920000E94321C04C0CE010E945D1CF82EBE0144
:100930008F2D04C0CE010E94891CBE010E94FB06BF
:10094000EC01B8010E945B04882309F44AC2CC3C44
:10095000FCE5DF0709F4DFC0E8F5C43C9CE5D907F6
:1009600009F4A3C0F8F4C531FCE5DF0778F4C23020
:100970008CE5D80708F04EC1C1159CE5D90709F4EC
:1009800065C0C130DC4509F469C01EC2C23CFCE54B
:10099000DF0709F476C008F07CC0C631DC4509F4F5
:1009A000ECC112C2F8018281C83CFCE5DF0709F402
:1009B0009AC040F4C63CECE5DE0709F488C008F4B0
:1009C00080C08BC0CA3C9CE5D90709F498C008F4E4
:1009D00090C09BC0C43DFCE5DF0709F4F6C0C0F43D
:1009E000F8018281C03DFCE5DF0709F4BDC040F499
:1009F000CE3CECE5DE0709F49BC008F494C0A6C029
:100A0000C23D9CE5D90709F4CDC008F4BDC0D8C0EB
:100A1000C83DFCE5DF0709F495C150F4F801828177
:100A2000C63DFCE5DF0709F447C108F4DEC065C137
:100A3000CC3DECE5DE0709F4E4C0CD3DFCE5DF0785
:100A4000C1F0CB3DDC4509F0BFC1D4C0F8018281C3
:100A5000882309F4C6C10E946B04C3C1F8018281D6
:100A6000882309F4BEC180911C02816080931C021E
:100A7000B8C1F8018281882309F4B3C10E943A1EEB
:100A8000B0C1F8018281882309F4ABC10E942C0E09
:100A9000A8C1F8018281882309F4A3C10E940A1D1C
:100AA000827261F00E94C80D9CC1F8018281882386
:100AB00009F497C10E940A1D8272A1F30E94BA0D27
:100AC00090C1882309F48DC10E94BE0C8AC188237D
:100AD00009F487C10E94E10C84C1882309F481C113
:100AE0000E94010D7EC1882309F47BC10E94210D63
:100AF00078C1882309F475C10E94410D72C1882311
:100B000009F46FC10E94610D6CC1882309F469C1A9
:100B10000E947E0B66C1F8018281882309F461C1BD
:100B20000E94930B5EC1882309F45BC181E029C058
:100B3000882309F456C10E94750B823028F00E9468
:100B4000750B853008F4BACF82E01BC0882309F406
:100B500048C10E94750B863028F00E94750B8830C2
:100B600008F4ACCF86E00DC0882309F43AC10E9496
:100B7000750B893028F00E94750B8E3008F49ECFDB
:100B800089E00E94CB0D2DC1882309F42AC10E945F
:100B9000750B8F3028F00E94750B843108F48ECFCE
:100BA0008FE0EFCF882309F41CC10E94750B8531BB
:100BB00028F00E94750B873108F480CF85E1E1CFE2
:100BC000882309F40EC188E1DCCFF80182818823F3
:100BD00009F407C10E94750B893128F00E94750B3A
:100BE000823208F46BCF89E1CCCF882309F4F9C0B5
:100BF00083E2C7CFF8018281882309F4F2C080E044
:100C000006C0F8018281882309F4EBC082E00E94CB
:100C1000C725E7C0F8018281882309F4DAC00E9461
:100C2000BB1D811102C00E943A1E0E94D81D90E097
:100C30009093870280938602FE01E350FC45E231E7
:100C4000F10530F4EA5AFF4F809186020C94032E8E
:100C500080918602816027C0826025C0846023C0A5
:100C6000806121C080621FC080641DC080681BC07D
:100C70008460886018C08E7F16C08D7F14C08B7F03
:100C800012C08F7E10C08F7D0EC08F7B0CC08F77FF
:100C90000AC08B7F877F07C087FB222720F991E05E
:100CA000922790FB87F980938602809186020E94AA
:100CB000DC1D0E94271795C0882351F010923B013C
:100CC0000E94541F909338018093370182E020C026
:100CD00080913B0181110FC08091370190913801C3
:100CE0000E94601F883C910530F486E20E94EB125E
:100CF00086E20E94091482E022C0882361F01092EB
:100D00003C010E94541F90933A018093390180E284
:100D10000E94711466C080913C0181110FC08091C6
:100D2000390190913A010E94601F883C910530F48E
:100D300087E20E94EB1287E20E94091480E20E947F
:100D400078144FC0F80182818111D9CF80913C0184
:100D50008111F4CF8091390190913A010E94601F76
:100D6000883C910558F780E20E94781488E20E943E
:100D7000EB1288E20E94091434C00E940A1D982FC9
:100D8000F801828120910D0130910E01882379F0C4
:100D90009A7A81E009F480E080933601911102C0D3
:100DA00069E201C065E3C9010E94A21E0AC08091E8
:100DB0003601811102C069E201C065E3C9010E94E8
:100DC000AD1E0E94581D0DC081E080933B018093B1
:100DD0003C01C801DF91CF911F910F91FF900C94BE
:100DE000570480E0DF91CF911F910F91FF900895FC
:100DF00080E090E008952BE4829FC0011124FC0163
:100E00002FE0729FE00DF11D1124E60FF11DEE0F92
:100E1000FF1FE055FE4F859194910895880F991F0B
:100E2000FC01E057FE4F859194910895CF93DF9395
:100E30000E94FB060E94D208EC018115904508F043
:100E400041C0C11580E4D80708F028C1C83ED105CB
:100E500010F5C03ED10508F0A1C1C83AD10578F41B
:100E6000C53AD10508F0A2C0C130D10509F496C138
:100E700008F447C1C430D10508F090C142C1CF3B4E
:100E8000D10508F49EC0C03CD10508F43AC1CE019A
:100E9000805C9109F5C0C11590E2D90758F4C115DD
:100EA00021E0D20708F07AC1C03FD10508F429C17A
:100EB000D06574C1C11580E3D80708F0E5C0CE0144
:100EC0009F70DEC0C11595E5D90708F043C0C11574
:100ED00024E5D20708F0F9C0C11582E5D80708F566
:100EE000C11591E5D90708F0DCC0CE0174E09695F4
:100EF00087957A95E1F783709C2F937021E030E01D
:100F000002C0220F331F9A95E2F73C68382BCF704E
:100F1000C695C69580E2C89FE0011124C22BD32B51
:100F20003DC19E01237033278C2F86958695C11570
:100F3000D34508F0BBC0C1E0D0E002C0CC0FDD1F3C
:100F40002A95E2F720E2829FC0011124C82BD92BF9
:100F5000DC6824C1C11529E5D207A0F4C11588E5D4
:100F6000D80708F0B7C0C11596E5D90708F0C9C081
:100F70008C2F0E944E098F71C82FD0E0DC2FCC2718
:100F8000D0620CC1C1152AE5D20708F4A8C0CE0171
:100F900090568115904208F0B4C08D2F8F710E9439
:100FA0004E09DD27D0628F71D82BF8C0C53AD10524
:100FB00009F4AAC0C63AD10509F0A9C0C2E8D0E434
:100FC000EDC0C83AD10509F4A5C0C93AD10509F464
:100FD000A4C0CA3AD10509F4A3C0CB3AD10509F49B
:100FE000A2C0CC3AD10509F4A1C0CB3BD10509F48C
:100FF000A0C0CC3BD10509F49FC0CD3AD10509F47E
:101000009EC0C03BD10509F49DC0CE3AD10509F47C
:101010009CC0CF3AD10509F49BC0C13BD10509F46E
:101020009AC0C23BD10509F499C0C33BD10509F46C
:1010300098C0C43BD10509F497C0C53BD10509F45C
:1010400096C0C63BD10509F495C0C73BD10509F44C
:1010500094C0C83BD10509F493C0C93BD10509F43C
:1010600092C0CD3BD10509F491C0CE3BD10509F426
:1010700090C0CA3BD10509F48FC0C0E0D4E48EC053
:101080000E940E07EC018AC0CE019927D3FF03C04E
:10109000EC01D86C83C0EC01D06C80C0DF70D06AEA
:1010A0007DC0DC2FCC27C16FD06A78C0C1E0D0E012
:1010B00002C0CC0FDD1F2A95E2F720E2829FC0011B
:1010C0001124C82BD92BDA6869C0DC2FCC27C46F58
:1010D000D06A64C0DC2FCC27C06FD06A5FC08C2F71
:1010E0008F700E944E0994E0D695C7959A95E1F7C6
:1010F000CF70D0E0DC2FCC27D06A8F70806EC82BE9
:101100004DC0C0E0D0E04AC0C1E8D0E447C0C3E869
:10111000D0E444C0C2EED4E441C0C9EED4E43EC041
:10112000CAEED4E43BC0C5EBD4E438C0C6EBD4E48B
:1011300035C0C3EBD4E432C0C4EBD4E42FC0C7EB5A
:10114000D4E42CC0CCECD4E429C0CDECD4E426C04B
:10115000C3E8D5E423C0CAE8D5E420C0C2E9D5E499
:101160001DC0C4E9D5E41AC0C1E2D6E417C0C3E289
:10117000D6E414C0C4E2D6E411C0C5E2D6E40EC081
:10118000C6E2D6E40BC0C7E2D6E408C0CFE6D4E49A
:1011900005C0C0E7D4E402C0CAE2D6E4CE01DF91C4
:1011A000CF9108958238910549F1B0F481339105CA
:1011B00009F459C048F48932910509F44FC08A32C4
:1011C000910509F455C008958533910509F441C08E
:1011D0008933910599F00895833E910531F138F4F2
:1011E000803E910591F0823E9105A9F00895863EDA
:1011F000910501F1873E910539F10895209186020C
:1012000020FD3BC021FD39C008958091860280FFFA
:1012100034C089E341C08091860282FF30C0809152
:10122000860284FD2EC083EE37C08091860282FD47
:1012300026C0F5CF8091860283FF25C0809186026B
:1012400084FD1FC087EE28C08091860283FD1BC0ED
:10125000F5CF8091860285FD18C019C08091860265
:1012600085FD15C012C08091860286FD12C013C094
:101270008091860286FD0FC00CC080EE0DC082EE0C
:101280000BC080E009C086EE07C089E205C085E397
:1012900003C08AE201C081E390E008959091860244
:1012A00092FF0DC0282F2871283019F4877F8460A1
:1012B00006C0282F2471243011F48B7F886093FF9F
:1012C0000DC0282F2871283119F4877E846106C04B
:1012D000282F2471243111F48B7E886194FD877E40
:1012E000089508950C947109CF93DF93AFE2B1E0B4
:1012F00044E351E061E070E08D91E82FE295EF70FA
:10130000F0E091A18F709B0101C0220F8A95EAF74E
:10131000822F8095892381A34A175B0769F7A0E292
:10132000B1E04FE251E061E070E08D91E82FE2958D
:10133000EF70F0E021A18F70EB0102C0CC0FDD1F38
:101340008A95E2F7CE019C2F9095922391A392A1CA
:10135000892B82A34A175B0741F7E7E4F1E0ADE38D
:10136000B1E081E591E0119211921D921D928E17CC
:101370009F07C9F785E00E946A0ADF91CF910C941C
:101380005D042F923F925F926F927F928F929F9215
:10139000AF92BF92CF92DF92EF92FF920F931F9383
:1013A000CF93DF932FE2222E21E0322EA7E4B1E08B
:1013B00031E5632E31E0732E20E001E010E06D0195
:1013C0008D909C90119711961C921E92E10189912B
:1013D0001E01E82FE295EF70F0E031A18F70A801B7
:1013E00002C0440F551F8A95E2F7CA01342B31A37E
:1013F00042A1382F3095432342A350EA5A95F1F782
:1014000090E2E92E91E0F92E40E050E0E70159909A
:101410007E01652D62956F7070E0EB0168A1AD9063
:10142000BC90119770E0D52DDF7002C0759567955F
:10143000DA95E2F760FD08C0B801042E02C0660F1D
:10144000771F0A94E2F702C060E070E06A297B2906
:1014500011967C936E934F5F5F4F4F305105B1F6FD
:1014600091A1392331A392A1892B82A3129681E005
:10147000F601408151814815590509F480E0282B77
:101480006A167B0609F09BCF45E06DE371E087E4C7
:1014900091E00E946B0A0E94650481E0DF91CF9188
:1014A0001F910F91FF90EF90DF90CF90BF90AF9082
:1014B0009F908F907F906F905F903F902F900895B6
:1014C000E82FF0E0EE0FFF1FE35CFE4F808191817B
:1014D000089508950895FF920F931F93CF93DF937C
:1014E000F82E092F162FD72FC42F222349F081E081
:1014F000809353010E94541F909352018093510195
:10150000809153018823D9F080915101909152012B
:101510000E94601F069798F0EF2DF02FA12FBD2F8E
:1015200080E090E04C2F50E08417950734F421912F
:1015300031912D933D930196F7CF10925301DF9196
:10154000CF911F910F91FF900895EF92FF920F930B
:101550001F93CF93DF93E901662309F44BC0242F37
:1015600030E0EFEFF0E0E61BF109B901E69F9001F2
:10157000E79F300DF69F300D1124232F8B01031BA5
:1015800011095CE3E52EF12CB7010E94DB2DFB0174
:10159000BC01069FC001079F900D169F900D11245E
:1015A000B7010E94DB2DE230F105B1F040F4309735
:1015B00079F0319711F5832F242F461B21C0E43099
:1015C000F105A1F068F03597C1F4842F861B18C08F
:1015D000832F262F230F14C0862F830FE42F03C0E1
:1015E000E42FE61B842F432F2E2F0AC0842F462F73
:1015F000430F06C0842F242F03C080E020E040E08A
:10160000E42FF0E0E654FB4F4491E22FF0E0E65483
:10161000FB4F9491E82FF0E0E654FB4FE4914983AF
:101620009883EA83DF91CF911F910F91FF90EF9004
:10163000089580914B02282F26952F7330E02115B5
:10164000310519F48178826005C02532310524F016
:101650008178886480934B0230914B02432F441F62
:101660004427441F20914C02522F550F852F842B65
:1016700027FB992790F9893641E094077CF068E6CA
:1016800071E00E94EF2D80FB37F930934B02869575
:101690002078822B90FB87F980934C02089588E094
:1016A00090E00C941E2ECF92DF92EF92FF926B018E
:1016B0007C010E94190BB701A60188E090E0FF9021
:1016C000EF90DF90CF900C943C2EEBE4F2E083E0BF
:1016D000808310924C028FEF828383831482608117
:1016E0007181828193810C94530B80914B0280FF16
:1016F00003C086958F73089580E0089580914F020E
:1017000090E001968430910514F083E090E080939E
:101710004F0260914B0270914C0280914D0290916A
:101720004E020C94530B80914F0290E0019797FF6B
:1017300002C080E090E08430910514F083E090E0F6
:1017400080934F0260914B0270914C0280914D0248
:1017500090914E020C94530B80914B0280FF06C077
:1017600060E170E080E592E00C947011E0E5F2E059
:10177000118210821282339682E0E038F807C1F7B6
:10178000EFCF90914B0290FF0CC0E0E5F2E0818337
:1017900060834283339692E0E038F907C1F70C94F6
:1017A000AC0B0895CF93DF9300D01F92CDB7DEB777
:1017B00020914B0220FF0AC09E012F5F3F4F0E94E5
:1017C000A50A4B8169818A810E94C10B0F900F90FD
:1017D0000F90DF91CF9108955F926F927F928F92D9
:1017E0009F92AF92BF92CF92DF92EF92FF920F93B0
:1017F0001F93CF93DF9300D01F92CDB7DEB78C013C
:10180000E62EF42E522E80914B0280FF8BC0982F33
:101810009E77923061F49E012F5F3F4FC8010E9476
:10182000A50A4B8169818A810E94C10B5BC0E82FA8
:10183000E695EF739EE39E0F9F73943018F4F0903B
:101840004E0250C09AE39E0F9F73993068F4881F30
:101850008827881F90914C02292F220F022F082BD6
:1018600097FB112710F93EC087E28E0F8F738A30E5
:10187000C8F5F0E07997E0FD02C021E001C02FEF4C
:10188000EE7FE055FB4F85919491AC0184E0569535
:1018900047958A95E1F724034001259F900C112478
:1018A000580188E9A81A8EEFB80A90E5C92E92E08F
:1018B000D92E28E6622E77247394C501B3010E94C5
:1018C000DB2D96014F2D6E2D0E94A50AA80CB91C88
:1018D00083E0C80ED11C80E8C81682E0D80669F7FC
:1018E0000E94AC0B80914B0200FB87F980934B0266
:1018F000902F969580914C028078892B10FB87F968
:1019000080934C02E0924D02F0924E02552051F02D
:1019100060914B0270914C0280914D0290914E0269
:101920000E94530B0F900F900F90DF91CF911F915A
:101930000F91FF90EF90DF90CF90BF90AF909F906E
:101940008F907F906F905F900895282FEBE4F2E0E6
:101950003081331F3327331F40914C02542F550FD2
:10196000852F832B47FB992790F9089668E671E04D
:101970000E94EF2D438162810C94EC0B81E00C946A
:10198000A50C282F30914B02331F3327331F409172
:101990004C02542F550F852F832B47FB992790F925
:1019A000883091051CF4805A9E4F05C0089768E660
:1019B00071E00E94EF2D40914E0260914D020C9417
:1019C000EC0B81E00C94C10C60914D02262F30E0AD
:1019D000283F310514F4685F01C06FEF30914B026E
:1019E000331F3327331F90914C02592F550F97FB0C
:1019F000992790F9282F40914E02852F832B0C9424
:101A0000EC0B81E00C94E40C60914D02262F30E049
:101A10002830310514F0685001C060E030914B026D
:101A2000331F3327331F90914C02592F550F97FBCB
:101A3000992790F9282F40914E02852F832B0C94E3
:101A4000EC0B81E00C94040D40914E02242F30E009
:101A5000283F310514F4485F01C04FEF30914B022D
:101A6000331F3327331F90914C02592F550F97FB8B
:101A7000992790F9282F60914D02852F832B0C9484
:101A8000EC0B81E00C94240D40914E02242F30E0A9
:101A90002830310514F0485001C040E030914B022D
:101AA000331F3327331F90914C02592F550F97FB4B
:101AB000992790F9282F60914D02852F832B0C9444
:101AC000EC0B81E00C94440D20E00C94EC0BCF93D4
:101AD00090914B0290FF40C09178811102C09260BA
:101AE00007C0853210F0986403C08F73880F982B5D
:101AF00090934B02662351F060914B0270914C021F
:101B000080914D0290914E020E94530BC0914B0266
:101B10006C2F66956F7370E04BE050E082E091E0CF
:101B20000E94092E892B19F01092710103C081E0E7
:101B300080937101CC1FCC27CC1F90914C02892F30
:101B4000880F97FB992790F940914E0260914D02C2
:101B50008C2BCF910C94640DCF910895682F9091A8
:101B60004B0296959F7381E0890F853208F081E0E2
:101B70000C94670D81E00C94AE0D682F90914B0290
:101B800096959F738FEF890F09F484E20C94670D8B
:101B900081E00C94BD0D61E00C94670DEBE4F2E084
:101BA00080818160808386958F730C94CB0D60E07B
:101BB0000C94670D80917201811135C080911C02D7
:101BC000816080931C020E94BB1D811104C00E9491
:101BD0003A1E0E94650B0E944F0B60934B0270935C
:101BE0004C0280934D0290934E026E7761F40E94F6
:101BF000650B0E944F0B60934B0270934C028093D5
:101C00004D0290934E020E94190B81E08093710166
:101C100080914B0280FF04C086958F730E94D70D80
:101C200081E0809372010895EBE4F2E080818E7F81
:101C3000808360817181828193810E94530B109215
:101C400071012FEF80E792E0215080409040E1F752
:101C500000C000000C94AC0B80914B0280FD0C94F2
:101C6000140E0C94CE0DCF93C82F80916F019091DC
:101C700070010E94601FEC2FF0E0E455FB4FE491EF
:101C8000F0E08E179F0708F443C00E94541F909302
:101C9000700180936F0160916E0170E080E090E0D0
:101CA0000E94DC2B20E030E04FE753E40E94FF2A43
:101CB0002BED3FE049E450E40E94052D0E94722D77
:101CC0000E94792B2BE43AE34EE25FE30E94922AD2
:101CD00020EF3BEF48ED52E40E94052D0E94AB2B14
:101CE000462F80914B02881F8827881F90914C02B5
:101CF000292F220F97FB992790F960914D02822B93
:101D00000E94D20B80916E0190E0019680936E014B
:101D1000CF910895CF93C82F80916C0190916D0160
:101D20000E94601FEC2FF0E0E755FB4FE491F0E0DC
:101D30008E179F07E8F00E94541F90936D018093C7
:101D40006C0140914E0260914D0280916A01909128
:101D50006B010E94D20B80916A0190916B010196F8
:101D600068E671E00E94DB2D90936B0180936A011D
:101D7000CF910895CF92DF92FF920F931F93CF934D
:101D8000DF93F82E80916801909169010E94601F95
:101D9000EF2DE695F0E0EA55FB4FE491F0E08E1769
:101DA0009F07C0F10E94541F9093690180936801BE
:101DB00000E512E0C0E0D0E088E6C82EDD24D39430
:101DC00080916601909167018C0F9D1FB6010E9462
:101DD000DB2D980140914E0260914D020E94A50AB0
:101DE00066960D5F1F4FC03681E0D80749F70E9405
:101DF000AC0B8091660190916701F0FE06C00196E0
:101E000068E671E00E94DB2D01C0019790936701A5
:101E100080936601DF91CF911F910F91FF90DF902A
:101E2000CF900895CF92DF92EF92FF920F931F937E
:101E3000CF93DF93C82F80FF02C01FEF01C011E0D6
:101E400080916401909165010E94601FC695EC2FFE
:101E5000F0E0ED55FB4FE491F0E08E179F0708F49A
:101E600058C00E94541F9093650180936401C0E59F
:101E7000D2E0E12CF12C198218821A8294E0C92E4A
:101E8000D12C00E080916301800F87FD805F082ED8
:101E9000000C990BE816F906E9F480914E028C9D2E
:101EA000A0018D9D500D1124559547955595479549
:101EB00080914B02881F8827881F90914C02592FD0
:101EC000550F97FB992790F99E0160914D02852B44
:101ED0000E94A50A010F81E0C81AD10899F68FEF78
:101EE000E81AF80A239680E1E816F10421F60E9428
:101EF000AC0B80916301113031F4811102C08FE08D
:101F000006C0815004C090E001968F70992780939D
:101F10006301DF91CF911F910F91FF90EF90DF90C0
:101F2000CF9008950F931F93CF93DF93C82F809185
:101F30006101909162010E94601FEC2FF0E0E05679
:101F4000FB4FE491F0E08E179F0708F456C00E9403
:101F5000541F9093620180936101C0E5D2E0FE01BD
:101F6000118210821282339682E0E038F807C1F7BE
:101F700000E010E080916001082E000C990B08171A
:101F80001907ECF080910101082E000C990B8017C5
:101F90009107ACF080914B02881F8827881F909191
:101FA0004C02592F550F97FB992790F99E014091AC
:101FB0004E0260914D02852B0E94A50A03C0198232
:101FC00018821A820F5F1F4F23960031110591F678
:101FD0000E94AC0B8091000190916001980F90934A
:101FE000600120910101280F20930101121614F4C1
:101FF0009F301CF0819580930001DF91CF911F915C
:102000000F910895EF92FF920F931F93CF93DF9359
:1020100080915E0190915F010E94601F883E934015
:10202000D0F10E94541F90935F0180935E01C09194
:102030005C01D0915D012196C170DD27D0935D01D7
:10204000C0935C0180E5E82E82E0F82E10E008E7FE
:10205000812F8695FE01E80FF11DCF018170992730
:10206000970140914E0260914D02FC010E9FC0010C
:102070000F9F900D11240E94A50A1F5FF3E0EF0E41
:10208000F11C103129F7DF91CF911F910F91FF9033
:10209000EF900C94AC0BDF91CF911F910F91FF90BB
:1020A000EF900895CF93DF9300D01F92CDB7DEB7A6
:1020B00080915A0190915B010E94601FEEE9F4E06B
:1020C0002591349182179307C0F1809159018111B4
:1020D0000CC09E012F5F3F4F4FEF6FEF80E090E00D
:1020E0000E94A50A8A81809359010E94541F9093EF
:1020F0005B0180935A0180915801813051F028F0A2
:10210000823061F4409159010AC08091590140E048
:1021100007C06091590140E080E003C040E080E0EA
:1021200060E00E94C10B8091580190E0019663E04D
:1021300070E00E94EF2D809358010F900F900F9048
:10214000DF91CF9108950F931F93CF93DF938091E9
:102150005601909157010E94601F843F914008F4FE
:1021600048C00E94541F9093570180935601C0E5C8
:10217000D2E000E010E020915401309155018091AF
:102180004B0290914C02083011051CF4232B79F07E
:1021900002C0232B61F4881F8827881F592F550FF1
:1021A00097FB992790F99E0140914E020AC0881F23
:1021B0008827881F592F550F97FB992790F99E0163
:1021C00040E060914D02852B0E94A50A0F5F1F4FD2
:1021D00023960031110579F60E94AC0B80915401D1
:1021E00090915501019681709927909355018093A4
:1021F0005401DF91CF911F910F910895809171014A
:102200008823D9F190914B02892F86958F732EE305
:10221000280F2F73243018F482500C94330E2AE3C5
:10222000280F2F73233018F486500C948A0E27E35E
:10223000280F2F73263018F489500C94BA0E21E31E
:10224000280F2F73263018F48F500C94120F2BE2A6
:10225000280F2F73233018F485510C94920F892F77
:102260008E77803311F40C940210863411F40C94A0
:102270005210883411F40C94A31008952EB1342F09
:10228000309523233EB1432B3FB7F894FC01680FF0
:10229000791FE617F70789F0819198E04EB90000A1
:1022A00000C087FF2EB9880F000000C000C000C02A
:1022B0002EB900C09A9591F7ECCF3FBF08952DB18C
:1022C000242B2DB99B01220F331F620F731F0E9415
:1022D0003E1187EC90E00197F1F700C000000895EF
:1022E00044E00C945F1190937801809377010895F6
:1022F000E0917701F0917801309721F00190F08121
:10230000E02D099480E00895E0917701F091780143
:10231000309799F020911F01222359F020918602D5
:1023200027FF07C0DC012C9111962C93119725E013
:102330002C930280F381E02D09940895E0917701B8
:10234000F0917801309739F022E0DC012C93048081
:10235000F581E02D09940895209175013091760161
:102360002817390771F09093760180937501E091F9
:102370007701F0917801309721F00680F781E02D08
:102380000994089520917301309174012817390739
:1023900071F09093740180937301E0917701F09153
:1023A0007801309721F00084F185E02D099408959B
:1023B00085B7806885BF85B7806885BF0895089513
:1023C0000C94DF110C94E0110C94DF110C94DF11CC
:1023D0000E94D8110E94E4110C94E21181E008954A
:1023E0000E944B1F0E9474090E9420200E94DA0D57
:1023F0000C94E6115F926F927F928F929F92AF92B0
:10240000BF92CF92DF92EF92FF920F931F93CF93E1
:10241000DF93CDB7DEB72A970FB6F894DEBF0FBEB5
:10242000CDBF0E94C1090E94EE11811111C08FEF32
:1024300089838A831B820E94541F8160782F9D8329
:102440008C8349815A816B818D810E94B71256C05D
:102450009AE7692E91E0792E00E010E088248394B9
:10246000912C502E802F0E94600A6C01F301A190E4
:10247000B1903F01A826B926A114B10431F40F5F31
:102480001F4F0530110569F7D2CF80911C0281FDE5
:102490000E94690A80E090E07401082E02C0EE0CF0
:1024A000FF1C0A94E2F795012E213F21232B09F10D
:1024B0008E835F82CE20DF2081E0CD2809F480E08A
:1024C00088870E94541F8160782F9A8789874E8160
:1024D0005F8168858A850E94B712000F111FF8017D
:1024E000E658FE4F80819181E826F926F182E0824C
:1024F00005C001968F30910579F6C1CF0E94C322A5
:102500000E947811909179018917D9F00E94781171
:10251000809379012A960FB6F894DEBF0FBECDBF27
:10252000DF91CF911F910F91FF90EF90DF90CF90AF
:10253000BF90AF909F908F907F906F905F900C9422
:1025400068042A960FB6F894DEBF0FBECDBFDF91A8
:10255000CF911F910F91FF90EF90DF90CF90BF90A0
:10256000AF909F908F907F906F905F900895CF93E2
:10257000DF93CDB7DEB72B970FB6F894DEBF0FBE53
:10258000CDBF4F83588769877A878B87DE01119685
:1025900086E0FD0111928A95E9F785E0FE01379604
:1025A00001900D928A95E1F749815A816B817C8176
:1025B0008D819E810E94F7192B960FB6F894DEBF8D
:1025C0000FBECDBFDF91CF910895FC018081918135
:1025D0000E94CB1C0895882309F41AC18238C1F4E3
:1025E0000E94781181FD14C169E380910D019091E1
:1025F0000E010E94A21E0E94581D2FEF81EE94E052
:10260000215080409040E1F700C0000069E319C00C
:102610008338F9F40E94781180FDFAC063E5809157
:102620000D0190910E010E94A21E0E94581D2FEFD5
:1026300081EE94E0215080409040E1F700C000001E
:1026400063E580910D0190910E010E94AD1E0C94E6
:10265000581D8438C1F40E94781182FDD9C067E406
:1026600080910D0190910E010E94A21E0E94581DA2
:102670002FEF81EE94E0215080409040E1F700C0C0
:10268000000067E4DECF9CEF980F913A40F4682F8A
:1026900080910D0190910E010E94A21ED8CF90E270
:1026A000980F983050F4877091E001C0990F8A9587
:1026B000EAF7892F0E940D1DCACF9BE5980F933032
:1026C00070F4853A29F0863A31F083E890E005C04D
:1026D00081E890E002C082E890E00C94AC1198E5AB
:1026E000980F973108F08EC0883A09F445C0893AAE
:1026F00009F445C08A3A09F445C08B3A09F445C04B
:102700008C3A09F445C08B3B09F445C08C3B09F475
:1027100045C08D3A09F445C0803B09F445C08E3A66
:1027200009F445C08F3A09F445C0813B09F445C01E
:10273000823B09F445C0833B09F445C0843B09F45E
:1027400045C0853B09F445C0863B09F445C0873B3D
:1027500009F445C0883B09F445C0893B09F445C0EC
:102760008D3B09F445C08E3B09F445C08A3B09F412
:1027700045C080E090E044C082EE90E041C089EE28
:1027800090E03EC08AEE90E03BC085EB90E038C020
:1027900086EB90E035C083EB90E032C084EB90E0B4
:1027A0002FC087EB90E02CC08CEC90E029C08DEC22
:1027B00090E026C083E891E023C08AE891E020C041
:1027C00082E991E01DC084E991E01AC081E292E0C3
:1027D00017C083E292E014C084E292E011C085E267
:1027E00092E00EC086E292E00BC087E292E008C061
:1027F0008FE690E005C080E790E002C08AE292E0B8
:102800000C94C211803F20F00E94CB210C94B8227E
:102810000895882309F464C0823879F40E947811FD
:1028200081FF5EC069E380910D0190910E010E94CD
:10283000A21E0E94581D69E310C08338B1F40E94A3
:10284000781180FF4DC063E580910D0190910E01DC
:102850000E94A21E0E94581D63E580910D01909177
:102860000E010E94AD1E0C94581D843879F40E940C
:10287000781182FF35C067E480910D0190910E01BF
:102880000E94A21E0E94581D67E4E7CF9CEF980F9C
:10289000913A10F4682FE1CF90E2980F983050F4FD
:1028A000877091E001C0990F8A95EAF7892F0E94FD
:1028B000131DD9CF9BE5980F933020F480E090E072
:1028C0000C94AC1198E5980F973120F480E090E0DB
:1028D0000C94C211803F20F00E9433220C94B82245
:1028E0000895882321F00E940D1D0C94581D089511
:1028F000882321F00E94131D0C94581D08958F9277
:102900009F92AF92BF92DF92EF92FF920F931F932D
:10291000CF93DF937C01D62FC72FFC010581029551
:102920000F70128111110E942A1D0E94031D88231D
:1029300079F0112369F080E28D0F883048F082E051
:102940000E94A21D0E94031D91E0D82ED92601C02D
:10295000D12CBC2EB2948FE0B8228B2D90E0FC01DC
:10296000E859FF4F0C94032E8C2F807FCF70882363
:1029700011F0C295C07F112399F0CC2309F4C3C193
:1029800080E28D0F883010F0D11104C08C2F0E948E
:102990000D1D03C08C2F0E941D1D0E94581DB3C128
:1029A0008D2F0E940914CC2309F4D2C180E28D0F2F
:1029B000883010F0D11104C08C2F0E94131D03C069
:1029C0008C2F0E94231D0E94581DC2C18C2F807F16
:1029D000CF70803211F0C295C07FDD2319F0D13065
:1029E000C9F022C0112371F0002341F0013031F40D
:1029F0000E943D1D8C2B0E94451DAAC10E943D1DB9
:102A00008C2B3AC1002319F0013009F4A1C10E94B6
:102A10004E1D18C0112321F0063008F099C10EC0D8
:102A2000053008F095C10EC0112351F0002331F09C
:102A3000F701858180FF67C18F7085838C2F1CC152
:102A4000011172C18C2F1EC18C2F869586958370C3
:102A500019F0813061F07CC1112321F08D2F9C2F62
:102A6000937002C080E090E00E94AC117EC11123FF
:102A700021F08D2F9C2F937002C080E090E00E9487
:102A8000C21173C11123F9F0D53F51F0D63F71F057
:102A9000D43FA9F4809180029091810281600BC0A3
:102AA0008091800290918102826005C080918002B5
:102AB00090918102846090938102809380028D2F97
:102AC0000E94CB211EC0D53F51F0D63F71F0D43FBC
:102AD000A9F480918002909181028E7F0BC0809139
:102AE0008002909181028D7F05C08091800290913B
:102AF00081028B7F90938102809380028D2F0E94B0
:102B000033220E94B82231C18C2F837009F04CC04F
:102B1000111127C12D2F229526952770220F220FE4
:102B20006D2F6F70862F90E0A0E0B0E04C015D014A
:102B3000022E04C0880C991CAA1CBB1C0A94D2F754
:102B4000D4FF12C08FE090E0A0E0B0E004C0880F96
:102B5000991FAA1FBB1F2A95D2F7BC01CD01609512
:102B600070958095909503C060E070E0CB01C695AC
:102B7000C695C370C23051F080F4682979298A293A
:102B80009B29C13071F00E94481BEBC0682979294C
:102B90008A299B290E945A1BE4C00E94481BC50138
:102BA000B4010E94361BDDC0112319F08C2F8170F7
:102BB00001C08695882309F4D4C02D2F229526952F
:102BC0002770220F220F6D2F6F70862F90E0A0E0EC
:102BD000B0E04C015D01022E04C0880C991CAA1CB7
:102BE000BB1C0A94D2F7D4FF12C08FE090E0A0E0A3
:102BF000B0E004C0880F991FAA1FBB1F2A95D2F707
:102C0000BC01CD01609570958095909503C060E002
:102C100070E0CB01C695C695C370C23051F080F408
:102C2000682979298A299B29C13071F00E940D1CDD
:102C300098C0682979298A299B290E941F1C91C064
:102C40000E940D1CC501B4010E94FB1B8AC08D2F80
:102C500090E0FC01E05EF109E531F10508F04FC0BC
:102C6000E858FF4F0C94032EDF708C2F8F711123C7
:102C700031F00E94941B8D2F0E94711469C00E9434
:102C8000B51B8D2F0E94781463C0112341F00530CD
:102C900008F05EC08C2F8F710E94DA1B59C006307D
:102CA00008F056C0F7CF112339F08C2F8F710E9496
:102CB000941B4EC01123C9F38C2F8F710E94B51B3A
:102CC00047C0112329F08C2F8F710E947F1B40C0B9
:102CD0000E947A1B3DC0112349F0CF718C2F0E94B6
:102CE000941B63E08C2F0E948D1D32C081E00E94F6
:102CF000A21D023068F182E00E94A21D29C01123AA
:102D000031F0002391F28D2F0E94EB1221C000239D
:102D100099F2D93349F4FFEF27EE83E0F1502040D8
:102D20008040E1F700C000008D2F0E94091410C000
:102D30004C2F4F706D2FC7010E94F8060E94A51AF4
:102D400014C04C2F4F706D2FC7010E94F1030DC0AE
:102D500098E0B91631F0B91640F086EF8B0D82304D
:102D600020F40E9478110E946804DD20E1F00E94A6
:102D7000FF1C80FD18C0F70112820E94F91C0E94FE
:102D8000941BC7010E94DF160E94F91CDF91CF91AE
:102D90001F910F91FF90EF90DF90BF90AF909F90A9
:102DA0008F900C94B51BDF91CF911F910F91FF90E5
:102DB000EF90DF90BF90AF909F908F9008950F930A
:102DC0001F93CF93DF93EC01988189812B813C8104
:102DD000232B31F08F3F31F481E09F3F19F403C082
:102DE00081E001C080E080FD13C0CE010E947A0422
:102DF000882371F0688179818A810E94D61C8C01B8
:102E00000E94311C0E94221BB801CE010E947F1437
:102E1000DF91CF911F910F9108950E942A1D0E946A
:102E20003A1D0E94581D0E945A230E94B82280E039
:102E300090E00E94AC1180E090E00C94C21180916F
:102E40000D0190910E010E94B81E0C940D170E9466
:102E50001A1D0C941F17E92FE295EF704E2F50E0CA
:102E6000FA013297EE30F105B0F4E357FF4F0C94BE
:102E7000032E803F91F018F4803E68F40EC0843F2A
:102E800051F40BC0803E48F0813F29F406C093FB0B
:102E9000882780F9089580E0089581E008950E94D0
:102EA000CB1C0E942B170895CF93DF9300D000D046
:102EB0001F92CDB7DEB70F900F900F900F900F902D
:102EC000DF91CF910895CF93DF9300D000D000D051
:102ED000CDB7DEB726960FB6F894DEBF0FBECDBFD6
:102EE000DF91CF9108951F93CF93DF93C091850118
:102EF00016E080918601C81799F0D0E01C9FF00180
:102F00001D9FF00D1124E957FE4F408151816281D0
:102F10007381848195810E9463172196C770E9CFE0
:102F2000DF91CF911F9108954091B7015091B80161
:102F30006091B9017091BA018091BB019091BC017F
:102F40000C946317CF938091BC0182958F7009F028
:102F50005FC08091B901882309F45AC0809185012E
:102F6000B09186017091B701A091B8014091BA016A
:102F70005091BB0191E07F3F09F090E0692FC6E0DE
:102F80008B1709F445C04115510521F0AF3F21F0E1
:102F900020E003C021E001C0262F90E020FD35C0D5
:102FA000C89FF001C99FF00D1124E957FE4F218100
:102FB0002A132BC02081271328C02281211125C06C
:102FC000238134812417350710F421503109241B43
:102FD000350B283C3105C8F42091BC012F702061CD
:102FE0002093BC0126E0289FF001299FF00D1124B9
:102FF000E457FE4F80818F708061808387EB91E082
:103000000E94DF16CF910C94731701968770B8CF8A
:10301000CF910895AF92BF92CF92DF92EF92FF923D
:103020000F931F93CF93DF93CDB7DEB761970FB6A2
:10303000F894DEBF0FBECDBF8C0185E0F801DE0144
:103040001D9601900D928A95E1F7D8014C91119649
:103050005C9111971296EC903091B7016091B80194
:103060008091BA019091BB01009731F06F3F31F42C
:1030700021E03F3F19F403C021E001C020E0B22F5E
:10308000B170BB2E20FD60C1F801C380D480A09038
:10309000B901AA2009F4EEC02091BC01C816D906D6
:1030A00028F0D601A81BB90BCD0104C080959095DE
:1030B0008C0D9D1DFF24F394883C910580F0F12C2C
:1030C000207F09F09CC07C2DD98AC88A6E2D898901
:1030D0000E94541787EB91E00E94DF162DC1822FCA
:1030E000807F09F054C0561314C0431312C0FE2C45
:1030F000E1100FC02F7020612093BC010E94941733
:1031000087EB91E00E94DF168091BC01F801858376
:103110005CC1CD2831F05F3F31F481E04F3F19F4BD
:1031200003C081E001C080E080FD03C081E08E2506
:1031300002C080E090E0F82FF170FF2E80FF1CC0ED
:10314000809185012091860136E0821709F41AC129
:1031500090E0389FF001399FF00D1124E957FE4FA0
:103160006181561306C06081461303C06281E61276
:1031700003C001968770E9CFFE2CEE2009F425C12B
:103180008091BC0181608093BC01F12C1EC156135B
:1031900009C0431307C0E11005C08091BC01F801CC
:1031A0008583A4C04D875E878D859E850E944F17BD
:1031B000882379F1EE2069F12091BC01822F82955C
:1031C0008F7090E0029774F08091B7019091B801F0
:1031D00098878F831986DB86CA862C87CE0107964F
:1031E0000E94DF1686E0F801A7EBB1E001900D9296
:1031F0008A95E1F70E94A2170E9494170DC05617F6
:1032000071F04D875E878D859E850E944F178111D5
:103210001AC0C8010E94DF16FF24F394D6C04313DE
:10322000F0CFE110EECF8091BC01F8018583C80199
:103230000E94DF1686E0E7EBF1E0DF011D928A9540
:10324000E9F7FA2CC2C0EE2021F32091BC01822FB5
:1032500082958F7090E002972CF28091B701909147
:10326000B8019A8389831B82DD82CC822E83CE01B2
:103270000196B6CFC816D90628F0F601E81BF90B5F
:10328000CF0104C0809590958C0D9D1D883C9105C3
:1032900048F0F12C7C2DD98AC88A6E2D89890E942C
:1032A00054174AC0FE2CEE2009F4B3CF561333C096
:1032B000431331C02091BC0120FD24C0822F829590
:1032C0008F70482F50E041155105E1F0D801159657
:1032D0002C9315974F30510549F08F5F982F929599
:1032E000907F822F8F70892B15968C93C8010E9436
:1032F000DF1686E0F801A7EBB1E001900D928A9508
:10330000E1F73DC086E0F801A7EBB1E001900D9236
:103310008A95E1F75AC04D875E878D859E850E940C
:103320004F1781115FCF8091BC0181608093BC01F8
:10333000C8010E94DF1649C0E7EBF1E086E0DF013B
:103340001D928A95E9F71BC0EE2009F462CF4D87E4
:103350005E878D859E850E944F17F82E882309F47D
:1033600058CF86E0F801A7EBB1E001900D928A9565
:10337000E1F787EB91E00E94E5120E94A2170E94FC
:10338000941723C04D875E878D859E850E94CB1C38
:10339000292F22952F70223028F49F7039F0811147
:1033A00005C00BC0243028F49F7049F4805E88303B
:1033B00020F0C8010E94DF16BF2CFB2C06C0D801EC
:1033C00015969C91907F91F7F8CF8F2D61960FB64F
:1033D000F894DEBF0FBECDBFDF91CF911F910F914B
:1033E000FF90EF90DF90CF90BF90AF9008951F9324
:1033F000CF93DF93CDB7DEB72C970FB6F894DEBF2F
:103400000FBECDBF4F83588769877A878B879C878C
:10341000CE0107960E940A188823D1F09F818885E3
:103420002A853B85232B31F08F3F31F481E09F3F8C
:1034300019F403C081E001C080E080FD47C04F81E6
:10344000588569857A858B859C850E9463173EC067
:1034500086E0FE013796DE01119601900D928A9565
:10346000E1F7FF81E8856A857B856115710531F09B
:10347000EF3F31F481E0FF3F19F403C081E001C068
:1034800080E080FD23C02091860130E0C9010196D3
:10349000877099274091850150E084179507F1F1D5
:1034A000F983EA837D836C8396E0929FD001939F9A
:1034B000B00D1124A957BE4FFE01319601900D9217
:1034C0009A95E1F7809386010E94731716E0809128
:1034D000850190918601891771F1189FC00111240F
:1034E00089579E4F0E940A18882329F1E09185018F
:1034F0001E9FF0011124E957FE4F408151816281E6
:103500007381848195810E9463178091850190E089
:1035100001968770992780938501D9CF0E9427173C
:103520001092860110928501E7EBF1E086E0DF0161
:103530001D928A95E9F72C960FB6F894DEBF0FBE60
:10354000CDBFDF91CF911F910895EF92FF920F931E
:103550001F93CF93DF938C01892B09F46CC0F12C5E
:10356000EE24E394E8012196F8018491843740F435
:10357000843008F051C0813081F0823019F15BC095
:10358000853709F444C0A8F19CE7980F903708F0FC
:1035900052C08F770E94091441C00E5F1F4FFE0179
:1035A000849190E2980F983050F48770FE2D01C0FE
:1035B000FF0F8A95EAF78F2F0E942D1D14C00E94DD
:1035C000EB122DC00E5F1F4FFE01849190E2980F09
:1035D000983060F48770FE2D01C0FF0F8A95EAF7DE
:1035E0008F2F0E94331D0E94581D19C00E9409147C
:1035F00016C00E5F1F4FFE01C491CC2381F08FE9EE
:103600009FE00197F1F700C00000C150F6CF0E5FB8
:103610001F4FFE01F49003C00E94EB128E018F2D0C
:10362000882309F49FCFEFE9FFE03197F1F700C05D
:1036300000008150F5CFDF91CF911F910F91FF9046
:10364000EF900895089508950C94231B0C94241B67
:103650000E94261B6093F3017093F4018093F5019F
:103660009093F6010C940D170C94281B0F931F9345
:103670000091F3011091F4012091F5013091F601D0
:10368000602B712B822B932B1F910F910C94281B75
:103690000F931F930091F3011091F4012091F50114
:1036A0003091F60160237123822393231F910F91A0
:1036B0000C94281B0F931F930091F3011091F401B8
:1036C0002091F5013091F601602771278227932719
:1036D0001F910F910C94281B0C94231B0E946C1BB0
:1036E0006093EF017093F0018093F1019093F201E8
:1036F0000C940D1760E070E0CB010C946E1B0F93DF
:103700001F9341E050E060E070E08A019B0104C03B
:10371000000F111F221F331F8A95D2F7C901B8016C
:103720001F910F910C946E1B0F931F9341E050E07B
:1037300060E070E004C0440F551F661F771F8A9534
:10374000D2F78091EF019091F001A091F101B09139
:10375000F2018A019B01082B192B2A2B3B2BC90153
:10376000B8011F910F910C946E1B0F931F9341E0B2
:1037700050E060E070E004C0440F551F661F771FE3
:103780008A95D2F740955095609570958091EF019C
:103790009091F001A091F101B091F2018A019B0199
:1037A000082319232A233B23C901B8011F910F9134
:1037B0000C946E1B0F931F9341E050E060E070E0AB
:1037C00004C0440F551F661F771F8A95D2F780915A
:1037D000EF019091F001A091F101B091F2018A0105
:1037E0009B01082719272A273B27C901B8011F91E8
:1037F0000F910C946E1B0F931F930091EF0110918A
:10380000F0012091F1013091F201602B712B822B9C
:10381000932B1F910F910C946E1B0F931F9300918C
:10382000EF011091F0012091F1013091F20160233C
:103830007123822393231F910F910C946E1B0F937E
:103840001F930091EF011091F0012091F10130914F
:10385000F20160277127822793271F910F910C9403
:103860006E1B08952FE0929F800D1124E82FE6959E
:10387000E695E695877051E001C0550F8A95EAF705
:1038800085E0E89FF0011124E354FE4F20E030E092
:1038900070E04081CB01022E02C0969587950A9474
:1038A000E2F78170819584278523842781932F5F98
:1038B0003F4F2530310569F708952FE0929F800D25
:1038C0001124682F669566956695982F977085E008
:1038D000689FB001112440E050E080E0FB01E40F5C
:1038E000F51FE354FE4F208130E0092E02C03695CB
:1038F00027950A94E2F721703327042E01C0220F86
:103900000A94EAF7822B4F5F5F4F4530510531F73C
:103910000895BF92CF92DF92EF92FF920F931F9381
:10392000CF93DF938C01C090EF01D090F001E09035
:10393000F101F090F2018091F3019091F401A091D6
:10394000F501B091F601C82AD92AEA2AFB2ACFE16B
:10395000D0E0D701C6010C2E04C0B695A795979567
:1039600087950A94D2F780FD04C0219790F7B12C77
:1039700007C0BC2EB8018C2F0E9416070197A9F32F
:103980008B2DDF91CF911F910F91FF90EF90DF90E2
:10399000CF90BF900895CF93DF93EC010E94891CD4
:1039A000BE010E941607DF91CF9108951F93CF9318
:1039B000DF93EB0190918401992321F0CB010E94C8
:1039C000CB1C13C0882349F0CB010E94891C182FFF
:1039D000682FCE010E94321C04C0CB010E945D1CE6
:1039E000182FBE01812F0E941607DF91CF911F91E2
:1039F00008958091F7018595859585950895809125
:103A0000F701877008959091F701977081E009F4AC
:103A100080E0089580911B02089590911B02892BEC
:103A200080931B020895809590911B0289238093B7
:103A30001B02089510921B02089590911A02892B7F
:103A400080931A020895809590911A028923809399
:103A50001A02089510921A02089590911902892B62
:103A6000809319020895809590911902892380937B
:103A7000190208951092190208958091F80108958D
:103A800008950C94401D0C94411D9091F8019817D5
:103A900021F08093F8010C94431D08958091F80162
:103AA000882329F01092F80180E00C94431D0895BA
:103AB000E0910D01F0910E0180911B028083E09155
:103AC0000D01F0910E01908180911A02892B808363
:103AD000E0910D01F0910E01908180911902892BE6
:103AE00080838091F801882381F0E0910D01F091AD
:103AF0000E019081892B808380910D0190910E01A0
:103B00000E943C1E81110E944E1D80910D019091DA
:103B10000E010C9484110C94401D98E0899F900133
:103B20001124262B2093F7010E94941B8091F7010A
:103B30008595859585950C948B1D1092F70180E0F5
:103B40000C948B1D2091F701809582238093F701BF
:103B5000982F977079F430E0482F082E000C550B01
:103B60002417350739F08595859585950E94B51BF5
:103B70000C949D1D089580E090E00E94242E21E089
:103B80008D3E9E4F09F020E0822F089582E090E064
:103B90000C94162E682F82E090E00C942A2E83E07D
:103BA00090E00C94162E682F83E090E00C942A2E5F
:103BB00084E090E00C94162E682F84E090E00C9442
:103BC0002A2EAB01BC018FE090E00C943C2EAB019F
:103BD000BC0183E190E00C943C2E60E070E0CB01EE
:103BE0000C94E71D60E070E0CB010E94E11D0C9495
:103BF000ED1D6DEE7EEF80E090E00E94482E60E0CB
:103C000082E090E00E942A2E60E083E090E00E9433
:103C10002A2E1092F3011092F4011092F5011092E5
:103C2000F60160E084E090E00E942A2E60E085E0EA
:103C300090E00E942A2E60E086E090E00E942A2E0A
:103C40006FEF87E090E00E942A2E40E050E0BA013A
:103C500088E090E00E943C2E60E08DE090E00E94C1
:103C60002A2E40E050E0BA0188E190E00E943C2E0C
:103C70000C94F21D0C94F91DFC01329680911F01E9
:103C8000882331F08091860287FF02C09EE101C047
:103C900096E080E0915028F021912223D9F38F5FA4
:103CA000F9CF08959C01FC0132969FEF80E041918D
:103CB000461789F09F3F19F4411101C0982F8F5F7B
:103CC0008630A9F79F3F39F0F901E90FF11D97FD03
:103CD000FA956283089508959C012A5F3F4FFC0185
:103CE0004281461301C01282019682179307B9F7E9
:103CF0000895262F2695269526952E3168F4FC01E9
:103D0000E20FF11D677021E030E001C0220F6A95DB
:103D1000EAF78281282B22830895262F269526955F
:103D200026952E3170F4FC01E20FF11D677021E041
:103D300030E001C0220F6A95EAF72095828128239E
:103D40002283089520911F01222329F020918602C9
:103D500027FD0C94791E0C94521E20911F012223E2
:103D600029F02091860227FD0C948D1E0C946C1E68
:103D700020911F01FC013296222331F080918602AE
:103D800087FF02C08EE101C086E0DF011D928A95A7
:103D9000E9F7089508950C94CA1E0C94CA1ECF9397
:103DA0000E94CD1E0E94C1090E94CB1EC0E08C2F34
:103DB0000E94600A892B29F4CF5FC530C1F780E0EB
:103DC00001C081E0CF9108950C94CA1E0C94E41EAA
:103DD0000E94E61E80918C02843049F110921D02EF
:103DE00020E488E190E00FB6F894A89580936000F5
:103DF0000FBE2093600080E00E9468040E94E61ECF
:103E000083B7817F846083BF83B7816083BF7894E9
:103E1000889583B78E7F83BF0FB6F894A89580915D
:103E20006000886180936000109260000FBE08956A
:103E30000C94CA1E0E9427170E9478110E946804E1
:103E40000C94181F1F920F920FB60F9211248F938C
:103E50009F93AF93BF9380911D02811113C08091F6
:103E6000820290918302A0918402B09185024196D2
:103E7000A11DB11D8093820290938302A0938402BE
:103E8000B0938502BF91AF919F918F910F900FBE1C
:103E90000F901F90189582E084BD93E095BD9AEF36
:103EA00097BD80936E0008952FB7F8948091820299
:103EB00090918302A0918402B09185022FBF089552
:103EC000CF92DF92EF92FF920F931F932FB7F89448
:103ED0004091820250918302609184027091850228
:103EE0002FBF6A017B01EE24FF248C0120E030E02B
:103EF000C016D106E206F30610F4415051099A01AA
:103F0000281B390BC9011F910F91FF90EF90DF9093
:103F1000CF90089578941F920F920FB60F921124AC
:103F20008F939F93AF93BF9380918202909183026E
:103F3000A0918402B09185020196A11DB11D8093CC
:103F4000820290938302A0938402B0938502BF9172
:103F5000AF919F918F910F900FBE0F901F9018956A
:103F600081E08093E00080E28093D8001092C90045
:103F70008FE19EE40197F1F700C0000087E090EB2D
:103F8000DC018093950290939602A0939702B093E0
:103F900098029CE088E10FB6F894A89580936000A1
:103FA0000FBE90936000FFCFAF92BF92CF92DF928F
:103FB000EF92FF920F931F93CF93C0E0CC24C39452
:103FC000D12CE82EF12C8C2F0E94600A5C0100E0BD
:103FD00010E0C601002E02C0880F991F0A94E2F774
:103FE0008A219B21892B31F40F5F1F4F0F30110560
:103FF00081F70AC0602F7C2F80E00E94FB06E81644
:10400000F90691F781E004C0CF5FC530E1F680E0AA
:10401000CF911F910F91FF90EF90DF90CF90BF90C5
:10402000AF900895CF93C82F8CE20E94D41F8823AD
:1040300021F08C2FCF910C94D41F80E0CF91089564
:10404000CF930E94BB1D811102C00E943A1EC5E69B
:10405000C15049F00E94C1098FE39CE90197F1F733
:1040600000C00000F5CF89E20E94122081110FC12B
:104070008AE20E94122081110E943A1E85E00E946D
:10408000122081110E94B01F0E94C61D80931C0245
:1040900087E00E9412208823A9F18BE10E94122060
:1040A000882351F080911C0281FB222720F991E0A6
:1040B000922790FB81F90EC08EE00E941220882387
:1040C00061F080911C0282FB222720F991E0922767
:1040D00090FB82F980931C0215C080E10E9412209F
:1040E00090911C02882341F093FB222720F981E064
:1040F000822780FB93F904C0892F809580FB90F97B
:1041000090931C0280911C020E94CA1D0E94D81D1F
:1041100090E0909387028093860280EE0E941220A6
:10412000882341F080918602982F909590FB80F92A
:104130008093860289E30E941220882359F080919F
:10414000860281FB222720F991E0922790FB81F9DA
:104150008093860282EE0E941220882359F080917B
:10416000860282FB222720F991E0922790FB82F9B8
:104170008093860286EE0E941220882359F0809157
:10418000860283FB222720F991E0922790FB83F996
:104190008093860283EE0E941220882359F080913A
:1041A000860284FB222720F991E0922790FB84F974
:1041B0008093860285E30E941220882359F0809123
:1041C000860285FB222720F991E0922790FB85F952
:1041D0008093860281E30E941220882359F0809107
:1041E000860286FB222720F991E0922790FB86F930
:1041F0008093860281E10E941220882359F08091E9
:10420000860287FB222720F991E0922790FB87F90D
:1042100080938602809186020E94DC1D87E20E94C4
:104220001220C82F8EE10E9412208111C2608FE1FE
:104230000E9412208111C46080E20E94122081112C
:10424000C86081E20E9412208111C06182E20E9456
:1042500012208111C06283E20E9412208111C06489
:1042600084E20E941220882311F0C06802C0CC238F
:1042700029F08C2F0E94D31D6C2F03C00E94CF1DEC
:10428000682F70E080E090E0CF910C94341BCF91C8
:1042900008958091200280FF0BC06091120185E09B
:1042A000689FB001112475956795759567952BC02A
:1042B00081FF09C06091120185E0689FB00111245F
:1042C0007595679520C082FF07C06091120185E057
:1042D000689FB001112417C0909121029923D1F059
:1042E00060911101961788F72091120185E0289FAF
:1042F00090011124929FA001939F500D112470E012
:10430000CA010E94EF2D6038710540F461157105F6
:1043100019F406C065E070E0862F08958FE70895D0
:1043200081E008958091200280FF08C06091100113
:1043300070E0759567957595679521C081FF06C0FA
:104340006091100170E07595679519C082FF04C0F7
:104350006091100170E010C090912102992399F0B2
:1043600060910F019617A0F780911001899FC001FD
:10437000112470E00E94EF2D6038710540F4611542
:10438000710519F406C061E070E0862F08958FE78B
:10439000089581E00895803F21F40E94492181958C
:1043A00004C0813F29F40E94492180932502089589
:1043B000823F21F40E944921819504C0833F29F462
:1043C0000E944921809324020895893F19F40E9494
:1043D000922105C08A3F31F40E94922181958093F9
:1043E000260208958B3F21F40E949221819504C0FA
:1043F0008C3F29F40E949221809327020895843FE4
:1044000021F480912302816017C0853F21F48091BF
:104410002302826011C0863F21F4809123028460D0
:104420000BC0873F21F480912302886005C0883F3C
:1044300031F48091230280618093230208958D3F9F
:1044400021F48091200281600BC08E3F21F4809185
:104450002002826005C08F3F29F480912002846091
:10446000809320020895803F39F48091250287FFD0
:104470006CC01092250269C0813F29F48091250209
:104480001816BCF362C090912402823F29F497FF72
:104490005CC01092240259C0833F19F41916CCF362
:1044A00054C0893F41F48091260218160CF04DC08B
:1044B000109226024AC08A3F29F48091260287FF83
:1044C00044C0F6CF8B3F39F48091270287FF3DC06F
:1044D000109227023AC08C3F29F4809127021816C7
:1044E000BCF333C0843F21F4809123028E7F17C038
:1044F000853F21F4809123028D7F11C0863F21F4F6
:10450000809123028B7F0BC0873F21F4809123028F
:10451000877F05C0883F31F4809123028F7E80938E
:10452000230213C08D3F21F4809120028E7F0BC0A7
:104530008E3F21F4809120028D7F05C08F3F29F4AA
:10454000809120028B7F8093200280912402811130
:104550000EC08091250281110AC08091260281112E
:1045600006C080912702811102C010922102089595
:1045700082E292E00E949E110E94541F90931F02BB
:1045800080931E0208951F93CF93DF9380911E02A4
:1045900090911F020E94601FAC019091210299230B
:1045A00021F02091130130E006C0209114018AE02F
:1045B000289F900111244217530708F477C0809177
:1045C0002402C0912502D091260210912702811168
:1045D00007C0C11167C0D11165C0111163C066C0A9
:1045E0009F3F19F09F5F90932102181624F40E94B8
:1045F0004921809324028091240287FF05C00E94F4
:1046000049218195809324021C1624F40E9449219B
:10461000809325028091250287FF05C00E944921D1
:10462000819580932502309124023323C1F020919B
:1046300025022223A1F045EB3403C0011124892F68
:10464000911101C081E08093240235EB2303C00166
:104650001124892F911101C081E0809325021D163C
:1046600024F40E949221809326028091260287FFE3
:1046700005C00E949221819580932602111624F490
:104680000E949221809327028091270287FF05C014
:104690000E949221819580932702DF91CF911F91F3
:1046A0000C94B8229F3F09F09DCFAECFDF91CF9100
:1046B0001F910895E2E2F2E086E0DF011D928A9503
:1046C000E9F7109221021092200208958091480289
:1046D00008950F931F93CF93DF9300D01F92CDB710
:1046E000DEB78C010E94D725823011F0843021F58D
:1046F00084E089831B830A8382E08093E9008FEF43
:104700009091E800815095FD06C095ED9A95F1F7DE
:1047100000008111F5CF8091E80085FF0DC040E0D9
:1047200050E063E070E0CE0101960E94F425809194
:10473000E8008E778093E8000F900F900F90DF9144
:10474000CF911F910F910895CF93DF9300D01F92C7
:10475000CDB7DEB720918C02243031F523E02983D8
:10476000805891099B838A8382E08093E9008FEFD0
:104770009091E800815095FD06C095ED9A95F1F76E
:1047800000008111F5CF8091E80085FF0DC040E069
:1047900050E063E070E0CE0101960E94F425809124
:1047A000E8008E778093E8000F900F900F90DF91D4
:1047B000CF910895CF93DF93EC010E94D7258230EB
:1047C00011F08430F9F482E08093E9008FEF90914A
:1047D000E800815095FD06C095ED9A95F1F700002F
:1047E0008111F5CF8091E80085FF0CC040E050E0DA
:1047F00066E070E0CE010E94F4258091E8008E779B
:104800008093E800DF91CF910895CF93DF93EC017F
:104810000E94D725823011F08430D9F580911F0194
:10482000882339F08091860287FF03C060E282E02E
:1048300002C068E081E08093E9008FEF9091E8008A
:10484000815095FD06C095ED9A95F1F70000811114
:10485000F5CF8091E80085FF1CC080911F01811178
:1048600005C040E050E068E070E003C070E040E068
:1048700050E0CE010E94F4258091E8008E7780936D
:10488000E80080E2FE01A8E2B2E001900D928A9574
:10489000E1F7DF91CF91089580918B02811109C0DA
:1048A0000E9485270E94E2278091E2008460809325
:1048B000E200089510928B020895089508950C94D3
:1048C0001A1F42E061EC81E00E94FE2642E261ECA8
:1048D00082E00C94FE2680918E02833009F460C041
:1048E00030F4813071F0823009F499C008958A3033
:1048F00009F485C08B3009F46BC0893009F0A7C07A
:1049000020C080918D02813A09F0A1C08091E80019
:10491000877F8093E8008091910290919202892B89
:1049200021F460E288E292E003C060E080E090E081
:1049300070E00E943F268091E8008B778093E8002A
:10494000089580918D02813209F081C08091910299
:1049500090919202029708F07AC08091E800877FD8
:104960008093E8008091E80082FD05C080918C0270
:104970008111F8CF6CC02091F3008091F20090E09B
:10498000922B029729F48091F1008B7F813021F4E2
:104990008091F100809348028091E8008B7753C0AA
:1049A00080918D02813A09F052C0809191029091DC
:1049B0009202892B09F04BC08091E800877F809399
:1049C000E8008091E80080FFFCCF80911F0136C095
:1049D00080918D028132D9F580919102909192025D
:1049E000892BA9F58091E800877F8093E8000E94D9
:1049F000332780918F0280931F010C942717809199
:104A00008D02813221F58091E800877F8093E80054
:104A10000E943327809190028093490208958091EB
:104A20008D02813AA1F48091E800877F8093E800AD
:104A30008091E80080FFFCCF809149028093F100D3
:104A40008091E8008E778093E8000C9433270895D6
:104A500084B7877F84BF0FB6F894A89580916000D3
:104A6000886180936000109260000FBE80E88093A0
:104A70006100109261000E94E8110E9485270E9447
:104A8000E2278091E20084608093E20078940E94A3
:104A9000772A0E94F01185E191E00E9473118091C4
:104AA0008C02853069F40E94E81E80918A02882376
:104AB000B1F30E94CF1E882391F30E94DE25EFCF31
:104AC0000E94FA110E94FE10EACF0C946725292F4C
:104AD000332723303105C9F060F42130310581F0EE
:104AE0002230310509F04AC08BE390E022EE35E038
:104AF00049C02132310511F12232310579F13EC030
:104B000082E190E02DE136E03DC0992781309105AA
:104B100061F040F08230910559F0039779F5EAEBA6
:104B2000F5E008C0EEEDF5E005C0ECECF5E002C004
:104B3000E0ECF5E0849190E09F0124C061157105DF
:104B400041F061307105D1F489E090E02DE036E06C
:104B500019C089E090E024EF35E014C061157105BB
:104B600041F06130710551F480EC90E02FE236E0C5
:104B700009C080E490E02FEE36E004C080E090E0D1
:104B800020E030E0FA013183208308950895CF9327
:104B9000C82F0E94C625C0934A02CF9108958091E4
:104BA0008C02843011F081E0089582E008958091B4
:104BB0004A02811102C00C94CF25089580E189BD7D
:104BC00082E189BD09B400FEFDCF8091D8008F7DC0
:104BD0008093D8008091E00082608093E000809113
:104BE000E00081FDFCCF0895CF92DF92EF92FF921B
:104BF0000F931F93CF93DF93EC018B017A010E94F7
:104C00005227811133C0E114F10439F0F70180819A
:104C10009181081B190BC80FD91FC12CD12C01156C
:104C2000110519F18091E80085FD16C08091E8001A
:104C30008E778093E800E114F10449F0F701808158
:104C40009181C80ED91ED182C08285E00FC00E941A
:104C50005227882321F30AC089918093F1000150E3
:104C60001109FFEFCF1ADF0ADACF80E0DF91CF9191
:104C70001F910F91FF90EF90DF90CF9008952091BA
:104C80009302309194022617370748F06115710599
:104C900039F42091E8002E772093E80001C0B90193
:104CA000FC0120E06115710579F180918C02882367
:104CB000F1F18530F1F18091E80083FD3CC08091F5
:104CC000E80082FD2EC08091E80080FFEBCF2091AC
:104CD000F3008091F20090E0922B6115710551F084
:104CE0008830910538F421912093F10061507109C9
:104CF0000196F3CF21E0089709F020E08091E800C9
:104D00008E778093E800CECF2111CFCF0AC080915B
:104D10008C02882361F0853061F08091E80083FD8A
:104D20000AC08091E80082FFF2CF80E0089582E01F
:104D3000089583E0089581E00895209193023091D1
:104D400094022617370748F06115710539F4209150
:104D5000E8002E772093E80001C0B901FC0120E0B3
:104D60006115710591F180918C02882309F440C08E
:104D7000853009F43FC08091E80083FD3DC08091FB
:104D8000E80082FD2FC08091E80080FFE9CF2091EC
:104D9000F3008091F20090E0922B6115710559F0BB
:104DA0008830910540F424912093F10031966150B0
:104DB00071090196F2CF21E0089709F020E0809177
:104DC000E8008E778093E800CBCF2111CCCF0AC0CA
:104DD00080918C02882361F0853061F08091E80039
:104DE00083FD0AC08091E80082FFF2CF80E0089541
:104DF00082E0089583E0089581E00895982F973028
:104E000068F59093E900981739F07091EC002091C3
:104E1000ED005091F00003C0242F762F50E021FDCB
:104E200002C09F5FECCF3091EB003E7F3093EB00F0
:104E30003091ED003D7F3093ED003091EB0031601B
:104E40003093EB007093EC002093ED005093F00052
:104E50002091EE0027FDE5CF80E008958F708093CC
:104E6000E90081E0089580918D0287FF11C0809153
:104E7000E80082FD05C080918C028111F8CF11C03D
:104E80008091E8008B770BC080918C02882349F0D9
:104E90008091E80080FFF8CF8091E8008E778093C2
:104EA000E80008952091E4003091E50095E64091F6
:104EB000EC00842F817040FF23C08091E80080FDCA
:104EC0001DC080918C02882399F0853099F08091E3
:104ED000EB0085FD11C04091E4005091E5002417DE
:104EE000350729F3915011F09A01E1CF84E008953C
:104EF00082E0089583E0089581E0089580E00895B8
:104F00004091E80042FFDDCF08950E94F3270E9400
:104F1000FB27E0EEF0E0808181608083E8EDF0E047
:104F200080818F77808319BCA7EDB0E08C918E7F54
:104F30008C9380818F7E808310928B0208950F93D3
:104F40001F93CF93DF930E94F3270E94FB27C8EDA6
:104F5000D0E088818F778883888180688883888182
:104F60008F7D888319BC10928C0210928802109257
:104F70008A021092890200EE10E0F80180818B7F96
:104F8000808388818160888342E060E080E00E94C5
:104F9000FE26E1EEF0E080818E7F8083E2EEF0E09D
:104FA000808181608083808188608083F801808136
:104FB0008E7F8083888180618883DF91CF911F916C
:104FC0000F910895E8EDF0E080818F7E8083E7ED1A
:104FD000F0E080818160808384E082BF81E0809303
:104FE0008B020C949F27E8EDF0E080818E7F808318
:104FF0001092E20008951092DA001092E1000895F4
:105000001F920F920FB60F9211242F933F934F933D
:105010005F936F937F938F939F93AF93BF93EF9320
:10502000FF938091E10082FF0BC08091E20082FF3C
:1050300007C08091E1008B7F8093E1000E94762A77
:105040008091DA0080FF1FC08091D80080FF1BC0D4
:105050008091DA008E7F8093DA008091D90080FF02
:105060000DC080E189BD82E189BD09B400FEFDCF9C
:1050700081E080938C020E944C2405C019BC1092E0
:105080008C020E945A248091E10080FF19C0809117
:10509000E20080FF15C08091E2008E7F8093E200E5
:1050A0008091E20080618093E2008091D80080626C
:1050B0008093D80019BC85E080938C020E945E2406
:1050C0008091E10084FF30C08091E20084FF2CC019
:1050D00080E189BD82E189BD09B400FEFDCF8091E8
:1050E000D8008F7D8093D8008091E1008F7E8093DF
:1050F000E1008091E2008F7E8093E2008091E200E7
:1051000081608093E20080918802882311F084E01E
:1051100007C08091E30087FD02C081E001C083E009
:1051200080938C020E945F248091E10083FF29C05C
:105130008091E20083FF25C08091E100877F80930A
:10514000E10082E080938C02109288028091E1005D
:105150008E7F8093E1008091E2008E7F8093E20059
:105160008091E20080618093E20042E060E080E0B4
:105170000E94FE268091F00088608093F0000E94DB
:105180005D24FF91EF91BF91AF919F918F917F919E
:105190006F915F914F913F912F910F900FBE0F90A4
:1051A0001F9018951F920F920FB60F9211242F93F4
:1051B0003F934F935F936F937F938F939F93AF939F
:1051C000BF93CF93DF93EF93FF93C091E900CF702C
:1051D0008091EC00D82FD17080FDD0E81092E900CA
:1051E0008091F000877F8093F00078940E941629C8
:1051F0001092E9008091F00088608093F000CD2B40
:10520000CF70C093E900FF91EF91DF91CF91BF91F3
:10521000AF919F918F917F916F915F914F913F914E
:105220002F910F900FBE0F901F9018951F93CF9343
:10523000DF93CDB7DEB7AA970FB6F894DEBF0FBEE7
:10524000CDBFEDE8F2E08091F100819322E0E539F5
:10525000F207C9F70E946B248091E80083FF2EC1FA
:1052600080918D0290918E02492F50E04A30510575
:1052700008F024C1FA01E556FF4F0C94032E803844
:1052800021F0823809F01AC108C0809189029091FA
:105290008A02992389F082600FC0809191028F70F9
:1052A000873008F00BC18093E9008091EB0085FB0B
:1052B000882780F91092E9009091E800977F9093F9
:1052C000E8008093F1001092F100D1C0282F2D7FCB
:1052D00009F0F4C0882319F0823061F0EFC08091AA
:1052E0008F02813009F0EAC0933009F080E08093AA
:1052F0008A022EC080918F0281112AC08091910272
:105300008F702FEF280F263008F0D8C08093E90067
:105310002091EB0020FF1CC0933021F48091EB0022
:10532000806214C09091EB0090619093EB0021E0BB
:1053300030E0A90102C0440F551F8A95E2F740935F
:10534000EA001092EA008091EB0088608093EB0005
:105350001092E9008091E800877F8093E8000E9426
:105360003327ACC08111AAC010918F021F778091A2
:10537000E3008078812B8093E3008091E800877FB1
:105380008093E8000E9433278091E80080FFFCCFE3
:105390008091E30080688093E300111102C082E0F5
:1053A00001C083E080938C0289C08058823008F06D
:1053B00085C080918F02909190028C3D53E09507BB
:1053C00079F583E08A838AE289834FB7F894DE0116
:1053D000139620E03EE051E2E32FF0E050935700B7
:1053E000E49120FF03C0E295EF703F5FEF708E2FD6
:1053F00090E0EA3010F0C79601C0C0968D939D935F
:105400002F5F243149F74FBF8091E800877F809359
:10541000E8006AE270E0CE0101960E943F2616C0C5
:105420006091910270919202AE014F5F5F4F0E94B6
:105430006525BC01892B09F441C09091E800977F54
:105440009093E80089819A810E949D268091E800CE
:105450008B778093E80032C0803881F58091E80036
:10546000877F8093E800809188028093F10080918B
:10547000E8008E7772CF811121C080918F029091C8
:10548000900299270297D4F48091E800877F809357
:10549000E80080918F02809388020E9433278091D8
:1054A0008802811106C08091E30087FD02C081E07F
:1054B00001C084E080938C020E9461248091E80006
:1054C00083FF0AC08091E800877F8093E800809185
:1054D000EB0080628093EB00AA960FB6F894DEBFD3
:1054E0000FBECDBFDF91CF911F9108950895CF9347
:1054F00080918C028823A1F0C091E900CF70909137
:10550000EC00892F817090FD80E8C82B1092E90093
:105510008091E80083FD0E941629CF70C093E900B6
:10552000CF9108955058BB27AA270E94AA2A0C940D
:10553000552C0E94472C38F00E944E2C20F039F454
:105540009F3F19F426F40C941D2C0EF4E095E7FB14
:105550000C94172CE92F0E94662C58F3BA17620797
:1055600073078407950720F079F4A6F50C94882C2E
:105570000EF4E0950B2EBA2FA02D0B01B90190016E
:105580000C01CA01A0011124FF27591B99F0593FB2
:1055900050F4503E68F11A16F040A22F232F342FFA
:1055A0004427585FF3CF469537952795A795F04048
:1055B0005395C9F77EF41F16BA0B620B730B840B5D
:1055C000BAF09150A1F0FF0FBB1F661F771F881F15
:1055D000C2F70EC0BA0F621F731F841F48F487956D
:1055E00077956795B795F7959E3F08F0B0CF93955F
:1055F000880F08F09927EE0F9795879508950E94D8
:10560000132B0C94552C0E944E2C58F00E94472CC2
:1056100040F029F45F3F29F00C94172C51110C94A1
:10562000892C0C941D2C0E94662C68F39923B1F3ED
:10563000552391F3951B550BBB27AA2762177307B8
:10564000840738F09F5F5F4F220F331F441FAA1F4C
:10565000A9F335D00E2E3AF0E0E832D09150504008
:10566000E695001CCAF72BD0FE2F29D0660F771FB6
:10567000881FBB1F261737074807AB07B0E809F09C
:10568000BB0B802DBF01FF2793585F4F3AF09E3F21
:10569000510578F00C94172C0C94892C5F3FE4F39F
:1056A000983ED4F3869577956795B795F7959F5F64
:1056B000C9F7880F911D9695879597F90895E1E0B0
:1056C000660F771F881FBB1F621773078407BA070F
:1056D00020F0621B730B840BBA0BEE1F88F7E0956A
:1056E000089529F416F00C94172C0C94882C0C9423
:1056F0001D2C0E946E2CA8F39638A0F707F80F9285
:10570000E8942BE33AEA48EB5FE70E941B2D0F92E7
:105710000F920F924DB75EB70F920E94D12CEAE420
:10572000F1E00E94202C4F915F91EF91FF91E59560
:10573000EE1FFF1F49F0FE57E0684427EE0F441F9D
:10574000FA95E1F74195550B0E949B2C0F9007FEAF
:105750000C948F2C08950E946E2C88F09F5798F01F
:10576000B92F9927B751B0F0E1F0660F771F881F66
:10577000991F1AF0BA95C9F714C0B13091F00E9480
:10578000882CB1E008950C94882C672F782F8827F7
:10579000B85F39F0B93FCCF3869577956795B395A7
:1057A000D9F73EF490958095709561957F4F8F4F16
:1057B0009F4F0895E89409C097FB3EF4909580951B
:1057C000709561957F4F8F4F9F4F9923A9F0F92FC7
:1057D00096E9BB279395F695879577956795B79545
:1057E000F111F8CFFAF4BB0F11F460FF1BC06F5F2B
:1057F0007F4F8F4F9F4F16C0882311F096E911C03D
:10580000772321F09EE8872F762F05C0662371F05D
:1058100096E8862F70E060E02AF09A95660F771F71
:10582000881FDAF7880F9695879597F9089597F965
:105830009F6780E870E060E008959FEF80EC089536
:10584000DF93CF931F930F93FF92EF92DF927B0131
:105850008C01689406C0DA2EEF010E94182DFE011B
:10586000E894A5912591359145915591A6F3EF01C5
:105870000E94AA2AFE019701A801DA9469F7DF9035
:10588000EF90FF900F911F91CF91DF910895002429
:105890000A941616170618060906089500240A9495
:1058A00012161306140605060895092E0394000C1B
:1058B00011F4882352F0BB0F40F4BF2B11F460FFAA
:1058C00004C06F5F7F4F8F4F9F4F089557FD9058D3
:1058D000440F551F59F05F3F71F04795880F97FBB4
:1058E000991F61F09F3F79F087950895121613066E
:1058F0001406551FF2CF4695F1DF08C0161617069D
:105900001806991FF1CF86957105610508940895D1
:10591000E894BB2766277727CB0197F908959B0169
:10592000AC0160E070E080E89FE30C94FF2A0C94E7
:10593000172C0C947A2D0E946E2CD8F39923C9F35E
:10594000940F511DA3F39150504094F059F08823C7
:1059500032F0660F771F881F91505040C1F79E3F6D
:1059600051052CF7880F911D9695879597F9089505
:105970005F3FACF0983E9CF0BB2786957795679586
:10598000B79508F4B1609395C1F7BB0F58F711F4C0
:1059900060FFE8CF6F5F7F4F8F4F9F4FE3CF0C9437
:1059A000892CFA01DC01AA0FBB1F9B01AC01BF5778
:1059B00028F4222733274427507820C0B75190F489
:1059C000AB2F0024469537952795011CA395D2F35C
:1059D000002071F0220F331F441FB395DAF30ED06D
:1059E0000C94922A61307105A0E88A07B94630F418
:1059F0009B01AC016627772788279078309621F0A5
:105A0000208331834283538308950E94182D0C9480
:105A1000552C0E94472C38F00E944E2C20F09523E4
:105A200011F00C94172C0C941D2C11240C94892C1F
:105A30000E94662C70F3959FC1F3950F50E0551F9F
:105A4000629FF001729FBB27F00DB11D639FAA27D3
:105A5000F00DB11DAA1F649F6627B00DA11D661F22
:105A6000829F2227B00DA11D621F739FB00DA11D43
:105A7000621F839FA00D611D221F749F3327A00DFD
:105A8000611D231F849F600D211D822F762F6A2F99
:105A900011249F5750409AF0F1F088234AF0EE0FFE
:105AA000FF1FBB1F661F771F881F91505040A9F72B
:105AB0009E3F510580F00C94172C0C94892C5F3F6D
:105AC000E4F3983ED4F3869577956795B795F79567
:105AD000E7959F5FC1F7FE2B880F911D96958795DF
